:1000000066EF21F00000000000EF00F000000000AB
:0A0010000000000000000000F3D71C
:10001C000B820BAE18EF00F00368026801680068F1
:08002C000A360232FF0E120039
:0E003400026A016A006A086A036A000E12007E
:100042000B840BAE2CEF00F0010E036E026A016A04
:0A005200006A0A360232FF0E1200A7
:08005C000AAE029E000E120024
:100064000CB074EF00F00CA21AEF01F00E6A000E4F
:1000740002648BEF00F0F00E0214D8A456EF00F0E7
:10008400023A01380F0B02260138F00B016E0038DA
:100094000F0B01260038F00B006E08380F0B0026FA
:1000A4000838F00B086E0E84D89002BE6FEF00F093
:1000B40008360036013602360E2A02BE6FEF00F013
:1000C40008360036013602360E2A02BE6FEF00F003
:1000D40008360036013602360E2A0E50036410EF3D
:1000E40001F0035E0BBC08AE15EF01F0D880800E62
:1000F40008640030000E002201220222D8A015EF6D
:1001040001F0023201320032034A1AEF01F015EF16
:1001140001F001C002F000C001F008C000F0086A5C
:10012400000E0E860264C2EF00F0F00E0214D8A492
:10013400AAEF00F0023A01380F0B02260138F00B47
:10014400016E00380F0B01260038F00B006E0E8490
:10015400D89002BE6FEF00F00036013602360E2A48
:1001640002BE6FEF00F00036013602360E2A02BEE0
:100174006FEF00F00036013602360E2A6FEF00F002
:1001840001C002F000C001F0006A000E0E960E8855
:100194000264EFEF00F0F00E0214D8A4DAEF00F0DE
:1001A400023A01380F0B02260138F00B016E0E845F
:1001B400D89002BE6FEF00F0013602360E2A02BE5E
:1001C4006FEF00F0013602360E2A02BE6FEF00F028
:1001D400013602360E2A6FEF00F001C002F0016A08
:1001E400000E0E8602641FEF01F0F00E0214D8A474
:1001F400FEEF00F0023A0E84D89002BE6FEF00F0DA
:1002040002360E2A02BE6FEF00F002360E2A02BE3C
:100214006FEF00F002360E2A6FEF00F0010E0C6E45
:100224000EDF22EF01F0020E0C6E16DF22EF01F05A
:10023400040E0C6EF1DE22EF01F0080E0C6EF8DEF7
:020244001200A6
:100246000D6A086A0050D8B4000C04180A6E0ABE7B
:100256000D1E0B6A04AE02D0041E042A00AE02D0A4
:10026600001E002A005004100A6E0ABE1FD0045059
:10027600085E003600340836045008260036060E9E
:100286000C6E00340836045000B0085E00A0082644
:1002960000360C2EF6D700A008260BB015D00DAEF2
:1002A600000C001E002A081E082A000C04AE09D005
:1002B60000BE04D00050086E006AF1D7006A002A1A
:1002C600000C001E0B2AD3D7082A0450085CD8A4B9
:0E02D600E6D7086A002A00AEE2D7FF0C12003D
:1002E400086A080E0C6E003408360450085ED8B054
:0E02F40002D00826D89000360C2EF5D7120046
:100302000134083609360450085E0550D8A0053C71
:10031200095E003601360F0E0C6E013408360936BE
:10032200045000A006D0085E0550D8A0053C095E26
:1003320005D008260550D8B0053C092600360136FE
:100342000C2EEBD700B006D0045008260550D8B0CA
:08035200053C09260000120021
:10035A00086A096A000E0762036432EF02F002506B
:10036A0006180A6E075003267E0ED8A0C3EF01F0C6
:10037A00035ED8B036EF02F0C7EF01F0035ED8A0F3
:10038A003AEF02F0028E068E02C00EF001C00BF0A8
:10039A0000C00DF000500402F4CF0CF00150050229
:1003AA00F4CF00F0F3CF08F00402F3500C26F45017
:1003BA000822000E00220D500502F3500C26F450BC
:1003CA000822000E002202500402F3500826F450BC
:1003DA00002202500502016A000E0122F350002693
:1003EA00F45001220D500602F3500826F450002260
:1003FA00026A000E012202220B500602F350002666
:10040A00F4500122000E02220E500602F350012679
:10041A00F450022202BE1AEF02F008360036013604
:10042A0002360306D8B43AEF02F02DEF02F0D88074
:10043A00800E08640030000E002201220222D8A099
:10044A002DEF02F0023201320032034A36EF02F097
:10045A000AAE029E000E3CEF02F0010EE6DD3CEF12
:10046A0002F0020ED6DD3CEF02F0040EE5DD1200CA
:08047A000B6A0B86FF0E120055
:100482000B800BAE4DEF02F0026A0AAEFF0E026E57
:0C049200016E006E0A360232FF0E1200EE
:10049E00025006180E6E086A096A0B6A035007644A
:1004AE0042EF03F006500A6E068E028E03500B6E5C
:1004BE000750036E000E0B6492EF02F00B50075EB6
:1004CE00D8B433EF03F0070E076401EF03F0075EB5
:1004DE0000C008F001C000F002C001F0026A074E31
:1004EE0033EF03F00764D6EF02F0075E00C008F0AA
:1004FE0001C000F0016A074E33EF03F00764B4EF5A
:10050E0002F0075E00C008F0006A074E33EF03F0FA
:10051E0007649BEF02F00AC002F005C001F004C0B0
:10052E0000F0086A5FEF04F0030E0764A6EF02F016
:10053E00075E08380F0B086E074E33EF03F0D890A6
:10054E000832074E33EF03F0D8900832074E33EFE0
:10055E0003F0D890083233EF03F0030E0764C5EFB3
:10056E0002F0075E08380F0B086E0038F00B0826F5
:10057E0000380F0B006E074E33EF03F0D8900032A9
:10058E000832074E33EF03F0D89000320832074E90
:10059E0033EF03F0D8900032083233EF03F0030E3E
:1005AE000764EDEF02F0075E08380F0B086E003897
:1005BE00F00B082600380F0B006E0138F00B0026EA
:1005CE0001380F0B016E074E33EF03F0D890013256
:1005DE0000320832074E33EF03F0D890013200326A
:1005EE000832074E33EF03F0D89001320032083252
:1005FE0033EF03F0030E07641EEF03F0075E0838B7
:10060E000F0B086E0038F00B082600380F0B006E2B
:10061E000138F00B002601380F0B016E0238F00B7B
:10062E00012602380F0B026E074E33EF03F0D890FF
:10063E000232013200320832074E33EF03F0D89007
:10064E000232013200320832074E33EF03F0D890F7
:10065E000232013200320832096A000E0EAE27EF66
:10066E0004F0081E001E011E021E082A002201228E
:10067E00022227EF04F00750D8A448EF03F05FEFF3
:10068E0004F0096A02C00AF0028E068E0750035C5F
:10069E00076ED8B41AEF04F0070E0764E8EF03F004
:1006AE00075E0450096E0550046E0650056E066A0C
:1006BE00074E1AEF04F0070E0764BDEF03F0075E56
:1006CE000450096E0550046E056A074E1AEF04F0C9
:1006DE00070E07649BEF03F0075E0450096E046A71
:1006EE00074E1AEF04F0070E076482EF03F00AC0FC
:1006FE0002F05FEF04F0030E07648DEF03F0075E68
:10070E0009380F0B096E074E1AEF04F0D890093214
:10071E00074E1AEF04F0D8900932074E1AEF04F084
:10072E00D89009321AEF04F0030E0764ACEF03F011
:10073E00075E09380F0B096E0438F00B09260438D2
:10074E000F0B046E074E1AEF04F0D89004320932E4
:10075E00074E1AEF04F0D89004320932074E1AEF02
:10076E0004F0D890043209321AEF04F0030E076435
:10077E00D4EF03F0075E09380F0B096E0438F00B47
:10078E00092604380F0B046E0538F00B04260538C5
:10079E000F0B056E074E1AEF04F0D8900532043297
:1007AE000932074E1AEF04F0D8900532043209329E
:1007BE00074E1AEF04F0D8900532043209321AEFC0
:1007CE0004F0030E076405EF04F0075E09380F0B03
:1007DE00096E0438F00B092604380F0B046E053829
:1007EE00F00B042605380F0B056E0638F00B0526A8
:1007FE0006380F0B066E074E1AEF04F0D89006322D
:10080E00053204320932074E1AEF04F0D890063240
:10081E00053204320932074E1AEF04F0D890063230
:10082E00053204320932086A000E0EAE27EF04F0CC
:10083E00091E041E051E061E092A04220522062272
:10084E0009500826045000220550012206500222AB
:10085E000EBE3EEF04F0D8A04DEF04F0023201328E
:10086E0000320832033E4DEF04F059EF04F0D8B0D9
:10087E0053EF04F0000E081E001E011E021E082A71
:10088E000022012202220A7E53EF04F0010E0C6EAA
:10089E0032EC00F061EF04F0020E0C6E32EC00F060
:1008AE0061EF04F0040E0C6E0EEC00F061EF04F03C
:0608BE00000E0C6E12009A
:0A08C400210E0D6E0D2EFED712005E
:1008CE000F0E0C6E470E0D6E0D2EFED70C2EFCD796
:0608DE0000000000120002
:0608E400000000001200FC
:1008EA000B6A0C6A086A0350D8B4F9EF04F002C024
:1008FA000AF0028E9E0E035E03AEE9EF04F0036C6B
:10090A00080E035CD8A0B6EF04F0036E083600C0E8
:10091A0008F001C000F002C001F0026A080E035C90
:10092A00D8A0B6EF04F0036E083600C008F001C084
:10093A0000F0016A080E035CD8A0B6EF04F0036E5B
:10094A00083600C008F0006A080E035CD8A0B6EFAB
:10095A0004F0036E0836086A0350D8A4D890C2EF90
:10096A0004F00350D8B4C2EF04F0D8900232013236
:10097A0000320832032EBAEF04F00BBC08A0D3EF02
:10098A0004F0D8A0D3EF04F0082AD8B4002AD8B4C7
:10099A00012AD8B4022A02BEFDEF04F00AAEF9EF2A
:1009AA0004F0021E011E001E081E082AD8B4002ADE
:1009BA00D8B4012AD8B4022AF9EF04F0026A016A0B
:1009CA00006A086AF9EF04F00B800BAE03EF05F03A
:1009DA00026A0AAE03EF05F0026E016E006E086E3F
:1009EA000A36023203EF05F00C6A000E04EF05F036
:1009FA00010E0C6E000E40DD04EF05F0FF0E0250F2
:100A0A00036E0150026E0050016E0850006E120013
:100A1A000001AABF02D08A9401D08A84AABD02D05A
:100A2A008A9601D08A86AABB02D08A9801D08A887F
:100A3A00AAB902D08A9A01D08A8A54B002D08A8E80
:100A4A0001D08A9E8A8C49DF8A9CAAB702D08A94EE
:100A5A0001D08A84AAB502D08A9601D08A86AAB31E
:100A6A0002D08A9801D08A88AAB102D08A9A01D083
:100A7A008A8A54B002D08A8E01D08A9E8A8C2DDF4F
:0E0A8A008A9C54A002D01EDF01D017DF12009C
:100A98000B6A0A6A096A086A0E6A0334083604503F
:100AA800085E0550D8A0053C095E0650D8A0063C53
:100AB8000A5E0750D8A0073C0B5EE86AD8A0010E72
:100AC8000E5E0336070E0C6E0334083609360A36F6
:100AD8000B360E36045003A012D0085E0550D8A07D
:100AE800053C095E0650D8A0063C0A5E0750D8A00F
:100AF800073C0B5EE86AD8A0010E0E5E11D00826EE
:100B08000550D8B0053C09260650D8B0063C0A2640
:100B18000750D8B0073C0B26E86AD8B0010E0E265D
:100B280003360C2ED1D70234083609360A360B366E
:100B38000E36045003A012D0085E0550D8A0053C1C
:100B4800095E0650D8A0063C0A5E0750D8A0073CAC
:100B58000B5EE86AD8A0010E0E5E11D0082605507B
:100B6800D8B0053C09260650D8B0063C0A260750DE
:100B7800D8B0073C0B26E86AD8B0010E0E2602361C
:100B8800070E0C6E0234083609360A360B360E3656
:100B9800045002A012D0085E0550D8A0053C095E9A
:100BA8000650D8A0063C0A5E0750D8A0073C0B5E4A
:100BB800E86AD8A0010E0E5E11D008260550D8B0FC
:100BC800053C09260650D8B0063C0A260750D8B07E
:100BD800073C0B26E86AD8B0010E0E2602360C2E0A
:100BE800D1D70134083609360A360B360E3604508A
:100BF80002A012D0085E0550D8A0053C095E065038
:100C0800D8A0063C0A5E0750D8A0073C0B5EE86AED
:100C1800D8A0010E0E5E11D008260550D8B0053CAC
:100C280009260650D8B0063C0A260750D8B0073C1B
:100C38000B26E86AD8B0010E0E260136070E0C6E98
:100C48000134083609360A360B360E36045001A030
:100C580012D0085E0550D8A0053C095E0650D8A001
:100C6800063C0A5E0750D8A0073C0B5EE86AD8A08D
:100C7800010E0E5E11D008260550D8B0053C092695
:100C88000650D8B0063C0A260750D8B0073C0B26B9
:100C9800E86AD8B0010E0E2601360C2ED1D70034E2
:100CA800083609360A360B360E36045001A012D023
:100CB800085E0550D8A0053C095E0650D8A0063C41
:100CC8000A5E0750D8A0073C0B5EE86AD8A0010E60
:100CD8000E5E11D008260550D8B0053C09260650EE
:100CE800D8B0063C0A260750D8B0073C0B26E86A5D
:100CF800D8B0010E0E260036070E0C6E00340836EA
:100D080009360A360B360E36045000A012D0085E9B
:100D18000550D8A0053C095E0650D8A0063C0A5EDE
:100D28000750D8A0073C0B5EE86AD8A0010E0E5EFB
:100D380011D008260550D8B0053C09260650D8B071
:100D4800063C0A260750D8B0073C0B26E86AD8B0FC
:100D5800010E0E2600360C2ED1D700B00ED004504E
:100D680008260550D8B0053C09260650D8B0063CE0
:0C0D78000A260750D8B0073C0B261200DA
:100D84006E0E0001AA5DD8A0CAD0640E046EAAC07B
:100D940000F072EC01F0120E0024056E066A000EDB
:100DA400062205C000F006C001F0000E06BEFF0ECC
:100DB400026E036E003600900136023603360036AA
:100DC4000090013602360336C20E0024F66E480E39
:100DD4000120F76E000E0220F86E0900F5CF00F036
:100DE4000900F5CF01F00900F5CF02F00900F5CFB5
:100DF40003F0000E046E000E056E000E066E7E0EED
:100E0400076EADEC01F000C0ABF001C0ACF002C065
:100E1400ADF003C0AEF0640E046EAAC000F072EC34
:100E240001F008C000F00A0E046E72EC01F0090E25
:100E34000024056E066A000E062205C000F006C0F6
:100E440001F0000E06BEFF0E026E036E0036009027
:100E54000136023603360036009001360236033678
:100E6400C20E0024F66E480E0120F76E000E02201A
:100E7400F86E0900F5CF00F00900F5CF01F0090084
:100E8400F5CF02F00900F5CF03F0ABC004F0ACC01D
:100E940005F0ADC006F0AEC007F0ADEC01F000C047
:100EA400ABF001C0ACF002C0ADF003C0AEF00A0E6E
:100EB400046EAAC000F072EC01F008C000F000C09B
:100EC40001F0000E026E036E046E013601900236CC
:100ED4000336043601360190023603360436C20E58
:100EE4000124F66E480E0220F76E000E0320F86E01
:100EF4000900F5CF00F00900F5CF01F00900F5CFA6
:100F040002F00900F5CF03F0ABC004F0ACC005F06B
:100F1400ADC006F0AEC007F0ADEC01F0B1D0AA51FF
:100F24000A08D8B07ED00A0E046EAAC000F072EC93
:100F340001F0090E0024056E066A000E062205C0A3
:100F440000F006C001F0000E06BEFF0E026E036E36
:100F54000036009001360236033600360090013622
:100F640002360336C20E0024F66E480E0120F76ED8
:100F7400000E0220F86E0900F5CF00F00900F5CF4D
:100F840001F00900F5CF02F00900F5CF03F0000EDF
:100F9400046E000E056E000E066E7E0E076EADEC3E
:100FA40001F000C0ABF001C0ACF002C0ADF003C072
:100FB400AEF00A0E046EAAC000F072EC01F008C094
:100FC40000F000C001F0000E026E036E046E0136E4
:100FD4000190023603360436013601900236033698
:100FE4000436C20E0124F66E480E0220F76E000E7F
:100FF4000320F86E0900F5CF00F00900F5CF01F0E9
:101004000900F5CF02F00900F5CF03F0ABC004F0FE
:10101400ACC005F0ADC006F0AEC007F0ADEC01F019
:101024002FD0AAC000F0000E016E026E036E0036CF
:10103400009001360236033600360090013602363F
:101044000336C20E0024F66E480E0120F76E000E21
:101054000220F86E0900F5CF00F00900F5CF01F089
:101064000900F5CF02F00900F5CF03F0000E046E7D
:10107400000E056E000E066E7E0E076EADEC01F0DE
:02108400120058
:101086000450000A12E10550000A0FE10650000A5A
:101096000CE10750000A09E1FF0E006EFF0E016E1B
:1010A6007F0E026EFF0E036EA8D0086A096A07500B
:1010B600D8B4EEEF08F00350D8B4F3EF08F00250BE
:1010C60006180A6E028E068E0E6A02C008F001C06D
:1010D6000CF000C00DF004500D5E0550D8A0053C84
:1010E6000C5E0650D8A0063C085E086A0C6A0D6ABB
:1010F600D8A085EF08F0D8900232013200320832CB
:10110600010E0E6E0750035ED8A092EF08F07E0E19
:101116000E240326D8B0F8EF08F098EF08F07E0EFC
:101126000E240326D8A0FDEF08F0180E0B6E0D3620
:101136000C3608360036013602360E360450005E8E
:101146000550D8A0053C015E0650D8A0063C025EBC
:1011560006340E120EA0B3EF08F00D80BEEF08F0B5
:10116600045000260550D8B0053C01260650D8B0DC
:10117600062802260D900B2E9AEF08F0E4EF08F0F1
:10118600D8900036013602360E360450005E055001
:10119600D8A0053C015E0650D8A0063C025E063487
:1011A6000E10010B0D26D8B00C2AD8B4082AD8A4E4
:1011B600E4EF08F008320C320D32032AD8B4F8EF07
:1011C60008F00AAE089E0850026E0C50016E0D50D3
:1011D600006E00EF09F0010E3DEC02F000EF09F0A1
:1011E600020E1AEC00F000EF09F0040E0EEC00F00F
:0C11F60000EF09F0080E21EC00F01200E0
:101202000B6A0A6A096A00500402F4CF09F0F3CFAC
:1012120008F001500502F4CF0BF0F3CF0AF00050B2
:101222000502F3500926F4500A22E86A0B22015003
:101232000402F3500926F4500A22E86A0B2208C07D
:1012420000F009C001F00AC002F00BC003F0120066
:101252000450000A08E10550000A05E1FF0E006E85
:101262007F0E016E58D00D6A096A086A015000109B
:10127200D8B4000C015005180A6E0ABE0D1E0B6A86
:1012820005AE05D0041E051E042AD8B4052A01AEF7
:1012920005D0001E011E002AD8B4012A01500510F3
:1012A2000A6E0ABE10D081EC01F00BB020D00DAE58
:1012B200000C001E011E002AD8B4012A081E091EB5
:1012C200082AD8B4092A000C05AE0DD001BE07D0F9
:1012D2000150096E0050086E016A006AE8D7016A7F
:1012E200006A002A000C011E001E0B2ADDD7082A04
:1012F200D8B4092A0450085CD8A4D9D70550095C8F
:10130200D8A4D5D7096A086A002AD8B4012A01AE3E
:08131200CED70000FF0C120011
:10131A0003500718D8A4A1EF09F002500618D8A460
:10132A00A1EF09F001500518D8A4A1EF09F0005067
:0E133A000418D8B4D8841200D89412001200FF
:101348000A6A0350D8A40A800750D8A40A820A500F
:10135800D8B407EF0AF0030AD8B4C0EF09F00AB00E
:10136800BBEF09F006AE05EF0AF003EF0AF002AE94
:1013780003EF0AF005EF0AF00250800B0A6E029E96
:101388000650800B069E0A18D8B4D1EF09F00A500F
:10139800D8B403EF0AF005EF0AF00750035CD8B49D
:1013A800DBEF09F0D8A0F7EF09F0FDEF09F00650E0
:1013B800025CD8B4E5EF09F0D8A0F7EF09F0FDEF2B
:1013C80009F00550015CD8B4EFEF09F0D8A0F7EFA9
:1013D80009F0FDEF09F00450005CD8B407EF0AF0FB
:1013E800D8B0FDEF09F00A52D8B405EF0AF003EFC0
:1013F8000AF00A52D8B403EF0AF005EF0AF0D880D1
:0E1408001200D8901200D880D8841200120072
:10141600800E0001AA19006E800E000A005CD8B08A
:101426006DD1AA510008016E01C0AAF0800E011804
:10143600006E800E6E0A005CD8A0C0D0640E046EEA
:10144600AAC000F023EC01F0120E0024056E000E77
:1014560000BEFF0E066E000E062205C000F006C096
:1014660001F0000E06BEFF0E026E036E00360090FF
:101476000136023603360036009001360236033650
:10148600C20E0024F66E480E0120F76E000E0220F2
:10149600F86E0900F5CFABF00900F5CFACF0090006
:1014A600F5CFADF00900F5CFAEF0640E046EAAC01C
:1014B60000F023EC01F008C000F00A0E046E23ECE5
:1014C60001F0090E0024056E000E00BEFF0E066E2A
:1014D600000E062205C000F006C001F0000E06BE92
:1014E600FF0E026E036E003600900136023603369A
:1014F60000360090013602360336C20E0024F66E20
:10150600480E0120F76E000E0220F86E0900F5CF96
:1015160000F00900F5CF01F00900F5CF02F009004F
:10152600F5CF03F0ABC004F0ACC005F0ADC006F0DB
:10153600AEC007F0ADEC01F000C0ABF001C0ACF0FE
:1015460002C0ADF003C0AEF00A0E046EAAC000F0F1
:1015560023EC01F008C000F000C001F0000E00BE50
:10156600FF0E026E036E046E0136019002360336DC
:10157600043601360190023603360436C20E0124C3
:10158600F66E480E0220F76E000E0320F86E090074
:10159600F5CF00F00900F5CF01F00900F5CF02F014
:1015A6000900F5CF03F0ABC004F0ACC005F0ADC048
:1015B60006F0AEC007F0ADEC01F007D2800E0A0AC5
:1015C600006E800EAA19005C71E20A0E046EAAC0B3
:1015D60000F023EC01F0090E0024056E000E00BE9B
:1015E600FF0E066E000E062205C000F006C001F0D2
:1015F600000E06BEFF0E026E036E00360090013628
:101606000236033600360090013602360336C20E25
:101616000024F66E480E0120F76E000E0220F86ECA
:101626000900F5CFABF00900F5CFACF00900F5CF16
:10163600ADF00900F5CFAEF00A0E046EAAC000F0B8
:1016460023EC01F008C000F000C001F0000E00BE5F
:10165600FF0E026E036E046E0136019002360336EB
:10166600043601360190023603360436C20E0124D2
:10167600F66E480E0220F76E000E0320F86E090083
:10168600F5CF00F00900F5CF01F00900F5CF02F023
:101696000900F5CF03F0ABC004F0ACC005F0ADC057
:1016A60006F0AEC007F0ADEC01F08FD1AAC000F095
:1016B600000EAABFFF0E016E026E036E003600908A
:1016C60001360236033600360090013602360336FE
:1016D600C20E0024F66E480E0120F76E000E0220A0
:1016E600F86E0900F5CF00F00900F5CF01F009000A
:1016F600F5CF02F00900F5CF03F067D1800EAA19E5
:10170600006E800E6E0A005CD8A0C0D0640E046E17
:10171600AAC000F023EC01F0120E0024056E000EA4
:1017260000BEFF0E066E000E062205C000F006C0C3
:1017360001F0000E06BEFF0E026E036E003600902C
:10174600013602360336003600900136023603367D
:101756008E0E0024F66E480E0120F76E000E022053
:10176600F86E0900F5CFABF00900F5CFACF0090033
:10177600F5CFADF00900F5CFAEF0640E046EAAC049
:1017860000F023EC01F008C000F00A0E046E23EC12
:1017960001F0090E0024056E000E00BEFF0E066E57
:1017A600000E062205C000F006C001F0000E06BEBF
:1017B600FF0E026E036E00360090013602360336C7
:1017C600003600900136023603368E0E0024F66E81
:1017D600480E0120F76E000E0220F86E0900F5CFC4
:1017E60000F00900F5CF01F00900F5CF02F009007D
:1017F600F5CF03F0ABC004F0ACC005F0ADC006F009
:10180600AEC007F0ADEC01F000C0ABF001C0ACF02B
:1018160002C0ADF003C0AEF00A0E046EAAC000F01E
:1018260023EC01F008C000F000C001F0000E00BE7D
:10183600FF0E026E036E046E013601900236033609
:101846000436013601900236033604368E0E012424
:10185600F66E480E0220F76E000E0320F86E0900A1
:10186600F5CF00F00900F5CF01F00900F5CF02F041
:101876000900F5CF03F0ABC004F0ACC005F0ADC075
:1018860006F0AEC007F0ADEC01F09FD0800E0A0A5C
:10189600006E800EAA19005C71E20A0E046EAAC0E0
:1018A60000F023EC01F0090E0024056E000E00BEC8
:1018B600FF0E066E000E062205C000F006C001F0FF
:1018C600000E06BEFF0E026E036E00360090013655
:1018D60002360336003600900136023603368E0E87
:1018E6000024F66E480E0120F76E000E0220F86EF8
:1018F6000900F5CFABF00900F5CFACF00900F5CF44
:10190600ADF00900F5CFAEF00A0E046EAAC000F0E5
:1019160023EC01F008C000F000C001F0000E00BE8C
:10192600FF0E026E036E046E013601900236033618
:101936000436013601900236033604368E0E012433
:10194600F66E480E0220F76E000E0320F86E0900B0
:10195600F5CF00F00900F5CF01F00900F5CF02F050
:101966000900F5CF03F0ABC004F0ACC005F0ADC084
:1019760006F0AEC007F0ADEC01F027D0AAC000F02B
:10198600000EAABFFF0E016E026E036E00360090B7
:10199600013602360336003600900136023603362B
:1019A6008E0E0024F66E480E0120F76E000E022001
:1019B600F86E0900F5CF00F00900F5CF01F0090037
:0C19C600F5CF02F00900F5CF03F012008D
:0819D200067E4FEC02F012004A
:1019DA000050086E0150006E0250016E0350026EF4
:1019EA00036A0B6A0C6A9E0E036E0A6A020E0C6E7A
:0619FA0032EC00F01200C7
:101A00000B6A0C6A0A6A086A0350D8B488EF0DF0B2
:101A1000028E9E0E035E03BE13EF0DF0D8B413EFDB
:101A20000DF078EF0DF0036C080E035CD8A045EFC5
:101A30000DF0036E083600C008F001C000F002C0CF
:101A400001F0026A080E035CD8A045EF0DF0036EAA
:101A5000083600C008F001C000F0016A080E035CFF
:101A6000D8A045EF0DF0036E083600C008F0006AFC
:101A7000080E035CD8A045EF0DF0036E0836086A27
:101A80000350D8A4D89051EF0DF00350D8B451EFC3
:101A90000DF0D8900232013200320832032E49EFA5
:101AA0000DF00BBC08A062EF0DF0D8A062EF0DF0B6
:101AB000082AD8B4002AD8B4012AD8B4022A02BE0F
:101AC0008CEF0DF00AAE88EF0DF0021E011E001E15
:101AD000081E082AD8B4002AD8B4012AD8B4022A89
:101AE00088EF0DF0026A016A006A086A88EF0DF05B
:101AF0000B800BAE92EF0DF0026A0AAE92EF0DF082
:101B0000026E016E006E086E0A36023292EF0DF020
:101B1000000E0C6A93EF0DF0010E0C6E41EC02F01A
:101B200093EF0DF0FF0E0250036E0150026E005055
:081B3000016E0850006E120066
:101B38000001AA51390806E3300EAA5D03E3010E3D
:081B4800006E01D0006A1200DA
:101B50000001A26BA36B966B976B84C000F085C0ED
:101B600001F086C002F0010E8427000E8523862333
:101B700000C0F6FF01C0F7FF02C0F8FF0900F5CF73
:101B800000F000C093F00052D8B4B3EF1DF09351B1
:101B9000250A0BE082C0E1FF83C0E2FF93C0E6FFAD
:101BA000824B832BA24BA32BD8D7946B956B966B50
:101BB000976B23D09687010E8427000E85238623FA
:101BC00059D09681010E8427000E8523862352D09A
:101BD0009683010E8427000E852386234BD097879A
:101BE000010E8427000E8523862344D09685010E9E
:101BF0008427000E852386233DD084C0F6FF85C050
:101C0000F7FF86C0F8FF0900F5CF01F001502D0A5B
:101C1000D1E084C0F6FF85C0F7FF86C0F8FF090059
:101C2000F5CF01F00150200ACCE084C0F6FF85C05A
:101C3000F7FF86C0F8FF0900F5CF01F001502B0A2D
:101C4000C7E084C0F6FF85C0F7FF86C0F8FF090033
:101C5000F5CF01F00150230AC2E084C0F6FF85C031
:101C6000F7FF86C0F8FF0900F5CF01F00150300AF8
:101C7000BDE001D09ED796A301D0969196A701D042
:101C8000969584C0F6FF85C0F7FF86C0F8FF09006F
:101C9000F5CF00F0000E016E00C0AAF04DDF00523B
:101CA00035E0946B956B94C000F095C001F00A0E7E
:101CB000046E000E056E01EC09F084C0F6FF85C0CD
:101CC000F7FF86C0F8FF0900F5CF02F002500024AC
:101CD000946F000E0120956F300E945F000E955B9F
:101CE000010E8427000E8523862384C0F6FF85C05D
:101CF000F7FF86C0F8FF0900F5CF00F0000E016E77
:101D000000C0AAF019DF0052CEE133D084C0F6FF44
:101D100085C0F7FF86C0F8FF0900F5CF01F001503C
:101D20002A0A27E187C0E9FF88C0EAFFEECF00F06A
:101D3000EECF01F000C0E9FF01C0EAFFEECF94F062
:101D4000EECF95F087C0E9FF88C0EAFF020EEE24CF
:101D5000006E000EEE20016E87C0E1FF88C0E2FF3A
:101D600000C0E6FF01C0E6FF010E8427000E8523B8
:101D7000862384C0F6FF85C0F7FF86C0F8FF090000
:101D8000F5CF01F001502E0A6FE1010E8427000EFD
:101D90008523862384C0F6FF85C0F7FF86C0F8FF41
:101DA0000900F5CF01F001502A0A28E187C0E9FFB8
:101DB00088C0EAFFEECF00F0EECF01F000C0E9FFEF
:101DC00001C0EAFFEECF91F0EECF92F087C0E9FFBD
:101DD00088C0EAFF020EEE24006E000EEE20016EB7
:101DE00087C0E1FF88C0E2FF00C0E6FF01C0E6FF58
:101DF000010E8427000E8523862335D0916B926BCC
:101E000084C0F6FF85C0F7FF86C0F8FF0900F5CF54
:101E100000F0000E016E00C0AAF08EDE005223E03A
:101E200091C000F092C001F00A0E046E000E056E23
:101E300001EC09F084C0F6FF85C0F7FF86C0F8FF0B
:101E40000900F5CF02F002500024916F000E01202E
:101E5000926F300E915F000E925B010E8427000E90
:101E600085238623CDD703D0916B926B978984C04D
:101E700000F085C001F086C002F0010E8427000E3C
:101E80008523862300C0F6FF01C0F7FF02C0F8FFDC
:101E90000900F5CF93F0F9D0A2C000F0A3C001F083
:101EA000B7EF1DF09689E3D797852ED1968B978152
:101EB0002BD1978329D1968D27D126D1968B968FBA
:101EC00023D187C0E9FF88C0EAFFEECF00F0EECF54
:101ED00001F000C0E9FF01C0EAFFEECF9EF0EECFB7
:101EE0009FF087C0E9FF88C0EAFF020EEE24006E73
:101EF000000EEE20016E87C0E1FF88C0E2FF00C047
:101F0000E6FF01C0E6FF000E9F1902E1000E9E19D8
:101F100004E1150E9E6F000E9F6FA06BA16BA05188
:101F20009E25E96EA1519F21EA6EEE520BE0010E53
:101F3000A025006E000EA121016E00C0A0F001C01E
:101F4000A1F0EDD7915192110AE0A151925D02E109
:101F5000A051915D04E291C0A0F092C0A1F0955112
:101F6000A15D02E19451A05D05E2A051945FA151F1
:101F7000955B02D0946B956B96B716D094C000F029
:101F800095C001F0010E945F000E955B00500110AA
:101F90000BE082C0E1FF83C0E2FF200EE66E824BC1
:101FA000832BA24BA32BEAD7A0C002F0A1C003F061
:101FB000010EA05D006E000EA159016E00C0A0F0E0
:101FC00001C0A1F00250031019E09EC0E9FF9FC0BC
:101FD000EAFF82C0E1FF83C0E2FFEECFE6FF824B63
:101FE000832B010E9E25006E000E9F21016E00C006
:101FF0009EF001C09FF0A24BA32BD6D796A716D078
:1020000094C000F095C001F0010E945F000E955B46
:10201000005001100BE082C0E1FF83C0E2FF200E00
:10202000E66E824B832BA24BA32BEAD796D587C0B3
:10203000E9FF88C0EAFFEECF00F0EECF01F000C06C
:10204000E9FF01C0EAFFEECF93F087C0E9FF88C047
:10205000EAFF020EEE24006E000EEE20016E87C035
:10206000E1FF88C0E2FF00C0E6FF01C0E6FF930E7B
:102070009E6F000E9F6F010EA06F000EA16F62D7C2
:10208000C00E9613000E97133FD09351000AD8B498
:1020900003D793516C0AD8B405D793514C0AD8B4DE
:1020A00001D79351660AD8B4FFD69351450AD8B4E4
:1020B000FDD69351650AD8B4FAD69351670AD8B4BD
:1020C000F8D693516F0AD8B4F6D69351640AD8B4AF
:1020D000F4D69351690AD8B4F0D69351700AD8B4A3
:1020E000EDD69351580AD8B4E9D69351780AD8B4AA
:1020F000E6D69351730AD8B4E4D69351630A97E0B5
:102100009351750ABDE0B3D7000E9615006E975136
:10211000070B016E00500110D8B45AEF19F097A9BF
:1021200004D0060E916F000E926F87C0E9FF88C041
:10213000EAFFEECF00F0EECF01F000C0E9FF01C0F2
:10214000EAFFEECF98F0EECF99F0EECF9AF0EECF17
:102150009BF087C0E9FF88C0EAFF040EEE24006E02
:10216000000EEE20016E87C0E1FF88C0E2FF00C0D4
:10217000E6FF01C0E6FF046A056A066A076A98C0BE
:1021800000F099C001F09AC002F09BC003F0A4ECEB
:1021900009F0010ED8B0000E006E005205E09A7FE3
:1021A000030E9613000E97139C6B9D6B98C000F066
:1021B00099C001F09AC002F09BC003F0046A056A5E
:1021C000066A076A8DEC09F0000ED8A4010E006EB5
:1021D0000052D8B48AD09BC000F0016A026A036A38
:1021E000FF0E0016000E01167E0E005E000E015A54
:1021F00000C09CF001C09DF0010E005E000E015A6F
:1022000000C09CF001C09DF0030E046E000E056E30
:1022100001EC09F000C09CF001C09DF00A0E046EB4
:10222000000E056E29EC09F000C09CF001C09DF085
:10223000800E0118026E800E025C02E1000E005C4E
:1022400005E2010E00019C5F000E9D5B00019C51A8
:102250000008AA6F0BEC0AF098C004F099C005F0D2
:102260009AC006F09BC007F0ADEC01F000C09EF0F4
:1022700001C09FF002C0A0F003C0A1F0000E046EE8
:10228000000E056E000E066E7F0E076E9EC000F0FB
:102290009FC001F0A0C002F0A1C003F0A4EC09F0BF
:1022A000010ED8B0000E006E005205E0010E9C5FDA
:1022B000000E9D5B1AD0000E046E000E056E200EFF
:1022C000066E820E076E9EC000F09FC001F0A0C097
:1022D00002F0A1C003F0A4EC09F0000ED8B0010E8A
:1022E000006E005202E09C4B9D2B800E006E800E13
:1022F0009D19005C02E19C51000803E3010E936FFD
:1023000002D09CC093F097B118D097A315D0800E3F
:102310009D19006E7F0E005C02E1FC0E9C5D0BE3DC
:10232000800E9D19006E800E9219005C02E19151A1
:102330009C5D01E201D001D0EFD39151921106E0F2
:1023400097A304D0010E915F000E925B925100089A
:1023500002E19151080803E2080E936F02D091C088
:1023600093F098C000F099C001F09AC002F09BC0B1
:1023700003F0046A056A066A076A8DEC09F0000E2C
:10238000D8A4010E006E0052D8B44BD19CC0AAF064
:102390000BEC0AF000C004F001C005F002C006F02A
:1023A00003C007F098C000F099C001F09AC002F095
:1023B0009BC003F043EC08F000C098F001C099F016
:1023C00002C09AF003C09BF0000193510008AA6F6D
:1023D0000BEC0AF000C004F001C005F002C006F0EA
:1023E00003C007F098C000F099C001F09AC002F055
:1023F0009BC003F043EC08F000C0A4F001C0A5F0BE
:1024000002C0A6F003C0A7F0A4C098F0A5C099F040
:10241000A6C09AF0A7C09BF0A4C000F0A5C001F030
:10242000A6C002F0A7C003F000EC0DF0EDEC0CF03C
:1024300000C004F001C005F002C006F003C007F0C0
:10244000A4C000F0A5C001F0A6C002F0A7C003F030
:10245000E9EC0CF0000E046E000E056E000E066E28
:102460007E0E076EA4EC09F0000ED8B0010E006ECF
:1024700000521AE098C000F099C001F09AC002F032
:102480009BC003F0000E046E000E056E000E066E7B
:102490007E0E076E4FEC02F000C098F001C099F07C
:1024A00002C09AF003C09BF098C000F099C001F000
:1024B0009AC002F09BC003F000EC0DF000019351B4
:1024C000010F096E0A6A000E0A2209C004F00AC050
:1024D00005F0000E0ABEFF0E066E076E043604906D
:1024E00005360636073604360490053606360736B6
:1024F000590E0424F66E490E0520F76E000E0620D4
:10250000F86E0900F5CF05F00900F5CF06F00900D7
:10251000F5CF07F00900F5CF08F00850035C08E19B
:102520000750025C05E10650015C02E10550005CC9
:102530001EE3000198C000F099C001F09AC002F0BB
:102540009BC003F0CD0E046ECC0E056E4C0E066ED5
:102550007B0E076EADEC01F000C098F001C099F061
:1025600002C09AF003C09BF09C4B9D2B5AD098C0A0
:1025700000F099C001F09AC002F09BC003F000EC9B
:102580000DF093C004F0000E056E066E076E043663
:1025900004900536063607360436049005360636AE
:1025A0000736590E0424F66E490E0520F76E000E0C
:1025B0000620F86E0900F5CF05F00900F5CF06F00A
:1025C0000900F5CF07F00900F5CF08F00850035CCB
:1025D00008E10750025C05E10650015C02E105508C
:1025E000005C1FE2000198C000F099C001F09AC0A1
:1025F00002F09BC003F0000E046E000E056E200E6C
:10260000066E820E076EADEC01F000C098F001C0BE
:1026100099F002C09AF003C09BF0010E9C5F000E7F
:102620009D5B000197A393D097B791D0800E000ACD
:10263000006E800E9219005C02E191510A0804E2DA
:102640000A0E916F000E926F98C000F099C001F0D1
:102650009AC002F09BC003F000EC0DF000C09EF0A9
:1026600001C09FF002C0A0F003C0A1F09E519F11D5
:10267000A011A11142E00A0E046E000E056E066E56
:10268000076E9EC000F09FC001F0A0C002F0A1C084
:1026900003F04CEC05F008C000F009C001F00AC0DE
:1026A00002F00BC003F0000E046E031808E10450A2
:1026B000021805E10450011802E10050000A1DE172
:1026C000010E915F000E925B0A0E046E000E056E05
:1026D000066E076E9EC000F09FC001F0A0C002F021
:1026E000A1C003F04CEC05F000C09EF001C09FF0CB
:1026F00002C0A0F003C0A1F0B9D7800E9219006EFD
:10270000800E005C02E19351915D21E29151935D55
:10271000AA6F0BEC0AF000C004F001C005F002C083
:1027200006F003C007F098C000F099C001F09AC00D
:1027300002F09BC003F043EC08F000C098F001C029
:1027400099F002C09AF003C09BF091C093F0050E7F
:1027500000019125006E000E9221016E0050945FE1
:102760000150955B9151921103E197B701D004D0CC
:10277000010E945F000E955B030E9615006E97C0D8
:1027800001F0000E01160050011004E0010E945FEC
:10279000000E955B96A539D096A312D096A103D0D2
:1027A0002D0E896F02D02B0E896F82C0E1FF83C08E
:1027B000E2FF89C0E6FF824B832BA24BA32B0CD0F8
:1027C00096A10AD082C0E1FF83C0E2FF200EE66E30
:1027D000824B832BA24BA32B800E006E800E95198B
:1027E000005C02E1945100080FE282C0E1FF83C067
:1027F000E2FF300EE66E824B832BA24BA32B010E21
:10280000945F000E955BE8D73AD096B718D0800E4B
:10281000006E800E9519005C02E1945100080FE2F1
:1028200082C0E1FF83C0E2FF200EE66E824B832B65
:10283000A24BA32B010E945F000E955BE8D796A3E5
:1028400012D096A103D02D0E8A6F02D02B0E8A6F64
:1028500082C0E1FF83C0E2FF8AC0E6FF824B832B88
:10286000A24BA32B0CD096A10AD082C0E1FF83C05B
:10287000E2FF200EE66E824B832BA24BA32B98C067
:1028800000F099C001F09AC002F09BC003F000EC88
:102890000DF000C09EF001C09FF002C0A0F003C088
:1028A000A1F093C000F0000E016E026E036E0036C0
:1028B00000900136023603360036009001360236AB
:1028C0000336590E0024F66E490E0120F76E000EF5
:1028D0000220F86E0900F5CF04F00900F5CF05F0ED
:1028E0000900F5CF06F00900F5CF07F09EC000F013
:1028F0009FC001F0A0C002F0A1C003F04CEC05F0B5
:10290000300E002682C0E1FF83C0E2FF00C0E6FF78
:10291000824B832BA24BA32B9151921103E197B7CA
:1029200001D06FD082C0E1FF83C0E2FF2E0EE66EC1
:10293000824B832BA24BA32B9351915F000E925B92
:1029400093534DE0930793C000F0000E016E026EAA
:10295000036E0036009001360236033600360090D2
:10296000013602360336590E0024F66E490E012058
:10297000F76E000E0220F86E0900F5CF04F0090092
:10298000F5CF05F00900F5CF06F00900F5CF07F007
:102990009EC000F09FC001F0A0C002F0A1C003F0F3
:1029A0004CEC05F00A0E046E000E056E066E076E06
:1029B0004CEC05F008C000F009C001F00AC002F0BC
:1029C0000BC003F0300E002682C0E1FF83C0E2FF9F
:1029D00000C0E6FF824B832BA24BA32BB1D79151B2
:1029E00092110FE082C0E1FF83C0E2FF300EE66E7D
:1029F000824B832BA24BA32B010E915F000E925BA7
:102A0000EED796AB0BD082C0E1FF83C0E2FF450E4C
:102A1000E66E824B832BA24BA32B0AD082C0E1FF30
:102A200083C0E2FF650EE66E824B832BA24BA32B85
:102A3000800E9D19006E800E005C02E1000E9C5D10
:102A400011E29C5100089C6F9D51000E9D5782C061
:102A5000E1FF83C0E2FF2D0EE66E824B832BA24B7B
:102A6000A32B0AD082C0E1FF83C0E2FF2B0EE66EEB
:102A7000824B832BA24BA32B0A0E046E000E056E15
:102A80009CC000F09DC001F029EC09F0300E00263A
:102A900082C0E1FF83C0E2FF00C0E6FF0001824B7D
:102AA000832BA24BA32B0A0E046E000E056E9CC056
:102AB00000F09DC001F029EC09F008C000F009C049
:102AC00001F0300E002682C0E1FF83C0E2FF00C0AB
:102AD000E6FF0001824B832BA24BA32B96A71AD0B3
:102AE000800E006E800E9519005C02E19451000882
:102AF00011E282C0E1FF83C0E2FF200EE66E824B4E
:102B0000832BA24BA32B010E945F000E955B945177
:102B10009511EFE1ADEF0DF097A3F3D0800E9D1965
:102B2000006E800E005C02E1000E9C5D0AE2010E68
:102B30009C5D006E000E9D59016E0050915F01502A
:102B4000925B98C000F099C001F09AC002F09BC05F
:102B500003F000EC0DF000C09EF001C09FF002C039
:102B6000A0F003C0A1F0010E936F93510A0A34E064
:102B700093C000F0000E016E026E036E00360090EE
:102B8000013602360336003600900136023603362F
:102B9000590E0024F66E490E0120F76E000E022039
:102BA000F86E0900F5CF01F00900F5CF02F0090039
:102BB000F5CF03F00900F5CF04F00450A15D08E162
:102BC0000350A05D05E102509F5D02E101509E5D52
:102BD00001E202D0932BC9D79351915DA86F000EEB
:102BE0009259A96FA8C091F0A9C092F09EC000F0C0
:102BF0009FC001F0A0C002F0A1C003F0EDEC0CF00A
:102C000000C004F001C005F002C006F003C007F0E8
:102C100098C000F099C001F09AC002F09BC003F088
:102C2000E9EC0CF000C0A4F001C0A5F002C0A6F0D1
:102C300003C0A7F0A8C0AAF00BEC0AF0A4C004F0EF
:102C4000A5C005F0A6C006F0A7C007F0ADEC01F0E6
:102C5000000E046E000E056E000E066E7E0E076EF0
:102C60004FEC02F000EC0DF000C09EF001C09FF0B0
:102C700002C0A0F003C0A1F09151921142E00A0EEF
:102C8000046E000E056E066E076E9EC000F09FC0BB
:102C900001F0A0C002F0A1C003F04CEC05F008C0A8
:102CA00000F009C001F00AC002F00BC003F0000EF2
:102CB000046E031808E10450021805E104500118DD
:102CC00002E10050000A1DE10A0E046E000E056EBE
:102CD000066E076E9EC000F09FC001F0A0C002F01B
:102CE000A1C003F04CEC05F000C09EF001C09FF0C5
:102CF00002C0A0F003C0A1F0010E915F000E925B34
:102D0000BBD7800E006E800E9219005C02E19151DB
:102D10000C0816E391C0AAF0C2EC06F098C004F0CB
:102D200099C005F09AC006F09BC007F04FEC02F086
:102D300000C098F001C099F002C09AF003C09BF067
:102D400098C000F099C001F09AC002F09BC003F057
:102D5000046A056A066A076A8DEC09F0000ED8A4B9
:102D6000010E006E0052D8B477D098C000F099C020
:102D700001F09AC002F09BC003F000EC0DF0000ED1
:102D8000046E031808E10450021805E1045001180C
:102D900002E10050000A60E1800E006E800E9D1975
:102DA000005C02E19C51010857E29CC0AAF00BECC8
:102DB0000AF000C004F001C005F002C006F003C034
:102DC00007F098C000F099C001F09AC002F09BC0D3
:102DD00003F043EC08F05F0E046E700E056E090EF2
:102DE000066E810E076EA4EC09F0010ED8B0000E3D
:102DF000006E005206E0090E00019C5F000E9D5B14
:102E000005D00001080E9C5F000E9D5B9CC0AAF0DF
:102E10000BEC0AF000C004F001C005F002C006F09F
:102E200003C007F098C000F099C001F09AC002F00A
:102E30009BC003F043EC08F000EC0DF000C09EF0E6
:102E400001C09FF002C0A0F003C0A1F00001986B88
:102E5000996B9A6B9B6B38D098C000F099C001F0C9
:102E60009AC002F09BC003F000EC0DF000C09EF091
:102E700001C09FF002C0A0F003C0A1F09EC000F00E
:102E80009FC001F0A0C002F0A1C003F0EDEC0CF077
:102E900000C004F001C005F002C006F003C007F056
:102EA00098C000F099C001F09AC002F09BC003F0F6
:102EB000E9EC0CF000C098F001C099F002C09AF063
:102EC00003C09BF09C6B9D6B010E936F93510A0A9C
:102ED00034E093C000F0000E016E026E036E003607
:102EE0000090013602360336003600900136023675
:102EF0000336590E0024F66E490E0120F76E000EBF
:102F00000220F86E0900F5CF01F00900F5CF02F0BC
:102F10000900F5CF03F00900F5CF04F00450A15DDE
:102F200008E10350A05D05E102509F5D02E1015000
:102F30009E5D01E202D0932BC9D793519125006E7B
:102F4000000E9221016E9C5100269D5101220050DD
:102F5000945F0150955B97B704D09151921101E1B4
:102F600004D0010E945F000E955B030E9615006E63
:102F700097C001F0000E01160050011004E0010E90
:102F8000945F000E955B96A539D096A312D096A1BA
:102F900003D02D0E8B6F02D02B0E8B6F82C0E1FF02
:102FA00083C0E2FF8BC0E6FF824B832BA24BA32B97
:102FB0000CD096A10AD082C0E1FF83C0E2FF200EB0
:102FC000E66E824B832BA24BA32B800E006E800EED
:102FD0009519005C02E1945100080FE282C0E1FF04
:102FE00083C0E2FF300EE66E824B832BA24BA32BF5
:102FF000010E945F000E955BE8D73AD096B718D0D3
:10300000800E006E800E9519005C02E1945100085C
:103010000FE282C0E1FF83C0E2FF200EE66E824B2A
:10302000832BA24BA32B010E945F000E955BE8D778
:1030300096A312D096A103D02D0E8C6F02D02B0E2A
:103040008C6F82C0E1FF83C0E2FF8CC0E6FF824B41
:10305000832BA24BA32B0CD096A10AD082C0E1FFF8
:1030600083C0E2FF200EE66E824B832BA24BA32B84
:1030700093C000F0930700524CE093C000F0000EA4
:10308000016E026E036E0036009001360236033682
:1030900000360090013602360336590E0024F66ED3
:1030A000490E0120F76E000E0220F86E0900F5CFE0
:1030B00004F00900F5CF05F00900F5CF06F009008E
:1030C000F5CF07F09EC000F09FC001F0A0C002F055
:1030D000A1C003F04CEC05F00A0E046E000E056E64
:1030E000066E076E4CEC05F008C000F009C001F058
:1030F0000AC002F00BC003F0300E002682C0E1FFD0
:1031000083C0E2FF00C0E6FF824B832BA24BA32BC0
:10311000AFD7800E006E800E9D19005C02E19C51BD
:1031200000080FE282C0E1FF83C0E2FF300EE66ECE
:10313000824B832BA24BA32B010E9C5F000E9D5B49
:10314000E8D7800E000A006E800E9219005C02E142
:103150009151080803E2080E936F02D091C093F0DA
:103160009351915F000E925B935303E197B701D0A7
:103170000AD082C0E1FF83C0E2FF2E0EE66E824BD2
:10318000832BA24BA32B93C0AAF00BEC0AF098C0A0
:1031900004F099C005F09AC006F09BC007F0ADECB2
:1031A00001F075EC04F000C09EF001C09FF002C079
:1031B000A0F003C0A1F093534DE0930793C000F03B
:1031C000000E016E026E036E00360090013602366C
:1031D000033600360090013602360336590E0024BD
:1031E000F66E490E0120F76E000E0220F86E0900FF
:1031F000F5CF04F00900F5CF05F00900F5CF06F092
:103200000900F5CF07F09EC000F09FC001F0A0C0FC
:1032100002F0A1C003F04CEC05F00A0E046E000EA3
:10322000056E066E076E4CEC05F008C000F009C094
:1032300001F00AC002F00BC003F0300E002682C07D
:10324000E1FF83C0E2FF00C0E6FF824B832BA24B6D
:10325000A32BB1D7915192110FE082C0E1FF83C03F
:10326000E2FF300EE66E824B832BA24BA32B010EA6
:10327000915F000E925BEED796A71AD0800E006E7B
:10328000800E9519005C02E19451000811E282C0A1
:10329000E1FF83C0E2FF200EE66E824B832BA24B40
:1032A000A32B010E945F000E955B94519511EFE1F5
:1032B000ADEF0DF0C00E9615016E97C002F0000E36
:1032C0000216000E021802E1000E0118D8A480D0E8
:1032D00096A927D087C0E9FF88C0EAFFEECF00F0AB
:1032E000EECF01F000C0E9FF01C0EAFFEECF9EF093
:1032F000EECF9FF0EECFA0F0EECFA1F087C0E9FFB8
:1033000088C0EAFF040EEE24006E000EEE20016E6F
:1033100087C0E1FF88C0E2FF00C0E6FF01C0E6FF12
:103320002FD087C0E9FF88C0EAFFEECF00F0EECFD4
:1033300001F000C0E9FF01C0EAFFEECF00F0EECFE0
:1033400001F0000E01BEFF0E026E036E00C09EF083
:1033500001C09FF002C0A0F003C0A1F087C0E9FF48
:1033600088C0EAFF020EEE24006E000EEE20016E11
:1033700087C0E1FF88C0E2FF00C0E6FF01C0E6FFB2
:10338000800EA119006E800E005C08E1000EA05DA9
:1033900005E1000E9F5D02E1000E9E5D18E2030E46
:1033A0009613000E9713006A016A026A036A9E511F
:1033B000005E9F51015AA051025AA151035A00C008
:1033C0009EF001C09FF002C0A0F003C0A1F04ED05B
:1033D00096A927D087C0E9FF88C0EAFFEECF00F0AA
:1033E000EECF01F000C0E9FF01C0EAFFEECF9EF092
:1033F000EECF9FF0EECFA0F0EECFA1F087C0E9FFB7
:1034000088C0EAFF040EEE24006E000EEE20016E6E
:1034100087C0E1FF88C0E2FF00C0E6FF01C0E6FF11
:1034200025D087C0E9FF88C0EAFFEECF00F0EECFDD
:1034300001F000C0E9FF01C0EAFFEECF9EF0EECF41
:103440009FF0000EA06FA16F87C0E9FF88C0EAFF60
:10345000020EEE24006E000EEE20016E87C0E1FF2A
:1034600088C0E2FF00C0E6FF01C0E6FF000E92192F
:1034700002E1000E91190FE1000E006EA11908E1A2
:103480000050A01905E100509F1902E19E51000A69
:1034900002E1914B922BC00E9615006E00C005F014
:1034A000AED0010E936F93510A0A34E093C000F03E
:1034B000000E016E026E036E003600900136023679
:1034C000033600360090013602360336590E0024CA
:1034D000F66E490E0120F76E000E0220F86E09000C
:1034E000F5CF01F00900F5CF02F00900F5CF03F0A8
:1034F0000900F5CF04F00450A15D08E10350A05D80
:1035000005E102509F5D02E101509E5D01E202D0A3
:10351000932BC9D782D0010E936F9351080A34E0E0
:1035200093C000F0000E016E026E036E0036009034
:103530000136023603360036009001360236033675
:10354000810E0024F66E490E0120F76E000E022057
:10355000F86E0900F5CF01F00900F5CF02F009007F
:10356000F5CF03F00900F5CF04F00450A15D08E1A8
:103570000350A05D05E102509F5D02E101509E5D98
:1035800001E202D0932BC9D748D0010E936F93511B
:103590000C0A34E093C000F0000E016E026E036E60
:1035A00000360090013602360336003600900136B0
:1035B00002360336290E0024F66E490E0120F76EFE
:1035C000000E0220F86E0900F5CF01F00900F5CFDA
:1035D00002F00900F5CF03F00900F5CF04F0045024
:1035E000A15D08E10350A05D05E102509F5D02E18D
:1035F00001509E5D01E202D0932BC9D70ED0055039
:10360000000AD8B44ED70550C00AD8B44AD70550DE
:10361000800A81E00550400AB8E0800E006E800EFE
:103620009219005C02E19151935D03E291C093F025
:103630000DD0800E9219006E800E005C02E1935155
:10364000915D04E293C091F0000E926F9451951138
:103650000EE0030E9615006E97C001F0000E0116E5
:103660000050011004E0010E945F000E955B800E87
:103670009219006E800E9519005C02E19451915DE3
:1036800005E29151945F9251955B02D0946B956BDA
:10369000C40E9615016E9751080B026E0250080A6F
:1036A00002E1400E011808E19451951104E0010E69
:1036B000945F000E955B1CD0C00E9615016E97515D
:1036C000080B026E0250080A02E1800E011810E198
:1036D000800E006E800E9519005C02E19451020884
:1036E00005E2020E945F000E955B02D0946B956B21
:1036F00096A55DD096A312D096A103D02D0E8D6F06
:1037000002D02B0E8D6F82C0E1FF83C0E2FF8DC01F
:10371000E6FF824B832BA24BA32B34D096A10BD078
:1037200082C0E1FF83C0E2FF200EE66E824B832B56
:10373000A24BA32B27D0C00E9615016E9751080BF4
:10374000026E0250080A02E1800E01181BE182C0DD
:10375000E1FF83C0E2FF300EE66E824B832BA24B6B
:10376000A32B96AB03D0580E8E6F02D0780E8E6FBF
:1037700082C0E1FF83C0E2FF8EC0E6FF824B832B55
:10378000A24BA32B9451951111E082C0E1FF83C09D
:10379000E2FF300EE66E824B832BA24BA32B010E71
:1037A000945F000E955B94519511EFE174D09451A4
:1037B000951113E096B711D082C0E1FF83C0E2FFFC
:1037C000200EE66E824B832BA24BA32B010E945F3F
:1037D000000E955B94519511EFE196A312D096A13E
:1037E00003D02D0E8F6F02D02B0E8F6F82C0E1FFA2
:1037F00083C0E2FF8FC0E6FF824B832BA24BA32B3B
:103800000CD096A10AD082C0E1FF83C0E2FF200E57
:10381000E66E824B832BA24BA32BC00E9615016E36
:103820009751080B026E0250080A02E1400E01187F
:103830000BE182C0E1FF83C0E2FF300EE66E824BF7
:10384000832BA24BA32B27D0C00E9615016E975148
:10385000080B026E0250080A02E1800E01181BE1FB
:1038600082C0E1FF83C0E2FF300EE66E824B832B05
:10387000A24BA32B96AB03D0580E906F02D0780EBC
:10388000906F82C0E1FF83C0E2FF90C0E6FF824BF1
:10389000832BA24BA32B800E006E800E9219005C2E
:1038A00002E19151935D0BE282C0E1FF83C0E2FF30
:1038B000300EE66E824B832BA24BA32BECD791C02C
:1038C00000F092C001F0010E915F000E925B00507B
:1038D0000110D8B42AD1C00E9615006E00C0A4F015
:1038E0000AD191C000F092C001F0000E92BFFF0E0D
:1038F000026E036E00360090013602360336003643
:103900000090013602360336590E0024F66E490E39
:103910000120F76E000E0220F86E0900F5CF04F0CA
:103920000900F5CF05F00900F5CF06F00900F5CF45
:1039300007F09EC000F09FC001F0A0C002F0A1C03F
:1039400003F04CEC05F00A0E046E000E056E066ED8
:10395000076E4CEC05F008C000F009C001F00AC089
:1039600002F00BC003F0300E0024936FD3D096AB5F
:1039700045D091C000F092C001F0000E92BFFF0E42
:10398000026E036E003600900136023603360036B2
:103990000090013602360336810E0024F66E490E81
:1039A0000120F76E000E0220F86E0900F5CF04F03A
:1039B0000900F5CF05F00900F5CF06F00900F5CFB5
:1039C00007F09EC000F09FC001F0A0C002F0A1C0AF
:1039D00003F04CEC05F00F0E0016000E0116021657
:1039E0000316B20E0024F66E490E0120F76E000E8B
:1039F0000220F86E0900F5CF93F044D091C000F09A
:103A000092C001F0000E92BFFF0E026E036E0036F0
:103A10000090013602360336003600900136023639
:103A20000336810E0024F66E490E0120F76E000E5B
:103A30000220F86E0900F5CF04F00900F5CF05F07B
:103A40000900F5CF06F00900F5CF07F09EC000F0A1
:103A50009FC001F0A0C002F0A1C003F04CEC05F043
:103A60000F0E0016000E011602160316A10E0024FA
:103A7000F66E490E0120F76E000E0220F86E090066
:103A8000F5CF93F047D091C000F092C001F0000E46
:103A900092BFFF0E026E036E0036009001360236B2
:103AA000033600360090013602360336290E002414
:103AB000F66E490E0120F76E000E0220F86E090026
:103AC000F5CF04F00900F5CF05F00900F5CF06F0B9
:103AD0000900F5CF07F09EC000F09FC001F0A0C024
:103AE00002F0A1C003F04CEC05F0070E0014936F38
:103AF000300E93270FD0A451000AD8B4F2D6A451A7
:103B0000C00AD8B4EED6A451800AD8B430D7A45194
:103B1000400AB9E082C0E1FF83C0E2FF93C0E6FF44
:103B2000824B832BA24BA32BCAD696A71AD0800E0A
:103B3000006E800E9519005C02E19451000811E2BC
:103B400082C0E1FF83C0E2FF200EE66E824B832B32
:103B5000A24BA32B010E945F000E955B945195111F
:103B6000EFE1ADEF0DF0A2C000F0A3C001F0120034
:0C3B70000E0E0D6E0D2EFED70000120090
:0E3B7C00549082C0AAF00DEC05F054801200A7
:103B8A000450085E0550D8A0053C095E0650D8A02E
:103B9A00063C0A5E0750D8A0073C0B5E0336070EA8
:103BAA000C6E0334083609360A360B36045003A065
:103BBA000ED0085E0550D8A0053C095E0650D8A074
:103BCA00063C0A5E0750D8A0073C0B5E0DD00826BB
:103BDA000550D8B0053C09260650D8B0063C0A263E
:103BEA000750D8B0073C0B2603360C2EDAD702341E
:103BFA00083609360A360B36045003A00ED0085E82
:103C0A000550D8A0053C095E0650D8A0063C0A5EBD
:103C1A000750D8A0073C0B5E0DD008260550D8B037
:103C2A00053C09260650D8B0063C0A260750D8B0EB
:103C3A00073C0B260236070E0C6E0234083609368C
:103C4A000A360B36045002A00ED0085E0550D8A0E2
:103C5A00053C095E0650D8A0063C0A5E0750D8A06B
:103C6A00073C0B5E0DD008260550D8B0053C092646
:103C7A000650D8B0063C0A260750D8B0073C0B2697
:103C8A0002360C2EDAD70134083609360A360B36D4
:103C9A00045002A00ED0085E0550D8A0053C095E6B
:103CAA000650D8A0063C0A5E0750D8A0073C0B5E17
:103CBA000DD008260550D8B0053C09260650D8B0C4
:103CCA00063C0A260750D8B0073C0B260136070ED9
:103CDA000C6E0134083609360A360B36045001A038
:103CEA000ED0085E0550D8A0053C095E0650D8A043
:103CFA00063C0A5E0750D8A0073C0B5E0DD008268A
:103D0A000550D8B0053C09260650D8B0063C0A260C
:103D1A000750D8B0073C0B2601360C2EDAD70034F0
:103D2A00083609360A360B36045001A00ED0085E52
:103D3A000550D8A0053C095E0650D8A0063C0A5E8C
:103D4A000750D8A0073C0B5E0DD008260550D8B006
:103D5A00053C09260650D8B0063C0A260750D8B0BA
:103D6A00073C0B260036070E0C6E0034083609365F
:103D7A000A360B36045000A00ED0085E0550D8A0B3
:103D8A00053C095E0650D8A0063C0A5E0750D8A03A
:103D9A00073C0B5E0DD008260550D8B0053C092615
:103DAA000650D8B0063C0A260750D8B0073C0B2666
:103DBA0000360C2EDAD700B00ED004500826055073
:103DCA00D8B0053C09260650D8B0063C0A2607504A
:083DDA00D8B0073C0B261200D3
:103DE2000B1E0A1E091E081E082AD8B4092AD8B4B6
:083DF2000A2AD8B40B2A1200C2
:103DFA007E0E5F6E000E0001606F79C082F07AC09D
:103E0A0083F07BC084F07CC085F07DC086F05F0EB5
:103E1A00876F000E886FA8EC0DF000C05DF001C03E
:103E2A005EF000507925E16E01507A21E26EE66A71
:0A3E3A005DC000F05EC001F0120050
:103E440010D0800E0001796F1AD0C00E796F17D090
:103E5400940E796F14D0D40E796F11D0800E796FCF
:103E64000ED000017951010AECE07951020AEDE02B
:103E74007951030AEDE07951040AEDE0EFD77A05B0
:103E8400006E7951002600C079F000C0AAF00DEC54
:103E940005F054905D6A5D507B25E96E000E7C212F
:103EA400EA6EEE520BE05D507B25E96E000E7C213C
:103EB400EA6EEECF82F060DE5D2AEDD75480120008
:103EC400939C939E939A9398939693948A9C8A9E98
:103ED4008A948A968A988A9A67EC04F067EC04F0CC
:103EE40067EC04F08A888A8A8A8C72EC04F08A9CD3
:103EF40067EC04F08A8C72EC04F08A9C67EC04F0A2
:103F04008A8C72EC04F08A9C67EC04F08A9A8A8C9E
:103F140072EC04F08A9C67EC04F08A8C72EC04F076
:103F24008A9C8A988A848A8C72EC04F08A9C67EC56
:103F340004F08A948A8A8A8C72EC04F08A9C8A9AA5
:103F44008A8C72EC04F08A9C67EC04F08A8C72EC24
:103F540004F08A9C8A8A8A8C72EC04F08A9C67EC4E
:103F640004F08A9A8A8C72EC04F08A9C8A848A8689
:103F74008A888A8A8A8C72EC04F08A9C67EC04F042
:043F84005480120053
:103F8800C26A1E1C006E0050C1160F0EC012C08EF1
:103F98005DC000F000360090003600900050C2125C
:103FA800C280E2DDC282C2A201D0FDD7C4CF01F037
:103FB800006A00C05EF001C05FF0C3500012000E3E
:103FC800011200C05EF001C05FF0C290000E001444
:103FD800026E0150800B036E000E031802E1000E02
:103FE800021802E05E6A5F6A5EC000F05FC001F01E
:023FF8001200B5
:103FFA000450000A12E10550000A0FE10650000AB7
:10400A000CE10750000A09E1FF0E006EFF0E016E77
:10401A00FF0E026E7F0E036E97D00C6A07BE0C2A43
:10402A000D6A0B6A0A6A096A086A035002100110CB
:10403A000010D8B484D0035007180E6E0EBE0D1EA1
:10404A0007AE0BD0041E051E061E071E042AD8B48E
:10405A00052AD8B4062AD8B4072A03AE0BD0001E04
:10406A00011E021E031E002AD8B4012AD8B4022A4D
:10407A00D8B4032A035007100E6E0EBE1CD080DD82
:10408A000CBE36D00DAE5BD0001E011E021E031EF2
:10409A00002AD8B4012AD8B4022AD8B4032A081E9E
:1040AA00091E0A1E0B1E082AD8B4092AD8B40A2ADD
:1040BA00D8B40B2A44D007AE15D003BE0DD0035096
:1040CA000B6E02500A6E0150096E0050086E036AA8
:1040DA00026A016A006AD6D7036A026A016A006A3A
:1040EA00002A000C031E021E011E001E0C8EC7D7DA
:1040FA00082AD8B4092AD8B40A2AD8B40B2A0450F0
:10410A00085CD8A4BFD70550095CD8A4BBD7065011
:10411A000A5CD8A4B7D707500B5CD8A4B3D70B6AEC
:10412A000A6A096A086A002AD8B4012AD8B4022A93
:10413A00D8B4032A03AEA6D70E6A0E88FF0C0E6AFD
:0A414A000CA001D049DE000F1200A6
:10415400220E0C6E086A096A0A6A0B6A0C06D8B445
:104164001FD0D8900B320A3209320832033202329D
:1041740001320032D8A0F2D70C06D8B409D00450CA
:1041840008260550092206500A2207500B22EAD7B6
:10419400045008260550092206500A2207500B2213
:0241A400120007
:1041A6000FD0800E5D6E19D0C00E5D6E16D0940EC7
:1041B6005D6E13D0D40E5D6E10D0800E5D6E0DD088
:1041C6005D50010AEEE05D50020AEEE05D50030A22
:1041D600EEE05D50040AEEE0F0D75E04006E5D503E
:1041E600002600C05DF0548000C0AAF00DEC05F07A
:0E41F60054905FC0AAF00DEC05F0548012004A
:104204000050086E0150006E0250016E0350026EA1
:10421400036A0B6A0C6A9E0E036E0A6A02AE1FEFF3
:1042240021F0081E001E011E021E082AD8B4002A0E
:10423400D8B4012AD8B4022A0A8E020E0C6E32ECCB
:0442440000F0120074
:104248000900F5CFE6FF0006FBE10106F9E11200DF
:104258000F0E0F01386F396B3A6B3B6B836AC16A7B
:0E426800FF0E926E936A956AF80E966E120023
:10427600FF0E596EFF0E5A6EFF0E5B6EFF0E5C6EE2
:10428600FF0E506EFF0E516E000E526E000E536EF4
:10429600FF0E486EFF0E496E000E4A6E000E4B6E04
:1042A600FF0E4C6EFF0E4D6E000E4E6E000E4F6EE4
:1042B600AC8A900EAB6E948E949C9EAA03D0AECF21
:0642C60000F0FBD712001E
:1042CC00E3EC24F0F26A020E0B6E040E0C6EBA0EC6
:1042DC000D6E0D2EFED70C2EFCD70B2EFAD7000030
:1042EC00B886030EB06E400EAF6EAC84BEDFAEDF90
:1042FC00E3DD010E0001AA6F0DEC05F00C0EAA6FA8
:10430C000DEC05F08382010E796F020E7A6F330E7D
:10431C007B6F000E7C6F90DD020E796F050E7A6F4D
:10432C00290E7B6F000E7C6F87DD150E0B6E4B0E0E
:10433C000C6EBE0E0D6E0D2EFED70C2EFCD70B2E5A
:10434C00FAD70000010EAA6F0DEC05F083805D6AB0
:10435C0015DE00C031F001C032F0000E01BEFF0EC0
:10436C00026E036EB80E046E0B0E056E000E066E1A
:10437C00076EEADE00C061F001C062F002C063F0BB
:10438C0003C064F0FF0E046E030E056E000E066E85
:10439C00076E2DDE00C061F001C062F002C063F058
:1043AC0003C064F0010E0001796F010E7A6F420EAA
:1043BC007B6F000E7C6F40DDE80E046E030E056E05
:1043CC00000E066E076E61C000F062C001F063C0A3
:1043DC0002F064C003F00BDE00C055F001C056F0D3
:1043EC0002C057F003C058F00050300F0001826F2C
:1043FC00BEEC1DF0640E046E000E056E066E076EAC
:10440C0061C000F062C001F063C002F064C003F050
:10441C00EEDD0A0E046E000E056E066E076EE7DD0D
:10442C0008C000F009C001F00AC002F00BC003F094
:10443C0000C055F001C056F002C057F003C058F050
:10444C000050300F0001826FBEEC1DF00A0E046E9E
:10445C00000E056E066E076E61C000F062C001F0C2
:10446C0063C002F064C003F0C2DD0A0E046E000EDD
:10447C00056E066E076EBBDD08C000F009C001F0CA
:10448C000AC002F00BC003F000C055F001C056F09A
:10449C0002C057F003C058F00050300F0001826F7B
:1044AC00BEEC1DF0560E826FBEEC1DF0040E0B6EB2
:1044BC000C0E0C6E330E0D6E0D2EFED70C2EFCD783
:1044CC000B2EFAD700000000010E5D6E57DD00C008
:1044DC001FF001C020F0000E01BEFF0E026E036E35
:1044EC00B80E046E0B0E056E000E066E076E2CDEFB
:1044FC0000C061F001C062F002C063F003C064F060
:10450C00FF0E046E030E056E000E066E076E6FDD59
:10451C0000C061F001C062F002C063F003C064F03F
:10452C00E80E046E030E056E000E066E076E5FDD60
:10453C0000C055F001C056F002C057F003C058F04F
:10454C00010E5D6E0C0E5E6E0050300F5F6E25DE40
:10455C00640E046E000E056E066E076E61C000F0F0
:10456C0062C001F063C002F064C003F040DD0A0ECB
:10457C00046E000E056E066E076E39DD08C000F085
:10458C0009C001F00AC002F00BC003F000C055F0E6
:10459C0001C056F002C057F003C058F00050300F65
:1045AC000001826FBEEC1DF02E0E826FBEEC1DF072
:1045BC000A0E046E000E056E066E076E61C000F0EA
:1045CC0062C001F063C002F064C003F010DD0A0E9B
:1045DC00046E000E056E066E076E09DD08C000F055
:1045EC0009C001F00AC002F00BC003F000C055F086
:1045FC0001C056F002C057F003C058F00050300F05
:10460C000001826FBEEC1DF0560E826FBEEC1DF0E9
:10461C00040E0B6E0C0E0C6E330E0D6E0D2EFED7A3
:10462C000C2EFCD70B2EFAD700000000020E5D6E8C
:10463C00A5DC00C027F001C028F0000E01BEFF0E63
:10464C00026E036EB80E046E0B0E056E000E066E37
:10465C00076E7ADD00C061F001C062F002C063F049
:10466C0003C064F0FF0E046E030E056E000E066EA2
:10467C00076EBDDC00C061F001C062F002C063F0E7
:10468C0003C064F0020E0001796F010E7A6F210EE7
:10469C007B6F000E7C6F22EC1FF0E80E046E030E95
:1046AC00056E000E066E076E61C000F062C001F070
:1046BC0063C002F064C003F09ADC00C055F001C086
:1046CC0056F002C057F003C058F00050300F0001F4
:1046DC00826FBEEC1DF0640E046E000E056E066E4D
:1046EC00076E61C000F062C001F063C002F064C0EC
:1046FC0003F07DDC0A0E046E000E056E066E076E6E
:10470C0076DC08C000F009C001F00AC002F00BC052
:10471C0003F000C055F001C056F002C057F003C0C2
:10472C0058F00050300F0001826FBEEC1DF02E0EC1
:10473C00826FBEEC1DF00A0E046E000E056E066E46
:10474C00076E61C000F062C001F063C002F064C08B
:10475C0003F04DDC0A0E046E000E056E066E076E3D
:10476C0046DC08C000F009C001F00AC002F00BC022
:10477C0003F000C055F001C056F002C057F003C062
:10478C0058F00050300F0001826FBEEC1DF0560E39
:10479C00826FBEEC1DF0040E0B6E0C0E0C6E330E05
:1047AC000D6E0D2EFED70C2EFCD70B2EFAD700005B
:1047BC000000030E5D6EC4EC1FF000C01CF001C0C5
:1047CC001DF0000E01BEFF0E026E036EB80E046EDD
:1047DC000B0E056E000E066E076EB6DC00C061F0A7
:1047EC0001C062F002C063F003C064F0FF0E046EFF
:1047FC00030E056E000E066E076EFDEC1FF000C07A
:10480C0061F001C062F002C063F003C064F0650E99
:10481C000001796F000E7A6FC30E7B6F490E7C6FAF
:10482C00000E7D6FE9DC000E046E000E056E200E8E
:10483C00066E820E076E43EC08F000C07EF001C0DD
:10484C007FF002C080F003C081F0FDEC1EF0020E80
:10485C00796F0C0E7A6F650E7B6F000E7C6F22ECFD
:10486C001FF0040E0B6E0C0E0C6E330E0D6E0D2E17
:10487C00FED70C2EFCD70B2EFAD70000000067D504
:02488C00FFD754
:1049C60010EE15F0330E006E010E016EF60EF66E49
:0E49D600480EF76E000EF86E24EC21F0120071
:10488E000000007F000020820000488500007A882A
:10489E0000401C8C0050438F002474928096189612
:1048AE0020BC3E99286B6E9CF90215A0EC782DC1A8
:0448BE00CAF249E20F
:1048C2000000007FCDCC4C7B0AD723786F12037592
:1048D20017B75171ACC5276EBD37066B95BF5667CA
:1048E20077CC2B645F700961FFE65B5D08E53C3CB9
:0448F2006042221BE3
:0748F600286E756C6C2900AF
:0248FD000000B9
:0148FF000FA9
:024900000000B5
:064902004261742E3A0030
:024908000000AD
:08490A004E422D3430305700FD
:024912000000A3
:0F4914004A534D20456E67656E68617269610098
:06492300526564653A00D4
:104929000100000008000000400000000002000033
:1049390000100000008000000000040000002000BA
:104949000000000100000008000000400000000015
:10495900010000000A00000064000000E8030000F4
:1049690010270000A086010040420F0080969800A1
:0849790000E1F50500CA9A3BBC
:104981000100000010000000000100000010000004
:1049910000000100000010000000000100000010F4
:1049A10030313233343536373839616263646566A4
:0149B1000005
:1049B2003031323334353637383941424344454653
:0149C20000F4
:0349C30025660066
:020000040030CA
:0D000100230F3CFFBF81FF0FC00FE00F4039
:00000001FF
