:1000000080EF28F00000000000EF00F0000000008A
:0A0010000000000000000000F3D71C
:08001C000AAE029E000E120064
:100024000B840BAE1DEF00F0010E036E026A016A31
:0A003400006A0A360232FF0E1200C5
:0E003E00026A016A006A086A036A000E120074
:10004C000B820BAE30EF00F00368026801680068A9
:08005C000A360232FF0E120009
:100064000CB074EF00F00CA21AEF01F00E6A000E4F
:1000740002648BEF00F0F00E0214D8A456EF00F0E7
:10008400023A01380F0B02260138F00B016E0038DA
:100094000F0B01260038F00B006E08380F0B0026FA
:1000A4000838F00B086E0E84D89002BE6FEF00F093
:1000B40008360036013602360E2A02BE6FEF00F013
:1000C40008360036013602360E2A02BE6FEF00F003
:1000D40008360036013602360E2A0E50036410EF3D
:1000E40001F0035E0BBC08AE15EF01F0D880800E62
:1000F40008640030000E002201220222D8A015EF6D
:1001040001F0023201320032034A1AEF01F015EF16
:1001140001F001C002F000C001F008C000F0086A5C
:10012400000E0E860264C2EF00F0F00E0214D8A492
:10013400AAEF00F0023A01380F0B02260138F00B47
:10014400016E00380F0B01260038F00B006E0E8490
:10015400D89002BE6FEF00F00036013602360E2A48
:1001640002BE6FEF00F00036013602360E2A02BEE0
:100174006FEF00F00036013602360E2A6FEF00F002
:1001840001C002F000C001F0006A000E0E960E8855
:100194000264EFEF00F0F00E0214D8A4DAEF00F0DE
:1001A400023A01380F0B02260138F00B016E0E845F
:1001B400D89002BE6FEF00F0013602360E2A02BE5E
:1001C4006FEF00F0013602360E2A02BE6FEF00F028
:1001D400013602360E2A6FEF00F001C002F0016A08
:1001E400000E0E8602641FEF01F0F00E0214D8A474
:1001F400FEEF00F0023A0E84D89002BE6FEF00F0DA
:1002040002360E2A02BE6FEF00F002360E2A02BE3C
:100214006FEF00F002360E2A6FEF00F0010E0C6E45
:10022400FFDE22EF01F0020E0C6EF6DE22EF01F08B
:10023400040E0C6E09DF22EF01F0080E0C6EFDDED9
:020244001200A6
:10024600025006180E6E086A096A0B6A03500764A4
:1002560016EF02F006500A6E068E028E03500B6EE3
:100266000750036E000E0B6466EF01F00B50075E3D
:10027600D8B407EF02F0070E0764D5EF01F0075E6A
:1002860000C008F001C000F002C001F0026A074E8B
:1002960007EF02F00764AAEF01F0075E00C008F05E
:1002A60001C000F0016A074E07EF02F0076488EF0D
:1002B60001F0075E00C008F0006A074E07EF02F083
:1002C60007646FEF01F00AC002F005C001F004C038
:1002D60000F0086A30EF03F0030E07647AEF01F0CE
:1002E600075E08380F0B086E074E07EF02F0D8902E
:1002F6000832074E07EF02F0D8900832074E07EF94
:1003060002F0D890083207EF02F0030E076499EF67
:1003160001F0075E08380F0B086E0038F00B082650
:1003260000380F0B006E074E07EF02F0D890003230
:100336000832074E07EF02F0D89000320832074E17
:1003460007EF02F0D8900032083207EF02F0030EF2
:100356000764C1EF01F0075E08380F0B086E00381E
:10036600F00B082600380F0B006E0138F00B002644
:1003760001380F0B016E074E07EF02F0D8900132DD
:1003860000320832074E07EF02F0D89001320032F1
:100396000832074E07EF02F0D890013200320832D9
:1003A60007EF02F0030E0764F2EF01F0075E08386C
:1003B6000F0B086E0038F00B082600380F0B006E86
:1003C6000138F00B002601380F0B016E0238F00BD6
:1003D600012602380F0B026E074E07EF02F0D89087
:1003E6000232013200320832074E07EF02F0D8908F
:1003F6000232013200320832074E07EF02F0D8907F
:100406000232013200320832096A000E0EAEFBEFEC
:1004160002F0081E001E011E021E082A00220122EA
:100426000222FBEF02F00750D8A41CEF02F030EFD7
:1004360003F0096A02C00AF0028E068E0750035CBA
:10044600076ED8B4EEEF02F0070E0764BCEF02F0B9
:10045600075E0450096E0550046E0650056E066A66
:10046600074EEEEF02F0070E076491EF02F0075E0B
:100476000450096E0550046E056A074EEEEF02F051
:10048600070E07646FEF02F0075E0450096E046AF8
:10049600074EEEEF02F0070E076456EF02F00AC0B1
:1004A60002F030EF03F0030E076461EF02F0075E1F
:1004B60009380F0B096E074EEEEF02F0D89009329D
:1004C600074EEEEF02F0D8900932074EEEEF02F03B
:1004D600D8900932EEEF02F0030E076480EF02F0C7
:1004E600075E09380F0B096E0438F00B092604382D
:1004F6000F0B046E074EEEEF02F0D890043209326D
:10050600074EEEEF02F0D89004320932074EEEEFB6
:1005160002F0D89004320932EEEF02F0030E0764BF
:10052600A8EF02F0075E09380F0B096E0438F00BCE
:10053600092604380F0B046E0538F00B042605381F
:100546000F0B056E074EEEEF02F0D890053204321F
:100556000932074EEEEF02F0D89005320432093226
:10056600074EEEEF02F0D890053204320932EEEF74
:1005760002F0030E0764D9EF02F0075E09380F0B8D
:10058600096E0438F00B092604380F0B046E053883
:10059600F00B042605380F0B056E0638F00B052602
:1005A60006380F0B066E074EEEEF02F0D8900632B5
:1005B600053204320932074EEEEF02F0D8900632C9
:1005C600053204320932074EEEEF02F0D8900632B9
:1005D600053204320932086A000E0EAEFBEF02F055
:1005E600091E041E051E061E092A042205220622CD
:1005F6000950082604500022055001220650022206
:100606000EBE12EF03F0D8A021EF03F00232013242
:1006160000320832033E21EF03F02BEF03F0D8B08F
:1006260026EF03F0000E081E001E011E021E082AF9
:100636000022012202220A7E26EF03F0010E0C6E32
:100646000EDD32EF03F0020E0C6E09DD32EF03F021
:10065600040E0C6EF8DC32EF03F0000E0C6E120086
:100666000D6A086A0050D8B4000C04180A6E0ABE57
:100676000D1E0B6A04AE02D0041E042A00AE02D080
:10068600001E002A005004100A6E0ABE1FD0045035
:10069600085E003600340836045008260036060E7A
:1006A6000C6E00340836045000B0085E00A0082620
:1006B60000360C2EF6D700A008260BB015D00DAECE
:1006C600000C001E002A081E082A000C04AE09D0E1
:1006D60000BE04D00050086E006AF1D7006A002AF6
:1006E600000C001E0B2AD3D7082A0450085CD8A495
:0E06F600E6D7086A002A00AEE2D7FF0C120019
:100704000134083609360450085E0550D8A0053C6B
:10071400095E003601360F0E0C6E013408360936B8
:10072400045000A006D0085E0550D8A0053C095E20
:1007340005D008260550D8B0053C092600360136F8
:100744000C2EEBD700B006D0045008260550D8B0C4
:08075400053C0926000012001B
:10075C00086A096A000E0762036433EF04F0025062
:10076C0006180A6E075003267E0ED8A0C4EF03F0BD
:10077C00035ED8B038EF04F0C8EF03F0035ED8A0E6
:10078C003DEF04F0028E068E02C00EF001C00BF09D
:10079C0000C00DF000500402F4CF0CF00150050223
:1007AC00F4CF00F0F3CF08F00402F3500C26F45011
:1007BC000822000E00220D500502F3500C26F450B6
:1007CC000822000E002202500402F3500826F450B6
:1007DC00002202500502016A000E0122F35000268D
:1007EC00F45001220D500602F3500826F45000225A
:1007FC00026A000E012202220B500602F350002660
:10080C00F4500122000E02220E500602F350012673
:10081C00F450022202BE1BEF04F0083600360136FB
:10082C0002360306D8B43DEF04F02EEF04F0D88066
:10083C00800E08640030000E002201220222D8A093
:10084C002EEF04F0023201320032034A38EF04F08A
:10085C000AAE029E000E40EF04F0010E1FEC00F0F9
:10086C0040EF04F0020E26EC00F040EF04F0040E12
:06087C0012EC00F0120076
:100882000B800BAE4DEF04F0026A0AAEFF0E026E51
:0C089200016E006E0A360232FF0E1200EA
:08089E000B6A0B86FF0E12002D
:0608A6000000000012003A
:1008AC000F0E0C6E470E0D6E0D2EFED70C2EFCD7B8
:0608BC0000000000120024
:0A08C200210E0D6E0D2EFED7120060
:1008CC00086A080E0C6E003408360450085ED8B066
:0E08DC0002D00826D89000360C2EF5D7120058
:1008EA000B6A0C6A086A0350D8B4F9EF04F002C024
:1008FA000AF0028E9E0E035E03AEE9EF04F0036C6B
:10090A00080E035CD8A0B6EF04F0036E083600C0E8
:10091A0008F001C000F002C001F0026A080E035C90
:10092A00D8A0B6EF04F0036E083600C008F001C084
:10093A0000F0016A080E035CD8A0B6EF04F0036E5B
:10094A00083600C008F0006A080E035CD8A0B6EFAB
:10095A0004F0036E0836086A0350D8A4D890C2EF90
:10096A0004F00350D8B4C2EF04F0D8900232013236
:10097A0000320832032EBAEF04F00BBC08A0D3EF02
:10098A0004F0D8A0D3EF04F0082AD8B4002AD8B4C7
:10099A00012AD8B4022A02BEFDEF04F00AAEF9EF2A
:1009AA0004F0021E011E001E081E082AD8B4002ADE
:1009BA00D8B4012AD8B4022AF9EF04F0026A016A0B
:1009CA00006A086AF9EF04F00B800BAE03EF05F03A
:1009DA00026A0AAE03EF05F0026E016E006E086E3F
:1009EA000A36023203EF05F00C6A000E04EF05F036
:1009FA00010E0C6E000E40DF04EF05F0FF0E0250F0
:100A0A00036E0150026E0050016E0850006E120013
:100A1A000B6A0C6A0A6A086A0350D8B495EF05F0A3
:100A2A00028E9E0E035E03BE20EF05F0D8B420EFBF
:100A3A0005F085EF05F0036C080E035CD8A052EFB1
:100A4A0005F0036E083600C008F001C000F002C0CD
:100A5A0001F0026A080E035CD8A052EF05F0036E9B
:100A6A00083600C008F001C000F0016A080E035CF5
:100A7A00D8A052EF05F0036E083600C008F0006AED
:100A8A00080E035CD8A052EF05F0036E0836086A18
:100A9A000350D8A4D8905EEF05F00350D8B45EEFA7
:100AAA0005F0D8900232013200320832032E56EF96
:100ABA0005F00BBC08A06FEF05F0D8A06FEF05F0AA
:100ACA00082AD8B4002AD8B4012AD8B4022A02BE05
:100ADA0099EF05F00AAE95EF05F0021E011E001E01
:100AEA00081E082AD8B4002AD8B4012AD8B4022A7F
:100AFA0095EF05F0026A016A006A086A95EF05F047
:100B0A000B800BAE9EEF05F0026A0AAE9EEF05F06F
:100B1A00026E016E006E086E0A3602329EEF05F012
:100B2A00000E0C6A9FEF05F0010E0C6EA5DE9FEF1A
:100B3A0005F0FF0E0250036E0150026E0050016E66
:060B4A000850006E1200CD
:100B5000086A096A100E0C6E013408360936045012
:100B6000085E0550D8A0053C095ED8B007D00450F7
:100B700008260550D8B0053C0926D8900036013625
:060B80000C2EEAD7120062
:100B8600800E0001E919006E800E000A005CD8B0E4
:100B960064D1E9510008016E01C0E9F0800E011828
:100BA600006E800E6E0A005CD8A0BAD0640E046E89
:100BB600E9C000F055DD120E0024056E000E00BEE1
:100BC600FF0E066E000E062205C000F006C001F0FC
:100BD600000E06BEFF0E026E036E00360090013652
:100BE6000236033600360090013602360336D90E39
:100BF6000024F66E540E0120F76E000E0220F86EE9
:100C06000900F5CFEAF00900F5CFEBF00900F5CFC2
:100C1600ECF00900F5CFEDF0640E046EE9C000F0CB
:100C26001FDD08C000F00A0E046E1ADD090E00244E
:100C3600056E000E00BEFF0E066E000E062205C0F3
:100C460000F006C001F0000E06BEFF0E026E036E37
:100C56000036009001360236033600360090013623
:100C660002360336D90E0024F66E540E0120F76EB6
:100C7600000E0220F86E0900F5CF00F00900F5CF4E
:100C860001F00900F5CF02F00900F5CF03F0EAC044
:100C960004F0EBC005F0ECC006F0EDC007F05BDD3C
:100CA60000C0EAF001C0EBF002C0ECF003C0EDF0CA
:100CB6000A0E046EE9C000F0D3DC08C000F000C0E4
:100CC60001F0000E00BEFF0E026E036E046E0136CA
:100CD6000190023603360436013601900236033699
:100CE6000436D90E0124F66E540E0220F76E000E5D
:100CF6000320F86E0900F5CF00F00900F5CF01F0EA
:100D06000900F5CF02F00900F5CF03F0EAC004F0C0
:100D1600EBC005F0ECC006F0EDC007F01CDD04D218
:100D2600800E0A0A006E800EE919005C6EE20A0E59
:100D3600046EE9C000F094DC090E0024056E000E76
:100D460000BEFF0E066E000E062205C000F006C0AD
:100D560001F0000E06BEFF0E026E036E0036009016
:100D66000136023603360036009001360236033667
:100D7600D90E0024F66E540E0120F76E000E0220E6
:100D8600F86E0900F5CFEAF00900F5CFEBF009009F
:100D9600F5CFECF00900F5CFEDF00A0E046EE9C0D0
:100DA60000F05EDC08C000F000C001F0000E00BEDE
:100DB600FF0E026E036E046E013601900236033694
:100DC600043601360190023603360436D90E012464
:100DD600F66E540E0220F76E000E0320F86E090020
:100DE600F5CF00F00900F5CF01F00900F5CF02F0CC
:100DF6000900F5CF03F0EAC004F0EBC005F0ECC043
:100E060006F0EDC007F0A7DC8FD1E9C000F0000EB8
:100E1600E9BFFF0E016E026E036E003600900136CA
:100E26000236033600360090013602360336D90EF6
:100E36000024F66E540E0120F76E000E0220F86EA6
:100E46000900F5CF00F00900F5CF01F00900F5CF54
:100E560002F00900F5CF03F067D1800EE919006EA4
:100E6600800E6E0A005CD8A0C0D0640E046EE9C085
:100E760000F033EC03F0120E0024056E000E00BEE7
:100E8600FF0E066E000E062205C000F006C001F039
:100E9600000E06BEFF0E026E036E0036009001368F
:100EA60002360336003600900136023603360D0E42
:100EB6000024F66E550E0120F76E000E0220F86E25
:100EC6000900F5CFEAF00900F5CFEBF00900F5CF00
:100ED600ECF00900F5CFEDF0640E046EE9C000F009
:100EE60033EC03F008C000F00A0E046E33EC03F096
:100EF600090E0024056E000E00BEFF0E066E000EE3
:100F0600062205C000F006C001F0000E06BEFF0E68
:100F1600026E036E00360090013602360336003646
:100F260000900136023603360D0E0024F66E550E7D
:100F36000120F76E000E0220F86E0900F5CF00F0D2
:100F46000900F5CF01F00900F5CF02F00900F5CF51
:100F560003F0EAC004F0EBC005F0ECC006F0EDC00B
:100F660007F0AEEC03F000C0EAF001C0EBF002C0FF
:100F7600ECF003C0EDF00A0E046EE9C000F033ECAD
:100F860003F008C000F000C001F0000E00BEFF0E26
:100F9600026E036E046E0136019002360336043685
:100FA600013601900236033604360D0E0124F66E24
:100FB600550E0220F76E000E0320F86E0900F5CFDD
:100FC60000F00900F5CF01F00900F5CF02F00900A5
:100FD600F5CF03F0EAC004F0EBC005F0ECC006F074
:100FE600EDC007F0AEEC03F09FD0800E0A0A006E4B
:100FF600800EE919005C71E20A0E046EE9C000F089
:1010060033EC03F0090E0024056E000E00BEFF0E41
:10101600066E000E062205C000F006C001F0000EA6
:1010260006BEFF0E026E036E0036009001360236D3
:101036000336003600900136023603360D0E0024C4
:10104600F66E550E0120F76E000E0220F86E0900AE
:10105600F5CFEAF00900F5CFEBF00900F5CFECF09B
:101066000900F5CFEDF00A0E046EE9C000F033EC8E
:1010760003F008C000F000C001F0000E00BEFF0E35
:10108600026E036E046E0136019002360336043694
:10109600013601900236033604360D0E0124F66E33
:1010A600550E0220F76E000E0320F86E0900F5CFEC
:1010B60000F00900F5CF01F00900F5CF02F00900B4
:1010C600F5CF03F0EAC004F0EBC005F0ECC006F083
:1010D600EDC007F0AEEC03F027D0E9C000F0000E3B
:1010E600E9BFFF0E016E026E036E003600900136F8
:1010F60002360336003600900136023603360D0EF0
:101106000024F66E550E0120F76E000E0220F86ED2
:101116000900F5CF00F00900F5CF01F00900F5CF81
:0A11260002F00900F5CF03F01200FB
:101130000450000A08E10550000A05E1FF0E006EA8
:101140007F0E016E58D00D6A096A086A01500010BE
:10115000D8B4000C015005180A6E0ABE0D1E0B6AA9
:1011600005AE05D0041E051E042AD8B4052A01AE1A
:1011700005D0001E011E002AD8B4012A0150051016
:101180000A6E0ABE10D082EC03F00BB020D00DAE78
:10119000000C001E011E002AD8B4012A081E091ED8
:1011A000082AD8B4092A000C05AE0DD001BE07D01C
:1011B0000150096E0050086E016A006AE8D7016AA2
:1011C000006A002A000C011E001E0B2ADDD7082A27
:1011D000D8B4092A0450085CD8A4D9D70550095CB2
:1011E000D8A4D5D7096A086A002AD8B4012A01AE62
:0811F000CED70000FF0C120035
:1011F8000450000A12E10550000A0FE10650000AE7
:101208000CE10750000A09E1FF0E006EFF0E016EA7
:101218007F0E026EFF0E036EA8D0086A096A075097
:10122800D8B4A7EF09F00350D8B4ACEF09F00250D6
:1012380006180A6E028E068E0E6A02C008F001C0F9
:101248000CF000C00DF004500D5E0550D8A0053C10
:101258000C5E0650D8A0063C085E086A0C6A0D6A47
:10126800D8A03EEF09F0D89002320132003208329D
:10127800010E0E6E0750035ED8A04BEF09F07E0EEC
:101288000E240326D8B0B1EF09F051EF09F07E0E15
:101298000E240326D8A0B6EF09F0180E0B6E0D36F3
:1012A8000C3608360036013602360E360450005E1B
:1012B8000550D8A0053C015E0650D8A0063C025E49
:1012C80006340E120EA06CEF09F00D8077EF09F0CE
:1012D800045000260550D8B0053C01260650D8B069
:1012E800062802260D900B2E53EF09F09DEF09F00A
:1012F800D8900036013602360E360450005E05508E
:10130800D8A0053C015E0650D8A0063C025E063413
:101318000E10010B0D26D8B00C2AD8B4082AD8A470
:101328009DEF09F008320C320D32032AD8B4B1EF20
:1013380009F00AAE089E0850026E0C50016E0D505E
:10134800006EB9EF09F0010E4FEC04F0B9EF09F0A7
:10135800020E1FEC00F0B9EF09F0040E26EC00F0C5
:0C136800B9EF09F0080E12EC00F01200C2
:08137400067E23EC01F01200DB
:10137C000050086E0150006E0250016E0350026E58
:10138C00036A0B6A0C6A9E0E036E0A6A020E0C6EDE
:06139C0032EC00F012002B
:1013A2000B6A0A6A096A086A0E6A0334083604502C
:1013B200085E0550D8A0053C095E0650D8A0063C40
:1013C2000A5E0750D8A0073C0B5EE86AD8A0010E5F
:1013D2000E5E0336070E0C6E0334083609360A36E3
:1013E2000B360E36045003A012D0085E0550D8A06A
:1013F200053C095E0650D8A0063C0A5E0750D8A0FC
:10140200073C0B5EE86AD8A0010E0E5E11D00826DA
:101412000550D8B0053C09260650D8B0063C0A262D
:101422000750D8B0073C0B26E86AD8B0010E0E264A
:1014320003360C2ED1D70234083609360A360B365B
:101442000E36045003A012D0085E0550D8A0053C09
:10145200095E0650D8A0063C0A5E0750D8A0073C99
:101462000B5EE86AD8A0010E0E5E11D00826055068
:10147200D8B0053C09260650D8B0063C0A260750CB
:10148200D8B0073C0B26E86AD8B0010E0E26023609
:10149200070E0C6E0234083609360A360B360E3643
:1014A200045002A012D0085E0550D8A0053C095E87
:1014B2000650D8A0063C0A5E0750D8A0073C0B5E37
:1014C200E86AD8A0010E0E5E11D008260550D8B0E9
:1014D200053C09260650D8B0063C0A260750D8B06B
:1014E200073C0B26E86AD8B0010E0E2602360C2EF7
:1014F200D1D70134083609360A360B360E36045077
:1015020002A012D0085E0550D8A0053C095E065024
:10151200D8A0063C0A5E0750D8A0073C0B5EE86ADA
:10152200D8A0010E0E5E11D008260550D8B0053C99
:1015320009260650D8B0063C0A260750D8B0073C08
:101542000B26E86AD8B0010E0E260136070E0C6E85
:101552000134083609360A360B360E36045001A01D
:1015620012D0085E0550D8A0053C095E0650D8A0EE
:10157200063C0A5E0750D8A0073C0B5EE86AD8A07A
:10158200010E0E5E11D008260550D8B0053C092682
:101592000650D8B0063C0A260750D8B0073C0B26A6
:1015A200E86AD8B0010E0E2601360C2ED1D70034CF
:1015B200083609360A360B360E36045001A012D010
:1015C200085E0550D8A0053C095E0650D8A0063C2E
:1015D2000A5E0750D8A0073C0B5EE86AD8A0010E4D
:1015E2000E5E11D008260550D8B0053C09260650DB
:1015F200D8B0063C0A260750D8B0073C0B26E86A4A
:10160200D8B0010E0E260036070E0C6E00340836D6
:1016120009360A360B360E36045000A012D0085E88
:101622000550D8A0053C095E0650D8A0063C0A5ECB
:101632000750D8A0073C0B5EE86AD8A0010E0E5EE8
:1016420011D008260550D8B0053C09260650D8B05E
:10165200063C0A260750D8B0073C0B26E86AD8B0E9
:10166200010E0E2600360C2ED1D700B00ED004503B
:1016720008260550D8B0053C09260650D8B0063CCD
:0C1682000A260750D8B0073C0B261200C7
:10168E006E0E0001E95DD8A0CAD0640E046EE9C0EA
:10169E0000F066EC04F0120E0024056E066A000ED1
:1016AE00062205C000F006C001F0000E06BEFF0EB9
:1016BE00026E036E00360090013602360336003697
:1016CE000090013602360336D90E0024F66E540E03
:1016DE000120F76E000E0220F86E0900F5CF00F023
:1016EE000900F5CF01F00900F5CF02F00900F5CFA2
:1016FE0003F0000E046E000E056E000E066E7E0EDA
:10170E00076EAEEC03F000C0EAF001C0EBF002C0D1
:10171E00ECF003C0EDF0640E046EE9C000F066EC70
:10172E0004F008C000F00A0E046E66EC04F0090E18
:10173E000024056E066A000E062205C000F006C0E3
:10174E0001F0000E06BEFF0E026E036E0036009014
:10175E000136023603360036009001360236033665
:10176E00D90E0024F66E540E0120F76E000E0220E4
:10177E00F86E0900F5CF00F00900F5CF01F0090071
:10178E00F5CF02F00900F5CF03F0EAC004F0EBC08C
:10179E0005F0ECC006F0EDC007F0AEEC03F000C0B3
:1017AE00EAF001C0EBF002C0ECF003C0EDF00A0E5F
:1017BE00046EE9C000F066EC04F008C000F000C052
:1017CE0001F0000E026E036E046E013601900236B9
:1017DE000336043601360190023603360436D90E2E
:1017EE000124F66E540E0220F76E000E0320F86EE2
:1017FE000900F5CF00F00900F5CF01F00900F5CF93
:10180E0002F00900F5CF03F0EAC004F0EBC005F0DA
:10181E00ECC006F0EDC007F0AEEC03F0B1D0E9512C
:10182E000A08D8B07ED00A0E046EE9C000F066EC4D
:10183E0004F0090E0024056E066A000E062205C08D
:10184E0000F006C001F0000E06BEFF0E026E036E23
:10185E00003600900136023603360036009001360F
:10186E0002360336D90E0024F66E540E0120F76EA2
:10187E00000E0220F86E0900F5CF00F00900F5CF3A
:10188E0001F00900F5CF02F00900F5CF03F0000ECC
:10189E00046E000E056E000E066E7E0E076EAEEC2A
:1018AE0003F000C0EAF001C0EBF002C0ECF003C0A0
:1018BE00EDF00A0E046EE9C000F066EC04F008C00C
:1018CE0000F000C001F0000E026E036E046E0136D1
:1018DE000190023603360436013601900236033685
:1018EE000436D90E0124F66E540E0220F76E000E49
:1018FE000320F86E0900F5CF00F00900F5CF01F0D6
:10190E000900F5CF02F00900F5CF03F0EAC004F0AC
:10191E00EBC005F0ECC006F0EDC007F0AEEC03F046
:10192E002FD0E9C000F0000E016E026E036E00367D
:10193E00009001360236033600360090013602362C
:10194E000336D90E0024F66E540E0120F76E000EEB
:10195E000220F86E0900F5CF00F00900F5CF01F076
:10196E000900F5CF02F00900F5CF03F0000E046E6A
:10197E00000E056E000E066E7E0E076EAEEC03F0C8
:02198E00120045
:101990000001E9BF02D08A9401D08A84E9BD02D057
:1019A0008A9601D08A86E9BB02D08A9801D08A88BB
:1019B000E9B902D08A9A01D08A8A69B102D08A8EA6
:1019C00001D08A9E8A8C53EC04F08A9CE9B702D03D
:1019D0008A9401D08A84E9B502D08A9601D08A8699
:1019E000E9B302D08A9801D08A88E9B102D08A9AF4
:1019F00001D08A8A69B102D08A8E01D08A9E8A8CEF
:101A000053EC04F08A9C69A103D056EC04F002D098
:061A100061EC04F012007D
:101A160028D000016787010EE927000EEA23EB2391
:101A26005DD000016781010EE927000EEA23EB2352
:101A360055D000016783010EE927000EEA23EB2348
:101A46004DD000016887010EE927000EEA23EB233B
:101A560045D000016785010EE927000EEA23EB2336
:101A66003DD0E9C0F6FFEAC0F7FFEBC0F8FF09007A
:101A7600F5CF01F001502D0ACCE0E9C0F6FFEAC02F
:101A8600F7FFEBC0F8FF0900F5CF01F00150200A7F
:101A9600C8E0E9C0F6FFEAC0F7FFEBC0F8FF0900AF
:101AA600F5CF01F001502B0AC4E0E9C0F6FFEAC009
:101AB600F7FFEBC0F8FF0900F5CF01F00150230A4C
:101AC600C0E0E9C0F6FFEAC0F7FFEBC0F8FF090087
:101AD600F5CF01F00150300ABCE001D099D70001E2
:101AE60067A301D0679167A701D06795E9C000F0A9
:0A1AF600EAC001F0EBC002F012009C
:101B00000B6A0A6A096A00500402F4CF09F0F3CFA5
:101B100008F001500502F4CF0BF0F3CF0AF00050AB
:101B20000502F3500926F4500A22E86A0B220150FC
:101B30000402F3500926F4500A22E86A0B2208C076
:101B400000F009C001F00AC002F00BC003F012005F
:101B50000001E951390806E3300EE95D03E3010EA7
:081B6000006E01D0006A1200C2
:101B680003500718D8A4C8EF0DF002500618D8A4DF
:101B7800C8EF0DF001500518D8A4C8EF0DF00050BB
:0E1B88000418D8B4D8841200D89412001200A9
:101B96000A6A0350D8A40A800750D8A40A820A50B9
:101BA600D8B42EEF0EF0030AD8B4E7EF0DF00AB062
:101BB600E2EF0DF006AE2CEF0EF02AEF0EF002AEBD
:101BC6002AEF0EF02CEF0EF00250800B0A6E029EEA
:101BD6000650800B069E0A18D8B4F8EF0DF00A508E
:101BE600D8B42AEF0EF02CEF0EF00750035CD8B4F1
:101BF60002EF0EF0D8A01EEF0EF024EF0EF0065006
:101C0600025CD8B40CEF0EF0D8A01EEF0EF024EF55
:101C16000EF00550015CD8B416EF0EF0D8A01EEFFA
:101C26000EF024EF0EF00450005CD8B42EEF0EF048
:101C3600D8B024EF0EF00A52D8B42CEF0EF02AEFEB
:101C46000EF00A52D8B42AEF0EF02CEF0EF0D88020
:0E1C56001200D8901200D880D884120012001C
:101C6400000167A55DD067A312D067A103D02D0E34
:101C7400036E02D02B0E036EE9C0E1FFEAC0E2FF5F
:101C840003C0E6FFE94BEA2B6A4B6B2B34D067A108
:101C94000BD0E9C0E1FFEAC0E2FF200EE66EE94B9B
:101CA400EA2B6A4B6B2B27D0C00E6715016E685167
:101CB400080B026E0250080A02E1800E01181BE1B3
:101CC400E9C0E1FFEAC0E2FF300EE66EE94BEA2B21
:101CD4006A4B6B2B67AB03D0580E046E02D0780EA0
:101CE400046EE9C0E1FFEAC0E2FF04C0E6FFE94B8D
:101CF400EA2B6A4B6B2B6351641111E0E9C0E1FFDD
:101D0400EAC0E2FF300EE66EE94BEA2B6A4B6B2B1E
:101D1400010E635F000E645B63516411EFE174D0E4
:101D24006351641113E067B711D0E9C0E1FFEAC061
:101D3400E2FF200EE66EE94BEA2B6A4B6B2B010E99
:101D4400635F000E645B63516411EFE167A312D01B
:101D540067A103D02D0E056E02D02B0E056EE9C0CF
:101D6400E1FFEAC0E2FF05C0E6FFE94BEA2B6A4B5C
:101D74006B2B0CD067A10AD0E9C0E1FFEAC0E2FFF7
:101D8400200EE66EE94BEA2B6A4B6B2BC00E6715EF
:101D9400016E6851080B026E0250080A02E1400EFF
:101DA40001180BE1E9C0E1FFEAC0E2FF300EE66E84
:101DB400E94BEA2B6A4B6B2B27D0C00E6715016EDB
:101DC4006851080B026E0250080A02E1800E0118E5
:101DD4001BE1E9C0E1FFEAC0E2FF300EE66EE94B29
:101DE400EA2B6A4B6B2B67AB03D0580E066E02D0FE
:101DF400780E066EE9C0E1FFEAC0E2FF06C0E6FF26
:101E0400E94BEA2B6A4B6B2B800E006E800E661931
:101E1400005C02E16551625D0BE2E9C0E1FFEAC0EA
:101E2400E2FF300EE66EE94BEA2B6A4B6B2BECD7E4
:0A1E3400E9C000F0EAC001F012005E
:101E3E000450085E0550D8A0053C095E0650D8A097
:101E4E00063C0A5E0750D8A0073C0B5E0336070E11
:101E5E000C6E0334083609360A360B36045003A0CE
:101E6E000ED0085E0550D8A0053C095E0650D8A0DD
:101E7E00063C0A5E0750D8A0073C0B5E0DD0082624
:101E8E000550D8B0053C09260650D8B0063C0A26A7
:101E9E000750D8B0073C0B2603360C2EDAD7023487
:101EAE00083609360A360B36045003A00ED0085EEB
:101EBE000550D8A0053C095E0650D8A0063C0A5E27
:101ECE000750D8A0073C0B5E0DD008260550D8B0A1
:101EDE00053C09260650D8B0063C0A260750D8B055
:101EEE00073C0B260236070E0C6E023408360936F6
:101EFE000A360B36045002A00ED0085E0550D8A04C
:101F0E00053C095E0650D8A0063C0A5E0750D8A0D4
:101F1E00073C0B5E0DD008260550D8B0053C0926AF
:101F2E000650D8B0063C0A260750D8B0073C0B2600
:101F3E0002360C2EDAD70134083609360A360B363D
:101F4E00045002A00ED0085E0550D8A0053C095ED4
:101F5E000650D8A0063C0A5E0750D8A0073C0B5E80
:101F6E000DD008260550D8B0053C09260650D8B02D
:101F7E00063C0A260750D8B0073C0B260136070E42
:101F8E000C6E0134083609360A360B36045001A0A1
:101F9E000ED0085E0550D8A0053C095E0650D8A0AC
:101FAE00063C0A5E0750D8A0073C0B5E0DD00826F3
:101FBE000550D8B0053C09260650D8B0063C0A2676
:101FCE000750D8B0073C0B2601360C2EDAD700345A
:101FDE00083609360A360B36045001A00ED0085EBC
:101FEE000550D8A0053C095E0650D8A0063C0A5EF6
:101FFE000750D8A0073C0B5E0DD008260550D8B070
:10200E00053C09260650D8B0063C0A260750D8B023
:10201E00073C0B260036070E0C6E003408360936C8
:10202E000A360B36045000A00ED0085E0550D8A01C
:10203E00053C095E0650D8A0063C0A5E0750D8A0A3
:10204E00073C0B5E0DD008260550D8B0053C09267E
:10205E000650D8B0063C0A260750D8B0073C0B26CF
:10206E0000360C2EDAD700B00ED0045008260550DC
:10207E00D8B0053C09260650D8B0063C0A260750B3
:08208E00D8B0073C0B2612003C
:102096000B1E0A1E091E081E082AD8B4092AD8B41F
:0820A6000A2AD8B40B2A12002B
:0C20AE000E0E0D6E0D2EFED7000012006D
:1020BA0000016A6B6B6B676B686BC3C000F0C4C0CE
:1020CA0001F0C5C002F0010EC327000EC423C523C8
:1020DA0000C0F6FF01C0F7FF02C0F8FF0900F5CF04
:1020EA0000F000C062F00052D8B44CEF15F0625113
:1020FA00250A0BE0C1C0E1FFC2C0E2FF62C0E6FFF1
:10210A00C14BC22B6A4B6B2BD8D7636B646B676B63
:10211A00686BC3C0E9F0C4C0EAF0C5C0EBF076DC76
:10212A0000C0C3F001C0C4F002C0C5F000C0F6FF91
:10213A0001C0F7FF02C0F8FF0900F5CF00F0000E5A
:10214A00016E00C0E9F0FFDC005234E0636B646B9F
:10215A0063C000F064C001F00A0E046E000E056E42
:10216A00CADCC3C0F6FFC4C0F7FFC5C0F8FF090048
:10217A00F5CF02F002500024636F000E0120646F55
:10218A00300E635F000E645B010EC327000EC4238A
:10219A00C523C3C0F6FFC4C0F7FFC5C0F8FF0900D6
:1021AA00F5CF00F0000E016E00C0E9F0CCDC005261
:1021BA00CFE133D0C3C0F6FFC4C0F7FFC5C0F8FFF4
:1021CA000900F5CF01F001502A0A27E1C6C0E9FF4C
:1021DA00C7C0EAFFEECF00F0EECF01F000C0E9FF82
:1021EA0001C0EAFFEECF63F0EECF64F0C6C0E9FFAC
:1021FA00C7C0EAFF020EEE24006E000EEE20016E4A
:10220A00C6C0E1FFC7C0E2FF00C0E6FF01C0E6FFAB
:10221A00010EC327000EC423C523C3C0F6FFC4C0E2
:10222A00F7FFC5C0F8FF0900F5CF01F001502E0AEB
:10223A006EE1010EC327000EC423C523C3C0F6FFF7
:10224A00C4C0F7FFC5C0F8FF0900F5CF01F001507F
:10225A002A0A28E1C6C0E9FFC7C0EAFFEECF00F0AC
:10226A00EECF01F000C0E9FF01C0EAFFEECF65F052
:10227A00EECF66F0C6C0E9FFC7C0EAFF020EEE2441
:10228A00006E000EEE20016EC6C0E1FFC7C0E2FF7D
:10229A0000C0E6FF01C0E6FF010EC327000EC423FB
:1022AA00C52334D0656B666BC3C0F6FFC4C0F7FFA5
:1022BA00C5C0F8FF0900F5CF00F0000E016E00C09E
:1022CA00E9F041DC005222E065C000F066C001F08E
:1022DA000A0E046E000E056E0EDCC3C0F6FFC4C003
:1022EA00F7FFC5C0F8FF0900F5CF02F0025000243D
:1022FA00656F000E0120666F300E655F000E665B2B
:10230A00010EC327000EC423C523CED702D0656BA6
:10231A00666BC3C000F0C4C001F0C5C002F0010E74
:10232A00C327000EC423C52300C0F6FF01C0F7FF70
:10233A0002C0F8FF0900F5CF62F0EFD06AC000F0E2
:10234A006BC001F0A8D3678D17D116D1678B678F41
:10235A0013D1C6C0E9FFC7C0EAFFEECF00F0EECF47
:10236A0001F000C0E9FF01C0EAFFEECFC8F0EECFEE
:10237A00C9F0C6C0E9FFC7C0EAFF020EEE24006E2C
:10238A00000EEE20016EC6C0E1FFC7C0E2FF00C02A
:10239A00E6FF01C0E6FF000EC91902E1000EC819E6
:1023AA0004E14D0EC86F000EC96FCA6BCB6BCA51E0
:1023BA00C825E96ECB51C921EA6EEE520BE0010E37
:1023CA00CA25006E000ECB21016E00C0CAF001C002
:1023DA00CBF0EDD7655166110AE0CB51665D02E19B
:1023EA00CA51655D04E265C0CAF066C0CBF06451AB
:1023FA00CB5D02E16351CA5D05E2CA51635FCB510D
:10240A00645B02D0636B646B67B716D063C000F07D
:10241A0064C001F0010E635F000E645B005001109E
:10242A000BE0C1C0E1FFC2C0E2FF200EE66EC14B65
:10243A00C22B6A4B6B2BEAD7CAC002F0CBC003F09F
:10244A00010ECA5D006E000ECB59016E00C0CAF0C3
:10245A0001C0CBF00250031019E0C8C0E9FFC9C09F
:10246A00EAFFC1C0E1FFC2C0E2FFEECFE6FFC14B07
:10247A00C22B010EC825006E000EC921016E00C0D4
:10248A00C8F001C0C9F06A4B6B2BD6D767A716D024
:10249A0063C000F064C001F0010E635F000E645B6C
:1024AA00005001100BE0C1C0E1FFC2C0E2FF200EE4
:1024BA00E66EC14BC22B6A4B6B2BEAD7FED5C6C060
:1024CA00E9FFC7C0EAFFEECF00F0EECF01F000C08F
:1024DA00E9FF01C0EAFFEECF62F0C6C0E9FFC7C05C
:1024EA00EAFF020EEE24006E000EEE20016EC6C058
:1024FA00E1FFC7C0E2FF00C0E6FF01C0E6FF620ECF
:10250A00C86F000EC96F010ECA6F000ECB6F62D77B
:10251A00C00E6713000E68132FD06251000AD8B498
:10252A000DD762516C0AD8B40ED762514C0AD8B48E
:10253A000AD762516F0AD8B406D76251640AD8B46E
:10254A0004D76251690AD8B400D76251700AD8B464
:10255A00FDD66251580AD8B4F9D66251780AD8B46D
:10256A00F6D66251730AD8B4F4D66251630AA7E068
:10257A006251750ACDE0C3D7C00E6715016E68C0F7
:10258A0002F0000E0216000E021802E1000E0118F7
:10259A003BE1C6C0E9FFC7C0EAFFEECF00F0EECFCD
:1025AA0001F000C0E9FF01C0EAFFEECFC8F0EECFAC
:1025BA00C9F0C6C0E9FFC7C0EAFF020EEE24006EEA
:1025CA00000EEE20016EC6C0E1FFC7C0E2FF00C0E8
:1025DA00E6FF01C0E6FF800EC919006E800E005C9E
:1025EA0002E1000EC85D0FE2030E6713000E6813C6
:1025FA00C8510008006EC9C001F0000E015600C0A3
:10260A00C8F001C0C9F022D0C6C0E9FFC7C0EAFFBE
:10261A00EECF00F0EECF01F000C0E9FF01C0EAFF03
:10262A00EECFC8F0EECFC9F0C6C0E9FFC7C0EAFFD7
:10263A00020EEE24006E000EEE20016EC6C0E1FF0F
:10264A00C7C0E2FF00C0E6FF01C0E6FF000E661940
:10265A0002E1000E651908E1000EC91902E1000E37
:10266A00C81902E1654B662BC00E6715006E00C0E3
:10267A0005F07BD0010E626F6251050A23E062C049
:10268A0000F0000E016E026E036E003600900136F5
:10269A00023603363D0E0024F66E560E0120F76E02
:1026AA00000E0220F86E0900F5CF01F00900F5CFFF
:1026BA0002F00250C95D02E10150C85D01E202D098
:1026CA00622BDAD75FD0010E626F6251040A23E0EF
:1026DA0062C000F0000E016E026E036E00360090BA
:1026EA00013602360336500E0024F66E560E0120CD
:1026FA00F76E000E0220F86E0900F5CF01F009000E
:10270A00F5CF02F00250C95D02E10150C85D01E255
:10271A0002D0622BDAD736D0010E626F6251060AF6
:10272A0023E062C000F0000E016E026E036E0036F6
:10273A000090013602360336190E0024F66E560E44
:10274A000120F76E000E0220F86E0900F5CF01F0A5
:10275A000900F5CF02F00250C95D02E10150C85DDF
:10276A0001E202D0622BDAD70DD00550000A82E0CE
:10277A000550C00AD8B47ED70550800AA4E0055097
:10278A00400ACAE0800E006E800E6619005C02E103
:10279A006551625D03E265C062F00DD0800E661974
:1027AA00006E800E005C02E16251655D04E262C067
:1027BA0065F0000E666F635164110EE0030E671533
:1027CA00006E68C001F0000E01160050011004E00E
:1027DA00010E635F000E645B800E6619006E800E48
:1027EA006419005C02E16351655D05E26551635F4E
:1027FA006651645B02D0636B646BC40E6715016E2D
:10280A006851080B026E0250080A02E1400E0118D4
:10281A0008E16351641104E0010E635F000E645B1A
:10282A001CD0C00E6715016E6851080B026E02506B
:10283A00080A02E1800E011810E1800E006E800E77
:10284A006419005C02E16351020805E2020E635F4B
:10285A00000E645B02D0636B646BC1C0E9F0C2C056
:10286A00EAF032EC0EF000C0C1F001C0C2F065C05F
:10287A0000F066C001F0010E655F000E665B005055
:10288A000110D8B4E6D0C00E6715006E00C0CCF0B7
:10289A00C6D065C000F066C001F0000E66BFFF0E2C
:1028AA00026E036E003600900136023603363D0E84
:1028BA000024F66E560E0120F76E000E0220F86E06
:1028CA000900F5CF04F00900F5CF05F0C8C000F003
:1028DA00C9C001F0A8EC05F00A0E046E000E056EE0
:1028EA00A8EC05F008C000F009C001F0300E002481
:1028FA00626FA4D067AB35D065C000F066C001F046
:10290A00000E66BFFF0E026E036E0036009001369F
:10291A0002360336500E0024F66E560E0120F76E6C
:10292A00000E0220F86E0900F5CF04F00900F5CF79
:10293A0005F0C8C000F0C9C001F0A8EC05F00F0E00
:10294A000016000E0116EC0E0024F66E550E01203C
:10295A00F76E000EF86E000EF8220900F5CF62F04D
:10296A0034D065C000F066C001F0000E66BFFF0EED
:10297A00026E036E00360090013602360336500EA0
:10298A000024F66E560E0120F76E000E0220F86E35
:10299A000900F5CF04F00900F5CF05F0C8C000F032
:1029AA00C9C001F0A8EC05F00F0E0016000E0116C2
:1029BA00DB0E0024F66E550E0120F76E000EF86E3F
:1029CA00000EF8220900F5CF62F038D065C000F099
:1029DA0066C001F0000E66BFFF0E026E036E00367F
:1029EA000090013602360336190E0024F66E560E92
:1029FA000120F76E000E0220F86E0900F5CF04F0F0
:102A0A000900F5CF05F0C8C000F0C9C001F0A8EC74
:102A1A0005F0070E0014626F300E62270FD0CC51FA
:102A2A00000AD8B436D7CC51C00AD8B432D7CC5160
:102A3A00800AD8B45FD7CC51400AC8E0C1C0E1FFD0
:102A4A00C2C0E2FF62C0E6FFC14BC22B6A4B6B2BCE
:102A5A000ED767A71AD0800E006E800E6419005C2C
:102A6A0002E16351000811E2C1C0E1FFC2C0E2FF06
:102A7A00200EE66EC14BC22B6A4B6B2B010E635FB5
:102A8A00000E645B63516411EFE162EF10F06AC0FB
:082A9A0000F06BC001F0120016
:102AA200939C939E939A9398939693948A9C8A9ECE
:102AB2008A948A968A988A9A56EC04F056EC04F024
:102AC20056EC04F08A888A8A8A8C53EC04F08A9C39
:102AD20056EC04F08A8C53EC04F08A9C56EC04F019
:102AE2008A8C53EC04F08A9C56EC04F08A9A8A8C05
:102AF20053EC04F08A9C56EC04F08A8C53EC04F0FC
:102B02008A9C8A988A848A8C53EC04F08A9C56ECBC
:102B120004F08A948A8A8A8C53EC04F08A9C8A9AFA
:102B22008A8C53EC04F08A9C56EC04F08A8C53ECA9
:102B320004F08A9C8A8A8A8C53EC04F08A9C56ECB4
:102B420004F08A9A8A8C53EC04F08A9C8A848A86DE
:102B52008A888A8A8A8C53EC04F08A9C56EC04F0A8
:062B620000016981120070
:102B680000016991C1C0E9F0C8EC0CF0698112005C
:102B78000001E16BE26BD56BD66BC3C000F0C4C03B
:102B880001F0C5C002F0010EC327000EC423C523FF
:102B980000C0F6FF01C0F7FF02C0F8FF0900F5CF3B
:102BA80000F000C0D2F00052D8B4CAEF25F0D251DC
:102BB800250A0BE0C1C0E1FFC2C0E2FFD2C0E6FFB8
:102BC800C14BC22BE14BE22BD8D7D36BD46BD56B5F
:102BD800D66B23D0D587010EC327000EC423C52387
:102BE80059D0D581010EC327000EC423C52352D066
:102BF800D583010EC327000EC423C5234BD0D68727
:102C0800010EC327000EC423C52344D0D585010E69
:102C1800C327000EC423C5233DD0C3C0F6FFC4C0DC
:102C2800F7FFC5C0F8FF0900F5CF01F001502D0AE4
:102C3800D1E0C3C0F6FFC4C0F7FFC5C0F8FF090064
:102C4800F5CF01F00150200ACCE0C3C0F6FFC4C0A4
:102C5800F7FFC5C0F8FF0900F5CF01F001502B0AB6
:102C6800C7E0C3C0F6FFC4C0F7FFC5C0F8FF09003E
:102C7800F5CF01F00150230AC2E0C3C0F6FFC4C07B
:102C8800F7FFC5C0F8FF0900F5CF01F00150300A81
:102C9800BDE001D09ED7D5A301D0D591D5A701D04D
:102CA800D595C3C0F6FFC4C0F7FFC5C0F8FF09003B
:102CB800F5CF00F0000E016E00C0E9F0A8EC0DF0B1
:102CC800005236E0D36BD46BD3C000F0D4C001F00F
:102CD8000A0E046E000E056E80EC0DF0C3C0F6FF00
:102CE800C4C0F7FFC5C0F8FF0900F5CF02F00250D5
:102CF8000024D36F000E0120D46F300ED35F000E76
:102D0800D45B010EC327000EC423C523C3C0F6FF3E
:102D1800C4C0F7FFC5C0F8FF0900F5CF00F0000EEA
:102D2800016E00C0E9F0A8EC0DF00052CDE133D0FF
:102D3800C3C0F6FFC4C0F7FFC5C0F8FF0900F5CF50
:102D480001F001502A0A27E1C6C0E9FFC7C0EAFF1F
:102D5800EECF00F0EECF01F000C0E9FF01C0EAFFBE
:102D6800EECFD3F0EECFD4F0C6C0E9FFC7C0EAFF7C
:102D7800020EEE24006E000EEE20016EC6C0E1FFCA
:102D8800C7C0E2FF00C0E6FF01C0E6FF010EC3278F
:102D9800000EC423C523C3C0F6FFC4C0F7FFC5C0D7
:102DA800F8FF0900F5CF01F001502E0A70E1010E7D
:102DB800C327000EC423C523C3C0F6FFC4C0F7FF52
:102DC800C5C0F8FF0900F5CF01F001502A0A28E133
:102DD800C6C0E9FFC7C0EAFFEECF00F0EECF01F0B2
:102DE80000C0E9FF01C0EAFFEECFD0F0EECFD1F08E
:102DF800C6C0E9FFC7C0EAFF020EEE24006E000E4F
:102E0800EE20016EC6C0E1FFC7C0E2FF00C0E6FFCA
:102E180001C0E6FF010EC327000EC423C52336D028
:102E2800D06BD16BC3C0F6FFC4C0F7FFC5C0F8FFB5
:102E38000900F5CF00F0000E016E00C0E9F0A8EC23
:102E48000DF0005223E0D0C000F0D1C001F00A0E0E
:102E5800046E000E056E80EC0DF0C3C0F6FFC4C012
:102E6800F7FFC5C0F8FF0900F5CF02F002500024B3
:102E7800D06F000E0120D16F300ED05F000ED15BF5
:102E8800010EC327000EC423C523CCD703D0D06BB3
:102E9800D16BD689C3C000F0C4C001F0C5C002F030
:102EA800010EC327000EC423C52300C0F6FF01C0CE
:102EB800F7FF02C0F8FF0900F5CFD2F0F9D0E1C062
:102EC80000F0E2C001F0CEEF25F0D589E3D7D68532
:102ED8002ED1D58BD6812BD1D68329D1D58D27D18B
:102EE80026D1D58BD58F23D1C6C0E9FFC7C0EAFF4D
:102EF800EECF00F0EECF01F000C0E9FF01C0EAFF1D
:102F0800EECFDDF0EECFDEF0C6C0E9FFC7C0EAFFC6
:102F1800020EEE24006E000EEE20016EC6C0E1FF28
:102F2800C7C0E2FF00C0E6FF01C0E6FF000EDE19E1
:102F380002E1000EDD1904E1150EDD6F000EDE6FF3
:102F4800DF6BE06BDF51DD25E96EE051DE21EA6ED3
:102F5800EE520BE0010EDF25006E000EE021016E3F
:102F680000C0DFF001C0E0F0EDD7D051D1110AE088
:102F7800E051D15D02E1DF51D05D04E2D0C0DFF065
:102F8800D1C0E0F0D451E05D02E1D351DF5D05E24C
:102F9800DF51D35FE051D45B02D0D36BD46BD5B78C
:102FA80016D0D3C000F0D4C001F0010ED35F000EDC
:102FB800D45B005001100BE0C1C0E1FFC2C0E2FFCA
:102FC800200EE66EC14BC22BE14BE22BEAD7DFC0E5
:102FD80002F0E0C003F0010EDF5D006E000EE05964
:102FE800016E00C0DFF001C0E0F00250031019E0EC
:102FF800DDC0E9FFDEC0EAFFC1C0E1FFC2C0E2FFF9
:10300800EECFE6FFC14BC22B010EDD25006E000E90
:10301800DE21016E00C0DDF001C0DEF0E14BE22BE5
:10302800D6D7D5A716D0D3C000F0D4C001F0010E72
:10303800D35F000ED45B005001100BE0C1C0E1FF6C
:10304800C2C0E2FF200EE66EC14BC22BE14BE22B61
:10305800EAD793D5C6C0E9FFC7C0EAFFEECF00F0B4
:10306800EECF01F000C0E9FF01C0EAFFEECFD2F0D9
:10307800C6C0E9FFC7C0EAFF020EEE24006E000ECC
:10308800EE20016EC6C0E1FFC7C0E2FF00C0E6FF48
:1030980001C0E6FFD20EDD6F000EDE6F010EDF6F9E
:1030A800000EE06F62D7C00ED513000ED6133FD0C6
:1030B800D251000AD8B403D7D2516C0AD8B405D774
:1030C800D2514C0AD8B401D7D251660AD8B4FFD627
:1030D800D251450AD8B4FDD6D251650AD8B4FAD629
:1030E800D251670AD8B4F8D6D2516F0AD8B4F6D6F6
:1030F800D251640AD8B4F4D6D251690AD8B4F0D6F9
:10310800D251700AD8B4EDD6D251580AD8B4E9D6FB
:10311800D251780AD8B4E6D6D251730AD8B4E4D6D4
:10312800D251630A97E0D251750ABDE0B3D7000EB9
:10313800D515006ED651070B016E00500110D8B49A
:1031480071EF21F0D6A904D0060ED06F000ED16F12
:10315800C6C0E9FFC7C0EAFFEECF00F0EECF01F02E
:1031680000C0E9FF01C0EAFFEECFD7F0EECFD8F0FC
:10317800EECFD9F0EECFDAF0C6C0E9FFC7C0EAFF5C
:10318800040EEE24006E000EEE20016EC6C0E1FFB4
:10319800C7C0E2FF00C0E6FF01C0E6FF046A056A97
:1031A800066A076AD7C000F0D8C001F0D9C002F09B
:1031B800DAC003F0CBEC0DF0010ED8B0000E006EB3
:1031C800005205E0D97F030ED513000ED613DB6B32
:1031D800DC6BD7C000F0D8C001F0D9C002F0DAC06B
:1031E80003F0046A056A066A076AB4EC0DF0000E7B
:1031F800D8A4010E006E0052D8B48AD0DAC000F00C
:10320800016A026A036AFF0E0016000E01167E0E9E
:10321800005E000E015A00C0DBF001C0DCF0010EB8
:10322800005E000E015A00C0DBF001C0DCF0030EA6
:10323800046E000E056E80EC0DF000C0DBF001C0DE
:10324800DCF00A0E046E000E056E98EC08F000C063
:10325800DBF001C0DCF0800E0118026E800E025C0B
:1032680002E1000E005C05E2010E0001DB5F000ECA
:10327800DC5B0001DB510008E96FC3EC05F0D7C047
:1032880004F0D8C005F0D9C006F0DAC007F0AEECFB
:1032980003F000C0DDF001C0DEF002C0DFF003C0C3
:1032A800E0F0000E046E000E056E000E066E7F0E36
:1032B800076EDDC000F0DEC001F0DFC002F0E0C044
:1032C80003F0CBEC0DF0010ED8B0000E006E0052EA
:1032D80005E0010EDB5F000EDC5B1AD0000E046E09
:1032E800000E056E200E066E820E076EDDC000F021
:1032F800DEC001F0DFC002F0E0C003F0CBEC0DF05F
:10330800000ED8B0010E006E005202E0DB4BDC2B41
:10331800800E006E800EDC19005C02E1DB510008B3
:1033280003E3010ED26F02D0DBC0D2F0D6B118D0C1
:10333800D6A315D0800EDC19006E7F0E005C02E16A
:10334800FC0EDB5D0BE3800EDC19006E800ED119DC
:10335800005C02E1D051DB5D01E201D001D0EFD386
:10336800D051D11106E0D6A304D0010ED05F000ED3
:10337800D15BD151000802E1D051080803E2080EE0
:10338800D26F02D0D0C0D2F0D7C000F0D8C001F0C0
:10339800D9C002F0DAC003F0046A056A066A076A4F
:1033A800B4EC0DF0000ED8A4010E006E0052D8B493
:1033B8004BD1DBC0E9F0C3EC05F000C004F001C05C
:1033C80005F002C006F003C007F0D7C000F0D8C06F
:1033D80001F0D9C002F0DAC003F0FCEC08F000C03C
:1033E800D7F001C0D8F002C0D9F003C0DAF000016C
:1033F800D2510008E96FC3EC05F000C004F001C029
:1034080005F002C006F003C007F0D7C000F0D8C02E
:1034180001F0D9C002F0DAC003F0FCEC08F000C0FB
:10342800E3F001C0E4F002C0E5F003C0E6F0E3C059
:10343800D7F0E4C0D8F0E5C0D9F0E6C0DAF0E3C0D0
:1034480000F0E4C001F0E5C002F0E6C003F00DECC6
:1034580005F0BEEC09F000C004F001C005F002C0A0
:1034680006F003C007F0E3C000F0E4C001F0E5C0D7
:1034780002F0E6C003F0BAEC09F0000E046E000E8C
:10348800056E000E066E7E0E076ECBEC0DF0000E7C
:10349800D8B0010E006E00521AE0D7C000F0D8C0B4
:1034A80001F0D9C002F0DAC003F0000E046E000E7D
:1034B800056E000E066E7E0E076E23EC01F000C04E
:1034C800D7F001C0D8F002C0D9F003C0DAF0D7C0F5
:1034D80000F0D8C001F0D9C002F0DAC003F00DEC5A
:1034E80005F00001D251010F096E0A6A000E0A2286
:1034F80009C004F00AC005F0000E0ABEFF0E066EF1
:10350800076E0436049005360636073604360490EE
:10351800053606360736710E0424F66E550E05205C
:10352800F76E000E0620F86E0900F5CF05F00900C9
:10353800F5CF06F00900F5CF07F00900F5CF08F040
:103548000850035C08E10750025C05E10650015C85
:1035580002E10550005C1EE30001D7C000F0D8C0AE
:1035680001F0D9C002F0DAC003F0CD0E046ECC0E23
:10357800056E4C0E066E7B0E076EAEEC03F000C0B7
:10358800D7F001C0D8F002C0D9F003C0DAF0DB4BA5
:10359800DC2B5AD0D7C000F0D8C001F0D9C002F057
:1035A800DAC003F00DEC05F0D2C004F0000E056E91
:1035B800066E076E0436049005360636073604365E
:1035C8000490053606360736710E0424F66E550E3D
:1035D8000520F76E000E0620F86E0900F5CF05F0FD
:1035E8000900F5CF06F00900F5CF07F00900F5CF7F
:1035F80008F00850035C08E10750025C05E106503A
:10360800015C02E10550005C1FE20001D7C000F038
:10361800D8C001F0D9C002F0DAC003F0000E046E81
:10362800000E056E200E066E820E076EAEEC03F0DD
:1036380000C0D7F001C0D8F002C0D9F003C0DAF05A
:10364800010EDB5F000EDC5B0001D6A393D0D6B77A
:1036580091D0800E000A006E800ED119005C02E144
:10366800D0510A0804E20A0ED06F000ED16FD7C0FD
:1036780000F0D8C001F0D9C002F0DAC003F00DECB8
:1036880005F000C0DDF001C0DEF002C0DFF003C0CD
:10369800E0F0DD51DE11DF11E01142E00A0E046EA8
:1036A800000E056E066E076EDDC000F0DEC001F08C
:1036B800DFC002F0E0C003F0D1EC09F008C000F070
:1036C80009C001F00AC002F00BC003F0000E046E3E
:1036D800031808E10450021805E10450011802E13A
:1036E8000050000A1DE1010ED05F000ED15B0A0EEA
:1036F800046E000E056E066E076EDDC000F0DEC0BB
:1037080001F0DFC002F0E0C003F0D1EC09F000C026
:10371800DDF001C0DEF002C0DFF003C0E0F0B9D791
:10372800800ED119006E800E005C02E1D251D05D8E
:1037380021E2D051D25DE96FC3EC05F000C004F07E
:1037480001C005F002C006F003C007F0D7C000F0C2
:10375800D8C001F0D9C002F0DAC003F0FCEC08F0E0
:1037680000C0D7F001C0D8F002C0D9F003C0DAF029
:10377800D0C0D2F0050E0001D025006E000ED12178
:10378800016E0050D35F0150D45BD051D11103E1D9
:10379800D6B701D004D0010ED35F000ED45B030E60
:1037A800D515006ED6C001F0000E011600500110AC
:1037B80004E0010ED35F000ED45BD5A539D0D5A3A4
:1037C80012D0D5A103D02D0EC86F02D02B0EC86F12
:1037D800C1C0E1FFC2C0E2FFC8C0E6FFC14BC22BB7
:1037E800E14BE22B0CD0D5A10AD0C1C0E1FFC2C089
:1037F800E2FF200EE66EC14BC22BE14BE22B800E9E
:10380800006E800ED419005C02E1D35100080FE26B
:10381800C1C0E1FFC2C0E2FF300EE66EC14BC22B51
:10382800E14BE22B010ED35F000ED45BE8D73AD010
:10383800D5B718D0800E006E800ED419005C02E156
:10384800D35100080FE2C1C0E1FFC2C0E2FF200E61
:10385800E66EC14BC22BE14BE22B010ED35F000E8B
:10386800D45BE8D7D5A312D0D5A103D02D0EC96F4C
:1038780002D02B0EC96FC1C0E1FFC2C0E2FFC9C0B0
:10388800E6FFC14BC22BE14BE22B0CD0D5A10AD0ED
:10389800C1C0E1FFC2C0E2FF200EE66EC14BC22BE1
:1038A800E14BE22BD7C000F0D8C001F0D9C002F03C
:1038B800DAC003F00DEC05F000C0DDF001C0DEF069
:1038C80002C0DFF003C0E0F0D2C000F0000E016ECD
:1038D800026E036E0036009001360236033600365B
:1038E8000090013602360336710E0024F66E550E2E
:1038F8000120F76E000E0220F86E0900F5CF04F0E3
:103908000900F5CF05F00900F5CF06F00900F5CF5D
:1039180007F0DDC000F0DEC001F0DFC002F0E0C05B
:1039280003F0D1EC09F0300E0026C1C0E1FFC2C09F
:10393800E2FF00C0E6FFC14BC22BE14BE22BD051A6
:10394800D11103E1D6B701D06FD0C1C0E1FFC2C029
:10395800E2FF2E0EE66EC14BC22BE14BE22BD25199
:10396800D05F000ED15BD2534DE0D207D2C000F039
:10397800000E016E026E036E0036009001360236AC
:10398800033600360090013602360336710E0024E5
:10399800F66E550E0120F76E000E0220F86E090033
:1039A800F5CF04F00900F5CF05F00900F5CF06F0D2
:1039B8000900F5CF07F0DDC000F0DEC001F0DFC080
:1039C80002F0E0C003F0D1EC09F00A0E046E000E1C
:1039D800056E066E076ED1EC09F008C000F009C04C
:1039E80001F00AC002F00BC003F0300E0026C1C07F
:1039F800E1FFC2C0E2FF00C0E6FFC14BC22BE14BB2
:103A0800E22BB1D7D051D1110FE0C1C0E1FFC2C044
:103A1800E2FF300EE66EC14BC22BE14BE22B010EEA
:103A2800D05F000ED15BEED7D5AB0BD0C1C0E1FFA4
:103A3800C2C0E2FF450EE66EC14BC22BE14BE22B42
:103A48000AD0C1C0E1FFC2C0E2FF650EE66EC14BFD
:103A5800C22BE14BE22B800EDC19006E800E005C5D
:103A680002E1000EDB5D11E2DB510008DB6FDC5187
:103A7800000EDC57C1C0E1FFC2C0E2FF2D0EE66EAA
:103A8800C14BC22BE14BE22B0AD0C1C0E1FFC2C03F
:103A9800E2FF2B0EE66EC14BC22BE14BE22B0A0E66
:103AA800046E000E056EDBC000F0DCC001F098EC7F
:103AB80008F0300E0026C1C0E1FFC2C0E2FF00C01E
:103AC800E6FF0001C14BC22BE14BE22B0A0E046E4C
:103AD800000E056EDBC000F0DCC001F098EC08F0C9
:103AE80008C000F009C001F0300E0026C1C0E1FF97
:103AF800C2C0E2FF00C0E6FF0001C14BC22BE14B90
:103B0800E22BD5A71AD0800E006E800ED419005C67
:103B180002E1D351000811E2C1C0E1FFC2C0E2FFD7
:103B2800200EE66EC14BC22BE14BE22B010ED35F98
:103B3800000ED45BD351D411EFE1C1EF15F0D6A339
:103B4800F3D0800EDC19006E800E005C02E1000EDE
:103B5800DB5D0AE2010EDB5D006E000EDC59016ED2
:103B68000050D05F0150D15BD7C000F0D8C001F041
:103B7800D9C002F0DAC003F00DEC05F000C0DDF0AA
:103B880001C0DEF002C0DFF003C0E0F0010ED26F2A
:103B9800D2510A0A34E0D2C000F0000E016E026E63
:103BA800036E003600900136023603360036009068
:103BB800013602360336710E0024F66E550E0120CA
:103BC800F76E000E0220F86E0900F5CF01F009002B
:103BD800F5CF02F00900F5CF03F00900F5CF04F0A6
:103BE8000450E05D08E10350DF5D05E10250DE5D51
:103BF80002E10150DD5D01E202D0D22BC9D7D251DA
:103C0800D05DE76F000ED159E86FE7C0D0F0E8C08B
:103C1800D1F0DDC000F0DEC001F0DFC002F0E0C08E
:103C280003F0BEEC09F000C004F001C005F002C0CA
:103C380006F003C007F0D7C000F0D8C001F0D9C023
:103C480002F0DAC003F0BAEC09F000C0E3F001C0FA
:103C5800E4F002C0E5F003C0E6F0E7C0E9F0C3EC29
:103C680005F0E3C004F0E4C005F0E5C006F0E6C0E6
:103C780007F0AEEC03F0000E046E000E056E000EA9
:103C8800066E7E0E076E23EC01F00DEC05F000C009
:103C9800DDF001C0DEF002C0DFF003C0E0F0D0517B
:103CA800D11142E00A0E046E000E056E066E076E14
:103CB800DDC000F0DEC001F0DFC002F0E0C003F0BC
:103CC800D1EC09F008C000F009C001F00AC002F008
:103CD8000BC003F0000E046E031808E1045002182C
:103CE80005E10450011802E10050000A1DE10A0E26
:103CF800046E000E056E066E076EDDC000F0DEC0B5
:103D080001F0DFC002F0E0C003F0D1EC09F000C020
:103D1800DDF001C0DEF002C0DFF003C0E0F0010E0C
:103D2800D05F000ED15BBBD7800E006E800ED1191C
:103D3800005C02E1D0510C0816E3D0C0E9F047EC72
:103D48000BF0D7C004F0D8C005F0D9C006F0DAC02F
:103D580007F023EC01F000C0D7F001C0D8F002C092
:103D6800D9F003C0DAF0D7C000F0D8C001F0D9C04C
:103D780002F0DAC003F0046A056A066A076AB4EC5E
:103D88000DF0000ED8A4010E006E0052D8B477D002
:103D9800D7C000F0D8C001F0D9C002F0DAC003F0F3
:103DA8000DEC05F0000E046E031808E1045002182B
:103DB80005E10450011802E10050000A60E1800E9C
:103DC800006E800EDC19005C02E1DB51010857E24D
:103DD800DBC0E9F0C3EC05F000C004F001C005F059
:103DE80002C006F003C007F0D7C000F0D8C001F049
:103DF800D9C002F0DAC003F0FCEC08F05F0E046EE4
:103E0800700E056E090E066E810E076ECBEC0DF076
:103E1800010ED8B0000E006E005206E0090E000137
:103E2800DB5F000EDC5B05D00001080EDB5F000ED7
:103E3800DC5BDBC0E9F0C3EC05F000C004F001C0B6
:103E480005F002C006F003C007F0D7C000F0D8C0E4
:103E580001F0D9C002F0DAC003F0FCEC08F00DEC78
:103E680005F000C0DDF001C0DEF002C0DFF003C0E5
:103E7800E0F00001D76BD86BD96BDA6B38D0D7C0BC
:103E880000F0D8C001F0D9C002F0DAC003F00DECA0
:103E980005F000C0DDF001C0DEF002C0DFF003C0B5
:103EA800E0F0DDC000F0DEC001F0DFC002F0E0C0ED
:103EB80003F0BEEC09F000C004F001C005F002C038
:103EC80006F003C007F0D7C000F0D8C001F0D9C091
:103ED80002F0DAC003F0BAEC09F000C0D7F001C074
:103EE800D8F002C0D9F003C0DAF0DB6BDC6B010E4E
:103EF800D26FD2510A0A34E0D2C000F0000E016E2F
:103F0800026E036E00360090013602360336003624
:103F18000090013602360336710E0024F66E550EF7
:103F28000120F76E000E0220F86E0900F5CF01F0AF
:103F38000900F5CF02F00900F5CF03F00900F5CF2D
:103F480004F00450E05D08E10350DF5D05E1025034
:103F5800DE5D02E10150DD5D01E202D0D22BC9D75E
:103F6800D251D025006E000ED121016EDB51002602
:103F7800DC5101220050D35F0150D45BD6B704D086
:103F8800D051D11101E104D0010ED35F000ED45BF2
:103F9800030ED515006ED6C001F0000E01160050B4
:103FA800011004E0010ED35F000ED45BD5A539D013
:103FB800D5A312D0D5A103D02D0ECA6F02D02B0ED7
:103FC800CA6FC1C0E1FFC2C0E2FFCAC0E6FFC14B71
:103FD800C22BE14BE22B0CD0D5A10AD0C1C0E1FF26
:103FE800C2C0E2FF200EE66EC14BC22BE14BE22BB2
:103FF800800E006E800ED419005C02E1D3510008D7
:104008000FE2C1C0E1FFC2C0E2FF300EE66EC14B55
:10401800C22BE14BE22B010ED35F000ED45BE8D735
:104028003AD0D5B718D0800E006E800ED419005C37
:1040380002E1D35100080FE2C1C0E1FFC2C0E2FFB4
:10404800200EE66EC14BC22BE14BE22B010ED35F73
:10405800000ED45BE8D7D5A312D0D5A103D02D0E7E
:10406800CB6F02D02B0ECB6FC1C0E1FFC2C0E2FF05
:10407800CBC0E6FFC14BC22BE14BE22B0CD0D5A144
:104088000AD0C1C0E1FFC2C0E2FF200EE66EC14BFC
:10409800C22BE14BE22BD2C000F0D20700524CE019
:1040A800D2C000F0000E016E026E036E0036009062
:1040B80001360236033600360090013602360336E2
:1040C800710E0024F66E550E0120F76E000E0220C8
:1040D800F86E0900F5CF04F00900F5CF05F00900E6
:1040E800F5CF06F00900F5CF07F0DDC000F0DEC01F
:1040F80001F0DFC002F0E0C003F0D1EC09F00A0ED5
:10410800046E000E056E066E076ED1EC09F008C04D
:1041180000F009C001F00AC002F00BC003F0300E35
:104128000026C1C0E1FFC2C0E2FF00C0E6FFC14BEC
:10413800C22BE14BE22BAFD7800E006E800EDC194C
:10414800005C02E1DB5100080FE2C1C0E1FFC2C020
:10415800E2FF300EE66EC14BC22BE14BE22B010EA3
:10416800DB5F000EDC5BE8D7800E000A006E800E75
:10417800D119005C02E1D051080803E2080ED26FA1
:1041880002D0D0C0D2F0D251D05F000ED15BD25352
:1041980003E1D6B701D00AD0C1C0E1FFC2C0E2FF37
:1041A8002E0EE66EC14BC22BE14BE22BD2C0E9F0DA
:1041B800C3EC05F0D7C004F0D8C005F0D9C006F0AC
:1041C800DAC007F0AEEC03F075EC04F000C0DDF0E7
:1041D80001C0DEF002C0DFF003C0E0F0D2534DE0D2
:1041E800D207D2C000F0000E016E026E036E0036D8
:1041F800009001360236033600360090013602364A
:104208000336710E0024F66E550E0120F76E000E6F
:104218000220F86E0900F5CF04F00900F5CF05F08B
:104228000900F5CF06F00900F5CF07F0DDC000F072
:10423800DEC001F0DFC002F0E0C003F0D1EC09F00D
:104248000A0E046E000E056E066E076ED1EC09F0BC
:1042580008C000F009C001F00AC002F00BC003F06A
:10426800300E0026C1C0E1FFC2C0E2FF00C0E6FF79
:10427800C14BC22BE14BE22BB1D7D051D1110FE08A
:10428800C1C0E1FFC2C0E2FF300EE66EC14BC22BD7
:10429800E14BE22B010ED05F000ED15BEED7D5A724
:1042A8001AD0800E006E800ED419005C02E1D35142
:1042B800000811E2C1C0E1FFC2C0E2FF200EE66EB5
:1042C800C14BC22BE14BE22B010ED35F000ED45B36
:1042D800D351D411EFE1C1EF15F0C00ED515016E21
:1042E800D6C002F0000E0216000E021802E1000EFF
:1042F8000118D8A480D0D5A927D0C6C0E9FFC7C067
:10430800EAFFEECF00F0EECF01F000C0E9FF01C0F8
:10431800EAFFEECFDDF0EECFDEF0EECFDFF0EECF4E
:10432800E0F0C6C0E9FFC7C0EAFF040EEE24006E45
:10433800000EEE20016EC6C0E1FFC7C0E2FF00C05C
:10434800E6FF01C0E6FF2FD0C6C0E9FFC7C0EAFFFD
:10435800EECF00F0EECF01F000C0E9FF01C0EAFFA8
:10436800EECF00F0EECF01F0000E01BEFF0E026EA0
:10437800036E00C0DDF001C0DEF002C0DFF003C054
:10438800E0F0C6C0E9FFC7C0EAFF020EEE24006EE7
:10439800000EEE20016EC6C0E1FFC7C0E2FF00C0FC
:1043A800E6FF01C0E6FF800EE019006E800E005C9B
:1043B80008E1000EDF5D05E1000EDE5D02E1000EA2
:1043C800DD5D18E2030ED513000ED613006A016AEC
:1043D800026A036ADD51005EDE51015ADF51025A5A
:1043E800E051035A00C0DDF001C0DEF002C0DFF08A
:1043F80003C0E0F04ED0D5A927D0C6C0E9FFC7C09A
:10440800EAFFEECF00F0EECF01F000C0E9FF01C0F7
:10441800EAFFEECFDDF0EECFDEF0EECFDFF0EECF4D
:10442800E0F0C6C0E9FFC7C0EAFF040EEE24006E44
:10443800000EEE20016EC6C0E1FFC7C0E2FF00C05B
:10444800E6FF01C0E6FF25D0C6C0E9FFC7C0EAFF06
:10445800EECF00F0EECF01F000C0E9FF01C0EAFFA7
:10446800EECFDDF0EECFDEF0000EDF6FE06FC6C0FE
:10447800E9FFC7C0EAFF020EEE24006E000EEE2030
:10448800016EC6C0E1FFC7C0E2FF00C0E6FF01C081
:10449800E6FF000ED11902E1000ED0190FE1000E5F
:1044A800006EE01908E10050DF1905E10050DE193F
:1044B80002E1DD51000A02E1D04BD12BC00ED51527
:1044C800006E00C005F0AED0010ED26FD2510A0ABC
:1044D80034E0D2C000F0000E016E026E036E0036AA
:1044E8000090013602360336003600900136023657
:1044F8000336710E0024F66E550E0120F76E000E7D
:104508000220F86E0900F5CF01F00900F5CF02F09E
:104518000900F5CF03F00900F5CF04F00450E05D81
:1045280008E10350DF5D05E10250DE5D02E1015064
:10453800DD5D01E202D0D22BC9D782D0010ED26F45
:10454800D251080A34E0D2C000F0000E016E026EAB
:10455800036E0036009001360236033600360090AE
:10456800013602360336990E0024F66E550E0120E8
:10457800F76E000E0220F86E0900F5CF01F0090071
:10458800F5CF02F00900F5CF03F00900F5CF04F0EC
:104598000450E05D08E10350DF5D05E10250DE5D97
:1045A80002E10150DD5D01E202D0D22BC9D748D02B
:1045B800010ED26FD2510C0A34E0D2C000F0000EC6
:1045C800016E026E036E0036009001360236033625
:1045D80000360090013602360336410E0024F66E8E
:1045E800550E0120F76E000E0220F86E0900F5CF77
:1045F80001F00900F5CF02F00900F5CF03F009003A
:10460800F5CF04F00450E05D08E10350DF5D05E1FB
:104618000250DE5D02E10150DD5D01E202D0D22BE5
:10462800C9D70ED00550000AD8B44ED70550C00AD5
:10463800D8B44AD70550800A81E00550400AB8E04E
:10464800800E006E800ED119005C02E1D051D25D5F
:1046580003E2D0C0D2F00DD0800ED119006E800ECA
:10466800005C02E1D251D05D04E2D2C0D0F0000E6D
:10467800D16FD351D4110EE0030ED515006ED6C0FC
:1046880001F0000E01160050011004E0010ED35F86
:10469800000ED45B800ED119006E800ED419005C18
:1046A80002E1D351D05D05E2D051D35FD151D45B43
:1046B80002D0D36BD46BC40ED515016ED651080B3E
:1046C800026E0250080A02E1400E011808E1D351B7
:1046D800D41104E0010ED35F000ED45B1CD0C00ED1
:1046E800D515016ED651080B026E0250080A02E178
:1046F800800E011810E1800E006E800ED419005C47
:1047080002E1D351020805E2020ED35F000ED45B2A
:1047180002D0D36BD46BD5A55DD0D5A312D0D5A1CB
:1047280003D02D0ECC6F02D02B0ECC6FC1C0E1FF91
:10473800C2C0E2FFCCC0E6FFC14BC22BE14BE22B6B
:1047480034D0D5A10BD0C1C0E1FFC2C0E2FF200E1A
:10475800E66EC14BC22BE14BE22B27D0C00ED5151C
:10476800016ED651080B026E0250080A02E1800E53
:1047780001181BE1C1C0E1FFC2C0E2FF300EE66EC6
:10478800C14BC22BE14BE22BD5AB03D0580ECD6FFA
:1047980002D0780ECD6FC1C0E1FFC2C0E2FFCDC02C
:1047A800E6FFC14BC22BE14BE22BD351D41111E0F0
:1047B800C1C0E1FFC2C0E2FF300EE66EC14BC22BA2
:1047C800E14BE22B010ED35F000ED45BD351D41121
:1047D800EFE174D0D351D41113E0D5B711D0C1C0D3
:1047E800E1FFC2C0E2FF200EE66EC14BC22BE14BD7
:1047F800E22B010ED35F000ED45BD351D411EFE14D
:10480800D5A312D0D5A103D02D0ECE6F02D02B0E7A
:10481800CE6FC1C0E1FFC2C0E2FFCEC0E6FFC14B10
:10482800C22BE14BE22B0CD0D5A10AD0C1C0E1FFCD
:10483800C2C0E2FF200EE66EC14BC22BE14BE22B59
:10484800C00ED515016ED651080B026E0250080A2B
:1048580002E1400E01180BE1C1C0E1FFC2C0E2FF56
:10486800300EE66EC14BC22BE14BE22B27D0C00EB7
:10487800D515016ED651080B026E0250080A02E1E6
:10488800800E01181BE1C1C0E1FFC2C0E2FF300E7B
:10489800E66EC14BC22BE14BE22BD5AB03D0580ED1
:1048A800CF6F02D0780ECF6FC1C0E1FFC2C0E2FF68
:1048B800CFC0E6FFC14BC22BE14BE22B800E006E4E
:1048C800800ED119005C02E1D051D25D0BE2C1C06B
:1048D800E1FFC2C0E2FF300EE66EC14BC22BE14BD6
:1048E800E22BECD7D0C000F0D1C001F0010ED05FB0
:1048F800000ED15B00500110D8B42AD1C00ED515D6
:10490800006E00C0E3F00AD1D0C000F0D1C001F0C1
:10491800000ED1BFFF0E026E036E00360090013606
:104928000236033600360090013602360336710E21
:104938000024F66E550E0120F76E000E0220F86E68
:104948000900F5CF04F00900F5CF05F00900F5CF0F
:1049580006F00900F5CF07F0DDC000F0DEC001F079
:10496800DFC002F0E0C003F0D1EC09F00A0E046EDB
:10497800000E056E066E076ED1EC09F008C000F057
:1049880009C001F00AC002F00BC003F0300E002489
:10499800D26FD3D0D5AB45D0D0C000F0D1C001F094
:1049A800000ED1BFFF0E026E036E00360090013676
:1049B8000236033600360090013602360336990E69
:1049C8000024F66E550E0120F76E000E0220F86ED8
:1049D8000900F5CF04F00900F5CF05F00900F5CF7F
:1049E80006F00900F5CF07F0DDC000F0DEC001F0E9
:1049F800DFC002F0E0C003F0D1EC09F00F0E0016A2
:104A0800000E011602160316B90E0024F66E550E96
:104A18000120F76E000E0220F86E0900F5CFD2F0E3
:104A280044D0D0C000F0D1C001F0000ED1BFFF0EBD
:104A3800026E036E003600900136023603360036E9
:104A48000090013602360336990E0024F66E550E94
:104A58000120F76E000E0220F86E0900F5CF04F071
:104A68000900F5CF05F00900F5CF06F00900F5CFEC
:104A780007F0DDC000F0DEC001F0DFC002F0E0C0EA
:104A880003F0D1EC09F00F0E0016000E0116021605
:104A98000316CA0E0024F66E550E0120F76E000E9E
:104AA8000220F86E0900F5CFD2F047D0D0C000F050
:104AB800D1C001F0000ED1BFFF0E026E036E0036AA
:104AC8000090013602360336003600900136023671
:104AD8000336410E0024F66E550E0120F76E000EC7
:104AE8000220F86E0900F5CF04F00900F5CF05F0B3
:104AF8000900F5CF06F00900F5CF07F0DDC000F09A
:104B0800DEC001F0DFC002F0E0C003F0D1EC09F034
:104B1800070E0014D26F300ED2270FD0E351000ACF
:104B2800D8B4F2D6E351C00AD8B4EED6E351800A1D
:104B3800D8B430D7E351400AB9E0C1C0E1FFC2C0E0
:104B4800E2FFD2C0E6FFC14BC22BE14BE22BCAD633
:104B5800D5A71AD0800E006E800ED419005C02E131
:104B6800D351000811E2C1C0E1FFC2C0E2FF200E2C
:104B7800E66EC14BC22BE14BE22B010ED35F000E58
:104B8800D45BD351D411EFE1C1EF15F0E1C000F0CF
:064B9800E2C001F0120072
:104B9E0051EC15F0010EE96FC8EC0CF00C0EE96F3C
:0A4BAE00C8EC0CF095908382120011
:104BB800C26A4C1C006E0050C1160F0EC012C08E87
:104BC800B4C000F000360090003600900050C212C9
:104BD800C28057EC10F0C282C2A201D0FDD7C4CF68
:104BE80001F0006A00C0B5F001C0B6F0C350001271
:104BF800000E011200C0B5F001C0B6F0C290000E60
:104C08000014026E0150800B036E000E031802E1BF
:104C1800000E021803E00001B56BB66BB5C000F0DA
:064C2800B6C001F012000D
:104C2E00220E0C6E086A096A0A6A0B6A0C06D8B460
:104C3E001FD0D8900B320A320932083203320232B8
:104C4E0001320032D8A0F2D70C06D8B409D00450E5
:104C5E0008260550092206500A2207500B22EAD7D1
:104C6E00045008260550092206500A2207500B222E
:024C7E00120022
:104C80000450000A12E10550000A0FE10650000A24
:104C90000CE10750000A09E1FF0E006EFF0E016EE5
:104CA000FF0E026E7F0E036E99D00C6A07BE0C2AAF
:104CB0000D6A0B6A0A6A096A086A03500210011039
:104CC0000010D8B485D0035007180E6E0EBE0D1E0E
:104CD00007AE0BD0041E051E061E071E042AD8B4FC
:104CE000052AD8B4062AD8B4072A03AE0BD0001E72
:104CF000011E021E031E002AD8B4012AD8B4022ABB
:104D0000D8B4032A035007100E6E0EBE1DD01FEC40
:104D10000FF00CBE36D00DAE5BD0001E011E021E81
:104D2000031E002AD8B4012AD8B4022AD8B4032A10
:104D3000081E091E0A1E0B1E082AD8B4092AD8B458
:104D40000A2AD8B40B2A44D007AE15D003BE0DD022
:104D500003500B6E02500A6E0150096E0050086E2F
:104D6000036A026A016A006AD6D7036A026A016AA4
:104D7000006A002A000C031E021E011E001E0C8E7B
:104D8000C6D7082AD8B4092AD8B40A2AD8B40B2A14
:104D90000450085CD8A4BFD70550095CD8A4BBD781
:104DA00006500A5CD8A4B7D707500B5CD8A4B3D779
:104DB0000B6A0A6A096A086A002AD8B4012AD8B4B8
:104DC000022AD8B4032A03AEA6D70E6A0E88FF0CB7
:0E4DD0000E6A0CA002D04BEC10F0000F120087
:104DDE000050086E0150006E0250016E0350026EBC
:104DEE00036A0B6A0C6A9E0E036E0A6A02AE0CEF21
:104DFE0027F0081E001E011E021E082AD8B4002A23
:104E0E00D8B4012AD8B4022A0A8E020E0C6E32ECE5
:044E1E0000F012008E
:104E220010D0800E0001B46F1AD0C00EB46F17D02C
:104E3200940EB46F14D0D40EB46F11D0800EB46F30
:104E42000ED00001B451010AECE0B451020AEDE0C7
:104E5200B451030AEDE0B451040AEDE0EFD7B50511
:104E6200006EB451002600C0B4F000C0E9F0C8ECF6
:104E72000CF06991B86BB851B625E96E000EB721F6
:104E8200EA6EEE520CE0B851B625E96E000EB7217B
:104E9200EA6EEECFC1F0B4EC15F0B82BECD7698115
:024EA2001200FC
:104EA400B90E0001BF6F000EC06FB4C0C1F0B5C031
:104EB400C2F0B6C0C3F0B7C0C4F0B8C0C5F0BF0EEE
:104EC400C66F000EC76FBCEC15F000C0BDF001C08A
:104ED400BEF00050B425E16E0150B521E26EE66AE1
:0A4EE400BDC000F0BEC001F01200D6
:104EEE00B90E0001BD6F000EBE6FB4C0C1F0B5C0EB
:104EFE00C2F0B6C0C3F0B7C0C4F0B8C0C5F0BD0EA6
:104F0E00C66F000EC76F5DEC10F000C0BBF001C0A5
:104F1E00BCF00050B425E16E0150B521E26EE66A98
:0A4F2E00BBC000F0BCC001F012008F
:104F3800F26A0F0E0F01386F396B3A6B3B6B836A5D
:104F4800C16AFF0E926E936A956AF80E966E9592F4
:104F580022DE020E0B6E040E0C6EBA0E0D6E0D2EB6
:0E4F6800FED70C2EFCD70B2EFAD7000012003D
:104F76000900F5CFE6FF0006FBE10106F9E11200A4
:104F860090C0B4F016DE000E01BEFF0E026E036E78
:104F9600B80E046E0B0E056E000E066E076E44DE2E
:104FA600FF0E046E030E056E000E066E076E65DEBE
:024FB6001200E7
:104FB800A00E0001B46F000EB56F470EB66F560E07
:104FC800B76F000EB86F0A0E046E000E056E90C023
:104FD80000F091C001F0A8EC05F000C0B9F001C0E4
:104FE800BAF081DF010EB46F010EB56FA00EB66F77
:104FF800000EB76F12DFA00EB46F000EB56F580E1B
:10500800B66F560EB76F000EB86F94C000F095C01B
:1050180001F096C002F097C003F0DDDE000E046ECA
:10502800000E056E480E066E850E076EFCEC08F045
:1050380000C0B9F001C0BAF002C0BBF003C0BCF0B8
:105048002DDF010EB46F0D0EB56FA00EB66F000EFA
:10505800B76FE3DEA00EB46F000EB56F250EB66F06
:10506800560EB76F000EB86F98C000F099C001F0E7
:105078009AC002F09BC003F0AEDE000E046E000E74
:10508800056E480E066E850E076EFCEC08F000C033
:10509800B9F001C0BAF002C0BBF003C0BCF0FEDE3C
:1050A800020EB46F010EB56FA00EB66F000EB76F8B
:1050B800B4DEA00EB46F000EB56F5F0EB66F560E5D
:1050C800B76F000EB86F0A0E046E000E056E9CC016
:1050D80000F09DC001F0A8EC05F000C0B9F001C0D7
:1050E800BAF001DF020EB46F0D0EB56FA00EB66FE9
:0850F800000EB76F92DE1200FA
:1051000036EC2BF000016C6B6D6B6E6B6F6B706B24
:10511000716B726B736B746B756B766B776B786B93
:10512000796B7A6B7B6B08DF8380010EB46F020EA4
:10513000B56F1C0EB66F000EB76F73DE020EB46F44
:10514000010EB56F2B0EB66F000EB76F6ADE1F0E25
:105150000B6E710E0C6E1E0E0D6E0D2EFED70C2EEC
:10516000FCD70B2EFAD70000010EE96FC8EC0CF04B
:10517000906B09DF00C06CF001C06DF002C06EF0F2
:1051800003C06FF0010E0001906FFDDE00C070F0F3
:1051900001C071F002C072F003C073F0020E000192
:1051A000906FF1DE00C074F001C075F002C076F0BF
:1051B00003C077F0030E0001906FE5DE00C078F0C9
:1051C00001C079F002C07AF003C07BF0010E00014B
:1051D000E96FC8EC0CF083B0ABD0640E046E000E27
:1051E000056E066E076E70C000F071C001F072C0EF
:1051F00002F073C003F044DD800E046E800E0318CD
:10520000045C08E10250000805E10150000802E1D9
:10521000005004081FE30A0E046E000E056E066EB1
:10522000076E78C000F079C001F07AC002F07BC050
:1052300003F026DD800E0318046E800E045C08E186
:10524000000E025C05E1000E015C02E1700E005CE4
:1052500001E26DD08380010E0001B46F010EB56FC5
:105260003E0EB66F000EB76FDCDD7C0EB46F000E25
:10527000B56F0D0EB66F560EB76F000EB86F74C0D7
:1052800000F075C001F076C002F077C003F0A7DD32
:10529000000E046E000E056E480E066E850E076E3B
:1052A000FCEC08F000C0B9F001C0BAF002C0BBF0DD
:1052B00003C0BCF0F7DD020EB46F010EB56F7C0EBB
:1052C000B66F000EB76FADDD7C0EB46F000EB56F1C
:1052D000670EB66F560EB76F000EB86F0A0E046EEB
:1052E000000E056E78C000F079C001F0A8EC05F062
:1052F00000C0B9F001C0BAF0FADD020EB46F0D0EB5
:10530000B56F7C0EB66F000EB76F8BDD1F0E0B6E88
:10531000710E0C6E1E0E0D6E0D2EFED70C2EFCD7D0
:105320000B2EFAD70000010EE96FC8EC0CF01FD06D
:105330000A0E046E000E056E066E076E78C000F051
:1053400079C001F07AC002F07BC003F099DC800ED6
:10535000046E800E0318045C08E10250000805E1A9
:105360000150000802E100506C08D8B0839083A07F
:1053700022D06CC090F06DC091F06EC092F06FC002
:1053800093F070C094F071C095F072C096F073C045
:1053900097F074C098F075C099F076C09AF077C015
:1053A0009BF078C09CF079C09DF07AC09EF07BC0E5
:1053B0009FF002DE5BD00001010EB46F010EB56FED
:1053C000520EB66F000EB76F2CDD7C0EB46F000E60
:1053D000B56F310EB66F560EB76F000EB86F74C052
:1053E00000F075C001F076C002F077C003F0F7DC82
:1053F000000E046E000E056E480E066E850E076EDA
:10540000FCEC08F000C0B9F001C0BAF002C0BBF07B
:1054100003C0BCF047DD020EB46F010EB56F7C0E09
:10542000B66F000EB76FFDDC7C0EB46F000EB56F6B
:10543000630EB66F560EB76F000EB86F0A0E046E8D
:10544000000E056E78C000F079C001F0A8EC05F000
:1054500000C0B9F001C0BAF04ADD020EB46F0D0E03
:10546000B56F7C0EB66F000EB76FDBDC0B0E0B6EEC
:10547000260E0C6E5D0E0D6E0D2EFED70C2EFCD77B
:0C5480000B2EFAD70000000073D6FFD7F7
:10566C0010EE15F04D0E006E010E016E8C0EF66EE6
:0E567C00540EF76E000EF86EBBEC27F0120015
:07548C00286E756C6C29000D
:0F5493004A534D20456E67656E6861726961000E
:1054A2004E422D3430305720762E30312E30312E70
:0354B20030310096
:0E54B5005061727469646120436F6E762E0040
:0154C3000FD9
:0554C4006E756C6C0028
:1054C900436F6E762E204465736C696761646F0063
:1054D9000000007FCDCC4C7B0AD723786F1203756F
:1054E90017B75171ACC5276EBD37066B95BF5667A7
:1054F90077CC2B645F700961FFE65B5D08E53C3C96
:045509006042221BBF
:10550D000000007F000020820000488500007A889E
:10551D0000401C8C0050438F002474928096189686
:10552D0020BC3E99286B6E9CF90215A0EC782DC11C
:04553D00CAF249E283
:10554100010000000800000040000000000200000F
:105551000010000000800000000004000000200096
:1055610000000001000000080000004000000000F1
:10557100010000000A00000064000000E8030000D0
:1055810010270000A086010040420F00809698007D
:0855910000E1F50500CA9A3B98
:1055990001000000100000000001000000100000E0
:1055A90000000100000010000000000100000010D0
:1055B9003031323334353637383941424344454640
:0155C90000E1
:1055CA00303132333435363738396162636465666F
:0155DA0000D0
:1055DB00303132333435363738396162636465665E
:0155EB0000BF
:1055EC00303132333435363738394142434445460D
:0155FC0000AE
:0455FD0000000000AA
:0456010000000000A5
:0456050000000000A1
:04560900000000009D
:0C560D004261742E3A25322E31665600A0
:0C561900010008004000000200100080AA
:0C5625004261742E3A25322E3166560088
:0C5631004261742E3A25322E316656007C
:0A563D0001000A006400E8031027D2
:09564700526564653A25755600B0
:08565000010010000001001030
:0756580025322E31665600D9
:04565F002575560057
:045663002575560053
:04566700257556004F
:020000040030CA
:0D000100230F3CFFBF81FF0FC00FE00F4039
:00000001FF
