:1000000080EF28F00000000000EF00F0000000008A
:0A0010000000000000000000F3D71C
:08001C000AAE029E000E120064
:100024000B840BAE1DEF00F0010E036E026A016A31
:0A003400006A0A360232FF0E1200C5
:0E003E00026A016A006A086A036A000E120074
:10004C000B820BAE30EF00F00368026801680068A9
:08005C000A360232FF0E120009
:100064000CB074EF00F00CA21AEF01F00E6A000E4F
:1000740002648BEF00F0F00E0214D8A456EF00F0E7
:10008400023A01380F0B02260138F00B016E0038DA
:100094000F0B01260038F00B006E08380F0B0026FA
:1000A4000838F00B086E0E84D89002BE6FEF00F093
:1000B40008360036013602360E2A02BE6FEF00F013
:1000C40008360036013602360E2A02BE6FEF00F003
:1000D40008360036013602360E2A0E50036410EF3D
:1000E40001F0035E0BBC08AE15EF01F0D880800E62
:1000F40008640030000E002201220222D8A015EF6D
:1001040001F0023201320032034A1AEF01F015EF16
:1001140001F001C002F000C001F008C000F0086A5C
:10012400000E0E860264C2EF00F0F00E0214D8A492
:10013400AAEF00F0023A01380F0B02260138F00B47
:10014400016E00380F0B01260038F00B006E0E8490
:10015400D89002BE6FEF00F00036013602360E2A48
:1001640002BE6FEF00F00036013602360E2A02BEE0
:100174006FEF00F00036013602360E2A6FEF00F002
:1001840001C002F000C001F0006A000E0E960E8855
:100194000264EFEF00F0F00E0214D8A4DAEF00F0DE
:1001A400023A01380F0B02260138F00B016E0E845F
:1001B400D89002BE6FEF00F0013602360E2A02BE5E
:1001C4006FEF00F0013602360E2A02BE6FEF00F028
:1001D400013602360E2A6FEF00F001C002F0016A08
:1001E400000E0E8602641FEF01F0F00E0214D8A474
:1001F400FEEF00F0023A0E84D89002BE6FEF00F0DA
:1002040002360E2A02BE6FEF00F002360E2A02BE3C
:100214006FEF00F002360E2A6FEF00F0010E0C6E45
:10022400FFDE22EF01F0020E0C6EF6DE22EF01F08B
:10023400040E0C6E09DF22EF01F0080E0C6EFDDED9
:020244001200A6
:10024600025006180E6E086A096A0B6A03500764A4
:1002560016EF02F006500A6E068E028E03500B6EE3
:100266000750036E000E0B6466EF01F00B50075E3D
:10027600D8B407EF02F0070E0764D5EF01F0075E6A
:1002860000C008F001C000F002C001F0026A074E8B
:1002960007EF02F00764AAEF01F0075E00C008F05E
:1002A60001C000F0016A074E07EF02F0076488EF0D
:1002B60001F0075E00C008F0006A074E07EF02F083
:1002C60007646FEF01F00AC002F005C001F004C038
:1002D60000F0086A30EF03F0030E07647AEF01F0CE
:1002E600075E08380F0B086E074E07EF02F0D8902E
:1002F6000832074E07EF02F0D8900832074E07EF94
:1003060002F0D890083207EF02F0030E076499EF67
:1003160001F0075E08380F0B086E0038F00B082650
:1003260000380F0B006E074E07EF02F0D890003230
:100336000832074E07EF02F0D89000320832074E17
:1003460007EF02F0D8900032083207EF02F0030EF2
:100356000764C1EF01F0075E08380F0B086E00381E
:10036600F00B082600380F0B006E0138F00B002644
:1003760001380F0B016E074E07EF02F0D8900132DD
:1003860000320832074E07EF02F0D89001320032F1
:100396000832074E07EF02F0D890013200320832D9
:1003A60007EF02F0030E0764F2EF01F0075E08386C
:1003B6000F0B086E0038F00B082600380F0B006E86
:1003C6000138F00B002601380F0B016E0238F00BD6
:1003D600012602380F0B026E074E07EF02F0D89087
:1003E6000232013200320832074E07EF02F0D8908F
:1003F6000232013200320832074E07EF02F0D8907F
:100406000232013200320832096A000E0EAEFBEFEC
:1004160002F0081E001E011E021E082A00220122EA
:100426000222FBEF02F00750D8A41CEF02F030EFD7
:1004360003F0096A02C00AF0028E068E0750035CBA
:10044600076ED8B4EEEF02F0070E0764BCEF02F0B9
:10045600075E0450096E0550046E0650056E066A66
:10046600074EEEEF02F0070E076491EF02F0075E0B
:100476000450096E0550046E056A074EEEEF02F051
:10048600070E07646FEF02F0075E0450096E046AF8
:10049600074EEEEF02F0070E076456EF02F00AC0B1
:1004A60002F030EF03F0030E076461EF02F0075E1F
:1004B60009380F0B096E074EEEEF02F0D89009329D
:1004C600074EEEEF02F0D8900932074EEEEF02F03B
:1004D600D8900932EEEF02F0030E076480EF02F0C7
:1004E600075E09380F0B096E0438F00B092604382D
:1004F6000F0B046E074EEEEF02F0D890043209326D
:10050600074EEEEF02F0D89004320932074EEEEFB6
:1005160002F0D89004320932EEEF02F0030E0764BF
:10052600A8EF02F0075E09380F0B096E0438F00BCE
:10053600092604380F0B046E0538F00B042605381F
:100546000F0B056E074EEEEF02F0D890053204321F
:100556000932074EEEEF02F0D89005320432093226
:10056600074EEEEF02F0D890053204320932EEEF74
:1005760002F0030E0764D9EF02F0075E09380F0B8D
:10058600096E0438F00B092604380F0B046E053883
:10059600F00B042605380F0B056E0638F00B052602
:1005A60006380F0B066E074EEEEF02F0D8900632B5
:1005B600053204320932074EEEEF02F0D8900632C9
:1005C600053204320932074EEEEF02F0D8900632B9
:1005D600053204320932086A000E0EAEFBEF02F055
:1005E600091E041E051E061E092A042205220622CD
:1005F6000950082604500022055001220650022206
:100606000EBE12EF03F0D8A021EF03F00232013242
:1006160000320832033E21EF03F02BEF03F0D8B08F
:1006260026EF03F0000E081E001E011E021E082AF9
:100636000022012202220A7E26EF03F0010E0C6E32
:100646000EDD32EF03F0020E0C6E09DD32EF03F021
:10065600040E0C6EF8DC32EF03F0000E0C6E120086
:100666000D6A086A0050D8B4000C04180A6E0ABE57
:100676000D1E0B6A04AE02D0041E042A00AE02D080
:10068600001E002A005004100A6E0ABE1FD0045035
:10069600085E003600340836045008260036060E7A
:1006A6000C6E00340836045000B0085E00A0082620
:1006B60000360C2EF6D700A008260BB015D00DAECE
:1006C600000C001E002A081E082A000C04AE09D0E1
:1006D60000BE04D00050086E006AF1D7006A002AF6
:1006E600000C001E0B2AD3D7082A0450085CD8A495
:0E06F600E6D7086A002A00AEE2D7FF0C120019
:100704000134083609360450085E0550D8A0053C6B
:10071400095E003601360F0E0C6E013408360936B8
:10072400045000A006D0085E0550D8A0053C095E20
:1007340005D008260550D8B0053C092600360136F8
:100744000C2EEBD700B006D0045008260550D8B0C4
:08075400053C0926000012001B
:10075C00086A096A000E0762036433EF04F0025062
:10076C0006180A6E075003267E0ED8A0C4EF03F0BD
:10077C00035ED8B038EF04F0C8EF03F0035ED8A0E6
:10078C003DEF04F0028E068E02C00EF001C00BF09D
:10079C0000C00DF000500402F4CF0CF00150050223
:1007AC00F4CF00F0F3CF08F00402F3500C26F45011
:1007BC000822000E00220D500502F3500C26F450B6
:1007CC000822000E002202500402F3500826F450B6
:1007DC00002202500502016A000E0122F35000268D
:1007EC00F45001220D500602F3500826F45000225A
:1007FC00026A000E012202220B500602F350002660
:10080C00F4500122000E02220E500602F350012673
:10081C00F450022202BE1BEF04F0083600360136FB
:10082C0002360306D8B43DEF04F02EEF04F0D88066
:10083C00800E08640030000E002201220222D8A093
:10084C002EEF04F0023201320032034A38EF04F08A
:10085C000AAE029E000E40EF04F0010E1FEC00F0F9
:10086C0040EF04F0020E26EC00F040EF04F0040E12
:06087C0012EC00F0120076
:100882000B800BAE4DEF04F0026A0AAEFF0E026E51
:0C089200016E006E0A360232FF0E1200EA
:08089E000B6A0B86FF0E12002D
:0608A6000000000012003A
:1008AC000F0E0C6E470E0D6E0D2EFED70C2EFCD7B8
:0608BC0000000000120024
:0A08C200210E0D6E0D2EFED7120060
:1008CC00086A080E0C6E003408360450085ED8B066
:0E08DC0002D00826D89000360C2EF5D7120058
:1008EA000B6A0C6A086A0350D8B4F9EF04F002C024
:1008FA000AF0028E9E0E035E03AEE9EF04F0036C6B
:10090A00080E035CD8A0B6EF04F0036E083600C0E8
:10091A0008F001C000F002C001F0026A080E035C90
:10092A00D8A0B6EF04F0036E083600C008F001C084
:10093A0000F0016A080E035CD8A0B6EF04F0036E5B
:10094A00083600C008F0006A080E035CD8A0B6EFAB
:10095A0004F0036E0836086A0350D8A4D890C2EF90
:10096A0004F00350D8B4C2EF04F0D8900232013236
:10097A0000320832032EBAEF04F00BBC08A0D3EF02
:10098A0004F0D8A0D3EF04F0082AD8B4002AD8B4C7
:10099A00012AD8B4022A02BEFDEF04F00AAEF9EF2A
:1009AA0004F0021E011E001E081E082AD8B4002ADE
:1009BA00D8B4012AD8B4022AF9EF04F0026A016A0B
:1009CA00006A086AF9EF04F00B800BAE03EF05F03A
:1009DA00026A0AAE03EF05F0026E016E006E086E3F
:1009EA000A36023203EF05F00C6A000E04EF05F036
:1009FA00010E0C6E000E40DF04EF05F0FF0E0250F0
:100A0A00036E0150026E0050016E0850006E120013
:100A1A000B6A0C6A0A6A086A0350D8B495EF05F0A3
:100A2A00028E9E0E035E03BE20EF05F0D8B420EFBF
:100A3A0005F085EF05F0036C080E035CD8A052EFB1
:100A4A0005F0036E083600C008F001C000F002C0CD
:100A5A0001F0026A080E035CD8A052EF05F0036E9B
:100A6A00083600C008F001C000F0016A080E035CF5
:100A7A00D8A052EF05F0036E083600C008F0006AED
:100A8A00080E035CD8A052EF05F0036E0836086A18
:100A9A000350D8A4D8905EEF05F00350D8B45EEFA7
:100AAA0005F0D8900232013200320832032E56EF96
:100ABA0005F00BBC08A06FEF05F0D8A06FEF05F0AA
:100ACA00082AD8B4002AD8B4012AD8B4022A02BE05
:100ADA0099EF05F00AAE95EF05F0021E011E001E01
:100AEA00081E082AD8B4002AD8B4012AD8B4022A7F
:100AFA0095EF05F0026A016A006A086A95EF05F047
:100B0A000B800BAE9EEF05F0026A0AAE9EEF05F06F
:100B1A00026E016E006E086E0A3602329EEF05F012
:100B2A00000E0C6A9FEF05F0010E0C6EA5DE9FEF1A
:100B3A0005F0FF0E0250036E0150026E0050016E66
:060B4A000850006E1200CD
:100B5000086A096A100E0C6E013408360936045012
:100B6000085E0550D8A0053C095ED8B007D00450F7
:100B700008260550D8B0053C0926D8900036013625
:060B80000C2EEAD7120062
:100B8600800E0001E619006E800E000A005CD8B0E7
:100B960064D1E6510008016E01C0E6F0800E01182E
:100BA600006E800E6E0A005CD8A0BAD0640E046E89
:100BB600E6C000F055DD120E0024056E000E00BEE4
:100BC600FF0E066E000E062205C000F006C001F0FC
:100BD600000E06BEFF0E026E036E00360090013652
:100BE6000236033600360090013602360336D60E3C
:100BF6000024F66E540E0120F76E000E0220F86EE9
:100C06000900F5CFE7F00900F5CFE8F00900F5CFC8
:100C1600E9F00900F5CFEAF0640E046EE6C000F0D4
:100C26001FDD08C000F00A0E046E1ADD090E00244E
:100C3600056E000E00BEFF0E066E000E062205C0F3
:100C460000F006C001F0000E06BEFF0E026E036E37
:100C56000036009001360236033600360090013623
:100C660002360336D60E0024F66E540E0120F76EB9
:100C7600000E0220F86E0900F5CF00F00900F5CF4E
:100C860001F00900F5CF02F00900F5CF03F0E7C047
:100C960004F0E8C005F0E9C006F0EAC007F05BDD45
:100CA60000C0E7F001C0E8F002C0E9F003C0EAF0D6
:100CB6000A0E046EE6C000F0D3DC08C000F000C0E7
:100CC60001F0000E00BEFF0E026E036E046E0136CA
:100CD6000190023603360436013601900236033699
:100CE6000436D60E0124F66E540E0220F76E000E60
:100CF6000320F86E0900F5CF00F00900F5CF01F0EA
:100D06000900F5CF02F00900F5CF03F0E7C004F0C3
:100D1600E8C005F0E9C006F0EAC007F01CDD04D221
:100D2600800E0A0A006E800EE619005C6EE20A0E5C
:100D3600046EE6C000F094DC090E0024056E000E79
:100D460000BEFF0E066E000E062205C000F006C0AD
:100D560001F0000E06BEFF0E026E036E0036009016
:100D66000136023603360036009001360236033667
:100D7600D60E0024F66E540E0120F76E000E0220E9
:100D8600F86E0900F5CFE7F00900F5CFE8F00900A5
:100D9600F5CFE9F00900F5CFEAF00A0E046EE6C0D9
:100DA60000F05EDC08C000F000C001F0000E00BEDE
:100DB600FF0E026E036E046E013601900236033694
:100DC600043601360190023603360436D60E012467
:100DD600F66E540E0220F76E000E0320F86E090020
:100DE600F5CF00F00900F5CF01F00900F5CF02F0CC
:100DF6000900F5CF03F0E7C004F0E8C005F0E9C04C
:100E060006F0EAC007F0A7DC8FD1E6C000F0000EBE
:100E1600E6BFFF0E016E026E036E003600900136CD
:100E26000236033600360090013602360336D60EF9
:100E36000024F66E540E0120F76E000E0220F86EA6
:100E46000900F5CF00F00900F5CF01F00900F5CF54
:100E560002F00900F5CF03F067D1800EE619006EA7
:100E6600800E6E0A005CD8A0C0D0640E046EE6C088
:100E760000F033EC03F0120E0024056E000E00BEE7
:100E8600FF0E066E000E062205C000F006C001F039
:100E9600000E06BEFF0E026E036E0036009001368F
:100EA60002360336003600900136023603360A0E45
:100EB6000024F66E550E0120F76E000E0220F86E25
:100EC6000900F5CFE7F00900F5CFE8F00900F5CF06
:100ED600E9F00900F5CFEAF0640E046EE6C000F012
:100EE60033EC03F008C000F00A0E046E33EC03F096
:100EF600090E0024056E000E00BEFF0E066E000EE3
:100F0600062205C000F006C001F0000E06BEFF0E68
:100F1600026E036E00360090013602360336003646
:100F260000900136023603360A0E0024F66E550E80
:100F36000120F76E000E0220F86E0900F5CF00F0D2
:100F46000900F5CF01F00900F5CF02F00900F5CF51
:100F560003F0E7C004F0E8C005F0E9C006F0EAC017
:100F660007F0AEEC03F000C0E7F001C0E8F002C005
:100F7600E9F003C0EAF00A0E046EE6C000F033ECB6
:100F860003F008C000F000C001F0000E00BEFF0E26
:100F9600026E036E046E0136019002360336043685
:100FA600013601900236033604360A0E0124F66E27
:100FB600550E0220F76E000E0320F86E0900F5CFDD
:100FC60000F00900F5CF01F00900F5CF02F00900A5
:100FD600F5CF03F0E7C004F0E8C005F0E9C006F07D
:100FE600EAC007F0AEEC03F09FD0800E0A0A006E4E
:100FF600800EE619005C71E20A0E046EE6C000F08F
:1010060033EC03F0090E0024056E000E00BEFF0E41
:10101600066E000E062205C000F006C001F0000EA6
:1010260006BEFF0E026E036E0036009001360236D3
:101036000336003600900136023603360A0E0024C7
:10104600F66E550E0120F76E000E0220F86E0900AE
:10105600F5CFE7F00900F5CFE8F00900F5CFE9F0A4
:101066000900F5CFEAF00A0E046EE6C000F033EC94
:1010760003F008C000F000C001F0000E00BEFF0E35
:10108600026E036E046E0136019002360336043694
:10109600013601900236033604360A0E0124F66E36
:1010A600550E0220F76E000E0320F86E0900F5CFEC
:1010B60000F00900F5CF01F00900F5CF02F00900B4
:1010C600F5CF03F0E7C004F0E8C005F0E9C006F08C
:1010D600EAC007F0AEEC03F027D0E6C000F0000E41
:1010E600E6BFFF0E016E026E036E003600900136FB
:1010F60002360336003600900136023603360A0EF3
:101106000024F66E550E0120F76E000E0220F86ED2
:101116000900F5CF00F00900F5CF01F00900F5CF81
:0A11260002F00900F5CF03F01200FB
:101130000450000A08E10550000A05E1FF0E006EA8
:101140007F0E016E58D00D6A096A086A01500010BE
:10115000D8B4000C015005180A6E0ABE0D1E0B6AA9
:1011600005AE05D0041E051E042AD8B4052A01AE1A
:1011700005D0001E011E002AD8B4012A0150051016
:101180000A6E0ABE10D082EC03F00BB020D00DAE78
:10119000000C001E011E002AD8B4012A081E091ED8
:1011A000082AD8B4092A000C05AE0DD001BE07D01C
:1011B0000150096E0050086E016A006AE8D7016AA2
:1011C000006A002A000C011E001E0B2ADDD7082A27
:1011D000D8B4092A0450085CD8A4D9D70550095CB2
:1011E000D8A4D5D7096A086A002AD8B4012A01AE62
:0811F000CED70000FF0C120035
:1011F8000450000A12E10550000A0FE10650000AE7
:101208000CE10750000A09E1FF0E006EFF0E016EA7
:101218007F0E026EFF0E036EA8D0086A096A075097
:10122800D8B4A7EF09F00350D8B4ACEF09F00250D6
:1012380006180A6E028E068E0E6A02C008F001C0F9
:101248000CF000C00DF004500D5E0550D8A0053C10
:101258000C5E0650D8A0063C085E086A0C6A0D6A47
:10126800D8A03EEF09F0D89002320132003208329D
:10127800010E0E6E0750035ED8A04BEF09F07E0EEC
:101288000E240326D8B0B1EF09F051EF09F07E0E15
:101298000E240326D8A0B6EF09F0180E0B6E0D36F3
:1012A8000C3608360036013602360E360450005E1B
:1012B8000550D8A0053C015E0650D8A0063C025E49
:1012C80006340E120EA06CEF09F00D8077EF09F0CE
:1012D800045000260550D8B0053C01260650D8B069
:1012E800062802260D900B2E53EF09F09DEF09F00A
:1012F800D8900036013602360E360450005E05508E
:10130800D8A0053C015E0650D8A0063C025E063413
:101318000E10010B0D26D8B00C2AD8B4082AD8A470
:101328009DEF09F008320C320D32032AD8B4B1EF20
:1013380009F00AAE089E0850026E0C50016E0D505E
:10134800006EB9EF09F0010E4FEC04F0B9EF09F0A7
:10135800020E1FEC00F0B9EF09F0040E26EC00F0C5
:0C136800B9EF09F0080E12EC00F01200C2
:08137400067E23EC01F01200DB
:10137C000050086E0150006E0250016E0350026E58
:10138C00036A0B6A0C6A9E0E036E0A6A020E0C6EDE
:06139C0032EC00F012002B
:1013A2000B6A0A6A096A086A0E6A0334083604502C
:1013B200085E0550D8A0053C095E0650D8A0063C40
:1013C2000A5E0750D8A0073C0B5EE86AD8A0010E5F
:1013D2000E5E0336070E0C6E0334083609360A36E3
:1013E2000B360E36045003A012D0085E0550D8A06A
:1013F200053C095E0650D8A0063C0A5E0750D8A0FC
:10140200073C0B5EE86AD8A0010E0E5E11D00826DA
:101412000550D8B0053C09260650D8B0063C0A262D
:101422000750D8B0073C0B26E86AD8B0010E0E264A
:1014320003360C2ED1D70234083609360A360B365B
:101442000E36045003A012D0085E0550D8A0053C09
:10145200095E0650D8A0063C0A5E0750D8A0073C99
:101462000B5EE86AD8A0010E0E5E11D00826055068
:10147200D8B0053C09260650D8B0063C0A260750CB
:10148200D8B0073C0B26E86AD8B0010E0E26023609
:10149200070E0C6E0234083609360A360B360E3643
:1014A200045002A012D0085E0550D8A0053C095E87
:1014B2000650D8A0063C0A5E0750D8A0073C0B5E37
:1014C200E86AD8A0010E0E5E11D008260550D8B0E9
:1014D200053C09260650D8B0063C0A260750D8B06B
:1014E200073C0B26E86AD8B0010E0E2602360C2EF7
:1014F200D1D70134083609360A360B360E36045077
:1015020002A012D0085E0550D8A0053C095E065024
:10151200D8A0063C0A5E0750D8A0073C0B5EE86ADA
:10152200D8A0010E0E5E11D008260550D8B0053C99
:1015320009260650D8B0063C0A260750D8B0073C08
:101542000B26E86AD8B0010E0E260136070E0C6E85
:101552000134083609360A360B360E36045001A01D
:1015620012D0085E0550D8A0053C095E0650D8A0EE
:10157200063C0A5E0750D8A0073C0B5EE86AD8A07A
:10158200010E0E5E11D008260550D8B0053C092682
:101592000650D8B0063C0A260750D8B0073C0B26A6
:1015A200E86AD8B0010E0E2601360C2ED1D70034CF
:1015B200083609360A360B360E36045001A012D010
:1015C200085E0550D8A0053C095E0650D8A0063C2E
:1015D2000A5E0750D8A0073C0B5EE86AD8A0010E4D
:1015E2000E5E11D008260550D8B0053C09260650DB
:1015F200D8B0063C0A260750D8B0073C0B26E86A4A
:10160200D8B0010E0E260036070E0C6E00340836D6
:1016120009360A360B360E36045000A012D0085E88
:101622000550D8A0053C095E0650D8A0063C0A5ECB
:101632000750D8A0073C0B5EE86AD8A0010E0E5EE8
:1016420011D008260550D8B0053C09260650D8B05E
:10165200063C0A260750D8B0073C0B26E86AD8B0E9
:10166200010E0E2600360C2ED1D700B00ED004503B
:1016720008260550D8B0053C09260650D8B0063CCD
:0C1682000A260750D8B0073C0B261200C7
:10168E006E0E0001E65DD8A0CAD0640E046EE6C0F0
:10169E0000F066EC04F0120E0024056E066A000ED1
:1016AE00062205C000F006C001F0000E06BEFF0EB9
:1016BE00026E036E00360090013602360336003697
:1016CE000090013602360336D60E0024F66E540E06
:1016DE000120F76E000E0220F86E0900F5CF00F023
:1016EE000900F5CF01F00900F5CF02F00900F5CFA2
:1016FE0003F0000E046E000E056E000E066E7E0EDA
:10170E00076EAEEC03F000C0E7F001C0E8F002C0D7
:10171E00E9F003C0EAF0640E046EE6C000F066EC79
:10172E0004F008C000F00A0E046E66EC04F0090E18
:10173E000024056E066A000E062205C000F006C0E3
:10174E0001F0000E06BEFF0E026E036E0036009014
:10175E000136023603360036009001360236033665
:10176E00D60E0024F66E540E0120F76E000E0220E7
:10177E00F86E0900F5CF00F00900F5CF01F0090071
:10178E00F5CF02F00900F5CF03F0E7C004F0E8C092
:10179E0005F0E9C006F0EAC007F0AEEC03F000C0B9
:1017AE00E7F001C0E8F002C0E9F003C0EAF00A0E6B
:1017BE00046EE6C000F066EC04F008C000F000C055
:1017CE0001F0000E026E036E046E013601900236B9
:1017DE000336043601360190023603360436D60E31
:1017EE000124F66E540E0220F76E000E0320F86EE2
:1017FE000900F5CF00F00900F5CF01F00900F5CF93
:10180E0002F00900F5CF03F0E7C004F0E8C005F0E0
:10181E00E9C006F0EAC007F0AEEC03F0B1D0E65135
:10182E000A08D8B07ED00A0E046EE6C000F066EC50
:10183E0004F0090E0024056E066A000E062205C08D
:10184E0000F006C001F0000E06BEFF0E026E036E23
:10185E00003600900136023603360036009001360F
:10186E0002360336D60E0024F66E540E0120F76EA5
:10187E00000E0220F86E0900F5CF00F00900F5CF3A
:10188E0001F00900F5CF02F00900F5CF03F0000ECC
:10189E00046E000E056E000E066E7E0E076EAEEC2A
:1018AE0003F000C0E7F001C0E8F002C0E9F003C0A9
:1018BE00EAF00A0E046EE6C000F066EC04F008C012
:1018CE0000F000C001F0000E026E036E046E0136D1
:1018DE000190023603360436013601900236033685
:1018EE000436D60E0124F66E540E0220F76E000E4C
:1018FE000320F86E0900F5CF00F00900F5CF01F0D6
:10190E000900F5CF02F00900F5CF03F0E7C004F0AF
:10191E00E8C005F0E9C006F0EAC007F0AEEC03F04F
:10192E002FD0E6C000F0000E016E026E036E003680
:10193E00009001360236033600360090013602362C
:10194E000336D60E0024F66E540E0120F76E000EEE
:10195E000220F86E0900F5CF00F00900F5CF01F076
:10196E000900F5CF02F00900F5CF03F0000E046E6A
:10197E00000E056E000E066E7E0E076EAEEC03F0C8
:02198E00120045
:101990000001E6BF02D08A9401D08A84E6BD02D05D
:1019A0008A9601D08A86E6BB02D08A9801D08A88BE
:1019B000E6B902D08A9A01D08A8A60B102D08A8EB2
:1019C00001D08A9E8A8C53EC04F08A9CE6B702D040
:1019D0008A9401D08A84E6B502D08A9601D08A869C
:1019E000E6B302D08A9801D08A88E6B102D08A9AFA
:1019F00001D08A8A60B102D08A8E01D08A9E8A8CF8
:101A000053EC04F08A9C60A103D056EC04F002D0A1
:061A100061EC04F012007D
:101A160028D000016587010EE627000EE723E8239C
:101A26005DD000016581010EE627000EE723E8235D
:101A360055D000016583010EE627000EE723E82353
:101A46004DD000016687010EE627000EE723E82346
:101A560045D000016585010EE627000EE723E82341
:101A66003DD0E6C0F6FFE7C0F7FFE8C0F8FF090083
:101A7600F5CF01F001502D0ACCE0E6C0F6FFE7C035
:101A8600F7FFE8C0F8FF0900F5CF01F00150200A82
:101A9600C8E0E6C0F6FFE7C0F7FFE8C0F8FF0900B8
:101AA600F5CF01F001502B0AC4E0E6C0F6FFE7C00F
:101AB600F7FFE8C0F8FF0900F5CF01F00150230A4F
:101AC600C0E0E6C0F6FFE7C0F7FFE8C0F8FF090090
:101AD600F5CF01F00150300ABCE001D099D70001E2
:101AE60065A301D0659165A701D06595E6C000F0B4
:0A1AF600E7C001F0E8C002F01200A2
:101B00000B6A0A6A096A00500402F4CF09F0F3CFA5
:101B100008F001500502F4CF0BF0F3CF0AF00050AB
:101B20000502F3500926F4500A22E86A0B220150FC
:101B30000402F3500926F4500A22E86A0B2208C076
:101B400000F009C001F00AC002F00BC003F012005F
:101B50000001E651390806E3300EE65D03E3010EAD
:081B6000006E01D0006A1200C2
:101B680003500718D8A4C8EF0DF002500618D8A4DF
:101B7800C8EF0DF001500518D8A4C8EF0DF00050BB
:0E1B88000418D8B4D8841200D89412001200A9
:101B96000A6A0350D8A40A800750D8A40A820A50B9
:101BA600D8B42EEF0EF0030AD8B4E7EF0DF00AB062
:101BB600E2EF0DF006AE2CEF0EF02AEF0EF002AEBD
:101BC6002AEF0EF02CEF0EF00250800B0A6E029EEA
:101BD6000650800B069E0A18D8B4F8EF0DF00A508E
:101BE600D8B42AEF0EF02CEF0EF00750035CD8B4F1
:101BF60002EF0EF0D8A01EEF0EF024EF0EF0065006
:101C0600025CD8B40CEF0EF0D8A01EEF0EF024EF55
:101C16000EF00550015CD8B416EF0EF0D8A01EEFFA
:101C26000EF024EF0EF00450005CD8B42EEF0EF048
:101C3600D8B024EF0EF00A52D8B42CEF0EF02AEFEB
:101C46000EF00A52D8B42AEF0EF02CEF0EF0D88020
:0E1C56001200D8901200D880D884120012001C
:101C6400000165A55DD065A312D065A103D02D0E3A
:101C7400036E02D02B0E036EE6C0E1FFE7C0E2FF65
:101C840003C0E6FFE64BE72B674B682B34D065A116
:101C94000BD0E6C0E1FFE7C0E2FF200EE66EE64BA4
:101CA400E72B674B682B27D0C00E6515016E665174
:101CB400080B026E0250080A02E1800E01181BE1B3
:101CC400E6C0E1FFE7C0E2FF300EE66EE64BE72B2D
:101CD400674B682B65AB03D0580E046E02D0780EA8
:101CE400046EE6C0E1FFE7C0E2FF04C0E6FFE64B96
:101CF400E72B674B682B6151621111E0E6C0E1FFED
:101D0400E7C0E2FF300EE66EE64BE72B674B682B2D
:101D1400010E615F000E625B61516211EFE174D0EC
:101D24006151621113E065B711D0E6C0E1FFE7C06D
:101D3400E2FF200EE66EE64BE72B674B682B010EA5
:101D4400615F000E625B61516211EFE165A312D025
:101D540065A103D02D0E056E02D02B0E056EE6C0D4
:101D6400E1FFE7C0E2FF05C0E6FFE64BE72B674B68
:101D7400682B0CD065A10AD0E6C0E1FFE7C0E2FF02
:101D8400200EE66EE64BE72B674B682BC00E6515FD
:101D9400016E6651080B026E0250080A02E1400E01
:101DA40001180BE1E6C0E1FFE7C0E2FF300EE66E8A
:101DB400E64BE72B674B682B27D0C00E6515016EE9
:101DC4006651080B026E0250080A02E1800E0118E7
:101DD4001BE1E6C0E1FFE7C0E2FF300EE66EE64B32
:101DE400E72B674B682B65AB03D0580E066E02D009
:101DF400780E066EE6C0E1FFE7C0E2FF06C0E6FF2C
:101E0400E64BE72B674B682B800E006E800E64193F
:101E1400005C02E163515F5C0BE2E6C0E1FFE7C0F6
:101E2400E2FF300EE66EE64BE72B674B682BECD7F0
:0A1E3400E6C000F0E7C001F0120064
:101E3E000450085E0550D8A0053C095E0650D8A097
:101E4E00063C0A5E0750D8A0073C0B5E0336070E11
:101E5E000C6E0334083609360A360B36045003A0CE
:101E6E000ED0085E0550D8A0053C095E0650D8A0DD
:101E7E00063C0A5E0750D8A0073C0B5E0DD0082624
:101E8E000550D8B0053C09260650D8B0063C0A26A7
:101E9E000750D8B0073C0B2603360C2EDAD7023487
:101EAE00083609360A360B36045003A00ED0085EEB
:101EBE000550D8A0053C095E0650D8A0063C0A5E27
:101ECE000750D8A0073C0B5E0DD008260550D8B0A1
:101EDE00053C09260650D8B0063C0A260750D8B055
:101EEE00073C0B260236070E0C6E023408360936F6
:101EFE000A360B36045002A00ED0085E0550D8A04C
:101F0E00053C095E0650D8A0063C0A5E0750D8A0D4
:101F1E00073C0B5E0DD008260550D8B0053C0926AF
:101F2E000650D8B0063C0A260750D8B0073C0B2600
:101F3E0002360C2EDAD70134083609360A360B363D
:101F4E00045002A00ED0085E0550D8A0053C095ED4
:101F5E000650D8A0063C0A5E0750D8A0073C0B5E80
:101F6E000DD008260550D8B0053C09260650D8B02D
:101F7E00063C0A260750D8B0073C0B260136070E42
:101F8E000C6E0134083609360A360B36045001A0A1
:101F9E000ED0085E0550D8A0053C095E0650D8A0AC
:101FAE00063C0A5E0750D8A0073C0B5E0DD00826F3
:101FBE000550D8B0053C09260650D8B0063C0A2676
:101FCE000750D8B0073C0B2601360C2EDAD700345A
:101FDE00083609360A360B36045001A00ED0085EBC
:101FEE000550D8A0053C095E0650D8A0063C0A5EF6
:101FFE000750D8A0073C0B5E0DD008260550D8B070
:10200E00053C09260650D8B0063C0A260750D8B023
:10201E00073C0B260036070E0C6E003408360936C8
:10202E000A360B36045000A00ED0085E0550D8A01C
:10203E00053C095E0650D8A0063C0A5E0750D8A0A3
:10204E00073C0B5E0DD008260550D8B0053C09267E
:10205E000650D8B0063C0A260750D8B0073C0B26CF
:10206E0000360C2EDAD700B00ED0045008260550DC
:10207E00D8B0053C09260650D8B0063C0A260750B3
:08208E00D8B0073C0B2612003C
:102096000B1E0A1E091E081E082AD8B4092AD8B41F
:0820A6000A2AD8B40B2A12002B
:0C20AE000E0E0D6E0D2EFED7000012006D
:1020BA000001676B686B656B666BC0C000F0C1C0DE
:1020CA0001F0C2C002F0010EC027000EC123C223D4
:1020DA0000C0F6FF01C0F7FF02C0F8FF0900F5CF04
:1020EA0000F000C05FF00052D8B44CEF15F05F501A
:1020FA00250A0BE0BEC0E1FFBFC0E2FF5FC0E6FFFA
:10210A00BE4BBF2B674B682BD8D7616B626B656B75
:10211A00666BC0C0E6F0C1C0E7F0C2C0E8F076DC8A
:10212A0000C0C0F001C0C1F002C0C2F000C0F6FF9A
:10213A0001C0F7FF02C0F8FF0900F5CF00F0000E5A
:10214A00016E00C0E6F0FFDC005234E0616B626BA6
:10215A0061C000F062C001F00A0E046E000E056E46
:10216A00CADCC0C0F6FFC1C0F7FFC2C0F8FF090051
:10217A00F5CF02F002500024616F000E0120626F59
:10218A00300E615F000E625B010EC027000EC12394
:10219A00C223C0C0F6FFC1C0F7FFC2C0F8FF0900E2
:1021AA00F5CF00F0000E016E00C0E6F0CCDC005264
:1021BA00CFE133D0C0C0F6FFC1C0F7FFC2C0F8FFFD
:1021CA000900F5CF01F001502A0A27E1C3C0E9FF4F
:1021DA00C4C0EAFFEECF00F0EECF01F000C0E9FF85
:1021EA0001C0EAFFEECF61F0EECF62F0C3C0E9FFB3
:1021FA00C4C0EAFF020EEE24006E000EEE20016E4D
:10220A00C3C0E1FFC4C0E2FF00C0E6FF01C0E6FFB1
:10221A00010EC027000EC123C223C0C0F6FFC1C0F1
:10222A00F7FFC2C0F8FF0900F5CF01F001502E0AEE
:10223A006EE1010EC027000EC123C223C0C0F6FF03
:10224A00C1C0F7FFC2C0F8FF0900F5CF01F0015085
:10225A002A0A28E1C3C0E9FFC4C0EAFFEECF00F0B2
:10226A00EECF01F000C0E9FF01C0EAFFEECF63F054
:10227A00EECF64F0C3C0E9FFC4C0EAFF020EEE2449
:10228A00006E000EEE20016EC3C0E1FFC4C0E2FF83
:10229A0000C0E6FF01C0E6FF010EC027000EC12301
:1022AA00C22334D0636B646BC0C0F6FFC1C0F7FFB2
:1022BA00C2C0F8FF0900F5CF00F0000E016E00C0A1
:1022CA00E6F041DC005222E063C000F064C001F095
:1022DA000A0E046E000E056E0EDCC0C0F6FFC1C009
:1022EA00F7FFC2C0F8FF0900F5CF02F00250002440
:1022FA00636F000E0120646F300E635F000E645B33
:10230A00010EC027000EC123C223CED702D0636BB1
:10231A00646BC0C000F0C1C001F0C2C002F0010E7F
:10232A00C027000EC123C22300C0F6FF01C0F7FF79
:10233A0002C0F8FF0900F5CF5FF0EFD067C000F0E8
:10234A0068C001F0A8D3658D17D116D1658B658F4A
:10235A0013D1C3C0E9FFC4C0EAFFEECF00F0EECF4D
:10236A0001F000C0E9FF01C0EAFFEECFC5F0EECFF1
:10237A00C6F0C3C0E9FFC4C0EAFF020EEE24006E35
:10238A00000EEE20016EC3C0E1FFC4C0E2FF00C030
:10239A00E6FF01C0E6FF000EC61902E1000EC519EC
:1023AA0004E14A0EC56F000EC66FC76BC86BC751F2
:1023BA00C525E96EC851C621EA6EEE520BE0010E40
:1023CA00C725006E000EC821016E00C0C7F001C00B
:1023DA00C8F0EDD7635164110AE0C851645D02E1A7
:1023EA00C751635D04E263C0C7F064C0C8F06251BC
:1023FA00C85D02E16151C75D05E2C751615FC8511D
:10240A00625B02D0616B626B65B716D061C000F087
:10241A0062C001F0010E615F000E625B00500110A4
:10242A000BE0BEC0E1FFBFC0E2FF200EE66EBE4B6E
:10243A00BF2B674B682BEAD7C7C002F0C8C003F0AE
:10244A00010EC75D006E000EC859016E00C0C7F0CC
:10245A0001C0C8F00250031019E0C5C0E9FFC6C0A8
:10246A00EAFFBEC0E1FFBFC0E2FFEECFE6FFBE4B10
:10247A00BF2B010EC525006E000EC621016E00C0DD
:10248A00C5F001C0C6F0674B682BD6D765A716D032
:10249A0061C000F062C001F0010E615F000E625B74
:1024AA00005001100BE0BEC0E1FFBFC0E2FF200EEA
:1024BA00E66EBE4BBF2B674B682BEAD7FED5C3C06F
:1024CA00E9FFC4C0EAFFEECF00F0EECF01F000C092
:1024DA00E9FF01C0EAFFEECF5FF0C3C0E9FFC4C065
:1024EA00EAFF020EEE24006E000EEE20016EC3C05B
:1024FA00E1FFC4C0E2FF00C0E6FF01C0E6FF5F0ED5
:10250A00C56F000EC66F010EC76F000EC86F62D787
:10251A00C00E6513000E66132FD05F50000AD8B4A0
:10252A000DD75F506C0AD8B40ED75F504C0AD8B496
:10253A000AD75F506F0AD8B406D75F50640AD8B476
:10254A0004D75F50690AD8B400D75F50700AD8B46C
:10255A00FDD65F50580AD8B4F9D65F50780AD8B475
:10256A00F6D65F50730AD8B4F4D65F50630AA7E070
:10257A005F50750ACDE0C3D7C00E6515016E66C0FF
:10258A0002F0000E0216000E021802E1000E0118F7
:10259A003BE1C3C0E9FFC4C0EAFFEECF00F0EECFD3
:1025AA0001F000C0E9FF01C0EAFFEECFC5F0EECFAF
:1025BA00C6F0C3C0E9FFC4C0EAFF020EEE24006EF3
:1025CA00000EEE20016EC3C0E1FFC4C0E2FF00C0EE
:1025DA00E6FF01C0E6FF800EC619006E800E005CA1
:1025EA0002E1000EC55D0FE2030E6513000E6613CD
:1025FA00C5510008006EC6C001F0000E015600C0A9
:10260A00C5F001C0C6F022D0C3C0E9FFC4C0EAFFCA
:10261A00EECF00F0EECF01F000C0E9FF01C0EAFF03
:10262A00EECFC5F0EECFC6F0C3C0E9FFC4C0EAFFE3
:10263A00020EEE24006E000EEE20016EC3C0E1FF12
:10264A00C4C0E2FF00C0E6FF01C0E6FF000E641945
:10265A0002E1000E631908E1000EC61902E1000E3C
:10266A00C51902E1634B642BC00E6515006E00C0EC
:10267A0005F07BD0010E5F6E5F50050A23E05FC054
:10268A0000F0000E016E026E036E003600900136F5
:10269A00023603363A0E0024F66E560E0120F76E05
:1026AA00000E0220F86E0900F5CF01F00900F5CFFF
:1026BA0002F00250C65D02E10150C55D01E202D09E
:1026CA005F2ADAD75FD0010E5F6E5F50040A23E0FB
:1026DA005FC000F0000E016E026E036E00360090BD
:1026EA000136023603364D0E0024F66E560E0120D0
:1026FA00F76E000E0220F86E0900F5CF01F009000E
:10270A00F5CF02F00250C65D02E10150C55D01E25B
:10271A0002D05F2ADAD736D0010E5F6E5F50060A02
:10272A0023E05FC000F0000E016E026E036E0036F9
:10273A000090013602360336160E0024F66E560E47
:10274A000120F76E000E0220F86E0900F5CF01F0A5
:10275A000900F5CF02F00250C65D02E10150C55DE5
:10276A0001E202D05F2ADAD70DD00550000A82E0D2
:10277A000550C00AD8B47ED70550800AA4E0055097
:10278A00400ACAE0800E006E800E6419005C02E105
:10279A0063515F5C03E263C05FF00DD0800E641981
:1027AA00006E800E005C02E15F50635D04E25FC070
:1027BA0063F0000E646F615162110EE0030E65153D
:1027CA00006E66C001F0000E01160050011004E010
:1027DA00010E615F000E625B800E6419006E800E4E
:1027EA006219005C02E16151635D05E26351615F58
:1027FA006451625B02D0616B626BC40E6515016E37
:10280A006651080B026E0250080A02E1400E0118D6
:10281A0008E16151621104E0010E615F000E625B22
:10282A001CD0C00E6515016E6651080B026E02506F
:10283A00080A02E1800E011810E1800E006E800E77
:10284A006219005C02E16151020805E2020E615F51
:10285A00000E625B02D0616B626BBEC0E6F0BFC065
:10286A00E7F032EC0EF000C0BEF001C0BFF063C06A
:10287A0000F064C001F0010E635F000E645B00505B
:10288A000110D8B4E6D0C00E6515006E00C0C9F0BC
:10289A00C6D063C000F064C001F0000E64BFFF0E32
:1028AA00026E036E003600900136023603363A0E87
:1028BA000024F66E560E0120F76E000E0220F86E06
:1028CA000900F5CF04F00900F5CF05F0C5C000F006
:1028DA00C6C001F0A8EC05F00A0E046E000E056EE3
:1028EA00A8EC05F008C000F009C001F0300E002481
:1028FA005F6EA4D065AB35D063C000F064C001F050
:10290A00000E64BFFF0E026E036E003600900136A1
:10291A00023603364D0E0024F66E560E0120F76E6F
:10292A00000E0220F86E0900F5CF04F00900F5CF79
:10293A0005F0C5C000F0C6C001F0A8EC05F00F0E06
:10294A000016000E0116E90E0024F66E550E01203F
:10295A00F76E000EF86E000EF8220900F5CF5FF050
:10296A0034D063C000F064C001F0000E64BFFF0EF3
:10297A00026E036E003600900136023603364D0EA3
:10298A000024F66E560E0120F76E000E0220F86E35
:10299A000900F5CF04F00900F5CF05F0C5C000F035
:1029AA00C6C001F0A8EC05F00F0E0016000E0116C5
:1029BA00D80E0024F66E550E0120F76E000EF86E42
:1029CA00000EF8220900F5CF5FF038D063C000F09E
:1029DA0064C001F0000E64BFFF0E026E036E003683
:1029EA000090013602360336160E0024F66E560E95
:1029FA000120F76E000E0220F86E0900F5CF04F0F0
:102A0A000900F5CF05F0C5C000F0C6C001F0A8EC7A
:102A1A0005F0070E00145F6E300E5F260FD0C95105
:102A2A00000AD8B436D7C951C00AD8B432D7C95166
:102A3A00800AD8B45FD7C951400AC8E0BEC0E1FFD6
:102A4A00BFC0E2FF5FC0E6FFBE4BBF2B674B682BE0
:102A5A000ED765A71AD0800E006E800E6219005C30
:102A6A0002E16151000811E2BEC0E1FFBFC0E2FF0E
:102A7A00200EE66EBE4BBF2B674B682B010E615FC3
:102A8A00000E625B61516211EFE162EF10F067C004
:082A9A0000F068C001F0120019
:102AA200939C939E939A9398939693948A9C8A9ECE
:102AB2008A948A968A988A9A56EC04F056EC04F024
:102AC20056EC04F08A888A8A8A8C53EC04F08A9C39
:102AD20056EC04F08A8C53EC04F08A9C56EC04F019
:102AE2008A8C53EC04F08A9C56EC04F08A9A8A8C05
:102AF20053EC04F08A9C56EC04F08A8C53EC04F0FC
:102B02008A9C8A988A848A8C53EC04F08A9C56ECBC
:102B120004F08A948A8A8A8C53EC04F08A9C8A9AFA
:102B22008A8C53EC04F08A9C56EC04F08A8C53ECA9
:102B320004F08A9C8A8A8A8C53EC04F08A9C56ECB4
:102B420004F08A9A8A8C53EC04F08A9C8A848A86DE
:102B52008A888A8A8A8C53EC04F08A9C56EC04F0A8
:062B620000016081120079
:102B680000016091BEC0E6F0C8EC0CF06081120074
:102B78000001DE6BDF6BD26BD36BC0C000F0C1C04D
:102B880001F0C2C002F0010EC027000EC123C2230B
:102B980000C0F6FF01C0F7FF02C0F8FF0900F5CF3B
:102BA80000F000C0CFF00052D8B4CAEF25F0CF51E2
:102BB800250A0BE0BEC0E1FFBFC0E2FFCFC0E6FFC1
:102BC800BE4BBF2BDE4BDF2BD8D7D06BD16BD26B74
:102BD800D36B23D0D287010EC027000EC123C22396
:102BE80059D0D281010EC027000EC123C22352D072
:102BF800D283010EC027000EC123C2234BD0D38736
:102C0800010EC027000EC123C22344D0D285010E75
:102C1800C027000EC123C2233DD0C0C0F6FFC1C0EB
:102C2800F7FFC2C0F8FF0900F5CF01F001502D0AE7
:102C3800D1E0C0C0F6FFC1C0F7FFC2C0F8FF09006D
:102C4800F5CF01F00150200ACCE0C0C0F6FFC1C0AA
:102C5800F7FFC2C0F8FF0900F5CF01F001502B0AB9
:102C6800C7E0C0C0F6FFC1C0F7FFC2C0F8FF090047
:102C7800F5CF01F00150230AC2E0C0C0F6FFC1C081
:102C8800F7FFC2C0F8FF0900F5CF01F00150300A84
:102C9800BDE001D09ED7D2A301D0D291D2A701D056
:102CA800D295C0C0F6FFC1C0F7FFC2C0F8FF090047
:102CB800F5CF00F0000E016E00C0E6F0A8EC0DF0B4
:102CC800005236E0D06BD16BD0C000F0D1C001F01B
:102CD8000A0E046E000E056E80EC0DF0C0C0F6FF03
:102CE800C1C0F7FFC2C0F8FF0900F5CF02F00250DB
:102CF8000024D06F000E0120D16F300ED05F000E7F
:102D0800D15B010EC027000EC123C223C0C0F6FF4D
:102D1800C1C0F7FFC2C0F8FF0900F5CF00F0000EF0
:102D2800016E00C0E6F0A8EC0DF00052CDE133D002
:102D3800C0C0F6FFC1C0F7FFC2C0F8FF0900F5CF59
:102D480001F001502A0A27E1C3C0E9FFC4C0EAFF25
:102D5800EECF00F0EECF01F000C0E9FF01C0EAFFBE
:102D6800EECFD0F0EECFD1F0C3C0E9FFC4C0EAFF88
:102D7800020EEE24006E000EEE20016EC3C0E1FFCD
:102D8800C4C0E2FF00C0E6FF01C0E6FF010EC02795
:102D9800000EC123C223C0C0F6FFC1C0F7FFC2C0E6
:102DA800F8FF0900F5CF01F001502E0A70E1010E7D
:102DB800C027000EC123C223C0C0F6FFC1C0F7FF61
:102DC800C2C0F8FF0900F5CF01F001502A0A28E136
:102DD800C3C0E9FFC4C0EAFFEECF00F0EECF01F0B8
:102DE80000C0E9FF01C0EAFFEECFCDF0EECFCEF094
:102DF800C3C0E9FFC4C0EAFF020EEE24006E000E55
:102E0800EE20016EC3C0E1FFC4C0E2FF00C0E6FFD0
:102E180001C0E6FF010EC027000EC123C22336D031
:102E2800CD6BCE6BC0C0F6FFC1C0F7FFC2C0F8FFC4
:102E38000900F5CF00F0000E016E00C0E6F0A8EC26
:102E48000DF0005223E0CDC000F0CEC001F00A0E14
:102E5800046E000E056E80EC0DF0C0C0F6FFC1C018
:102E6800F7FFC2C0F8FF0900F5CF02F002500024B6
:102E7800CD6F000E0120CE6F300ECD5F000ECE5B01
:102E8800010EC027000EC123C223CCD703D0CD6BBF
:102E9800CE6BD389C0C000F0C1C001F0C2C002F03F
:102EA800010EC027000EC123C22300C0F6FF01C0D7
:102EB800F7FF02C0F8FF0900F5CFCFF0F9D0DEC068
:102EC80000F0DFC001F0CEEF25F0D289E3D7D3853B
:102ED8002ED1D28BD3812BD1D38329D1D28D27D197
:102EE80026D1D28BD28F23D1C3C0E9FFC4C0EAFF59
:102EF800EECF00F0EECF01F000C0E9FF01C0EAFF1D
:102F0800EECFDAF0EECFDBF0C3C0E9FFC4C0EAFFD2
:102F1800020EEE24006E000EEE20016EC3C0E1FF2B
:102F2800C4C0E2FF00C0E6FF01C0E6FF000EDB19E7
:102F380002E1000EDA1904E1150EDA6F000EDB6FFC
:102F4800DC6BDD6BDC51DA25E96EDD51DB21EA6EE5
:102F5800EE520BE0010EDC25006E000EDD21016E45
:102F680000C0DCF001C0DDF0EDD7CD51CE110AE094
:102F7800DD51CE5D02E1DC51CD5D04E2CDC0DCF077
:102F8800CEC0DDF0D151DD5D02E1D051DC5D05E25E
:102F9800DC51D05FDD51D15B02D0D06BD16BD2B7A1
:102FA80016D0D0C000F0D1C001F0010ED05F000EE5
:102FB800D15B005001100BE0BEC0E1FFBFC0E2FFD3
:102FC800200EE66EBE4BBF2BDE4BDF2BEAD7DCC0F4
:102FD80002F0DDC003F0010EDC5D006E000EDD596D
:102FE800016E00C0DCF001C0DDF00250031019E0F2
:102FF800DAC0E9FFDBC0EAFFBEC0E1FFBFC0E2FF05
:10300800EECFE6FFBE4BBF2B010EDA25006E000E99
:10301800DB21016E00C0DAF001C0DBF0DE4BDF2BF4
:10302800D6D7D2A716D0D0C000F0D1C001F0010E7B
:10303800D05F000ED15B005001100BE0BEC0E1FF75
:10304800BFC0E2FF200EE66EBE4BBF2BDE4BDF2B70
:10305800EAD793D5C3C0E9FFC4C0EAFFEECF00F0BA
:10306800EECF01F000C0E9FF01C0EAFFEECFCFF0DC
:10307800C3C0E9FFC4C0EAFF020EEE24006E000ED2
:10308800EE20016EC3C0E1FFC4C0E2FF00C0E6FF4E
:1030980001C0E6FFCF0EDA6F000EDB6F010EDC6FAA
:1030A800000EDD6F62D7C00ED213000ED3133FD0CF
:1030B800CF51000AD8B403D7CF516C0AD8B405D77A
:1030C800CF514C0AD8B401D7CF51660AD8B4FFD62D
:1030D800CF51450AD8B4FDD6CF51650AD8B4FAD62F
:1030E800CF51670AD8B4F8D6CF516F0AD8B4F6D6FC
:1030F800CF51640AD8B4F4D6CF51690AD8B4F0D6FF
:10310800CF51700AD8B4EDD6CF51580AD8B4E9D601
:10311800CF51780AD8B4E6D6CF51730AD8B4E4D6DA
:10312800CF51630A97E0CF51750ABDE0B3D7000EBF
:10313800D215006ED351070B016E00500110D8B4A0
:1031480071EF21F0D3A904D0060ECD6F000ECE6F1B
:10315800C3C0E9FFC4C0EAFFEECF00F0EECF01F034
:1031680000C0E9FF01C0EAFFEECFD4F0EECFD5F002
:10317800EECFD6F0EECFD7F0C3C0E9FFC4C0EAFF68
:10318800040EEE24006E000EEE20016EC3C0E1FFB7
:10319800C4C0E2FF00C0E6FF01C0E6FF046A056A9A
:1031A800066A076AD4C000F0D5C001F0D6C002F0A4
:1031B800D7C003F0CBEC0DF0010ED8B0000E006EB6
:1031C800005205E0D67F030ED213000ED313D86B3E
:1031D800D96BD4C000F0D5C001F0D6C002F0D7C07A
:1031E80003F0046A056A066A076AB4EC0DF0000E7B
:1031F800D8A4010E006E0052D8B48AD0D7C000F00F
:10320800016A026A036AFF0E0016000E01167E0E9E
:10321800005E000E015A00C0D8F001C0D9F0010EBE
:10322800005E000E015A00C0D8F001C0D9F0030EAC
:10323800046E000E056E80EC0DF000C0D8F001C0E1
:10324800D9F00A0E046E000E056E98EC08F000C066
:10325800D8F001C0D9F0800E0118026E800E025C11
:1032680002E1000E005C05E2010E0001D85F000ECD
:10327800D95B0001D8510008E66FC3EC05F0D4C053
:1032880004F0D5C005F0D6C006F0D7C007F0AEEC04
:1032980003F000C0DAF001C0DBF002C0DCF003C0CC
:1032A800DDF0000E046E000E056E000E066E7F0E39
:1032B800076EDAC000F0DBC001F0DCC002F0DDC050
:1032C80003F0CBEC0DF0010ED8B0000E006E0052EA
:1032D80005E0010ED85F000ED95B1AD0000E046E0F
:1032E800000E056E200E066E820E076EDAC000F024
:1032F800DBC001F0DCC002F0DDC003F0CBEC0DF068
:10330800000ED8B0010E006E005202E0D84BD92B47
:10331800800E006E800ED919005C02E1D8510008B9
:1033280003E3010ECF6F02D0D8C0CFF0D3B118D0CD
:10333800D3A315D0800ED919006E7F0E005C02E170
:10334800FC0ED85D0BE3800ED919006E800ECE19E5
:10335800005C02E1CD51D85D01E201D001D0EFD38C
:10336800CD51CE1106E0D3A304D0010ECD5F000EDF
:10337800CE5BCE51000802E1CD51080803E2080EE9
:10338800CF6F02D0CDC0CFF0D4C000F0D5C001F0CF
:10339800D6C002F0D7C003F0046A056A066A076A55
:1033A800B4EC0DF0000ED8A4010E006E0052D8B493
:1033B8004BD1D8C0E6F0C3EC05F000C004F001C062
:1033C80005F002C006F003C007F0D4C000F0D5C075
:1033D80001F0D6C002F0D7C003F0FCEC08F000C042
:1033E800D4F001C0D5F002C0D6F003C0D7F0000178
:1033F800CF510008E66FC3EC05F000C004F001C02F
:1034080005F002C006F003C007F0D4C000F0D5C034
:1034180001F0D6C002F0D7C003F0FCEC08F000C001
:10342800E0F001C0E1F002C0E2F003C0E3F0E0C068
:10343800D4F0E1C0D5F0E2C0D6F0E3C0D7F0E0C0E8
:1034480000F0E1C001F0E2C002F0E3C003F00DECCF
:1034580005F0BEEC09F000C004F001C005F002C0A0
:1034680006F003C007F0E0C000F0E1C001F0E2C0E0
:1034780002F0E3C003F0BAEC09F0000E046E000E8F
:10348800056E000E066E7E0E076ECBEC0DF0000E7C
:10349800D8B0010E006E00521AE0D4C000F0D5C0BA
:1034A80001F0D6C002F0D7C003F0000E046E000E83
:1034B800056E000E066E7E0E076E23EC01F000C04E
:1034C800D4F001C0D5F002C0D6F003C0D7F0D4C004
:1034D80000F0D5C001F0D6C002F0D7C003F00DEC63
:1034E80005F00001CF51010F096E0A6A000E0A2289
:1034F80009C004F00AC005F0000E0ABEFF0E066EF1
:10350800076E0436049005360636073604360490EE
:103518000536063607366E0E0424F66E550E05205F
:10352800F76E000E0620F86E0900F5CF05F00900C9
:10353800F5CF06F00900F5CF07F00900F5CF08F040
:103548000850035C08E10750025C05E10650015C85
:1035580002E10550005C1EE30001D4C000F0D5C0B4
:1035680001F0D6C002F0D7C003F0CD0E046ECC0E29
:10357800056E4C0E066E7B0E076EAEEC03F000C0B7
:10358800D4F001C0D5F002C0D6F003C0D7F0D84BB4
:10359800D92B5AD0D4C000F0D5C001F0D6C002F063
:1035A800D7C003F00DEC05F0CFC004F0000E056E97
:1035B800066E076E0436049005360636073604365E
:1035C80004900536063607366E0E0424F66E550E40
:1035D8000520F76E000E0620F86E0900F5CF05F0FD
:1035E8000900F5CF06F00900F5CF07F00900F5CF7F
:1035F80008F00850035C08E10750025C05E106503A
:10360800015C02E10550005C1FE20001D4C000F03B
:10361800D5C001F0D6C002F0D7C003F0000E046E8A
:10362800000E056E200E066E820E076EAEEC03F0DD
:1036380000C0D4F001C0D5F002C0D6F003C0D7F066
:10364800010ED85F000ED95B0001D3A393D0D3B786
:1036580091D0800E000A006E800ECE19005C02E147
:10366800CD510A0804E20A0ECD6F000ECE6FD4C009
:1036780000F0D5C001F0D6C002F0D7C003F00DECC1
:1036880005F000C0DAF001C0DBF002C0DCF003C0D6
:10369800DDF0DA51DB11DC11DD1142E00A0E046EB7
:1036A800000E056E066E076EDAC000F0DBC001F092
:1036B800DCC002F0DDC003F0D1EC09F008C000F076
:1036C80009C001F00AC002F00BC003F0000E046E3E
:1036D800031808E10450021805E10450011802E13A
:1036E8000050000A1DE1010ECD5F000ECE5B0A0EF0
:1036F800046E000E056E066E076EDAC000F0DBC0C1
:1037080001F0DCC002F0DDC003F0D1EC09F000C02C
:10371800DAF001C0DBF002C0DCF003C0DDF0B9D79D
:10372800800ECE19006E800E005C02E1CF51CD5D97
:1037380021E2CD51CF5DE66FC3EC05F000C004F087
:1037480001C005F002C006F003C007F0D4C000F0C5
:10375800D5C001F0D6C002F0D7C003F0FCEC08F0E9
:1037680000C0D4F001C0D5F002C0D6F003C0D7F035
:10377800CDC0CFF0050E0001CD25006E000ECE2184
:10378800016E0050D05F0150D15BCD51CE1103E1E5
:10379800D3B701D004D0010ED05F000ED15B030E69
:1037A800D215006ED3C001F0000E011600500110B2
:1037B80004E0010ED05F000ED15BD2A539D0D2A3B0
:1037C80012D0D2A103D02D0EC56F02D02B0EC56F1B
:1037D800BEC0E1FFBFC0E2FFC5C0E6FFBE4BBF2BC6
:1037E800DE4BDF2B0CD0D2A10AD0BEC0E1FFBFC098
:1037F800E2FF200EE66EBE4BBF2BDE4BDF2B800EAA
:10380800006E800ED119005C02E1D05100080FE271
:10381800BEC0E1FFBFC0E2FF300EE66EBE4BBF2B5D
:10382800DE4BDF2B010ED05F000ED15BE8D73AD01C
:10383800D2B718D0800E006E800ED119005C02E15C
:10384800D05100080FE2BEC0E1FFBFC0E2FF200E6A
:10385800E66EBE4BBF2BDE4BDF2B010ED05F000E9A
:10386800D15BE8D7D2A312D0D2A103D02D0EC66F58
:1038780002D02B0EC66FBEC0E1FFBFC0E2FFC6C0BC
:10388800E6FFBE4BBF2BDE4BDF2B0CD0D2A10AD0FC
:10389800BEC0E1FFBFC0E2FF200EE66EBE4BBF2BED
:1038A800DE4BDF2BD4C000F0D5C001F0D6C002F04B
:1038B800D7C003F00DEC05F000C0DAF001C0DBF072
:1038C80002C0DCF003C0DDF0CFC000F0000E016ED6
:1038D800026E036E0036009001360236033600365B
:1038E80000900136023603366E0E0024F66E550E31
:1038F8000120F76E000E0220F86E0900F5CF04F0E3
:103908000900F5CF05F00900F5CF06F00900F5CF5D
:1039180007F0DAC000F0DBC001F0DCC002F0DDC067
:1039280003F0D1EC09F0300E0026BEC0E1FFBFC0A5
:10393800E2FF00C0E6FFBE4BBF2BDE4BDF2BCD51B5
:10394800CE1103E1D3B701D06FD0BEC0E1FFBFC035
:10395800E2FF2E0EE66EBE4BBF2BDE4BDF2BCF51A8
:10396800CD5F000ECE5BCF534DE0CF07CFC000F048
:10397800000E016E026E036E0036009001360236AC
:103988000336003600900136023603366E0E0024E8
:10399800F66E550E0120F76E000E0220F86E090033
:1039A800F5CF04F00900F5CF05F00900F5CF06F0D2
:1039B8000900F5CF07F0DAC000F0DBC001F0DCC089
:1039C80002F0DDC003F0D1EC09F00A0E046E000E1F
:1039D800056E066E076ED1EC09F008C000F009C04C
:1039E80001F00AC002F00BC003F0300E0026BEC082
:1039F800E1FFBFC0E2FF00C0E6FFBE4BBF2BDE4BBE
:103A0800DF2BB1D7CD51CE110FE0BEC0E1FFBFC053
:103A1800E2FF300EE66EBE4BBF2BDE4BDF2B010EF6
:103A2800CD5F000ECE5BEED7D2AB0BD0BEC0E1FFB0
:103A3800BFC0E2FF450EE66EBE4BBF2BDE4BDF2B51
:103A48000AD0BEC0E1FFBFC0E2FF650EE66EBE4B06
:103A5800BF2BDE4BDF2B800ED919006E800E005C69
:103A680002E1000ED85D11E2D8510008D86FD95193
:103A7800000ED957BEC0E1FFBFC0E2FF2D0EE66EB3
:103A8800BE4BBF2BDE4BDF2B0AD0BEC0E1FFBFC051
:103A9800E2FF2B0EE66EBE4BBF2BDE4BDF2B0A0E72
:103AA800046E000E056ED8C000F0D9C001F098EC85
:103AB80008F0300E0026BEC0E1FFBFC0E2FF00C024
:103AC800E6FF0001BE4BBF2BDE4BDF2B0A0E046E58
:103AD800000E056ED8C000F0D9C001F098EC08F0CF
:103AE80008C000F009C001F0300E0026BEC0E1FF9A
:103AF800BFC0E2FF00C0E6FF0001BE4BBF2BDE4B9C
:103B0800DF2BD2A71AD0800E006E800ED119005C70
:103B180002E1D051000811E2BEC0E1FFBFC0E2FFE0
:103B2800200EE66EBE4BBF2BDE4BDF2B010ED05FA7
:103B3800000ED15BD051D111EFE1C1EF15F0D3A345
:103B4800F3D0800ED919006E800E005C02E1000EE1
:103B5800D85D0AE2010ED85D006E000ED959016EDB
:103B68000050CD5F0150CE5BD4C000F0D5C001F04D
:103B7800D6C002F0D7C003F00DEC05F000C0DAF0B3
:103B880001C0DBF002C0DCF003C0DDF0010ECF6F36
:103B9800CF510A0A34E0CFC000F0000E016E026E69
:103BA800036E003600900136023603360036009068
:103BB8000136023603366E0E0024F66E550E0120CD
:103BC800F76E000E0220F86E0900F5CF01F009002B
:103BD800F5CF02F00900F5CF03F00900F5CF04F0A6
:103BE8000450DD5D08E10350DC5D05E10250DB5D5A
:103BF80002E10150DA5D01E202D0CF2BC9D7CF51E3
:103C0800CD5DE46F000ECE59E56FE4C0CDF0E5C0A0
:103C1800CEF0DAC000F0DBC001F0DCC002F0DDC09D
:103C280003F0BEEC09F000C004F001C005F002C0CA
:103C380006F003C007F0D4C000F0D5C001F0D6C02C
:103C480002F0D7C003F0BAEC09F000C0E0F001C000
:103C5800E1F002C0E2F003C0E3F0E4C0E6F0C3EC38
:103C680005F0E0C004F0E1C005F0E2C006F0E3C0F2
:103C780007F0AEEC03F0000E046E000E056E000EA9
:103C8800066E7E0E076E23EC01F00DEC05F000C009
:103C9800DAF001C0DBF002C0DCF003C0DDF0CD518A
:103CA800CE1142E00A0E046E000E056E066E076E17
:103CB800DAC000F0DBC001F0DCC002F0DDC003F0C8
:103CC800D1EC09F008C000F009C001F00AC002F008
:103CD8000BC003F0000E046E031808E1045002182C
:103CE80005E10450011802E10050000A1DE10A0E26
:103CF800046E000E056E066E076EDAC000F0DBC0BB
:103D080001F0DCC002F0DDC003F0D1EC09F000C026
:103D1800DAF001C0DBF002C0DCF003C0DDF0010E18
:103D2800CD5F000ECE5BBBD7800E006E800ECE1925
:103D3800005C02E1CD510C0816E3CDC0E6F047EC7B
:103D48000BF0D4C004F0D5C005F0D6C006F0D7C03B
:103D580007F023EC01F000C0D4F001C0D5F002C098
:103D6800D6F003C0D7F0D4C000F0D5C001F0D6C05B
:103D780002F0D7C003F0046A056A066A076AB4EC61
:103D88000DF0000ED8A4010E006E0052D8B477D002
:103D9800D4C000F0D5C001F0D6C002F0D7C003F0FF
:103DA8000DEC05F0000E046E031808E1045002182B
:103DB80005E10450011802E10050000A60E1800E9C
:103DC800006E800ED919005C02E1D851010857E253
:103DD800D8C0E6F0C3EC05F000C004F001C005F05F
:103DE80002C006F003C007F0D4C000F0D5C001F04F
:103DF800D6C002F0D7C003F0FCEC08F05F0E046EEA
:103E0800700E056E090E066E810E076ECBEC0DF076
:103E1800010ED8B0000E006E005206E0090E000137
:103E2800D85F000ED95B05D00001080ED85F000EE0
:103E3800D95BD8C0E6F0C3EC05F000C004F001C0BF
:103E480005F002C006F003C007F0D4C000F0D5C0EA
:103E580001F0D6C002F0D7C003F0FCEC08F00DEC7E
:103E680005F000C0DAF001C0DBF002C0DCF003C0EE
:103E7800DDF00001D46BD56BD66BD76B38D0D4C0CE
:103E880000F0D5C001F0D6C002F0D7C003F00DECA9
:103E980005F000C0DAF001C0DBF002C0DCF003C0BE
:103EA800DDF0DAC000F0DBC001F0DCC002F0DDC0FC
:103EB80003F0BEEC09F000C004F001C005F002C038
:103EC80006F003C007F0D4C000F0D5C001F0D6C09A
:103ED80002F0D7C003F0BAEC09F000C0D4F001C07A
:103EE800D5F002C0D6F003C0D7F0D86BD96B010E5D
:103EF800CF6FCF510A0A34E0CFC000F0000E016E38
:103F0800026E036E00360090013602360336003624
:103F180000900136023603366E0E0024F66E550EFA
:103F28000120F76E000E0220F86E0900F5CF01F0AF
:103F38000900F5CF02F00900F5CF03F00900F5CF2D
:103F480004F00450DD5D08E10350DC5D05E102503A
:103F5800DB5D02E10150DA5D01E202D0CF2BC9D767
:103F6800CF51CD25006E000ECE21016ED85100260E
:103F7800D95101220050D05F0150D15BD3B704D092
:103F8800CD51CE1101E104D0010ED05F000ED15BFE
:103F9800030ED215006ED3C001F0000E01160050BA
:103FA800011004E0010ED05F000ED15BD2A539D01C
:103FB800D2A312D0D2A103D02D0EC76F02D02B0EE0
:103FC800C76FBEC0E1FFBFC0E2FFC7C0E6FFBE4B80
:103FD800BF2BDE4BDF2B0CD0D2A10AD0BEC0E1FF35
:103FE800BFC0E2FF200EE66EBE4BBF2BDE4BDF2BC1
:103FF800800E006E800ED119005C02E1D0510008DD
:104008000FE2BEC0E1FFBFC0E2FF300EE66EBE4B5E
:10401800BF2BDE4BDF2B010ED05F000ED15BE8D744
:104028003AD0D2B718D0800E006E800ED119005C3D
:1040380002E1D05100080FE2BEC0E1FFBFC0E2FFBD
:10404800200EE66EBE4BBF2BDE4BDF2B010ED05F82
:10405800000ED15BE8D7D2A312D0D2A103D02D0E87
:10406800C86F02D02B0EC86FBEC0E1FFBFC0E2FF11
:10407800C8C0E6FFBE4BBF2BDE4BDF2B0CD0D2A156
:104088000AD0BEC0E1FFBFC0E2FF200EE66EBE4B05
:10409800BF2BDE4BDF2BCFC000F0CF0700524CE028
:1040A800CFC000F0000E016E026E036E0036009065
:1040B80001360236033600360090013602360336E2
:1040C8006E0E0024F66E550E0120F76E000E0220CB
:1040D800F86E0900F5CF04F00900F5CF05F00900E6
:1040E800F5CF06F00900F5CF07F0DAC000F0DBC025
:1040F80001F0DCC002F0DDC003F0D1EC09F00A0EDB
:10410800046E000E056E066E076ED1EC09F008C04D
:1041180000F009C001F00AC002F00BC003F0300E35
:104128000026BEC0E1FFBFC0E2FF00C0E6FFBE4BF5
:10413800BF2BDE4BDF2BAFD7800E006E800ED91958
:10414800005C02E1D85100080FE2BEC0E1FFBFC029
:10415800E2FF300EE66EBE4BBF2BDE4BDF2B010EAF
:10416800D85F000ED95BE8D7800E000A006E800E7B
:10417800CE19005C02E1CD51080803E2080ECF6FAA
:1041880002D0CDC0CFF0CF51CD5F000ECE5BCF5364
:1041980003E1D3B701D00AD0BEC0E1FFBFC0E2FF40
:1041A8002E0EE66EBE4BBF2BDE4BDF2BCFC0E6F0EC
:1041B800C3EC05F0D4C004F0D5C005F0D6C006F0B5
:1041C800D7C007F0AEEC03F075EC04F000C0DAF0ED
:1041D80001C0DBF002C0DCF003C0DDF0CF534DE0DE
:1041E800CF07CFC000F0000E016E026E036E0036DE
:1041F800009001360236033600360090013602364A
:1042080003366E0E0024F66E550E0120F76E000E72
:104218000220F86E0900F5CF04F00900F5CF05F08B
:104228000900F5CF06F00900F5CF07F0DAC000F075
:10423800DBC001F0DCC002F0DDC003F0D1EC09F016
:104248000A0E046E000E056E066E076ED1EC09F0BC
:1042580008C000F009C001F00AC002F00BC003F06A
:10426800300E0026BEC0E1FFBFC0E2FF00C0E6FF7F
:10427800BE4BBF2BDE4BDF2BB1D7CD51CE110FE09C
:10428800BEC0E1FFBFC0E2FF300EE66EBE4BBF2BE3
:10429800DE4BDF2B010ECD5F000ECE5BEED7D2A733
:1042A8001AD0800E006E800ED119005C02E1D05148
:1042B800000811E2BEC0E1FFBFC0E2FF200EE66EBB
:1042C800BE4BBF2BDE4BDF2B010ED05F000ED15B48
:1042D800D051D111EFE1C1EF15F0C00ED215016E2A
:1042E800D3C002F0000E0216000E021802E1000E02
:1042F8000118D8A480D0D2A927D0C3C0E9FFC4C070
:10430800EAFFEECF00F0EECF01F000C0E9FF01C0F8
:10431800EAFFEECFDAF0EECFDBF0EECFDCF0EECF57
:10432800DDF0C3C0E9FFC4C0EAFF040EEE24006E4E
:10433800000EEE20016EC3C0E1FFC4C0E2FF00C062
:10434800E6FF01C0E6FF2FD0C3C0E9FFC4C0EAFF03
:10435800EECF00F0EECF01F000C0E9FF01C0EAFFA8
:10436800EECF00F0EECF01F0000E01BEFF0E026EA0
:10437800036E00C0DAF001C0DBF002C0DCF003C05D
:10438800DDF0C3C0E9FFC4C0EAFF020EEE24006EF0
:10439800000EEE20016EC3C0E1FFC4C0E2FF00C002
:1043A800E6FF01C0E6FF800EDD19006E800E005C9E
:1043B80008E1000EDC5D05E1000EDB5D02E1000EA8
:1043C800DA5D18E2030ED213000ED313006A016AF5
:1043D800026A036ADA51005EDB51015ADC51025A63
:1043E800DD51035A00C0DAF001C0DBF002C0DCF096
:1043F80003C0DDF04ED0D2A927D0C3C0E9FFC4C0A6
:10440800EAFFEECF00F0EECF01F000C0E9FF01C0F7
:10441800EAFFEECFDAF0EECFDBF0EECFDCF0EECF56
:10442800DDF0C3C0E9FFC4C0EAFF040EEE24006E4D
:10443800000EEE20016EC3C0E1FFC4C0E2FF00C061
:10444800E6FF01C0E6FF25D0C3C0E9FFC4C0EAFF0C
:10445800EECF00F0EECF01F000C0E9FF01C0EAFFA7
:10446800EECFDAF0EECFDBF0000EDC6FDD6FC3C00D
:10447800E9FFC4C0EAFF020EEE24006E000EEE2033
:10448800016EC3C0E1FFC4C0E2FF00C0E6FF01C087
:10449800E6FF000ECE1902E1000ECD190FE1000E65
:1044A800006EDD1908E10050DC1905E10050DB1948
:1044B80002E1DA51000A02E1CD4BCE2BC00ED21533
:1044C800006E00C005F0AED0010ECF6FCF510A0AC2
:1044D80034E0CFC000F0000E016E026E036E0036AD
:1044E8000090013602360336003600900136023657
:1044F80003366E0E0024F66E550E0120F76E000E80
:104508000220F86E0900F5CF01F00900F5CF02F09E
:104518000900F5CF03F00900F5CF04F00450DD5D84
:1045280008E10350DC5D05E10250DB5D02E101506A
:10453800DA5D01E202D0CF2BC9D782D0010ECF6F4E
:10454800CF51080A34E0CFC000F0000E016E026EB1
:10455800036E0036009001360236033600360090AE
:10456800013602360336960E0024F66E550E0120EB
:10457800F76E000E0220F86E0900F5CF01F0090071
:10458800F5CF02F00900F5CF03F00900F5CF04F0EC
:104598000450DD5D08E10350DC5D05E10250DB5DA0
:1045A80002E10150DA5D01E202D0CF2BC9D748D031
:1045B800010ECF6FCF510C0A34E0CFC000F0000ECF
:1045C800016E026E036E0036009001360236033625
:1045D800003600900136023603363E0E0024F66E91
:1045E800550E0120F76E000E0220F86E0900F5CF77
:1045F80001F00900F5CF02F00900F5CF03F009003A
:10460800F5CF04F00450DD5D08E10350DC5D05E101
:104618000250DB5D02E10150DA5D01E202D0CF2BEE
:10462800C9D70ED00550000AD8B44ED70550C00AD5
:10463800D8B44AD70550800A81E00550400AB8E04E
:10464800800E006E800ECE19005C02E1CD51CF5D68
:1046580003E2CDC0CFF00DD0800ECE19006E800ED3
:10466800005C02E1CF51CD5D04E2CFC0CDF0000E79
:10467800CE6FD051D1110EE0030ED215006ED3C00B
:1046880001F0000E01160050011004E0010ED05F89
:10469800000ED15B800ECE19006E800ED119005C21
:1046A80002E1D051CD5D05E2CD51D05FCE51D15B55
:1046B80002D0D06BD16BC40ED215016ED351080B4A
:1046C800026E0250080A02E1400E011808E1D051BA
:1046D800D11104E0010ED05F000ED15B1CD0C00EDA
:1046E800D215016ED351080B026E0250080A02E17E
:1046F800800E011810E1800E006E800ED119005C4A
:1047080002E1D051020805E2020ED05F000ED15B33
:1047180002D0D06BD16BD2A55DD0D2A312D0D2A1DA
:1047280003D02D0EC96F02D02B0EC96FBEC0E1FF9A
:10473800BFC0E2FFC9C0E6FFBE4BBF2BDE4BDF2B7D
:1047480034D0D2A10BD0BEC0E1FFBFC0E2FF200E23
:10475800E66EBE4BBF2BDE4BDF2B27D0C00ED2152B
:10476800016ED351080B026E0250080A02E1800E56
:1047780001181BE1BEC0E1FFBFC0E2FF300EE66ECC
:10478800BE4BBF2BDE4BDF2BD2AB03D0580ECA6F0C
:1047980002D0780ECA6FBEC0E1FFBFC0E2FFCAC038
:1047A800E6FFBE4BBF2BDE4BDF2BD051D11111E002
:1047B800BEC0E1FFBFC0E2FF300EE66EBE4BBF2BAE
:1047C800DE4BDF2B010ED05F000ED15BD051D11133
:1047D800EFE174D0D051D11113E0D2B711D0BEC0DF
:1047E800E1FFBFC0E2FF200EE66EBE4BBF2BDE4BE3
:1047F800DF2B010ED05F000ED15BD051D111EFE15C
:10480800D2A312D0D2A103D02D0ECB6F02D02B0E83
:10481800CB6FBEC0E1FFBFC0E2FFCBC0E6FFBE4B1F
:10482800BF2BDE4BDF2B0CD0D2A10AD0BEC0E1FFDC
:10483800BFC0E2FF200EE66EBE4BBF2BDE4BDF2B68
:10484800C00ED215016ED351080B026E0250080A31
:1048580002E1400E01180BE1BEC0E1FFBFC0E2FF5C
:10486800300EE66EBE4BBF2BDE4BDF2B27D0C00EC3
:10487800D215016ED351080B026E0250080A02E1EC
:10488800800E01181BE1BEC0E1FFBFC0E2FF300E81
:10489800E66EBE4BBF2BDE4BDF2BD2AB03D0580EE0
:1048A800CC6F02D0780ECC6FBEC0E1FFBFC0E2FF74
:1048B800CCC0E6FFBE4BBF2BDE4BDF2B800E006E5D
:1048C800800ECE19005C02E1CD51CF5D0BE2BEC077
:1048D800E1FFBFC0E2FF300EE66EBE4BBF2BDE4BE2
:1048E800DF2BECD7CDC000F0CEC001F0010ECD5FBC
:1048F800000ECE5B00500110D8B42AD1C00ED215DC
:10490800006E00C0E0F00AD1CDC000F0CEC001F0CA
:10491800000ECEBFFF0E026E036E00360090013609
:1049280002360336003600900136023603366E0E24
:104938000024F66E550E0120F76E000E0220F86E68
:104948000900F5CF04F00900F5CF05F00900F5CF0F
:1049580006F00900F5CF07F0DAC000F0DBC001F07F
:10496800DCC002F0DDC003F0D1EC09F00A0E046EE1
:10497800000E056E066E076ED1EC09F008C000F057
:1049880009C001F00AC002F00BC003F0300E002489
:10499800CF6FD3D0D2AB45D0CDC000F0CEC001F0A0
:1049A800000ECEBFFF0E026E036E00360090013679
:1049B8000236033600360090013602360336960E6C
:1049C8000024F66E550E0120F76E000E0220F86ED8
:1049D8000900F5CF04F00900F5CF05F00900F5CF7F
:1049E80006F00900F5CF07F0DAC000F0DBC001F0EF
:1049F800DCC002F0DDC003F0D1EC09F00F0E0016A8
:104A0800000E011602160316B60E0024F66E550E99
:104A18000120F76E000E0220F86E0900F5CFCFF0E6
:104A280044D0CDC000F0CEC001F0000ECEBFFF0EC6
:104A3800026E036E003600900136023603360036E9
:104A48000090013602360336960E0024F66E550E97
:104A58000120F76E000E0220F86E0900F5CF04F071
:104A68000900F5CF05F00900F5CF06F00900F5CFEC
:104A780007F0DAC000F0DBC001F0DCC002F0DDC0F6
:104A880003F0D1EC09F00F0E0016000E0116021605
:104A98000316C70E0024F66E550E0120F76E000EA1
:104AA8000220F86E0900F5CFCFF047D0CDC000F056
:104AB800CEC001F0000ECEBFFF0E026E036E0036B0
:104AC8000090013602360336003600900136023671
:104AD80003363E0E0024F66E550E0120F76E000ECA
:104AE8000220F86E0900F5CF04F00900F5CF05F0B3
:104AF8000900F5CF06F00900F5CF07F0DAC000F09D
:104B0800DBC001F0DCC002F0DDC003F0D1EC09F03D
:104B1800070E0014CF6F300ECF270FD0E051000AD8
:104B2800D8B4F2D6E051C00AD8B4EED6E051800A23
:104B3800D8B430D7E051400AB9E0BEC0E1FFBFC0E9
:104B4800E2FFCFC0E6FFBE4BBF2BDE4BDF2BCAD642
:104B5800D2A71AD0800E006E800ED119005C02E137
:104B6800D051000811E2BEC0E1FFBFC0E2FF200E35
:104B7800E66EBE4BBF2BDE4BDF2B010ED05F000E67
:104B8800D15BD051D111EFE1C1EF15F0DEC000F0DB
:064B9800DFC001F0120075
:104B9E0051EC15F0010EE66FC8EC0CF00C0EE66F42
:0A4BAE00C8EC0CF095908382120011
:104BB800C26A491C006E0050C1160F0EC012C08E8A
:104BC800B1C000F000360090003600900050C212CC
:104BD800C28057EC10F0C282C2A201D0FDD7C4CF68
:104BE80001F0006A00C0B2F001C0B3F0C350001277
:104BF800000E011200C0B2F001C0B3F0C290000E66
:104C08000014026E0150800B036E000E031802E1BF
:104C1800000E021803E00001B26BB36BB2C000F0E3
:064C2800B3C001F0120010
:104C2E00220E0C6E086A096A0A6A0B6A0C06D8B460
:104C3E001FD0D8900B320A320932083203320232B8
:104C4E0001320032D8A0F2D70C06D8B409D00450E5
:104C5E0008260550092206500A2207500B22EAD7D1
:104C6E00045008260550092206500A2207500B222E
:024C7E00120022
:104C80000450000A12E10550000A0FE10650000A24
:104C90000CE10750000A09E1FF0E006EFF0E016EE5
:104CA000FF0E026E7F0E036E99D00C6A07BE0C2AAF
:104CB0000D6A0B6A0A6A096A086A03500210011039
:104CC0000010D8B485D0035007180E6E0EBE0D1E0E
:104CD00007AE0BD0041E051E061E071E042AD8B4FC
:104CE000052AD8B4062AD8B4072A03AE0BD0001E72
:104CF000011E021E031E002AD8B4012AD8B4022ABB
:104D0000D8B4032A035007100E6E0EBE1DD01FEC40
:104D10000FF00CBE36D00DAE5BD0001E011E021E81
:104D2000031E002AD8B4012AD8B4022AD8B4032A10
:104D3000081E091E0A1E0B1E082AD8B4092AD8B458
:104D40000A2AD8B40B2A44D007AE15D003BE0DD022
:104D500003500B6E02500A6E0150096E0050086E2F
:104D6000036A026A016A006AD6D7036A026A016AA4
:104D7000006A002A000C031E021E011E001E0C8E7B
:104D8000C6D7082AD8B4092AD8B40A2AD8B40B2A14
:104D90000450085CD8A4BFD70550095CD8A4BBD781
:104DA00006500A5CD8A4B7D707500B5CD8A4B3D779
:104DB0000B6A0A6A096A086A002AD8B4012AD8B4B8
:104DC000022AD8B4032A03AEA6D70E6A0E88FF0CB7
:0E4DD0000E6A0CA002D04BEC10F0000F120087
:104DDE000050086E0150006E0250016E0350026EBC
:104DEE00036A0B6A0C6A9E0E036E0A6A02AE0CEF21
:104DFE0027F0081E001E011E021E082AD8B4002A23
:104E0E00D8B4012AD8B4022A0A8E020E0C6E32ECE5
:044E1E0000F012008E
:104E220010D0800E0001B16F1AD0C00EB16F17D032
:104E3200940EB16F14D0D40EB16F11D0800EB16F39
:104E42000ED00001B151010AECE0B151020AEDE0CD
:104E5200B151030AEDE0B151040AEDE0EFD7B2051A
:104E6200006EB151002600C0B1F000C0E6F0C8ECFF
:104E72000CF06091B56BB551B325E96E000EB4210B
:104E8200EA6EEE520CE0B551B325E96E000EB42184
:104E9200EA6EEECFBEF0B4EC15F0B52BECD7608124
:024EA2001200FC
:104EA400B60E0001BC6F000EBD6FB1C0BEF0B2C043
:104EB400BFF0B3C0C0F0B4C0C1F0B5C0C2F0BC0E06
:104EC400C36F000EC46FBCEC15F000C0BAF001C093
:104ED400BBF00050B125E16E0150B221E26EE66AEA
:0A4EE400BAC000F0BBC001F01200DC
:104EEE00B60E0001BA6F000EBB6FB1C0BEF0B2C0FD
:104EFE00BFF0B3C0C0F0B4C0C1F0B5C0C2F0BA0EBE
:104F0E00C36F000EC46F5DEC10F000C0B8F001C0AE
:104F1E00B9F00050B125E16E0150B221E26EE66AA1
:0A4F2E00B8C000F0B9C001F0120095
:104F3800F26A0F0E0F01386F396B3A6B3B6B836A5D
:104F4800C16AFF0E926E936A956AF80E966E9592F4
:104F580022DE020E0B6E040E0C6EBA0E0D6E0D2EB6
:0E4F6800FED70C2EFCD70B2EFAD7000012003D
:104F76000900F5CFE6FF0006FBE10106F9E11200A4
:104F86008DC0B1F016DE000E01BEFF0E026E036E7E
:104F9600B80E046E0B0E056E000E066E076E44DE2E
:104FA600FF0E046E030E056E000E066E076E65DEBE
:024FB6001200E7
:104FB8009D0E0001B16F000EB26F440EB36F560E16
:104FC800B46F000EB56F0A0E046E000E056E8DC02C
:104FD80000F08EC001F0A8EC05F000C0B6F001C0EA
:104FE800B7F081DF010EB16F010EB26F9D0EB36F86
:104FF800000EB46F12DF9D0EB16F000EB26F550E2A
:10500800B36F560EB46F000EB56F91C000F092C02A
:1050180001F093C002F094C003F0DDDE000E046ED0
:10502800000E056E480E066E850E076EFCEC08F045
:1050380000C0B6F001C0B7F002C0B8F003C0B9F0C4
:105048002DDF010EB16F0D0EB26F9D0EB36F000E06
:10505800B46FE3DE9D0EB16F000EB26F220EB36F18
:10506800560EB46F000EB56F95C000F096C001F0F3
:1050780097C002F098C003F0AEDE000E046E000E7A
:10508800056E480E066E850E076EFCEC08F000C033
:10509800B6F001C0B7F002C0B8F003C0B9F0FEDE48
:1050A800020EB16F010EB26F9D0EB36F000EB46F9A
:1050B800B4DE9D0EB16F000EB26F5C0EB36F560E6C
:1050C800B46F000EB56F0A0E046E000E056E99C01F
:1050D80000F09AC001F0A8EC05F000C0B6F001C0DD
:1050E800B7F001DF020EB16F0D0EB26F9D0EB36FF8
:0850F800000EB46F92DE1200FD
:1051000034EC2BF00001696B6A6B6B6B6C6B6D6B35
:105110006E6B6F6B706B716B726B736B746B756BAB
:10512000766B776B786B08DF8380010EB16F020EB0
:10513000B26F1C0EB36F000EB46F73DE020EB16F50
:10514000010EB26F2B0EB36F000EB46F6ADE150E38
:105150000B6E4B0E0C6EBE0E0D6E0D2EFED70C2E72
:10516000FCD70B2EFAD70000010EE66FC8EC0CF04E
:105170008D6B09DF00C069F001C06AF002C06BF0FE
:1051800003C06CF0010E00018D6FFDDE00C06DF0FC
:1051900001C06EF002C06FF003C070F0020E00019B
:1051A0008D6FF1DE00C071F001C072F002C073F0CB
:1051B00003C074F0030E00018D6FE5DE00C075F0D2
:1051C00001C076F002C077F003C078F0010E000154
:1051D000E66FC8EC0CF083B0ABD0640E046E000E2A
:1051E000056E066E076E6DC000F06EC001F06FC0F8
:1051F00002F070C003F044DD800E046E800E0318D0
:10520000045C08E10250000805E10150000802E1D9
:10521000005004081FE30A0E046E000E056E066EB1
:10522000076E75C000F076C001F077C002F078C05C
:1052300003F026DD800E0318046E800E045C08E186
:10524000000E025C05E1000E015C02E1700E005CE4
:1052500001E26DD08380010E0001B16F010EB26FCB
:105260003B0EB36F000EB46FDCDD790EB16F000E34
:10527000B26F0A0EB36F560EB46F000EB56F71C0E9
:1052800000F072C001F073C002F074C003F0A7DD3B
:10529000000E046E000E056E480E066E850E076E3B
:1052A000FCEC08F000C0B6F001C0B7F002C0B8F0E6
:1052B00003C0B9F0F7DD020EB16F010EB26F790EC7
:1052C000B36F000EB46FADDD790EB16F000EB26F2B
:1052D000640EB36F560EB46F000EB56F0A0E046EF7
:1052E000000E056E75C000F076C001F0A8EC05F068
:1052F00000C0B6F001C0B7F0FADD020EB16F0D0EBE
:10530000B26F790EB36F000EB46F8BDD1F0E0B6E94
:10531000710E0C6E1E0E0D6E0D2EFED70C2EFCD7D0
:105320000B2EFAD70000010EE66FC8EC0CF01FD070
:105330000A0E046E000E056E066E076E75C000F054
:1053400076C001F077C002F078C003F099DC800EDF
:10535000046E800E0318045C08E10250000805E1A9
:105360000150000802E100506C08D8B0839083A07F
:1053700022D069C08DF06AC08EF06BC08FF06CC017
:1053800090F06DC091F06EC092F06FC093F070C05D
:1053900094F071C095F072C096F073C097F074C02D
:1053A00098F075C099F076C09AF077C09BF078C0FD
:1053B0009CF002DE5BD00001010EB16F010EB26FF6
:1053C0004F0EB36F000EB46F2CDD790EB16F000E6F
:1053D000B26F2E0EB36F560EB46F000EB56F71C064
:1053E00000F072C001F073C002F074C003F0F7DC8B
:1053F000000E046E000E056E480E066E850E076EDA
:10540000FCEC08F000C0B6F001C0B7F002C0B8F084
:1054100003C0B9F047DD020EB16F010EB26F790E15
:10542000B36F000EB46FFDDC790EB16F000EB26F7A
:10543000600EB36F560EB46F000EB56F0A0E046E99
:10544000000E056E75C000F076C001F0A8EC05F006
:1054500000C0B6F001C0B7F04ADD020EB16F0D0E0C
:10546000B26F790EB36F000EB46FDBDC0B0E0B6EF8
:10547000260E0C6E5D0E0D6E0D2EFED70C2EFCD77B
:0C5480000B2EFAD70000000073D6FFD7F7
:1056680010EE15F04A0E006E010E016E8C0EF66EED
:0E567800540EF76E000EF86EBBEC27F0120019
:07548C00286E756C6C29000D
:0F5493004A534D20456E67656E6861726961000E
:1054A2004E422D3430305720762E30312E3031009E
:0E54B2005061727469646120436F6E762E0043
:0154C0000FDC
:0554C1006E756C6C002B
:1054C600436F6E762E204465736C696761646F0066
:1054D6000000007FCDCC4C7B0AD723786F12037572
:1054E60017B75171ACC5276EBD37066B95BF5667AA
:1054F60077CC2B645F700961FFE65B5D08E53C3C99
:045506006042221BC2
:10550A000000007F000020820000488500007A88A1
:10551A0000401C8C0050438F002474928096189689
:10552A0020BC3E99286B6E9CF90215A0EC782DC11F
:04553A00CAF249E286
:10553E000100000008000000400000000002000012
:10554E000010000000800000000004000000200099
:10555E0000000001000000080000004000000000F4
:10556E00010000000A00000064000000E8030000D3
:10557E0010270000A086010040420F008096980080
:08558E0000E1F50500CA9A3B9B
:1055960001000000100000000001000000100000E3
:1055A60000000100000010000000000100000010D3
:1055B6003031323334353637383941424344454643
:0155C60000E4
:1055C7003031323334353637383961626364656672
:0155D70000D3
:1055D8003031323334353637383961626364656661
:0155E80000C2
:1055E9003031323334353637383941424344454610
:0155F90000B1
:0455FA0000000000AD
:0455FE0000000000A9
:0456020000000000A4
:0456060000000000A0
:0C560A004261742E3A25322E31665600A3
:0C561600010008004000000200100080AD
:0C5622004261742E3A25322E316656008B
:0C562E004261742E3A25322E316656007F
:0A563A0001000A006400E8031027D5
:09564400526564653A25755600B3
:08564D00010010000001001033
:0756550025322E31665600DC
:04565C00257556005A
:045660002575560056
:045664002575560052
:020000040030CA
:0D000100230F3CFFBF81FF0FC00FE00F4039
:00000001FF
