:10000000DEEF27F00000000000EF00F0000000002D
:0A0010000000000000000000F3D71C
:10001C000B820BAE18EF00F00368026801680068F1
:08002C000A360232FF0E120039
:0E003400026A016A006A086A036A000E12007E
:100042000B840BAE2CEF00F0010E036E026A016A04
:0A005200006A0A360232FF0E1200A7
:08005C000AAE029E000E120024
:100064000CB074EF00F00CA21AEF01F00E6A000E4F
:1000740002648BEF00F0F00E0214D8A456EF00F0E7
:10008400023A01380F0B02260138F00B016E0038DA
:100094000F0B01260038F00B006E08380F0B0026FA
:1000A4000838F00B086E0E84D89002BE6FEF00F093
:1000B40008360036013602360E2A02BE6FEF00F013
:1000C40008360036013602360E2A02BE6FEF00F003
:1000D40008360036013602360E2A0E50036410EF3D
:1000E40001F0035E0BBC08AE15EF01F0D880800E62
:1000F40008640030000E002201220222D8A015EF6D
:1001040001F0023201320032034A1AEF01F015EF16
:1001140001F001C002F000C001F008C000F0086A5C
:10012400000E0E860264C2EF00F0F00E0214D8A492
:10013400AAEF00F0023A01380F0B02260138F00B47
:10014400016E00380F0B01260038F00B006E0E8490
:10015400D89002BE6FEF00F00036013602360E2A48
:1001640002BE6FEF00F00036013602360E2A02BEE0
:100174006FEF00F00036013602360E2A6FEF00F002
:1001840001C002F000C001F0006A000E0E960E8855
:100194000264EFEF00F0F00E0214D8A4DAEF00F0DE
:1001A400023A01380F0B02260138F00B016E0E845F
:1001B400D89002BE6FEF00F0013602360E2A02BE5E
:1001C4006FEF00F0013602360E2A02BE6FEF00F028
:1001D400013602360E2A6FEF00F001C002F0016A08
:1001E400000E0E8602641FEF01F0F00E0214D8A474
:1001F400FEEF00F0023A0E84D89002BE6FEF00F0DA
:1002040002360E2A02BE6FEF00F002360E2A02BE3C
:100214006FEF00F002360E2A6FEF00F0010E0C6E45
:100224000EDF22EF01F0020E0C6E16DF22EF01F05A
:10023400040E0C6EF1DE22EF01F0080E0C6EF8DEF7
:020244001200A6
:10024600025006180E6E086A096A0B6A03500764A4
:1002560016EF02F006500A6E068E028E03500B6EE3
:100266000750036E000E0B6466EF01F00B50075E3D
:10027600D8B407EF02F0070E0764D5EF01F0075E6A
:1002860000C008F001C000F002C001F0026A074E8B
:1002960007EF02F00764AAEF01F0075E00C008F05E
:1002A60001C000F0016A074E07EF02F0076488EF0D
:1002B60001F0075E00C008F0006A074E07EF02F083
:1002C60007646FEF01F00AC002F005C001F004C038
:1002D60000F0086A30EF03F0030E07647AEF01F0CE
:1002E600075E08380F0B086E074E07EF02F0D8902E
:1002F6000832074E07EF02F0D8900832074E07EF94
:1003060002F0D890083207EF02F0030E076499EF67
:1003160001F0075E08380F0B086E0038F00B082650
:1003260000380F0B006E074E07EF02F0D890003230
:100336000832074E07EF02F0D89000320832074E17
:1003460007EF02F0D8900032083207EF02F0030EF2
:100356000764C1EF01F0075E08380F0B086E00381E
:10036600F00B082600380F0B006E0138F00B002644
:1003760001380F0B016E074E07EF02F0D8900132DD
:1003860000320832074E07EF02F0D89001320032F1
:100396000832074E07EF02F0D890013200320832D9
:1003A60007EF02F0030E0764F2EF01F0075E08386C
:1003B6000F0B086E0038F00B082600380F0B006E86
:1003C6000138F00B002601380F0B016E0238F00BD6
:1003D600012602380F0B026E074E07EF02F0D89087
:1003E6000232013200320832074E07EF02F0D8908F
:1003F6000232013200320832074E07EF02F0D8907F
:100406000232013200320832096A000E0EAEFBEFEC
:1004160002F0081E001E011E021E082A00220122EA
:100426000222FBEF02F00750D8A41CEF02F030EFD7
:1004360003F0096A02C00AF0028E068E0750035CBA
:10044600076ED8B4EEEF02F0070E0764BCEF02F0B9
:10045600075E0450096E0550046E0650056E066A66
:10046600074EEEEF02F0070E076491EF02F0075E0B
:100476000450096E0550046E056A074EEEEF02F051
:10048600070E07646FEF02F0075E0450096E046AF8
:10049600074EEEEF02F0070E076456EF02F00AC0B1
:1004A60002F030EF03F0030E076461EF02F0075E1F
:1004B60009380F0B096E074EEEEF02F0D89009329D
:1004C600074EEEEF02F0D8900932074EEEEF02F03B
:1004D600D8900932EEEF02F0030E076480EF02F0C7
:1004E600075E09380F0B096E0438F00B092604382D
:1004F6000F0B046E074EEEEF02F0D890043209326D
:10050600074EEEEF02F0D89004320932074EEEEFB6
:1005160002F0D89004320932EEEF02F0030E0764BF
:10052600A8EF02F0075E09380F0B096E0438F00BCE
:10053600092604380F0B046E0538F00B042605381F
:100546000F0B056E074EEEEF02F0D890053204321F
:100556000932074EEEEF02F0D89005320432093226
:10056600074EEEEF02F0D890053204320932EEEF74
:1005760002F0030E0764D9EF02F0075E09380F0B8D
:10058600096E0438F00B092604380F0B046E053883
:10059600F00B042605380F0B056E0638F00B052602
:1005A60006380F0B066E074EEEEF02F0D8900632B5
:1005B600053204320932074EEEEF02F0D8900632C9
:1005C600053204320932074EEEEF02F0D8900632B9
:1005D600053204320932086A000E0EAEFBEF02F055
:1005E600091E041E051E061E092A042205220622CD
:1005F6000950082604500022055001220650022206
:100606000EBE12EF03F0D8A021EF03F00232013242
:1006160000320832033E21EF03F02BEF03F0D8B08F
:1006260026EF03F0000E081E001E011E021E082AF9
:100636000022012202220A7E26EF03F0010E0C6E32
:100646000EDD32EF03F0020E0C6E09DD32EF03F021
:10065600040E0C6EE0DC32EF03F0000E0C6E12009E
:100666000F0E0C6E470E0D6E0D2EFED70C2EFCD700
:060676000000000012006C
:10067C00086A080E0C6E003408360450085ED8B0B8
:0E068C0002D00826D89000360C2EF5D71200AA
:10069A000B800BAE59EF03F0026A0AAEFF0E026E30
:0C06AA00016E006E0A360232FF0E1200D4
:1006B6000D6A086A0050D8B4000C04180A6E0ABE07
:1006C6000D1E0B6A04AE02D0041E042A00AE02D030
:1006D600001E002A005004100A6E0ABE1FD00450E5
:1006E600085E003600340836045008260036060E2A
:1006F6000C6E00340836045000B0085E00A00826D0
:1007060000360C2EF6D700A008260BB015D00DAE7D
:10071600000C001E002A081E082A000C04AE09D090
:1007260000BE04D00050086E006AF1D7006A002AA5
:10073600000C001E0B2AD3D7082A0450085CD8A444
:0E074600E6D7086A002A00AEE2D7FF0C1200C8
:100754000134083609360450085E0550D8A0053C1B
:10076400095E003601360F0E0C6E01340836093668
:10077400045000A006D0085E0550D8A0053C095ED0
:1007840005D008260550D8B0053C092600360136A8
:100794000C2EEBD700B006D0045008260550D8B074
:0807A400053C092600001200CB
:0807AC000B6A0B86FF0E120020
:1007B400086A096A000E076203645FEF04F00250DE
:1007C40006180A6E075003267E0ED8A0F0EF03F039
:1007D400035ED8B064EF04F0F4EF03F0035ED8A036
:1007E40069EF04F0028E068E02C00EF001C00BF019
:1007F40000C00DF000500402F4CF0CF001500502CB
:10080400F4CF00F0F3CF08F00402F3500C26F450B8
:100814000822000E00220D500502F3500C26F4505D
:100824000822000E002202500402F3500826F4505D
:10083400002202500502016A000E0122F350002634
:10084400F45001220D500602F3500826F450002201
:10085400026A000E012202220B500602F350002607
:10086400F4500122000E02220E500602F35001261B
:10087400F450022202BE47EF04F008360036013677
:1008840002360306D8B469EF04F05AEF04F0D880B6
:10089400800E08640030000E002201220222D8A03B
:1008A4005AEF04F0023201320032034A64EF04F0DA
:1008B4000AAE029E000E6CEF04F0010E1AEC00F07A
:1008C4006CEF04F0020E0EEC00F06CEF04F0040E7A
:0608D40021EC00F012000F
:0A08DA00210E0D6E0D2EFED7120048
:0608E400000000001200FC
:1008EA000450085E0550D8A0053C095E0650D8A001
:1008FA00063C0A5E0750D8A0073C0B5E0336070E7B
:10090A000C6E0334083609360A360B36045003A037
:10091A000ED0085E0550D8A0053C095E0650D8A046
:10092A00063C0A5E0750D8A0073C0B5E0DD008268D
:10093A000550D8B0053C09260650D8B0063C0A2610
:10094A000750D8B0073C0B2603360C2EDAD70234F0
:10095A00083609360A360B36045003A00ED0085E54
:10096A000550D8A0053C095E0650D8A0063C0A5E90
:10097A000750D8A0073C0B5E0DD008260550D8B00A
:10098A00053C09260650D8B0063C0A260750D8B0BE
:10099A00073C0B260236070E0C6E0234083609365F
:1009AA000A360B36045002A00ED0085E0550D8A0B5
:1009BA00053C095E0650D8A0063C0A5E0750D8A03E
:1009CA00073C0B5E0DD008260550D8B0053C092619
:1009DA000650D8B0063C0A260750D8B0073C0B266A
:1009EA0002360C2EDAD70134083609360A360B36A7
:1009FA00045002A00ED0085E0550D8A0053C095E3E
:100A0A000650D8A0063C0A5E0750D8A0073C0B5EE9
:100A1A000DD008260550D8B0053C09260650D8B096
:100A2A00063C0A260750D8B0073C0B260136070EAB
:100A3A000C6E0134083609360A360B36045001A00A
:100A4A000ED0085E0550D8A0053C095E0650D8A015
:100A5A00063C0A5E0750D8A0073C0B5E0DD008265C
:100A6A000550D8B0053C09260650D8B0063C0A26DF
:100A7A000750D8B0073C0B2601360C2EDAD70034C3
:100A8A00083609360A360B36045001A00ED0085E25
:100A9A000550D8A0053C095E0650D8A0063C0A5E5F
:100AAA000750D8A0073C0B5E0DD008260550D8B0D9
:100ABA00053C09260650D8B0063C0A260750D8B08D
:100ACA00073C0B260036070E0C6E00340836093632
:100ADA000A360B36045000A00ED0085E0550D8A086
:100AEA00053C095E0650D8A0063C0A5E0750D8A00D
:100AFA00073C0B5E0DD008260550D8B0053C0926E8
:100B0A000650D8B0063C0A260750D8B0073C0B2638
:100B1A0000360C2EDAD700B00ED004500826055045
:100B2A00D8B0053C09260650D8B0063C0A2607501C
:080B3A00D8B0073C0B261200A5
:100B420028D04086010E00019827000E99239A238F
:100B52005DD000014080010E9827000E99239A2350
:100B620055D000014082010E9827000E99239A2346
:100B72004DD000014186010E9827000E99239A2339
:100B820045D000014084010E9827000E99239A2334
:100B92003DD098C0F6FF99C0F7FF9AC0F8FF090050
:100BA200F5CF01F001502D0ACCE098C0F6FF99C0B4
:100BB200F7FF9AC0F8FF0900F5CF01F00150200AB3
:100BC200C8E098C0F6FF99C0F7FF9AC0F8FF090085
:100BD200F5CF01F001502B0AC4E098C0F6FF99C08E
:100BE200F7FF9AC0F8FF0900F5CF01F00150230A80
:100BF200C0E098C0F6FF99C0F7FF9AC0F8FF09005D
:100C0200F5CF01F00150300ABCE001D099D740B2D3
:100C1200409040B6409498C000F099C001F09AC04C
:040C220002F01200CA
:100C26000B1E0A1E091E081E082AD8B4092AD8B4A3
:080C36000A2AD8B40B2A1200AF
:100C3E000B6A0C6A086A0350D8B4A3EF06F002C020
:100C4E000AF0028E9E0E035E03AE93EF06F0036C67
:100C5E00080E035CD8A060EF06F0036E083600C0E5
:100C6E0008F001C000F002C001F0026A080E035C39
:100C7E00D8A060EF06F0036E083600C008F001C081
:100C8E0000F0016A080E035CD8A060EF06F0036E58
:100C9E00083600C008F0006A080E035CD8A060EFAA
:100CAE0006F0036E0836086A0350D8A4D8906CEF8D
:100CBE0006F00350D8B46CEF06F0D8900232013231
:100CCE0000320832032E64EF06F00BBC08A07DEF55
:100CDE0006F0D8A07DEF06F0082AD8B4002AD8B4C2
:100CEE00012AD8B4022A02BEA7EF06F00AAEA3EF7D
:100CFE0006F0021E011E001E081E082AD8B4002A85
:100D0E00D8B4012AD8B4022AA3EF06F0026A016A07
:100D1E00006A086AA3EF06F00B800BAEADEF06F08B
:100D2E00026A0AAEADEF06F0026E016E006E086E3C
:100D3E000A360232ADEF06F00C6A000EAEEF06F088
:100D4E00010E0C6E000EA2DCAEEF06F0FF0E02508E
:100D5E00036E0150026E0050016E0850006E1200BC
:100D6E00939C939E939A9398939693948A9C8A9E1F
:100D7E008A948A968A988A9A6FDC6EDC6DDC8A88F1
:100D8E008A8A8A8CA8DD8A9C67DC8A8CA4DD8A9C80
:100D9E0063DC8A8CA0DD8A9C5FDC8A9A8A8C9BDD60
:100DAE008A9C5ADC8A8C97DD8A9C8A988A848A8CE3
:100DBE0092DD8A9C51DC8A948A8A8A8C8CDD8A9C8C
:100DCE008A9A8A8C88DD8A9C47DC8A8C84DD8A9C90
:100DDE008A8A8A8C80DD8A9C3FDC8A9A8A8C7BDDAB
:100DEE008A9C8A848A868A888A8A8A8C74DD8A9CFE
:060DFE0033DC428012000C
:100E0400000198BF02D08A9401D08A8498BD02D090
:100E14008A9601D08A8698BB02D08A9801D08A88A3
:100E240098B902D08A9A01D08A8A42B002D08A8EB6
:100E340001D08A9E8A8C54DD8A9C98B702D08A9409
:100E440001D08A8498B502D08A9601D08A8698B354
:100E540002D08A9801D08A8898B102D08A9A01D0A7
:100E64008A8A42B002D08A8E01D08A9E8A8C38DD6A
:100E74008A9C42A003D033EC03F001D02CDD120095
:100E84000B6A0A6A096A086A0E6A0334083604504F
:100E9400085E0550D8A0053C095E0650D8A0063C63
:100EA4000A5E0750D8A0073C0B5EE86AD8A0010E82
:100EB4000E5E0336070E0C6E0334083609360A3606
:100EC4000B360E36045003A012D0085E0550D8A08D
:100ED400053C095E0650D8A0063C0A5E0750D8A01F
:100EE400073C0B5EE86AD8A0010E0E5E11D00826FE
:100EF4000550D8B0053C09260650D8B0063C0A2651
:100F04000750D8B0073C0B26E86AD8B0010E0E266D
:100F140003360C2ED1D70234083609360A360B367E
:100F24000E36045003A012D0085E0550D8A0053C2C
:100F3400095E0650D8A0063C0A5E0750D8A0073CBC
:100F44000B5EE86AD8A0010E0E5E11D0082605508B
:100F5400D8B0053C09260650D8B0063C0A260750EE
:100F6400D8B0073C0B26E86AD8B0010E0E2602362C
:100F7400070E0C6E0234083609360A360B360E3666
:100F8400045002A012D0085E0550D8A0053C095EAA
:100F94000650D8A0063C0A5E0750D8A0073C0B5E5A
:100FA400E86AD8A0010E0E5E11D008260550D8B00C
:100FB400053C09260650D8B0063C0A260750D8B08E
:100FC400073C0B26E86AD8B0010E0E2602360C2E1A
:100FD400D1D70134083609360A360B360E3604509A
:100FE40002A012D0085E0550D8A0053C095E065048
:100FF400D8A0063C0A5E0750D8A0073C0B5EE86AFE
:10100400D8A0010E0E5E11D008260550D8B0053CBC
:1010140009260650D8B0063C0A260750D8B0073C2B
:101024000B26E86AD8B0010E0E260136070E0C6EA8
:101034000134083609360A360B360E36045001A040
:1010440012D0085E0550D8A0053C095E0650D8A011
:10105400063C0A5E0750D8A0073C0B5EE86AD8A09D
:10106400010E0E5E11D008260550D8B0053C0926A5
:101074000650D8B0063C0A260750D8B0073C0B26C9
:10108400E86AD8B0010E0E2601360C2ED1D70034F2
:10109400083609360A360B360E36045001A012D033
:1010A400085E0550D8A0053C095E0650D8A0063C51
:1010B4000A5E0750D8A0073C0B5EE86AD8A0010E70
:1010C4000E5E11D008260550D8B0053C09260650FE
:1010D400D8B0063C0A260750D8B0073C0B26E86A6D
:1010E400D8B0010E0E260036070E0C6E00340836FA
:1010F40009360A360B360E36045000A012D0085EAC
:101104000550D8A0053C095E0650D8A0063C0A5EEE
:101114000750D8A0073C0B5EE86AD8A0010E0E5E0B
:1011240011D008260550D8B0053C09260650D8B081
:10113400063C0A260750D8B0073C0B26E86AD8B00C
:10114400010E0E2600360C2ED1D700B00ED004505E
:1011540008260550D8B0053C09260650D8B0063CF0
:0C1164000A260750D8B0073C0B261200EA
:101170006E0E0001985DD8A0CAD0640E046E98C0AF
:1011800000F03EEC03F0120E0024056E066A000E1D
:10119000062205C000F006C001F0000E06BEFF0EDC
:1011A000026E036E003600900136023603360036BA
:1011B00000900136023603360E0E0024F66E520EF3
:1011C0000120F76E000E0220F86E0900F5CF00F046
:1011D0000900F5CF01F00900F5CF02F00900F5CFC5
:1011E00003F0000E046E000E056E000E066E7E0EFD
:1011F000076EDAEC03F000C099F001C09AF002C06B
:101200009BF003C09CF0640E046E98C000F03EECAE
:1012100003F008C000F00A0E046E3EEC03F0090E65
:101220000024056E066A000E062205C000F006C006
:1012300001F0000E06BEFF0E026E036E0036009037
:101240000136023603360036009001360236033688
:101250000E0E0024F66E520E0120F76E000E0220D4
:10126000F86E0900F5CF00F00900F5CF01F0090094
:10127000F5CF02F00900F5CF03F099C004F09AC051
:1012800005F09BC006F09CC007F0DAEC03F000C04C
:1012900099F001C09AF002C09BF003C09CF00A0EC6
:1012A000046E98C000F03EEC03F008C000F000C0EF
:1012B00001F0000E026E036E046E013601900236DC
:1012C00003360436013601900236033604360E0E1C
:1012D0000124F66E520E0220F76E000E0320F86E07
:1012E0000900F5CF00F00900F5CF01F00900F5CFB6
:1012F00002F00900F5CF03F099C004F09AC005F0A0
:101300009BC006F09CC007F0DAEC03F0B1D0985116
:101310000A08D8B07ED00A0E046E98C000F03EECE9
:1013200003F0090E0024056E066A000E062205C0B1
:1013300000F006C001F0000E06BEFF0E026E036E46
:101340000036009001360236033600360090013632
:10135000023603360E0E0024F66E520E0120F76E92
:10136000000E0220F86E0900F5CF00F00900F5CF5D
:1013700001F00900F5CF02F00900F5CF03F0000EEF
:10138000046E000E056E000E066E7E0E076EDAEC21
:1013900003F000C099F001C09AF002C09BF003C0B6
:1013A0009CF00A0E046E98C000F03EEC03F008C0FA
:1013B00000F000C001F0000E026E036E046E0136F4
:1013C00001900236033604360136019002360336A8
:1013D00004360E0E0124F66E520E0220F76E000E39
:1013E0000320F86E0900F5CF00F00900F5CF01F0F9
:1013F0000900F5CF02F00900F5CF03F099C004F021
:101400009AC005F09BC006F09CC007F0DAEC03F030
:101410002FD098C000F0000E016E026E036E0036F1
:10142000009001360236033600360090013602364F
:1014300003360E0E0024F66E520E0120F76E000EDB
:101440000220F86E0900F5CF00F00900F5CF01F099
:101450000900F5CF02F00900F5CF03F0000E046E8D
:10146000000E056E000E066E7E0E076EDAEC03F0BF
:02147000120068
:1014720000019851390806E3300E985D03E3010E2E
:08148200006E01D0006A1200A7
:10148A0003500718D8A459EF0AF002500618D8A436
:10149A0059EF0AF001500518D8A459EF0AF0005084
:0E14AA000418D8B4D8841200D894120012008E
:1014B8000450000A08E10550000A05E1FF0E006E1D
:1014C8007F0E016E58D00D6A096A086A0150001033
:1014D800D8B4000C015005180A6E0ABE0D1E0B6A1E
:1014E80005AE05D0041E051E042AD8B4052A01AE8F
:1014F80005D0001E011E002AD8B4012A015005108B
:101508000A6E0ABE10D0AAEC03F00BB020D00DAEC4
:10151800000C001E011E002AD8B4012A081E091E4C
:10152800082AD8B4092A000C05AE0DD001BE07D090
:101538000150096E0050086E016A006AE8D7016A16
:10154800006A002A000C011E001E0B2ADDD7082A9B
:10155800D8B4092A0450085CD8A4D9D70550095C26
:10156800D8A4D5D7096A086A002AD8B4012A01AED6
:08157800CED70000FF0C1200A9
:10158000800E00019819006E800E000A005CD8B031
:101590006DD198510008016E01C098F0800E0118BD
:1015A000006E800E6E0A005CD8A0C0D0640E046E7F
:1015B00098C000F05BEC03F0120E0024056E000EE4
:1015C00000BEFF0E066E000E062205C000F006C02B
:1015D00001F0000E06BEFF0E026E036E0036009094
:1015E00001360236033600360090013602360336E5
:1015F0000E0E0024F66E520E0120F76E000E022031
:10160000F86E0900F5CF99F00900F5CF9AF00900BE
:10161000F5CF9BF00900F5CF9CF0640E046E98C0E6
:1016200000F05BEC03F008C000F00A0E046E5BEC07
:1016300003F0090E0024056E000E00BEFF0E066EBC
:10164000000E062205C000F006C001F0000E06BE26
:10165000FF0E026E036E003600900136023603362E
:10166000003600900136023603360E0E0024F66E68
:10167000520E0120F76E000E0220F86E0900F5CF21
:1016800000F00900F5CF01F00900F5CF02F00900E4
:10169000F5CF03F099C004F09AC005F09BC006F0A6
:1016A0009CC007F0DAEC03F000C099F001C09AF09A
:1016B00002C09BF003C09CF00A0E046E98C000F0BC
:1016C0005BEC03F008C000F000C001F0000E00BEAB
:1016D000FF0E026E036E046E013601900236033671
:1016E0000436013601900236033604360E0E01240C
:1016F000F66E520E0220F76E000E0320F86E0900FF
:10170000F5CF00F00900F5CF01F00900F5CF02F0A8
:101710000900F5CF03F099C004F09AC005F09BC012
:1017200006F09CC007F0DAEC03F007D2800E0A0A3C
:10173000006E800E9819005C71E20A0E046E98C06B
:1017400000F05BEC03F0090E0024056E000E00BEF5
:10175000FF0E066E000E062205C000F006C001F066
:10176000000E06BEFF0E026E036E003600900136BC
:1017700002360336003600900136023603360E0E6E
:101780000024F66E520E0120F76E000E0220F86E55
:101790000900F5CF99F00900F5CF9AF00900F5CFCF
:1017A0009BF00900F5CF9CF00A0E046E98C000F083
:1017B0005BEC03F008C000F000C001F0000E00BEBA
:1017C000FF0E026E036E046E013601900236033680
:1017D0000436013601900236033604360E0E01241B
:1017E000F66E520E0220F76E000E0320F86E09000E
:1017F000F5CF00F00900F5CF01F00900F5CF02F0B8
:101800000900F5CF03F099C004F09AC005F09BC021
:1018100006F09CC007F0DAEC03F08FD198C000F01E
:10182000000E98BFFF0E016E026E036E0036009030
:101830000136023603360036009001360236033692
:101840000E0E0024F66E520E0120F76E000E0220DE
:10185000F86E0900F5CF00F00900F5CF01F009009E
:10186000F5CF02F00900F5CF03F067D1800E98198B
:10187000006E800E6E0A005CD8A0C0D0640E046EAC
:1018800098C000F05BEC03F0120E0024056E000E11
:1018900000BEFF0E066E000E062205C000F006C058
:1018A00001F0000E06BEFF0E026E036E00360090C1
:1018B0000136023603360036009001360236033612
:1018C000DA0E0024F66E510E0120F76E000E022093
:1018D000F86E0900F5CF99F00900F5CF9AF00900EC
:1018E000F5CF9BF00900F5CF9CF0640E046E98C014
:1018F00000F05BEC03F008C000F00A0E046E5BEC35
:1019000003F0090E0024056E000E00BEFF0E066EE9
:10191000000E062205C000F006C001F0000E06BE53
:10192000FF0E026E036E003600900136023603365B
:1019300000360090013602360336DA0E0024F66EC9
:10194000510E0120F76E000E0220F86E0900F5CF4F
:1019500000F00900F5CF01F00900F5CF02F0090011
:10196000F5CF03F099C004F09AC005F09BC006F0D3
:101970009CC007F0DAEC03F000C099F001C09AF0C7
:1019800002C09BF003C09CF00A0E046E98C000F0E9
:101990005BEC03F008C000F000C001F0000E00BED8
:1019A000FF0E026E036E046E01360190023603369E
:1019B000043601360190023603360436DA0E01246D
:1019C000F66E510E0220F76E000E0320F86E09002D
:1019D000F5CF00F00900F5CF01F00900F5CF02F0D6
:1019E0000900F5CF03F099C004F09AC005F09BC040
:1019F00006F09CC007F0DAEC03F09FD0800E0A0AD4
:101A0000006E800E9819005C71E20A0E046E98C098
:101A100000F05BEC03F0090E0024056E000E00BE22
:101A2000FF0E066E000E062205C000F006C001F093
:101A3000000E06BEFF0E026E036E003600900136E9
:101A40000236033600360090013602360336DA0ECF
:101A50000024F66E510E0120F76E000E0220F86E83
:101A60000900F5CF99F00900F5CF9AF00900F5CFFC
:101A70009BF00900F5CF9CF00A0E046E98C000F0B0
:101A80005BEC03F008C000F000C001F0000E00BEE7
:101A9000FF0E026E036E046E0136019002360336AD
:101AA000043601360190023603360436DA0E01247C
:101AB000F66E510E0220F76E000E0320F86E09003C
:101AC000F5CF00F00900F5CF01F00900F5CF02F0E5
:101AD0000900F5CF03F099C004F09AC005F09BC04F
:101AE00006F09CC007F0DAEC03F027D098C000F0B5
:101AF000000E98BFFF0E016E026E036E003600905E
:101B000001360236033600360090013602360336BF
:101B1000DA0E0024F66E510E0120F76E000E022040
:101B2000F86E0900F5CF00F00900F5CF01F00900CB
:0C1B3000F5CF02F00900F5CF03F0120021
:101B3C00086A096A100E0C6E013408360936045016
:101B4C00085E0550D8A0053C095ED8B007D00450FB
:101B5C0008260550D8B0053C0926D8900036013629
:061B6C000C2EEAD7120066
:101B720040A461D040A213D040A003D02D0E036E2A
:101B820002D02B0E036E98C0E1FF99C0E2FF03C0A2
:101B9200E6FF0001984B992B3E4A3F2A36D040A0DF
:101BA2000CD0000198C0E1FF99C0E2FF200EE66E62
:101BB200984B992B3E4A3F2A28D0C00E4014016E02
:101BC2004150080B026E0250080A02E1800E011811
:101BD2001CE1000198C0E1FF99C0E2FF300EE66E01
:101BE200984B992B3E4A3F2A40AA03D0580E046EC6
:101BF20002D0780E046E98C0E1FF99C0E2FF04C0E3
:101C0200E6FF984B992B3E4A3F2A3A503B1012E08E
:101C1200000198C0E1FF99C0E2FF300EE66E984BDA
:101C2200992B3E4A3F2A010E3A5E000E3B5A3A5029
:101C32003B10EEE179D03A503B1014E040B612D09E
:101C4200000198C0E1FF99C0E2FF200EE66E984BBA
:101C5200992B3E4A3F2A010E3A5E000E3B5A3A50F9
:101C62003B10EEE140A213D040A003D02D0E056E32
:101C720002D02B0E056E000198C0E1FF99C0E2FF71
:101C820005C0E6FF984B992B3E4A3F2A0DD040A053
:101C92000BD0000198C0E1FF99C0E2FF200EE66E72
:101CA200984B992B3E4A3F2AC00E4014016E415078
:101CB200080B026E0250080A02E1400E01180CE104
:101CC200000198C0E1FF99C0E2FF300EE66E984B2A
:101CD200992B3E4A3F2A28D0C00E4014016E415033
:101CE200080B026E0250080A02E1800E01181CE184
:101CF200000198C0E1FF99C0E2FF300EE66E984BFA
:101D0200992B3E4A3F2A40AA03D0580E066E02D0B3
:101D1200780E066E98C0E1FF99C0E2FF06C0E6FFAA
:101D2200984B992B3E4A3F2A800E006E800E3D183A
:101D3200005C02E13C50395C0CE2000198C0E1FF1A
:101D420099C0E2FF300EE66E984B992B3E4A3F2A2D
:0C1D5200EBD798C000F099C001F012001F
:101D5E000A6A0350D8A40A800750D8A40A820A50EF
:101D6E00D8B412EF0FF0030AD8B4CBEF0EF00AB0CE
:101D7E00C6EF0EF006AE10EF0FF00EEF0FF002AE44
:101D8E000EEF0FF010EF0FF00250800B0A6E029E56
:101D9E000650800B069E0A18D8B4DCEF0EF00A50DF
:101DAE00D8B40EEF0FF010EF0FF00750035CD8B45D
:101DBE00E6EF0EF0D8A002EF0FF008EF0FF006508E
:101DCE00025CD8B4F0EF0EF0D8A002EF0FF008EFDF
:101DDE000FF00550015CD8B4FAEF0EF0D8A002EF68
:101DEE000FF008EF0FF00450005CD8B412EF0FF0B4
:101DFE00D8B008EF0FF00A52D8B410EF0FF00EEF74
:101E0E000FF00A52D8B40EEF0FF010EF0FF0D8808B
:0E1E1E001200D8901200D880D8841200120052
:0C1E2C000E0E0D6E0D2EFED700001200F1
:101E38000050086E0150006E0250016E0350026E91
:101E4800036A0B6A0C6A9E0E036E0A6A020E0C6E17
:061E580032EC00F0120064
:081E5E00067E23EC01F01200E6
:101E66000B6A0C6A0A6A086A0350D8B4BBEF0FF013
:101E7600028E9E0E035E03BE46EF0FF0D8B446EF09
:101E86000FF0ABEF0FF0036C080E035CD8A078EFF1
:101E96000FF0036E083600C008F001C000F002C063
:101EA60001F0026A080E035CD8A078EF0FF0036E0B
:101EB600083600C008F001C000F0016A080E035C95
:101EC600D8A078EF0FF0036E083600C008F0006A5D
:101ED600080E035CD8A078EF0FF0036E0836086A88
:101EE6000350D8A4D89084EF0FF00350D8B484EFF1
:101EF6000FF0D8900232013200320832032E7CEF06
:101F06000FF00BBC08A095EF0FF0D8A095EF0FF0DF
:101F1600082AD8B4002AD8B4012AD8B4022A02BEA4
:101F2600BFEF0FF00AAEBBEF0FF0021E011E001E40
:101F3600081E082AD8B4002AD8B4012AD8B4022A1E
:101F4600BBEF0FF0026A016A006A086ABBEF0FF086
:101F56000B800BAEC5EF0FF0026A0AAEC5EF0FF0AD
:101F6600026E016E006E086E0A360232C5EF0FF081
:101F7600000E0C6AC6EF0FF0010E0C6E4DEC03F06E
:101F8600C6EF0FF0FF0E0250036E0150026E0050B6
:081F9600016E0850006E1200FC
:101F9E000450000A12E10550000A0FE10650000A33
:101FAE000CE10750000A09E1FF0E006EFF0E016EF4
:101FBE007F0E026EFF0E036EA8D0086A096A0750E4
:101FCE00D8B47AEF10F00350D8B47FEF10F002506F
:101FDE0006180A6E028E068E0E6A02C008F001C046
:101FEE000CF000C00DF004500D5E0550D8A0053C5D
:101FFE000C5E0650D8A0063C085E086A0C6A0D6A94
:10200E00D8A011EF10F0D89002320132003208320F
:10201E00010E0E6E0750035ED8A01EEF10F07E0E5E
:10202E000E240326D8B084EF10F024EF10F07E0EAD
:10203E000E240326D8A089EF10F0180E0B6E0D3665
:10204E000C3608360036013602360E360450005E67
:10205E000550D8A0053C015E0650D8A0063C025E95
:10206E0006340E120EA03FEF10F00D804AEF10F066
:10207E00045000260550D8B0053C01260650D8B0B5
:10208E00062802260D900B2E26EF10F070EF10F0A2
:10209E00D8900036013602360E360450005E0550DA
:1020AE00D8A0053C015E0650D8A0063C025E063460
:1020BE000E10010B0D26D8B00C2AD8B4082AD8A4BD
:1020CE0070EF10F008320C320D32032AD8B484EFC0
:1020DE0010F00AAE089E0850026E0C50016E0D50A4
:1020EE00006E8CEF10F0010ED6EC03F08CEF10F0BA
:1020FE00020E1AEC00F08CEF10F0040E0EEC00F055
:0C210E008CEF10F0080E21EC00F0120025
:10211A000B6A0A6A096A00500402F4CF09F0F3CF85
:10212A0008F001500502F4CF0BF0F3CF0AF000508B
:10213A000502F3500926F4500A22E86A0B220150DC
:10214A000402F3500926F4500A22E86A0B2208C056
:10215A0000F009C001F00AC002F00BC003F012003F
:10216A000450000A12E10550000A0FE10650000A65
:10217A000CE10750000A09E1FF0E006EFF0E016E26
:10218A00FF0E026E7F0E036E99D00C6A07BE0C2AF0
:10219A000D6A0B6A0A6A096A086A0350021001107A
:1021AA000010D8B485D0035007180E6E0EBE0D1E4F
:1021BA0007AE0BD0041E051E061E071E042AD8B43D
:1021CA00052AD8B4062AD8B4072A03AE0BD0001EB3
:1021DA00011E021E031E002AD8B4012AD8B4022AFC
:1021EA00D8B4032A035007100E6E0EBE1DD075EC2C
:1021FA0004F00CBE36D00DAE5BD0001E011E021ECE
:10220A00031E002AD8B4012AD8B4022AD8B4032A51
:10221A00081E091E0A1E0B1E082AD8B4092AD8B499
:10222A000A2AD8B40B2A44D007AE15D003BE0DD063
:10223A0003500B6E02500A6E0150096E0050086E70
:10224A00036A026A016A006AD6D7036A026A016AE5
:10225A00006A002A000C031E021E011E001E0C8EBC
:10226A00C6D7082AD8B4092AD8B40A2AD8B40B2A55
:10227A000450085CD8A4BFD70550095CD8A4BBD7C2
:10228A0006500A5CD8A4B7D707500B5CD8A4B3D7BA
:10229A000B6A0A6A096A086A002AD8B4012AD8B4F9
:1022AA00022AD8B4032A03AEA6D70E6A0E88FF0CF8
:0E22BA000E6A0CA002D013EC06F0000F12000A
:1022C8000001906B916B846B856B72C000F073C0DA
:1022D80001F074C002F0010E7227000E73237423FC
:1022E80000C0F6FF01C0F7FF02C0F8FF0900F5CFF4
:1022F80000F000C081F00052D8B470EF21F0815195
:10230800250A0BE070C0E1FF71C0E2FF81C0E6FF63
:10231800704B712B904B912BD8D7826B836B846B4E
:10232800856B23D08487010E7227000E73237423D4
:1023380059D08481010E7227000E7323742352D062
:102348008483010E7227000E732374234BD0858774
:10235800010E7227000E7323742344D08485010E66
:102368007227000E732374233DD072C0F6FF73C02A
:10237800F7FF74C0F8FF0900F5CF01F001502D0AEE
:10238800D1E072C0F6FF73C0F7FF74C0F8FF090010
:10239800F5CF01F00150200ACCE072C0F6FF73C0FF
:1023A800F7FF74C0F8FF0900F5CF01F001502B0AC0
:1023B800C7E072C0F6FF73C0F7FF74C0F8FF0900EA
:1023C800F5CF01F00150230AC2E072C0F6FF73C0D6
:1023D800F7FF74C0F8FF0900F5CF01F00150300A8B
:1023E800BDE001D09ED784A301D0849184A701D0F9
:1023F800849572C0F6FF73C0F7FF74C0F8FF090038
:10240800F5CF00F0000E016E00C098F039EC0AF02C
:10241800005235E0826B836B82C000F083C001F00C
:102428000A0E046E000E056E74DE72C0F6FF73C0ED
:10243800F7FF74C0F8FF0900F5CF02F0025000243E
:10244800826F000E0120836F300E825F000E835B67
:10245800010E7227000E7323742372C0F6FF73C037
:10246800F7FF74C0F8FF0900F5CF00F0000E016E09
:1024780000C098F039EC0AF00052CEE133D072C0B7
:10248800F6FF73C0F7FF74C0F8FF0900F5CF01F03D
:1024980001502A0A27E175C0E9FF76C0EAFFEECFAE
:1024A80000F0EECF01F000C0E9FF01C0EAFFEECF77
:1024B80082F0EECF83F075C0E9FF76C0EAFF020E26
:1024C800EE24006E000EEE20016E75C0E1FF76C0AE
:1024D800E2FF00C0E6FF01C0E6FF010E7227000E12
:1024E8007323742372C0F6FF73C0F7FF74C0F8FF3C
:1024F8000900F5CF01F001502E0A6FE1010E722795
:10250800000E7323742372C0F6FF73C0F7FF74C004
:10251800F8FF0900F5CF01F001502A0A28E175C03B
:10252800E9FF76C0EAFFEECF00F0EECF01F000C081
:10253800E9FF01C0EAFFEECF7FF0EECF80F075C073
:10254800E9FF76C0EAFF020EEE24006E000EEE20D0
:10255800016E75C0E1FF76C0E2FF00C0E6FF01C072
:10256800E6FF010E7227000E7323742335D07F6BAC
:10257800806B72C0F6FF73C0F7FF74C0F8FF0900E4
:10258800F5CF00F0000E016E00C098F039EC0AF0AB
:10259800005222E07FC000F080C001F00A0E046EF5
:1025A800000E056EB6DD72C0F6FF73C0F7FF74C08B
:1025B800F8FF0900F5CF02F0025000247F6F000EEB
:1025C8000120806F300E7F5F000E805B010E722746
:1025D800000E73237423CDD703D07F6B806B85895E
:1025E80072C000F073C001F074C002F0010E7227CF
:1025F800000E7323742300C0F6FF01C0F7FF02C06A
:10260800F8FF0900F5CF81F0F9D090C000F091C033
:1026180001F074EF21F08489E3D785852ED1848B6E
:1026280085812BD1858329D1848D27D126D1848B8F
:10263800848F23D175C0E9FF76C0EAFFEECF00F0A2
:10264800EECF01F000C0E9FF01C0EAFFEECF8CF049
:10265800EECF8DF075C0E9FF76C0EAFF020EEE24DA
:10266800006E000EEE20016E75C0E1FF76C0E2FF3D
:1026780000C0E6FF01C0E6FF000E8D1902E1000E62
:102688008C1904E1150E8C6F000E8D6F8E6B8F6B9D
:102698008E518C25E96E8F518D21EA6EEE520BE03A
:1026A800010E8E25006E000E8F21016E00C08EF087
:1026B80001C08FF0EDD77F5180110AE08F51805D06
:1026C80002E18E517F5D04E27FC08EF080C08FF002
:1026D80083518F5D02E182518E5D05E28E51825FEA
:1026E8008F51835B02D0826B836B84B716D082C014
:1026F80000F083C001F0010E825F000E835B005082
:1027080001100BE070C0E1FF71C0E2FF200EE66E21
:10271800704B712B904B912BEAD78EC002F08FC073
:1027280003F0010E8E5D006E000E8F59016E00C021
:102738008EF001C08FF00250031019E08CC0E9FF41
:102748008DC0EAFF70C0E1FF71C0E2FFEECFE6FF87
:10275800704B712B010E8C25006E000E8D21016EC1
:1027680000C08CF001C08DF0904B912BD6D784A778
:1027780016D082C000F083C001F0010E825F000E07
:10278800835B005001100BE070C0E1FF71C0E2FFF5
:10279800200EE66E704B712B904B912BEAD795D596
:1027A80075C0E9FF76C0EAFFEECF00F0EECF01F08A
:1027B80000C0E9FF01C0EAFFEECF81F075C0E9FF74
:1027C80076C0EAFF020EEE24006E000EEE20016EC7
:1027D80075C0E1FF76C0E2FF00C0E6FF01C0E6FF7A
:1027E800810E8C6F000E8D6F010E8E6F000E8F6F35
:1027F80062D7C00E8413000E85133FD08151000AA2
:10280800D8B403D781516C0AD8B405D781514C0A82
:10281800D8B401D78151660AD8B4FFD68151450A88
:10282800D8B4FDD68151650AD8B4FAD68151670A61
:10283800D8B4F8D681516F0AD8B4F6D68151640A53
:10284800D8B4F4D68151690AD8B4F0D68151700A47
:10285800D8B4EDD68151580AD8B4E9D68151780A4E
:10286800D8B4E6D68151730AD8B4E4D68151630A44
:1028780097E08151750ABDE0B3D7000E8415006E4C
:102888008551070B016E00500110D8B417EF1DF0E9
:1028980085A904D0060E7F6F000E806F75C0E9FF12
:1028A80076C0EAFFEECF00F0EECF01F000C0E9FFFE
:1028B80001C0EAFFEECF86F0EECF87F0EECF88F0CA
:1028C800EECF89F075C0E9FF76C0EAFF040EEE246A
:1028D800006E000EEE20016E75C0E1FF76C0E2FFCB
:1028E80000C0E6FF01C0E6FF046A056A066A076AD7
:1028F80086C000F087C001F088C002F089C003F0EC
:10290800AFEC0EF0010ED8B0000E006E005205E0DC
:10291800887F030E8413000E85138A6B8B6B86C029
:1029280000F087C001F088C002F089C003F0046A93
:10293800056A066A076A45EC0AF0000ED8A4010E7B
:10294800006E0052D8B48AD089C000F0016A026AC9
:10295800036AFF0E0016000E01167E0E005E000EC2
:10296800015A00C08AF001C08BF0010E005E000E13
:10297800015A00C08AF001C08BF0030E046E000EED
:10298800056E8DEC10F000C08AF001C08BF00A0EC5
:10299800046E000E056E5CEC0AF000C08AF001C0FF
:1029A8008BF0800E0118026E800E025C02E1000EB0
:1029B800005C05E2010E00018A5F000E8B5B0001DE
:1029C8008A510008986FC0EC0AF086C004F087C0EE
:1029D80005F088C006F089C007F0DAEC03F000C003
:1029E8008CF001C08DF002C08EF003C08FF0000E95
:1029F800046E000E056E000E066E7F0E076E8CC00C
:102A080000F08DC001F08EC002F08FC003F0AFEC73
:102A18000EF0010ED8B0000E006E005205E0010E57
:102A28008A5F000E8B5B1AD0000E046E000E056ED6
:102A3800200E066E820E076E8CC000F08DC001F06D
:102A48008EC002F08FC003F0AFEC0EF0000ED8B0CD
:102A5800010E006E005202E08A4B8B2B800E006E36
:102A6800800E8B19005C02E18A51000803E3010E15
:102A7800816F02D08AC081F085B118D085A315D0A6
:102A8800800E8B19006E7F0E005C02E1FC0E8A5DE1
:102A98000BE3800E8B19006E800E8019005C02E13A
:102AA8007F518A5D01E201D001D0EFD37F518011BF
:102AB80006E085A304D0010E7F5F000E805B805185
:102AC800000802E17F51080803E2080E816F02D076
:102AD8007FC081F086C000F087C001F088C002F096
:102AE80089C003F0046A056A066A076A45EC0AF0B9
:102AF800000ED8A4010E006E0052D8B44BD18AC083
:102B080098F0C0EC0AF000C004F001C005F002C063
:102B180006F003C007F086C000F087C001F088C047
:102B280002F089C003F0CFEC0FF000C086F001C0BE
:102B380087F002C088F003C089F0000181510008C5
:102B4800986FC0EC0AF000C004F001C005F002C0A4
:102B580006F003C007F086C000F087C001F088C007
:102B680002F089C003F0CFEC0FF000C092F001C072
:102B780093F002C094F003C095F092C086F093C021
:102B880087F094C088F095C089F092C000F093C097
:102B980001F094C002F095C003F033EC0FF01CEC88
:102BA8000FF000C004F001C005F002C006F003C039
:102BB80007F092C000F093C001F094C002F095C0F5
:102BC80003F02FEC0FF0000E046E000E056E000EE1
:102BD800066E7E0E076EAFEC0EF0000ED8B0010E3A
:102BE800006E00521AE086C000F087C001F088C06D
:102BF80002F089C003F0000E046E000E056E000E90
:102C0800066E7E0E076E23EC01F000C086F001C050
:102C180087F002C088F003C089F086C000F087C042
:102C280001F088C002F089C003F033EC0FF0000116
:102C38008151010F096E0A6A000E0A2209C004F0C8
:102C48000AC005F0000E0ABEFF0E066E076E0436B7
:102C580004900536063607360436049005360636DF
:102C68000736720E0424F66E520E0520F76E000E1B
:102C78000620F86E0900F5CF05F00900F5CF06F03B
:102C88000900F5CF07F00900F5CF08F00850035CFC
:102C980008E10750025C05E10650015C02E10550BD
:102CA800005C1EE3000186C000F087C001F088C008
:102CB80002F089C003F0CD0E046ECC0E056E4C0EEA
:102CC800066E7B0E076EDAEC03F000C086F001C0DA
:102CD80087F002C088F003C089F08A4B8B2B5AD04A
:102CE80086C000F087C001F088C002F089C003F0F8
:102CF80033EC0FF081C004F0000E056E066E076E0F
:102D08000436049005360636073604360490053630
:102D180006360736720E0424F66E520E0520F76E3C
:102D2800000E0620F86E0900F5CF05F00900F5CF72
:102D380006F00900F5CF07F00900F5CF08F00850B4
:102D4800035C08E10750025C05E10650015C02E102
:102D58000550005C1FE2000186C000F087C001F04A
:102D680088C002F089C003F0000E046E000E056EE4
:102D7800200E066E820E076EDAEC03F000C086F0B5
:102D880001C087F002C088F003C089F0010E8A5F95
:102D9800000E8B5B000185A393D085B791D0800E80
:102DA800000A006E800E8019005C02E17F510A085B
:102DB80004E20A0E7F6F000E806F86C000F087C0A5
:102DC80001F088C002F089C003F033EC0FF000C0B6
:102DD8008CF001C08DF002C08EF003C08FF08C51D2
:102DE8008D118E118F1142E00A0E046E000E056ED1
:102DF800066E076E8CC000F08DC001F08EC002F028
:102E08008FC003F042EC07F008C000F009C001F0E1
:102E18000AC002F00BC003F0000E046E031808E1AC
:102E28000450021805E10450011802E10050000A9C
:102E38001DE1010E7F5F000E805B0A0E046E000E1E
:102E4800056E066E076E8CC000F08DC001F08EC056
:102E580002F08FC003F042EC07F000C08CF001C014
:102E68008DF002C08EF003C08FF0B9D7800E8019A4
:102E7800006E800E005C02E181517F5D21E27F518E
:102E8800815D986FC0EC0AF000C004F001C005F045
:102E980002C006F003C007F086C000F087C001F04A
:102EA80088C002F089C003F0CFEC0FF000C086F0B4
:102EB80001C087F002C088F003C089F07FC081F0AC
:102EC800050E00017F25006E000E8021016E005066
:102ED800825F0150835B7F51801103E185B701D088
:102EE80004D0010E825F000E835B030E8415006E12
:102EF80085C001F0000E01160050011004E0010E1B
:102F0800825F000E835B84A539D084A312D084A18C
:102F180003D02D0E776F02D02B0E776F70C0E1FFB4
:102F280071C0E2FF77C0E6FF704B712B904B912B7D
:102F38000CD084A10AD070C0E1FF71C0E2FF200E5E
:102F4800E66E704B712B904B912B800E006E800EAD
:102F58008319005C02E1825100080FE270C0E1FFB2
:102F680071C0E2FF300EE66E704B712B904B912BC7
:102F7800010E825F000E835BE8D73AD084B718D081
:102F8800800E006E800E8319005C02E182510008F9
:102F98000FE270C0E1FF71C0E2FF200EE66E704BD9
:102FA800712B904B912B010E825F000E835BE8D74B
:102FB80084A312D084A103D02D0E786F02D02B0EDB
:102FC800786F70C0E1FF71C0E2FF78C0E6FF704B18
:102FD800712B904B912B0CD084A10AD070C0E1FFCB
:102FE80071C0E2FF200EE66E704B712B904B912B57
:102FF80086C000F087C001F088C002F089C003F0E5
:1030080033EC0FF000C08CF001C08DF002C08EF0E0
:1030180003C08FF081C000F0000E016E026E036ED7
:10302800003600900136023603360036009001362D
:1030380002360336720E0024F66E520E0120F76E29
:10304800000E0220F86E0900F5CF04F00900F5CF54
:1030580005F00900F5CF06F00900F5CF07F08CC0A0
:1030680000F08DC001F08EC002F08FC003F042EC7A
:1030780007F0300E002670C0E1FF71C0E2FF00C00B
:10308800E6FF704B712B904B912B7F51801103E120
:1030980085B701D06FD070C0E1FF71C0E2FF2E0E7E
:1030A800E66E704B712B904B912B81517F5F000E18
:1030B800805B81534DE0810781C000F0000E016EF6
:1030C800026E036E00360090013602360336003673
:1030D8000090013602360336720E0024F66E520E48
:1030E8000120F76E000E0220F86E0900F5CF04F0FB
:1030F8000900F5CF05F00900F5CF06F00900F5CF76
:1031080007F08CC000F08DC001F08EC002F08FC0B7
:1031180003F042EC07F00A0E046E000E056E066E10
:10312800076E42EC07F008C000F009C001F00AC0C1
:1031380002F00BC003F0300E002670C0E1FF71C032
:10314800E2FF00C0E6FF704B712B904B912BB1D77B
:103158007F5180110FE070C0E1FF71C0E2FF300EB7
:10316800E66E704B712B904B912B010E7F5F000E1A
:10317800805BEED784AB0BD070C0E1FF71C0E2FF7B
:10318800450EE66E704B712B904B912B0AD070C098
:10319800E1FF71C0E2FF650EE66E704B712B904B3C
:1031A800912B800E8B19006E800E005C02E1000EE0
:1031B8008A5D11E28A5100088A6F8B51000E8B5785
:1031C80070C0E1FF71C0E2FF2D0EE66E704B712BEF
:1031D800904B912B0AD070C0E1FF71C0E2FF2B0E1B
:1031E800E66E704B712B904B912B0A0E046E000EFD
:1031F800056E8AC000F08BC001F05CEC0AF0300E5E
:10320800002670C0E1FF71C0E2FF00C0E6FF0001C8
:10321800704B712B904B912B0A0E046E000E056EAD
:103228008AC000F08BC001F05CEC0AF008C000F026
:1032380009C001F0300E002670C0E1FF71C0E2FF46
:1032480000C0E6FF0001704B712B904B912B84A7B7
:103258001AD0800E006E800E8319005C02E1825144
:10326800000811E270C0E1FF71C0E2FF200EE66EB7
:10327800704B712B904B912B010E825F000E835B7C
:1032880082518311EFE169EF11F085A3F3D0800E2D
:103298008B19006E800E005C02E1000E8A5D0AE266
:1032A800010E8A5D006E000E8B59016E00507F5F23
:1032B8000150805B86C000F087C001F088C002F032
:1032C80089C003F033EC0FF000C08CF001C08DF022
:1032D80002C08EF003C08FF0010E816F81510A0A7F
:1032E80034E081C000F0000E016E026E036E0036FD
:1032F8000090013602360336003600900136023659
:103308000336720E0024F66E520E0120F76E000E80
:103318000220F86E0900F5CF01F00900F5CF02F0A0
:103328000900F5CF03F00900F5CF04F004508F5DD4
:1033380008E103508E5D05E102508D5D02E1015008
:103348008C5D01E202D0812BC9D781517F5D966FD8
:10335800000E8059976F96C07FF097C080F08CC0A0
:1033680000F08DC001F08EC002F08FC003F01CEC9D
:103378000FF000C004F001C005F002C006F003C061
:1033880007F086C000F087C001F088C002F089C04D
:1033980003F02FEC0FF000C092F001C093F002C0D0
:1033A80094F003C095F096C098F0C0EC0AF092C073
:1033B80004F093C005F094C006F095C007F0DAEC6D
:1033C80003F0000E046E000E056E000E066E7E0EF3
:1033D800076E23EC01F033EC0FF000C08CF001C055
:1033E8008DF002C08EF003C08FF07F51801142E053
:1033F8000A0E046E000E056E066E076E8CC000F095
:103408008DC001F08EC002F08FC003F042EC07F0CF
:1034180008C000F009C001F00AC002F00BC003F0B8
:10342800000E046E031808E10450021805E1045068
:10343800011802E10050000A1DE10A0E046E000E98
:10344800056E066E076E8CC000F08DC001F08EC050
:1034580002F08FC003F042EC07F000C08CF001C00E
:103468008DF002C08EF003C08FF0010E7F5F000E5A
:10347800805BBBD7800E006E800E8019005C02E175
:103488007F510C0816E37FC098F0B8EC08F086C0AE
:1034980004F087C005F088C006F089C007F023EC67
:1034A80001F000C086F001C087F002C088F003C0B8
:1034B80089F086C000F087C001F088C002F089C09A
:1034C80003F0046A056A066A076A45EC0AF0000E0A
:1034D800D8A4010E006E0052D8B477D086C000F090
:1034E80087C001F088C002F089C003F033EC0FF008
:1034F800000E046E031808E10450021805E1045098
:10350800011802E10050000A60E1800E006E800E92
:103518008B19005C02E18A51010857E28AC098F0D1
:10352800C0EC0AF000C004F001C005F002C006F0CB
:1035380003C007F086C000F087C001F088C002F021
:1035480089C003F0CFEC0FF05F0E046E700E056EAD
:10355800090E066E810E076EAFEC0EF0010ED8B0A4
:10356800000E006E005206E0090E00018A5F000E90
:103578008B5B05D00001080E8A5F000E8B5B8AC04A
:1035880098F0C0EC0AF000C004F001C005F002C0D9
:1035980006F003C007F086C000F087C001F088C0BD
:1035A80002F089C003F0CFEC0FF033EC0FF000C04D
:1035B8008CF001C08DF002C08EF003C08FF00001C6
:1035C800866B876B886B896B38D086C000F087C0A4
:1035D80001F088C002F089C003F033EC0FF000C09E
:1035E8008CF001C08DF002C08EF003C08FF08CC04B
:1035F80000F08DC001F08EC002F08FC003F01CEC0B
:103608000FF000C004F001C005F002C006F003C0CE
:1036180007F086C000F087C001F088C002F089C0BA
:1036280003F02FEC0FF000C086F001C087F002C055
:1036380088F003C089F08A6B8B6B010E816F815112
:103648000A0A34E081C000F0000E016E026E036EBB
:1036580000360090013602360336003600900136F7
:1036680002360336720E0024F66E520E0120F76EF3
:10367800000E0220F86E0900F5CF01F00900F5CF21
:1036880002F00900F5CF03F00900F5CF04F004506B
:103698008F5D08E103508E5D05E102508D5D02E10A
:1036A80001508C5D01E202D0812BC9D781517F2561
:1036B800006E000E8021016E8A5100268B51012276
:1036C8000050825F0150835B85B704D07F51801121
:1036D80001E104D0010E825F000E835B030E8415A6
:1036E800006E85C001F0000E01160050011004E0C4
:1036F800010E825F000E835B84A539D084A312D0AB
:1037080084A103D02D0E796F02D02B0E796F70C073
:10371800E1FF71C0E2FF79C0E6FF704B712B904B5F
:10372800912B0CD084A10AD070C0E1FF71C0E2FFD8
:10373800200EE66E704B712B904B912B800E006E15
:10374800800E8319005C02E1825100080FE270C00C
:10375800E1FF71C0E2FF300EE66E704B712B904BAB
:10376800912B010E825F000E835BE8D73AD084B7B5
:1037780018D0800E006E800E8319005C02E1825121
:1037880000080FE270C0E1FF71C0E2FF200EE66E94
:10379800704B712B904B912B010E825F000E835B57
:1037A800E8D784A312D084A103D02D0E7A6F02D05B
:1037B8002B0E7A6F70C0E1FF71C0E2FF7AC0E6FF9E
:1037C800704B712B904B912B0CD084A10AD070C0F8
:1037D800E1FF71C0E2FF200EE66E704B712B904B3B
:1037E800912B81C000F0810700524CE081C000F0AD
:1037F800000E016E026E036E00360090013602362E
:10380800033600360090013602360336720E002465
:10381800F66E520E0120F76E000E0220F86E0900B7
:10382800F5CF04F00900F5CF05F00900F5CF06F053
:103838000900F5CF07F08CC000F08DC001F08EC0F4
:1038480002F08FC003F042EC07F00A0E046E000E7F
:10385800056E066E076E42EC07F008C000F009C05E
:1038680001F00AC002F00BC003F0300E002670C051
:10387800E1FF71C0E2FF00C0E6FF704B712B904B77
:10388800912BAFD7800E006E800E8B19005C02E181
:103898008A5100080FE270C0E1FF71C0E2FF300EEC
:1038A800E66E704B712B904B912B010E8A5F000EC8
:1038B8008B5BE8D7800E000A006E800E8019005CD2
:1038C80002E17F51080803E2080E816F02D07FC031
:1038D80081F081517F5F000E805B815303E185B7E2
:1038E80001D00AD070C0E1FF71C0E2FF2E0EE66E73
:1038F800704B712B904B912B81C098F0C0EC0AF063
:1039080086C004F087C005F088C006F089C007F0BB
:10391800DAEC03F01FEC06F000C08CF001C08DF06B
:1039280002C08EF003C08FF081534DE0810781C043
:1039380000F0000E016E026E036E00360090013634
:103948000236033600360090013602360336720E10
:103958000024F66E520E0120F76E000E0220F86E5B
:103968000900F5CF04F00900F5CF05F00900F5CFFF
:1039780006F00900F5CF07F08CC000F08DC001F00B
:103988008EC002F08FC003F042EC07F00A0E046EFE
:10399800000E056E066E076E42EC07F008C000F0D8
:1039A80009C001F00AC002F00BC003F0300E002677
:1039B80070C0E1FF71C0E2FF00C0E6FF704B712BE1
:1039C800904B912BB1D77F5180110FE070C0E1FF70
:1039D80071C0E2FF300EE66E704B712B904B912B4D
:1039E800010E7F5F000E805BEED784A71AD0800E91
:1039F800006E800E8319005C02E18251000811E21A
:103A080070C0E1FF71C0E2FF200EE66E704B712BB3
:103A1800904B912B010E825F000E835B82518311C4
:103A2800EFE169EF11F0C00E8415016E85C002F058
:103A3800000E0216000E021802E1000E0118D8A4AA
:103A480080D084A927D075C0E9FF76C0EAFFEECF01
:103A580000F0EECF01F000C0E9FF01C0EAFFEECFB1
:103A68008CF0EECF8DF0EECF8EF0EECF8FF075C0EC
:103A7800E9FF76C0EAFF040EEE24006E000EEE2089
:103A8800016E75C0E1FF76C0E2FF00C0E6FF01C02D
:103A9800E6FF2FD075C0E9FF76C0EAFFEECF00F051
:103AA800EECF01F000C0E9FF01C0EAFFEECF00F061
:103AB800EECF01F0000E01BEFF0E026E036E00C0D5
:103AC8008CF001C08DF002C08EF003C08FF075C07D
:103AD800E9FF76C0EAFF020EEE24006E000EEE202B
:103AE800016E75C0E1FF76C0E2FF00C0E6FF01C0CD
:103AF800E6FF800E8F19006E800E005C08E1000E54
:103B08008E5D05E1000E8D5D02E1000E8C5D18E210
:103B1800030E8413000E8513006A016A026A036AA1
:103B28008C51005E8D51015A8E51025A8F51035AA1
:103B380000C08CF001C08DF002C08EF003C08FF081
:103B48004ED084A927D075C0E9FF76C0EAFFEECF32
:103B580000F0EECF01F000C0E9FF01C0EAFFEECFB0
:103B68008CF0EECF8DF0EECF8EF0EECF8FF075C0EB
:103B7800E9FF76C0EAFF040EEE24006E000EEE2088
:103B8800016E75C0E1FF76C0E2FF00C0E6FF01C02C
:103B9800E6FF25D075C0E9FF76C0EAFFEECF00F05A
:103BA800EECF01F000C0E9FF01C0EAFFEECF8CF0D4
:103BB800EECF8DF0000E8E6F8F6F75C0E9FF76C067
:103BC800EAFF020EEE24006E000EEE20016E75C0B4
:103BD800E1FF76C0E2FF00C0E6FF01C0E6FF000E8D
:103BE800801902E1000E7F190FE1000E006E8F1997
:103BF80008E100508E1905E100508D1902E18C5141
:103C0800000A02E17F4B802BC00E8415006E00C0B5
:103C180005F0AED0010E816F81510A0A34E081C0EF
:103C280000F0000E016E026E036E00360090013641
:103C38000236033600360090013602360336720E1D
:103C48000024F66E520E0120F76E000E0220F86E68
:103C58000900F5CF01F00900F5CF02F00900F5CF12
:103C680003F00900F5CF04F004508F5D08E103501C
:103C78008E5D05E102508D5D02E101508C5D01E22F
:103C880002D0812BC9D782D0010E816F8151080AD9
:103C980034E081C000F0000E016E026E036E003643
:103CA800009001360236033600360090013602369F
:103CB8000336BE0E0024F66E520E0120F76E000E7B
:103CC8000220F86E0900F5CF01F00900F5CF02F0E7
:103CD8000900F5CF03F00900F5CF04F004508F5D1B
:103CE80008E103508E5D05E102508D5D02E101504F
:103CF8008C5D01E202D0812BC9D748D0010E816FBB
:103D080081510C0A34E081C000F0000E016E026E91
:103D1800036E0036009001360236033600360090F6
:103D2800013602360336420E0024F66E520E01208A
:103D3800F76E000E0220F86E0900F5CF01F00900B9
:103D4800F5CF02F00900F5CF03F00900F5CF04F034
:103D580004508F5D08E103508E5D05E102508D5DD2
:103D680002E101508C5D01E202D0812BC9D70ED04F
:103D78000550000AD8B44ED70550C00AD8B44AD75F
:103D88000550800A81E00550400AB8E0800E006EB8
:103D9800800E8019005C02E17F51815D03E27FC0E3
:103DA80081F00DD0800E8019006E800E005C02E15B
:103DB80081517F5D04E281C07FF0000E806F8251E7
:103DC80083110EE0030E8415006E85C001F0000E0D
:103DD80001160050011004E0010E825F000E835BA3
:103DE800800E8019006E800E8319005C02E18251FA
:103DF8007F5D05E27F51825F8051835B02D0826BD9
:103E0800836BC40E8415016E8551080B026E025037
:103E1800080A02E1400E011808E18251831104E00A
:103E2800010E825F000E835B1CD0C00E8415016EEC
:103E38008551080B026E0250080A02E1800E011833
:103E480010E1800E006E800E8319005C02E1825141
:103E5800020805E2020E825F000E835B02D0826BCD
:103E6800836B84A55DD084A312D084A103D02D0ECA
:103E78007B6F02D02B0E7B6F70C0E1FF71C0E2FF39
:103E88007BC0E6FF704B712B904B912B34D084A1F3
:103E98000BD070C0E1FF71C0E2FF200EE66E704BE0
:103EA800712B904B912B27D0C00E8415016E855134
:103EB800080B026E0250080A02E1800E01181BE18D
:103EC80070C0E1FF71C0E2FF300EE66E704B712BDF
:103ED800904B912B84AB03D0580E7C6F02D0780E98
:103EE8007C6F70C0E1FF71C0E2FF7CC0E6FF704BE1
:103EF800712B904B912B8251831111E070C0E1FF1F
:103F080071C0E2FF300EE66E704B712B904B912B17
:103F1800010E825F000E835B82518311EFE174D042
:103F28008251831113E084B711D070C0E1FF71C0D2
:103F3800E2FF200EE66E704B712B904B912B010E19
:103F4800825F000E835B82518311EFE184A312D05C
:103F580084A103D02D0E7D6F02D02B0E7D6F70C013
:103F6800E1FF71C0E2FF7DC0E6FF704B712B904B03
:103F7800912B0CD084A10AD070C0E1FF71C0E2FF80
:103F8800200EE66E704B712B904B912BC00E841552
:103F9800016E8551080B026E0250080A02E1400EBC
:103FA80001180BE170C0E1FF71C0E2FF300EE66E50
:103FB800704B712B904B912B27D0C00E8415016E3E
:103FC8008551080B026E0250080A02E1800E0118A2
:103FD8001BE170C0E1FF71C0E2FF300EE66E704B6E
:103FE800712B904B912B84AB03D0580E7E6F02D06F
:103FF800780E7E6F70C0E1FF71C0E2FF7EC0E6FF01
:10400800704B712B904B912B800E006E800E801997
:10401800005C02E17F51815D0BE270C0E1FF71C07D
:10402800E2FF300EE66E704B712B904B912BECD764
:104038007FC000F080C001F0010E7F5F000E805B42
:1040480000500110D8B42AD1C00E8415006E00C0EB
:1040580092F00AD17FC000F080C001F0000E80BF4E
:10406800FF0E026E036E00360090013602360336EC
:1040780000360090013602360336720E0024F66EC2
:10408800520E0120F76E000E0220F86E0900F5CFDF
:1040980004F00900F5CF05F00900F5CF06F0090096
:1040A800F5CF07F08CC000F08DC001F08EC002F093
:1040B8008FC003F042EC07F00A0E046E000E056E86
:1040C800066E076E42EC07F008C000F009C001F068
:1040D8000AC002F00BC003F0300E0024816FD3D069
:1040E80084AB45D07FC000F080C001F0000E80BFD7
:1040F800FF0E026E036E003600900136023603365C
:1041080000360090013602360336BE0E0024F66EE5
:10411800520E0120F76E000E0220F86E0900F5CF4E
:1041280004F00900F5CF05F00900F5CF06F0090005
:10413800F5CF07F08CC000F08DC001F08EC002F002
:104148008FC003F042EC07F00F0E0016000E0116A8
:1041580002160316110E0024F66E530E0120F76E98
:10416800000E0220F86E0900F5CF81F044D07FC020
:1041780000F080C001F0000E80BFFF0E026E036EDB
:1041880000360090013602360336003600900136BC
:1041980002360336BE0E0024F66E520E0120F76E6C
:1041A800000E0220F86E0900F5CF04F00900F5CFE3
:1041B80005F00900F5CF06F00900F5CF07F08CC02F
:1041C80000F08DC001F08EC002F08FC003F042EC09
:1041D80007F00F0E0016000E011602160316000E49
:1041E8000024F66E530E0120F76E000E0220F86EC2
:1041F8000900F5CF81F047D07FC000F080C001F002
:10420800000E80BFFF0E026E036E0036009001366E
:104218000236033600360090013602360336420E67
:104228000024F66E520E0120F76E000E0220F86E82
:104238000900F5CF04F00900F5CF05F00900F5CF26
:1042480006F00900F5CF07F08CC000F08DC001F032
:104258008EC002F08FC003F042EC07F0070E001486
:10426800816F300E81270FD09251000AD8B4F2D650
:104278009251C00AD8B4EED69251800AD8B430D739
:104288009251400AB9E070C0E1FF71C0E2FF81C0FD
:10429800E6FF704B712B904B912BCAD684A71AD08E
:1042A800800E006E800E8319005C02E182510008C6
:1042B80011E270C0E1FF71C0E2FF200EE66E704BA4
:1042C800712B904B912B010E825F000E835B825104
:1042D8008311EFE169EF11F090C000F091C001F097
:0242E8001200C2
:1042EA00B7EC06F0010E0001986F02EC07F00C0E15
:0C42FA00986F02EC07F095908382120090
:104306003E6A3F6A406A416A72C000F073C001F0BB
:1043160074C002F0010E00017227000E732374238D
:1043260000C0F6FF01C0F7FF02C0F8FF0900F5CF95
:1043360000F000C039F00052D8B47FEF26F03950B3
:10434600250A0BE070C0E1FF71C0E2FF39C0E6FF4D
:10435600704B712B3E4A3F2AD7D73A6A3B6A406A6E
:10436600416A72C098F073C099F074C09AF0A1ECDB
:1043760005F000C072F001C073F002C074F000C016
:10438600F6FF01C0F7FF02C0F8FF0900F5CF00F005
:10439600000E016E00C098F039EC0AF0005236E0CB
:1043A6003A6A3B6A3AC000F03BC001F00A0E046E5E
:1043B600000E056E8DEC10F072C0F6FF73C0F7FFAD
:1043C60074C0F8FF0900F5CF02F0025000243A6EDF
:1043D600000E01203B6E300E3A5E000E3B5A010E77
:1043E6007227000E7323742372C0F6FF73C0F7FFA3
:1043F60074C0F8FF0900F5CF00F0000E016E00C092
:1044060098F039EC0AF00052CDE133D072C0F6FFD5
:1044160073C0F7FF74C0F8FF0900F5CF01F0015033
:104426002A0A27E175C0E9FF76C0EAFFEECF00F061
:10443600EECF01F000C0E9FF01C0EAFFEECF3AF08F
:10444600EECF3BF075C0E9FF76C0EAFF020EEE2420
:10445600006E000EEE20016E75C0E1FF76C0E2FF31
:1044660000C0E6FF01C0E6FF010E7227000E7323AF
:10447600742372C0F6FF73C0F7FF74C0F8FF09001B
:10448600F5CF01F001502E0A70E1010E7227000EE1
:104496007323742372C0F6FF73C0F7FF74C0F8FF6E
:1044A6000900F5CF01F001502A0A28E175C0E9FF9D
:1044B60076C0EAFFEECF00F0EECF01F000C0E9FFD4
:1044C60001C0EAFFEECF3CF0EECF3DF075C0E9FF4C
:1044D60076C0EAFF020EEE24006E000EEE20016E9C
:1044E60075C0E1FF76C0E2FF00C0E6FF01C0E6FF4F
:1044F600010E7227000E7323742336D03C6A3D6A80
:1045060072C0F6FF73C0F7FF74C0F8FF0900F5CF5D
:1045160000F0000E016E00C098F039EC0AF000526F
:1045260023E03CC000F03DC001F00A0E046E000E10
:10453600056E8DEC10F072C0F6FF73C0F7FF74C005
:10454600F8FF0900F5CF02F0025000243C6E000E81
:1045560001203D6E300E3C5E000E3D5A010E722764
:10456600000E73237423CCD702D03C6A3D6A72C016
:1045760000F073C001F074C002F0010E7227000E45
:104586007323742300C0F6FF01C0F7FF02C0F8FFD3
:104596000900F5CF39F0EFD03EC000F03FC001F082
:1045A600AFD3408C17D116D1408A408E13D175C037
:1045B600E9FF76C0EAFFEECF00F0EECF01F000C0D3
:1045C600E9FF01C0EAFFEECF77F0EECF78F075C0D5
:1045D600E9FF76C0EAFF020EEE24006E000EEE2022
:1045E600016E75C0E1FF76C0E2FF00C0E6FF01C0C4
:1045F600E6FF000E781902E1000E771904E11C0EA1
:10460600776F000E786F796B7A6B79517725E96E43
:104616007A517821EA6EEE520BE0010E7925006E92
:10462600000E7A21016E00C079F001C07AF0EDD754
:104636003C503D100AE07A513D5C02E179513C5C08
:1046460004E23CC079F03DC07AF03B507A5D02E16D
:104656003A50795D05E279513A5E7A513B5A02D079
:104666003A6A3B6A40B616D03AC000F03BC001F049
:10467600010E3A5E000E3B5A005001100BE070C06E
:10468600E1FF71C0E2FF200EE66E704B712B3E4AD1
:104696003F2AEAD779C002F07AC003F0010E795DAD
:1046A600006E000E7A59016E00C079F001C07AF0F2
:1046B6000250031019E077C0E9FF78C0EAFF70C026
:1046C600E1FF71C0E2FFEECFE6FF704B712B010EEA
:1046D6007725006E000E7821016E00C077F001C0CC
:1046E60078F03E4A3F2AD6D740A616D03AC000F008
:1046F6003BC001F0010E3A5E000E3B5A005001101D
:104706000BE070C0E1FF71C0E2FF200EE66E704B59
:10471600712B3E4A3F2AEAD7F7D575C0E9FF76C026
:10472600EAFFEECF00F0EECF01F000C0E9FF01C0D6
:10473600EAFFEECF39F075C0E9FF76C0EAFF020E58
:10474600EE24006E000EEE20016E75C0E1FF76C00D
:10475600E2FF00C0E6FF01C0E6FF390E776F000EEC
:10476600786F010E796F000E7A6F62D7C00E401215
:10477600000E41122FD03950000AD8B40DD7395047
:104786006C0AD8B40ED739504C0AD8B40AD7395067
:104796006F0AD8B406D73950640AD8B404D739504A
:1047A600690AD8B400D73950700AD8B4FDD6395042
:1047B600580AD8B4F9D63950780AD8B4F6D639504A
:1047C600730AD8B4F4D63950630AA7E03950750A8B
:1047D600CDE0C3D7C00E4014016E41C002F0000EFA
:1047E6000216000E021802E1000E01183BE175C028
:1047F600E9FF76C0EAFFEECF00F0EECF01F000C091
:10480600E9FF01C0EAFFEECF77F0EECF78F075C092
:10481600E9FF76C0EAFF020EEE24006E000EEE20DF
:10482600016E75C0E1FF76C0E2FF00C0E6FF01C081
:10483600E6FF800E7819006E800E005C02E1000E25
:10484600775D0FE2030E4012000E41127751000809
:10485600006E78C001F0000E015600C077F001C06E
:1048660078F022D075C0E9FF76C0EAFFEECF00F0FF
:10487600EECF01F000C0E9FF01C0EAFFEECF77F00E
:10488600EECF78F075C0E9FF76C0EAFF020EEE249F
:10489600006E000EEE20016E75C0E1FF76C0E2FFED
:1048A60000C0E6FF01C0E6FF000E3D1802E1000E63
:1048B6003C1808E1000E781902E1000E771902E1B2
:1048C6003C4A3D2AC00E4014006E00C005F07ED062
:1048D600010E396E3950050A24E0000139C000F096
:1048E600000E016E026E036E00360090013602362F
:1048F60003363A0E0024F66E530E0120F76E000EB4
:104906000220F86E0900F5CF01F00900F5CF02F09C
:104916000250785D02E10150775D01E202D0392A4A
:10492600D9D762D0010E396E3950040A24E000014D
:1049360039C000F0000E016E026E036E0036009064
:104946000136023603364D0E0024F66E530E012054
:10495600F76E000E0220F86E0900F5CF01F009008F
:10496600F5CF02F00250785D02E10150775D01E279
:1049760002D0392AD9D738D0010E396E3950060AF5
:1049860024E0000139C000F0000E016E026E036ED5
:10499600003600900136023603362E0E0024F66EDF
:1049A600530E0120F76E000E0220F86E0900F5CFB7
:1049B60001F00900F5CF02F00250785D02E10150E6
:1049C600775D01E202D0392AD9D70ED00550000A08
:1049D600D8B47ED70550C00AD8B47AD70550800A15
:1049E600A1E00550400AC8E0800E006E800E3D181A
:1049F600005C02E13C50395C03E23CC039F00DD06A
:104A0600800E3D18006E800E005C02E139503C5C61
:104A160004E239C03CF0000E3D6E3A503B100EE009
:104A2600030E4014006E41C001F0000E0116005046
:104A3600011004E0010E3A5E000E3B5A800E3D184E
:104A4600006E800E3B18005C02E13A503C5C05E2C9
:104A56003C503A5E3D503B5A02D03A6A3B6AC40E1D
:104A66004014016E4150080B026E0250080A02E122
:104A7600400E011808E13A503B1004E0010E3A5E80
:104A8600000E3B5A1CD0C00E4014016E4150080B5C
:104A9600026E0250080A02E1800E011810E1800E33
:104AA600006E800E3B18005C02E13A50020805E2F7
:104AB600020E3A5E000E3B5A02D03A6A3B6A70C05A
:104AC60098F071C099F0B9EC0DF000C070F001C01B
:104AD60071F03CC000F03DC001F0010E3C5E000EDE
:104AE6003D5A00500110D8B4E8D0C00E4014006EF4
:104AF60000C07BF0C6D03CC000F03DC001F0000E07
:104B06003DBEFF0E026E036E003600900136023681
:104B160003363A0E0024F66E530E0120F76E000E91
:104B26000220F86E0900F5CF04F00900F5CF05F074
:104B360077C000F078C001F09EEC0DF00A0E046E0E
:104B4600000E056E9EEC0DF008C000F009C001F0E5
:104B5600300E0024396EA5D040AA35D03CC000F0F6
:104B66003DC001F0000E3DBEFF0E026E036E003624
:104B760000900136023603364D0E0024F66E530EB3
:104B86000120F76E000E0220F86E0900F5CF04F042
:104B96000900F5CF05F077C000F078C001F09EEC73
:104BA6000DF00F0E0016000E0116EF0E0024F66E25
:104BB600520E0120F76E000EF86E000EF822090064
:104BC600F5CF39F034D03CC000F03DC001F0000E06
:104BD6003DBEFF0E026E036E0036009001360236B1
:104BE60003364D0E0024F66E530E0120F76E000EAE
:104BF6000220F86E0900F5CF04F00900F5CF05F0A4
:104C060077C000F078C001F09EEC0DF00F0E001694
:104C1600000E0116DE0E0024F66E520E0120F76E0F
:104C2600000EF86E000EF8220900F5CF39F039D0E3
:104C36003CC000F03DC001F0000E3DBEFF0E026E0E
:104C4600036E003600900136023603362E0E00241F
:104C5600F66E530E0120F76E000E0220F86E090064
:104C6600F5CF04F00900F5CF05F077C000F078C065
:104C760001F09EEC0DF0070E0014396E300E392649
:104C860010D000017B51000AD8B435D77B51C00A39
:104C9600D8B431D77B51800AD8B45ED77B51400A4D
:104CA600C7E0000170C0E1FF71C0E2FF39C0E6FF56
:104CB600704B712B3E4A3F2A0CD740A61BD0800E64
:104CC600006E800E3B18005C02E13A50000812E2CA
:104CD600000170C0E1FF71C0E2FF200EE66E704B6E
:104CE600712B3E4A3F2A010E3A5E000E3B5A3A505D
:104CF6003B10EEE187EF21F03EC000F03FC001F02F
:024D0600120099
:0E4D0800429070C098F002EC07F0428012005A
:104D1600220E0C6E086A096A0A6A0B6A0C06D8B477
:104D26001FD0D8900B320A320932083203320232CF
:104D360001320032D8A0F2D70C06D8B409D00450FC
:104D460008260550092206500A2207500B22EAD7E8
:104D5600045008260550092206500A2207500B2245
:024D6600120039
:104D6800C26A211C006E0050C1160F0EC012C08E00
:104D780070C000F000360090003600900050C2125B
:104D8800C28016EC0FF0C282C2A201D0FDD7C4CFF8
:104D980001F0006A00C071F001C072F0C350001247
:104DA800000E011200C071F001C072F0C290000E36
:104DB8000014026E0150800B036E000E031802E10E
:104DC800000E021803E00001716B726B71C000F0F5
:064DD80072C001F01200A0
:104DDE006A0E5F6E000E0001606F65C070F066C0F7
:104DEE0071F067C072F068C073F069C074F05F0E46
:104DFE00756F000E766F83EC21F000C06CF001C071
:104E0E006DF0005000016525E16E01506621E26EE5
:0C4E1E00E66A6CC000F06DC001F01200EC
:104E2A000050086E0150006E0250016E0350026E6F
:104E3A00036A0B6A0C6A9E0E036E0A6A02AE32EFAE
:104E4A0027F0081E001E011E021E082AD8B4002AD6
:104E5A00D8B4012AD8B4022A0A8E020E0C6E32EC99
:044E6A0000F0120042
:104E6E000900F5CFE6FF0006FBE10106F9E11200AD
:104E7E00F26A0F0E0F01386F396B3A6B3B6B836A18
:104E8E00C16AFF0E926E936A956AF80E966E9592AF
:104E9E0075EC21F0020E0B6E040E0C6EBA0E0D6E3A
:104EAE000D2EFED70C2EFCD70B2EFAD700001200BB
:104EBE006A0E5F6E000E0001606F65C070F066C016
:104ECE0071F067C072F068C073F069C074F05F0E65
:104EDE00756F000E766F64EC11F000C06EF001C0BD
:104EEE006FF000506525E16E01506621E26EE66AB4
:0A4EFE006EC000F06FC001F012005A
:104F08005FC070F02DDF000E01BEFF0E026E036E53
:104F1800B80E046E0B0E056E000E066E076EF7DEF9
:104F2800FF0E046E030E056E000E066E076EB5ECDE
:044F380010F0120063
:104F3C0010D0800E0001656F1AD0C00E656F17D0AF
:104F4C00940E656F14D0D40E656F11D0800E656F02
:104F5C000ED000016551010AECE06551020AEDE04A
:104F6C006551030AEDE06551040AEDE0EFD76605E3
:104F7C00006E6551002600C065F000C098F002EC90
:104F8C0007F042905F6A5F506725E96E000E68215A
:104F9C00EA6EEE520BE05F506725E96E000E682159
:104FAC00EA6EEECF70F0AADE5F2AEDD742801200D7
:104FBC00B0EC29F0576A586A596A5A6A5B6A5C6A9B
:104FCC005D6A5E6A0001616B626B636B646B51DFDF
:104FDC008390010E656F020E666F2A0E676F000ECE
:104FEC00686FA6DF020E656F050E666F220E676F87
:104FFC00000E686F9DDF150E0B6E4B0E0C6EBE0E09
:10500C000D6E0D2EFED70C2EFCD70B2EFAD70000F2
:10501C00010E986F02EC07F083805F6A6FDF00C0AF
:10502C0057F001C058F002C059F003C05AF0010EFD
:10503C005F6E64DF00C05BF001C05CF002C05DF02D
:10504C0003C05EF0020E5F6E59DF00C061F001C05C
:10505C0062F002C063F003C064F0030E5F6E4EDFBB
:10506C00010E0001986F02EC07F0430E656F000E05
:10507C00666F440E676F530E686F000E696F0A0EF1
:10508C00046E000E056E57C000F058C001F09EEC87
:10509C000DF000C06AF001C06BF09BDE010E656F75
:1050AC00010E666F430E676F000E686F41DF430E93
:1050BC00656F000E666F550E676F530E686F000EAE
:1050CC00696F5BC000F05CC001F05DC002F05EC0B7
:1050DC0003F0A5DE000E046E000E056E480E066E83
:1050EC00850E076ECFEC0FF000C06AF001C06BF0BC
:1050FC0002C06CF003C06DF0DCDE010E656F0C0EAF
:10510C00666F430E676F000E686F12DF430E656F9C
:10511C00000E666F220E676F530E686F000E696F7C
:10512C0061C000F062C001F063C002F064C003F023
:10513C0076DE000E046E000E056E480E066E850EB1
:10514C00076ECFEC0FF000C06AF001C06BF002C02C
:10515C006CF003C06DF0ADDE020E656F010E666F74
:10516C00430E676F000E686FE3DE030E5F6EC6DEE4
:10517C000A0E046E000E056E9EEC0DF000C06AF077
:10518C0001C06BF0430E0001656F000E666F5C0E84
:10519C00676F530E686F000E696F1BDE020E656F32
:1051AC000D0E666F430E676F000E686FC1DE0B0E3F
:1051BC000B6E260E0C6E5D0E0D6E0D2EFED70C2E8C
:0E51CC00FCD70B2EFAD70000000027D7FFD724
:1053600010EE15F0240E006E010E016E9A0EF66E10
:0E537000520EF76E000EF86E37EC27F01200AA
:1051DA000000007F000020820000488500007A88D5
:1051EA0000401C8C0050438F0024749280961896BD
:1051FA0020BC3E99286B6E9CF90215A0EC782DC153
:04520A00CAF249E2B9
:10520E000000007FCDCC4C7B0AD723786F1203753C
:10521E0017B75171ACC5276EBD37066B95BF566774
:10522E0077CC2B645F700961FFE65B5D08E53C3C63
:04523E006042221B8D
:105242000100000008000000400000000002000011
:105252000010000000800000000004000000200098
:1052620000000001000000080000004000000000F3
:10527200010000000A00000064000000E8030000D2
:1052820010270000A086010040420F00809698007F
:0852920000E1F50500CA9A3B9A
:07529A00286E756C6C290001
:0552A1006E756C6C004D
:0152A6000FF8
:0852A7004E422D343030570057
:0F52AF004A534D20456E67656E686172696100F4
:1052BE0001000000100000000001000000100000BE
:1052CE0000000100000010000000000100000010AE
:1052DE00303132333435363738396162636465665E
:0152EE0000BF
:1052EF00303132333435363738394142434445460D
:0152FF0000AE
:10530000303132333435363738396162636465663B
:01531000009C
:1053110030313233343536373839414243444546EA
:01532100008B
:0C5322004261742E3A25322E316656008E
:0C532E0001000800400000020010008098
:0A533A0001000A006400E8031027D8
:09534400526564653A25755600B6
:08534D00010010000001001036
:0753550025322E31665600DF
:04535C00257556005D
:020000040030CA
:0D000100230F3CFFBF81FF0FC00FE00F4039
:00000001FF
