:100000007FEF28F00000000000EF00F0000000008B
:0A0010000000000000000000F3D71C
:08001C000AAE029E000E120064
:100024000B840BAE1DEF00F0010E036E026A016A31
:0A003400006A0A360232FF0E1200C5
:0E003E00026A016A006A086A036A000E120074
:10004C000B820BAE30EF00F00368026801680068A9
:08005C000A360232FF0E120009
:100064000CB074EF00F00CA21AEF01F00E6A000E4F
:1000740002648BEF00F0F00E0214D8A456EF00F0E7
:10008400023A01380F0B02260138F00B016E0038DA
:100094000F0B01260038F00B006E08380F0B0026FA
:1000A4000838F00B086E0E84D89002BE6FEF00F093
:1000B40008360036013602360E2A02BE6FEF00F013
:1000C40008360036013602360E2A02BE6FEF00F003
:1000D40008360036013602360E2A0E50036410EF3D
:1000E40001F0035E0BBC08AE15EF01F0D880800E62
:1000F40008640030000E002201220222D8A015EF6D
:1001040001F0023201320032034A1AEF01F015EF16
:1001140001F001C002F000C001F008C000F0086A5C
:10012400000E0E860264C2EF00F0F00E0214D8A492
:10013400AAEF00F0023A01380F0B02260138F00B47
:10014400016E00380F0B01260038F00B006E0E8490
:10015400D89002BE6FEF00F00036013602360E2A48
:1001640002BE6FEF00F00036013602360E2A02BEE0
:100174006FEF00F00036013602360E2A6FEF00F002
:1001840001C002F000C001F0006A000E0E960E8855
:100194000264EFEF00F0F00E0214D8A4DAEF00F0DE
:1001A400023A01380F0B02260138F00B016E0E845F
:1001B400D89002BE6FEF00F0013602360E2A02BE5E
:1001C4006FEF00F0013602360E2A02BE6FEF00F028
:1001D400013602360E2A6FEF00F001C002F0016A08
:1001E400000E0E8602641FEF01F0F00E0214D8A474
:1001F400FEEF00F0023A0E84D89002BE6FEF00F0DA
:1002040002360E2A02BE6FEF00F002360E2A02BE3C
:100214006FEF00F002360E2A6FEF00F0010E0C6E45
:10022400FFDE22EF01F0020E0C6EF6DE22EF01F08B
:10023400040E0C6E09DF22EF01F0080E0C6EFDDED9
:020244001200A6
:10024600025006180E6E086A096A0B6A03500764A4
:1002560016EF02F006500A6E068E028E03500B6EE3
:100266000750036E000E0B6466EF01F00B50075E3D
:10027600D8B407EF02F0070E0764D5EF01F0075E6A
:1002860000C008F001C000F002C001F0026A074E8B
:1002960007EF02F00764AAEF01F0075E00C008F05E
:1002A60001C000F0016A074E07EF02F0076488EF0D
:1002B60001F0075E00C008F0006A074E07EF02F083
:1002C60007646FEF01F00AC002F005C001F004C038
:1002D60000F0086A30EF03F0030E07647AEF01F0CE
:1002E600075E08380F0B086E074E07EF02F0D8902E
:1002F6000832074E07EF02F0D8900832074E07EF94
:1003060002F0D890083207EF02F0030E076499EF67
:1003160001F0075E08380F0B086E0038F00B082650
:1003260000380F0B006E074E07EF02F0D890003230
:100336000832074E07EF02F0D89000320832074E17
:1003460007EF02F0D8900032083207EF02F0030EF2
:100356000764C1EF01F0075E08380F0B086E00381E
:10036600F00B082600380F0B006E0138F00B002644
:1003760001380F0B016E074E07EF02F0D8900132DD
:1003860000320832074E07EF02F0D89001320032F1
:100396000832074E07EF02F0D890013200320832D9
:1003A60007EF02F0030E0764F2EF01F0075E08386C
:1003B6000F0B086E0038F00B082600380F0B006E86
:1003C6000138F00B002601380F0B016E0238F00BD6
:1003D600012602380F0B026E074E07EF02F0D89087
:1003E6000232013200320832074E07EF02F0D8908F
:1003F6000232013200320832074E07EF02F0D8907F
:100406000232013200320832096A000E0EAEFBEFEC
:1004160002F0081E001E011E021E082A00220122EA
:100426000222FBEF02F00750D8A41CEF02F030EFD7
:1004360003F0096A02C00AF0028E068E0750035CBA
:10044600076ED8B4EEEF02F0070E0764BCEF02F0B9
:10045600075E0450096E0550046E0650056E066A66
:10046600074EEEEF02F0070E076491EF02F0075E0B
:100476000450096E0550046E056A074EEEEF02F051
:10048600070E07646FEF02F0075E0450096E046AF8
:10049600074EEEEF02F0070E076456EF02F00AC0B1
:1004A60002F030EF03F0030E076461EF02F0075E1F
:1004B60009380F0B096E074EEEEF02F0D89009329D
:1004C600074EEEEF02F0D8900932074EEEEF02F03B
:1004D600D8900932EEEF02F0030E076480EF02F0C7
:1004E600075E09380F0B096E0438F00B092604382D
:1004F6000F0B046E074EEEEF02F0D890043209326D
:10050600074EEEEF02F0D89004320932074EEEEFB6
:1005160002F0D89004320932EEEF02F0030E0764BF
:10052600A8EF02F0075E09380F0B096E0438F00BCE
:10053600092604380F0B046E0538F00B042605381F
:100546000F0B056E074EEEEF02F0D890053204321F
:100556000932074EEEEF02F0D89005320432093226
:10056600074EEEEF02F0D890053204320932EEEF74
:1005760002F0030E0764D9EF02F0075E09380F0B8D
:10058600096E0438F00B092604380F0B046E053883
:10059600F00B042605380F0B056E0638F00B052602
:1005A60006380F0B066E074EEEEF02F0D8900632B5
:1005B600053204320932074EEEEF02F0D8900632C9
:1005C600053204320932074EEEEF02F0D8900632B9
:1005D600053204320932086A000E0EAEFBEF02F055
:1005E600091E041E051E061E092A042205220622CD
:1005F6000950082604500022055001220650022206
:100606000EBE12EF03F0D8A021EF03F00232013242
:1006160000320832033E21EF03F02BEF03F0D8B08F
:1006260026EF03F0000E081E001E011E021E082AF9
:100636000022012202220A7E26EF03F0010E0C6E32
:100646000EDD32EF03F0020E0C6E09DD32EF03F021
:10065600040E0C6EF8DC32EF03F0000E0C6E120086
:100666000D6A086A0050D8B4000C04180A6E0ABE57
:100676000D1E0B6A04AE02D0041E042A00AE02D080
:10068600001E002A005004100A6E0ABE1FD0045035
:10069600085E003600340836045008260036060E7A
:1006A6000C6E00340836045000B0085E00A0082620
:1006B60000360C2EF6D700A008260BB015D00DAECE
:1006C600000C001E002A081E082A000C04AE09D0E1
:1006D60000BE04D00050086E006AF1D7006A002AF6
:1006E600000C001E0B2AD3D7082A0450085CD8A495
:0E06F600E6D7086A002A00AEE2D7FF0C120019
:100704000134083609360450085E0550D8A0053C6B
:10071400095E003601360F0E0C6E013408360936B8
:10072400045000A006D0085E0550D8A0053C095E20
:1007340005D008260550D8B0053C092600360136F8
:100744000C2EEBD700B006D0045008260550D8B0C4
:08075400053C0926000012001B
:10075C00086A096A000E0762036433EF04F0025062
:10076C0006180A6E075003267E0ED8A0C4EF03F0BD
:10077C00035ED8B038EF04F0C8EF03F0035ED8A0E6
:10078C003DEF04F0028E068E02C00EF001C00BF09D
:10079C0000C00DF000500402F4CF0CF00150050223
:1007AC00F4CF00F0F3CF08F00402F3500C26F45011
:1007BC000822000E00220D500502F3500C26F450B6
:1007CC000822000E002202500402F3500826F450B6
:1007DC00002202500502016A000E0122F35000268D
:1007EC00F45001220D500602F3500826F45000225A
:1007FC00026A000E012202220B500602F350002660
:10080C00F4500122000E02220E500602F350012673
:10081C00F450022202BE1BEF04F0083600360136FB
:10082C0002360306D8B43DEF04F02EEF04F0D88066
:10083C00800E08640030000E002201220222D8A093
:10084C002EEF04F0023201320032034A38EF04F08A
:10085C000AAE029E000E40EF04F0010E1FEC00F0F9
:10086C0040EF04F0020E26EC00F040EF04F0040E12
:06087C0012EC00F0120076
:100882000B800BAE4DEF04F0026A0AAEFF0E026E51
:0C089200016E006E0A360232FF0E1200EA
:08089E000B6A0B86FF0E12002D
:0608A6000000000012003A
:1008AC000F0E0C6E470E0D6E0D2EFED70C2EFCD7B8
:0608BC0000000000120024
:0A08C200210E0D6E0D2EFED7120060
:1008CC00086A080E0C6E003408360450085ED8B066
:0E08DC0002D00826D89000360C2EF5D7120058
:1008EA000B6A0C6A086A0350D8B4F9EF04F002C024
:1008FA000AF0028E9E0E035E03AEE9EF04F0036C6B
:10090A00080E035CD8A0B6EF04F0036E083600C0E8
:10091A0008F001C000F002C001F0026A080E035C90
:10092A00D8A0B6EF04F0036E083600C008F001C084
:10093A0000F0016A080E035CD8A0B6EF04F0036E5B
:10094A00083600C008F0006A080E035CD8A0B6EFAB
:10095A0004F0036E0836086A0350D8A4D890C2EF90
:10096A0004F00350D8B4C2EF04F0D8900232013236
:10097A0000320832032EBAEF04F00BBC08A0D3EF02
:10098A0004F0D8A0D3EF04F0082AD8B4002AD8B4C7
:10099A00012AD8B4022A02BEFDEF04F00AAEF9EF2A
:1009AA0004F0021E011E001E081E082AD8B4002ADE
:1009BA00D8B4012AD8B4022AF9EF04F0026A016A0B
:1009CA00006A086AF9EF04F00B800BAE03EF05F03A
:1009DA00026A0AAE03EF05F0026E016E006E086E3F
:1009EA000A36023203EF05F00C6A000E04EF05F036
:1009FA00010E0C6E000E40DF04EF05F0FF0E0250F0
:100A0A00036E0150026E0050016E0850006E120013
:100A1A000B6A0C6A0A6A086A0350D8B495EF05F0A3
:100A2A00028E9E0E035E03BE20EF05F0D8B420EFBF
:100A3A0005F085EF05F0036C080E035CD8A052EFB1
:100A4A0005F0036E083600C008F001C000F002C0CD
:100A5A0001F0026A080E035CD8A052EF05F0036E9B
:100A6A00083600C008F001C000F0016A080E035CF5
:100A7A00D8A052EF05F0036E083600C008F0006AED
:100A8A00080E035CD8A052EF05F0036E0836086A18
:100A9A000350D8A4D8905EEF05F00350D8B45EEFA7
:100AAA0005F0D8900232013200320832032E56EF96
:100ABA0005F00BBC08A06FEF05F0D8A06FEF05F0AA
:100ACA00082AD8B4002AD8B4012AD8B4022A02BE05
:100ADA0099EF05F00AAE95EF05F0021E011E001E01
:100AEA00081E082AD8B4002AD8B4012AD8B4022A7F
:100AFA0095EF05F0026A016A006A086A95EF05F047
:100B0A000B800BAE9EEF05F0026A0AAE9EEF05F06F
:100B1A00026E016E006E086E0A3602329EEF05F012
:100B2A00000E0C6A9FEF05F0010E0C6EA5DE9FEF1A
:100B3A0005F0FF0E0250036E0150026E0050016E66
:060B4A000850006E1200CD
:100B5000086A096A100E0C6E013408360936045012
:100B6000085E0550D8A0053C095ED8B007D00450F7
:100B700008260550D8B0053C0926D8900036013625
:060B80000C2EEAD7120062
:100B8600800E0001E319006E800E000A005CD8B0EA
:100B960064D1E3510008016E01C0E3F0800E011834
:100BA600006E800E6E0A005CD8A0BAD0640E046E89
:100BB600E3C000F055DD120E0024056E000E00BEE7
:100BC600FF0E066E000E062205C000F006C001F0FC
:100BD600000E06BEFF0E026E036E00360090013652
:100BE6000236033600360090013602360336A50E6D
:100BF6000024F66E550E0120F76E000E0220F86EE8
:100C06000900F5CFE4F00900F5CFE5F00900F5CFCE
:100C1600E6F00900F5CFE7F0640E046EE3C000F0DD
:100C26001FDD08C000F00A0E046E1ADD090E00244E
:100C3600056E000E00BEFF0E066E000E062205C0F3
:100C460000F006C001F0000E06BEFF0E026E036E37
:100C56000036009001360236033600360090013623
:100C660002360336A50E0024F66E550E0120F76EE9
:100C7600000E0220F86E0900F5CF00F00900F5CF4E
:100C860001F00900F5CF02F00900F5CF03F0E4C04A
:100C960004F0E5C005F0E6C006F0E7C007F05BDD4E
:100CA60000C0E4F001C0E5F002C0E6F003C0E7F0E2
:100CB6000A0E046EE3C000F0D3DC08C000F000C0EA
:100CC60001F0000E00BEFF0E026E036E046E0136CA
:100CD6000190023603360436013601900236033699
:100CE6000436A50E0124F66E550E0220F76E000E90
:100CF6000320F86E0900F5CF00F00900F5CF01F0EA
:100D06000900F5CF02F00900F5CF03F0E4C004F0C6
:100D1600E5C005F0E6C006F0E7C007F01CDD04D22A
:100D2600800E0A0A006E800EE319005C6EE20A0E5F
:100D3600046EE3C000F094DC090E0024056E000E7C
:100D460000BEFF0E066E000E062205C000F006C0AD
:100D560001F0000E06BEFF0E026E036E0036009016
:100D66000136023603360036009001360236033667
:100D7600A50E0024F66E550E0120F76E000E022019
:100D8600F86E0900F5CFE4F00900F5CFE5F00900AB
:100D9600F5CFE6F00900F5CFE7F00A0E046EE3C0E2
:100DA60000F05EDC08C000F000C001F0000E00BEDE
:100DB600FF0E026E036E046E013601900236033694
:100DC600043601360190023603360436A50E012498
:100DD600F66E550E0220F76E000E0320F86E09001F
:100DE600F5CF00F00900F5CF01F00900F5CF02F0CC
:100DF6000900F5CF03F0E4C004F0E5C005F0E6C055
:100E060006F0E7C007F0A7DC8FD1E3C000F0000EC4
:100E1600E3BFFF0E016E026E036E003600900136D0
:100E26000236033600360090013602360336A50E2A
:100E36000024F66E550E0120F76E000E0220F86EA5
:100E46000900F5CF00F00900F5CF01F00900F5CF54
:100E560002F00900F5CF03F067D1800EE319006EAA
:100E6600800E6E0A005CD8A0C0D0640E046EE3C08B
:100E760000F033EC03F0120E0024056E000E00BEE7
:100E8600FF0E066E000E062205C000F006C001F039
:100E9600000E06BEFF0E026E036E0036009001368F
:100EA6000236033600360090013602360336D90E76
:100EB6000024F66E550E0120F76E000E0220F86E25
:100EC6000900F5CFE4F00900F5CFE5F00900F5CF0C
:100ED600E6F00900F5CFE7F0640E046EE3C000F01B
:100EE60033EC03F008C000F00A0E046E33EC03F096
:100EF600090E0024056E000E00BEFF0E066E000EE3
:100F0600062205C000F006C001F0000E06BEFF0E68
:100F1600026E036E00360090013602360336003646
:100F26000090013602360336D90E0024F66E550EB1
:100F36000120F76E000E0220F86E0900F5CF00F0D2
:100F46000900F5CF01F00900F5CF02F00900F5CF51
:100F560003F0E4C004F0E5C005F0E6C006F0E7C023
:100F660007F0AEEC03F000C0E4F001C0E5F002C00B
:100F7600E6F003C0E7F00A0E046EE3C000F033ECBF
:100F860003F008C000F000C001F0000E00BEFF0E26
:100F9600026E036E046E0136019002360336043685
:100FA60001360190023603360436D90E0124F66E58
:100FB600550E0220F76E000E0320F86E0900F5CFDD
:100FC60000F00900F5CF01F00900F5CF02F00900A5
:100FD600F5CF03F0E4C004F0E5C005F0E6C006F086
:100FE600E7C007F0AEEC03F09FD0800E0A0A006E51
:100FF600800EE319005C71E20A0E046EE3C000F095
:1010060033EC03F0090E0024056E000E00BEFF0E41
:10101600066E000E062205C000F006C001F0000EA6
:1010260006BEFF0E026E036E0036009001360236D3
:10103600033600360090013602360336D90E0024F8
:10104600F66E550E0120F76E000E0220F86E0900AE
:10105600F5CFE4F00900F5CFE5F00900F5CFE6F0AD
:101066000900F5CFE7F00A0E046EE3C000F033EC9A
:1010760003F008C000F000C001F0000E00BEFF0E35
:10108600026E036E046E0136019002360336043694
:1010960001360190023603360436D90E0124F66E67
:1010A600550E0220F76E000E0320F86E0900F5CFEC
:1010B60000F00900F5CF01F00900F5CF02F00900B4
:1010C600F5CF03F0E4C004F0E5C005F0E6C006F095
:1010D600E7C007F0AEEC03F027D0E3C000F0000E47
:1010E600E3BFFF0E016E026E036E003600900136FE
:1010F6000236033600360090013602360336D90E24
:101106000024F66E550E0120F76E000E0220F86ED2
:101116000900F5CF00F00900F5CF01F00900F5CF81
:0A11260002F00900F5CF03F01200FB
:101130000450000A08E10550000A05E1FF0E006EA8
:101140007F0E016E58D00D6A096A086A01500010BE
:10115000D8B4000C015005180A6E0ABE0D1E0B6AA9
:1011600005AE05D0041E051E042AD8B4052A01AE1A
:1011700005D0001E011E002AD8B4012A0150051016
:101180000A6E0ABE10D082EC03F00BB020D00DAE78
:10119000000C001E011E002AD8B4012A081E091ED8
:1011A000082AD8B4092A000C05AE0DD001BE07D01C
:1011B0000150096E0050086E016A006AE8D7016AA2
:1011C000006A002A000C011E001E0B2ADDD7082A27
:1011D000D8B4092A0450085CD8A4D9D70550095CB2
:1011E000D8A4D5D7096A086A002AD8B4012A01AE62
:0811F000CED70000FF0C120035
:1011F8000450000A12E10550000A0FE10650000AE7
:101208000CE10750000A09E1FF0E006EFF0E016EA7
:101218007F0E026EFF0E036EA8D0086A096A075097
:10122800D8B4A7EF09F00350D8B4ACEF09F00250D6
:1012380006180A6E028E068E0E6A02C008F001C0F9
:101248000CF000C00DF004500D5E0550D8A0053C10
:101258000C5E0650D8A0063C085E086A0C6A0D6A47
:10126800D8A03EEF09F0D89002320132003208329D
:10127800010E0E6E0750035ED8A04BEF09F07E0EEC
:101288000E240326D8B0B1EF09F051EF09F07E0E15
:101298000E240326D8A0B6EF09F0180E0B6E0D36F3
:1012A8000C3608360036013602360E360450005E1B
:1012B8000550D8A0053C015E0650D8A0063C025E49
:1012C80006340E120EA06CEF09F00D8077EF09F0CE
:1012D800045000260550D8B0053C01260650D8B069
:1012E800062802260D900B2E53EF09F09DEF09F00A
:1012F800D8900036013602360E360450005E05508E
:10130800D8A0053C015E0650D8A0063C025E063413
:101318000E10010B0D26D8B00C2AD8B4082AD8A470
:101328009DEF09F008320C320D32032AD8B4B1EF20
:1013380009F00AAE089E0850026E0C50016E0D505E
:10134800006EB9EF09F0010E4FEC04F0B9EF09F0A7
:10135800020E1FEC00F0B9EF09F0040E26EC00F0C5
:0C136800B9EF09F0080E12EC00F01200C2
:08137400067E23EC01F01200DB
:10137C000050086E0150006E0250016E0350026E58
:10138C00036A0B6A0C6A9E0E036E0A6A020E0C6EDE
:06139C0032EC00F012002B
:1013A2000B6A0A6A096A086A0E6A0334083604502C
:1013B200085E0550D8A0053C095E0650D8A0063C40
:1013C2000A5E0750D8A0073C0B5EE86AD8A0010E5F
:1013D2000E5E0336070E0C6E0334083609360A36E3
:1013E2000B360E36045003A012D0085E0550D8A06A
:1013F200053C095E0650D8A0063C0A5E0750D8A0FC
:10140200073C0B5EE86AD8A0010E0E5E11D00826DA
:101412000550D8B0053C09260650D8B0063C0A262D
:101422000750D8B0073C0B26E86AD8B0010E0E264A
:1014320003360C2ED1D70234083609360A360B365B
:101442000E36045003A012D0085E0550D8A0053C09
:10145200095E0650D8A0063C0A5E0750D8A0073C99
:101462000B5EE86AD8A0010E0E5E11D00826055068
:10147200D8B0053C09260650D8B0063C0A260750CB
:10148200D8B0073C0B26E86AD8B0010E0E26023609
:10149200070E0C6E0234083609360A360B360E3643
:1014A200045002A012D0085E0550D8A0053C095E87
:1014B2000650D8A0063C0A5E0750D8A0073C0B5E37
:1014C200E86AD8A0010E0E5E11D008260550D8B0E9
:1014D200053C09260650D8B0063C0A260750D8B06B
:1014E200073C0B26E86AD8B0010E0E2602360C2EF7
:1014F200D1D70134083609360A360B360E36045077
:1015020002A012D0085E0550D8A0053C095E065024
:10151200D8A0063C0A5E0750D8A0073C0B5EE86ADA
:10152200D8A0010E0E5E11D008260550D8B0053C99
:1015320009260650D8B0063C0A260750D8B0073C08
:101542000B26E86AD8B0010E0E260136070E0C6E85
:101552000134083609360A360B360E36045001A01D
:1015620012D0085E0550D8A0053C095E0650D8A0EE
:10157200063C0A5E0750D8A0073C0B5EE86AD8A07A
:10158200010E0E5E11D008260550D8B0053C092682
:101592000650D8B0063C0A260750D8B0073C0B26A6
:1015A200E86AD8B0010E0E2601360C2ED1D70034CF
:1015B200083609360A360B360E36045001A012D010
:1015C200085E0550D8A0053C095E0650D8A0063C2E
:1015D2000A5E0750D8A0073C0B5EE86AD8A0010E4D
:1015E2000E5E11D008260550D8B0053C09260650DB
:1015F200D8B0063C0A260750D8B0073C0B26E86A4A
:10160200D8B0010E0E260036070E0C6E00340836D6
:1016120009360A360B360E36045000A012D0085E88
:101622000550D8A0053C095E0650D8A0063C0A5ECB
:101632000750D8A0073C0B5EE86AD8A0010E0E5EE8
:1016420011D008260550D8B0053C09260650D8B05E
:10165200063C0A260750D8B0073C0B26E86AD8B0E9
:10166200010E0E2600360C2ED1D700B00ED004503B
:1016720008260550D8B0053C09260650D8B0063CCD
:0C1682000A260750D8B0073C0B261200C7
:10168E006E0E0001E35DD8A0CAD0640E046EE3C0F6
:10169E0000F066EC04F0120E0024056E066A000ED1
:1016AE00062205C000F006C001F0000E06BEFF0EB9
:1016BE00026E036E00360090013602360336003697
:1016CE000090013602360336A50E0024F66E550E36
:1016DE000120F76E000E0220F86E0900F5CF00F023
:1016EE000900F5CF01F00900F5CF02F00900F5CFA2
:1016FE0003F0000E046E000E056E000E066E7E0EDA
:10170E00076EAEEC03F000C0E4F001C0E5F002C0DD
:10171E00E6F003C0E7F0640E046EE3C000F066EC82
:10172E0004F008C000F00A0E046E66EC04F0090E18
:10173E000024056E066A000E062205C000F006C0E3
:10174E0001F0000E06BEFF0E026E036E0036009014
:10175E000136023603360036009001360236033665
:10176E00A50E0024F66E550E0120F76E000E022017
:10177E00F86E0900F5CF00F00900F5CF01F0090071
:10178E00F5CF02F00900F5CF03F0E4C004F0E5C098
:10179E0005F0E6C006F0E7C007F0AEEC03F000C0BF
:1017AE00E4F001C0E5F002C0E6F003C0E7F00A0E77
:1017BE00046EE3C000F066EC04F008C000F000C058
:1017CE0001F0000E026E036E046E013601900236B9
:1017DE000336043601360190023603360436A50E62
:1017EE000124F66E550E0220F76E000E0320F86EE1
:1017FE000900F5CF00F00900F5CF01F00900F5CF93
:10180E0002F00900F5CF03F0E4C004F0E5C005F0E6
:10181E00E6C006F0E7C007F0AEEC03F0B1D0E3513E
:10182E000A08D8B07ED00A0E046EE3C000F066EC53
:10183E0004F0090E0024056E066A000E062205C08D
:10184E0000F006C001F0000E06BEFF0E026E036E23
:10185E00003600900136023603360036009001360F
:10186E0002360336A50E0024F66E550E0120F76ED5
:10187E00000E0220F86E0900F5CF00F00900F5CF3A
:10188E0001F00900F5CF02F00900F5CF03F0000ECC
:10189E00046E000E056E000E066E7E0E076EAEEC2A
:1018AE0003F000C0E4F001C0E5F002C0E6F003C0B2
:1018BE00E7F00A0E046EE3C000F066EC04F008C018
:1018CE0000F000C001F0000E026E036E046E0136D1
:1018DE000190023603360436013601900236033685
:1018EE000436A50E0124F66E550E0220F76E000E7C
:1018FE000320F86E0900F5CF00F00900F5CF01F0D6
:10190E000900F5CF02F00900F5CF03F0E4C004F0B2
:10191E00E5C005F0E6C006F0E7C007F0AEEC03F058
:10192E002FD0E3C000F0000E016E026E036E003683
:10193E00009001360236033600360090013602362C
:10194E000336A50E0024F66E550E0120F76E000E1E
:10195E000220F86E0900F5CF00F00900F5CF01F076
:10196E000900F5CF02F00900F5CF03F0000E046E6A
:10197E00000E056E000E066E7E0E076EAEEC03F0C8
:02198E00120045
:101990000001E3BF02D08A9401D08A84E3BD02D063
:1019A0008A9601D08A86E3BB02D08A9801D08A88C1
:1019B000E3B902D08A9A01D08A8A5FB002D08A8EB7
:1019C00001D08A9E8A8C53EC04F08A9CE3B702D043
:1019D0008A9401D08A84E3B502D08A9601D08A869F
:1019E000E3B302D08A9801D08A88E3B102D08A9A00
:1019F00001D08A8A5FB002D08A8E01D08A9E8A8CFA
:101A000053EC04F08A9C5FA003D056EC04F002D0A3
:061A100061EC04F012007D
:101A160028D000016187010EE327000EE423E523A9
:101A26005DD000016181010EE327000EE423E5236A
:101A360055D000016183010EE327000EE423E52360
:101A46004DD000016287010EE327000EE423E52353
:101A560045D000016185010EE327000EE423E5234E
:101A66003DD0E3C0F6FFE4C0F7FFE5C0F8FF09008C
:101A7600F5CF01F001502D0ACCE0E3C0F6FFE4C03B
:101A8600F7FFE5C0F8FF0900F5CF01F00150200A85
:101A9600C8E0E3C0F6FFE4C0F7FFE5C0F8FF0900C1
:101AA600F5CF01F001502B0AC4E0E3C0F6FFE4C015
:101AB600F7FFE5C0F8FF0900F5CF01F00150230A52
:101AC600C0E0E3C0F6FFE4C0F7FFE5C0F8FF090099
:101AD600F5CF01F00150300ABCE001D099D70001E2
:101AE60061A301D0619161A701D06195E3C000F0C7
:0A1AF600E4C001F0E5C002F01200A8
:101B00000B6A0A6A096A00500402F4CF09F0F3CFA5
:101B100008F001500502F4CF0BF0F3CF0AF00050AB
:101B20000502F3500926F4500A22E86A0B220150FC
:101B30000402F3500926F4500A22E86A0B2208C076
:101B400000F009C001F00AC002F00BC003F012005F
:101B50000001E351390806E3300EE35D03E3010EB3
:081B6000006E01D0006A1200C2
:101B680003500718D8A4C8EF0DF002500618D8A4DF
:101B7800C8EF0DF001500518D8A4C8EF0DF00050BB
:0E1B88000418D8B4D8841200D89412001200A9
:101B96000A6A0350D8A40A800750D8A40A820A50B9
:101BA600D8B42EEF0EF0030AD8B4E7EF0DF00AB062
:101BB600E2EF0DF006AE2CEF0EF02AEF0EF002AEBD
:101BC6002AEF0EF02CEF0EF00250800B0A6E029EEA
:101BD6000650800B069E0A18D8B4F8EF0DF00A508E
:101BE600D8B42AEF0EF02CEF0EF00750035CD8B4F1
:101BF60002EF0EF0D8A01EEF0EF024EF0EF0065006
:101C0600025CD8B40CEF0EF0D8A01EEF0EF024EF55
:101C16000EF00550015CD8B416EF0EF0D8A01EEFFA
:101C26000EF024EF0EF00450005CD8B42EEF0EF048
:101C3600D8B024EF0EF00A52D8B42CEF0EF02AEFEB
:101C46000EF00A52D8B42AEF0EF02CEF0EF0D88020
:0E1C56001200D8901200D880D884120012001C
:101C6400000161A55DD061A312D061A103D02D0E46
:101C7400036E02D02B0E036EE3C0E1FFE4C0E2FF6B
:101C840003C0E6FFE34BE42B634B642B34D061A128
:101C94000BD0E3C0E1FFE4C0E2FF200EE66EE34BAD
:101CA400E42B634B642B27D0C00E6115016E625187
:101CB400080B026E0250080A02E1800E01181BE1B3
:101CC400E3C0E1FFE4C0E2FF300EE66EE34BE42B39
:101CD400634B642B61AB03D0580E046E02D0780EB4
:101CE400046EE3C0E1FFE4C0E2FF04C0E6FFE34B9F
:101CF400E42B634B642B5B505C1011E0E3C0E1FF09
:101D0400E4C0E2FF300EE66EE34BE42B634B642B3E
:101D1400010E5B5E000E5C5A5B505C10EFE174D008
:101D24005B505C1013E061B711D0E3C0E1FFE4C085
:101D3400E2FF200EE66EE34BE42B634B642B010EB3
:101D44005B5E000E5C5A5B505C10EFE161A312D045
:101D540061A103D02D0E056E02D02B0E056EE3C0DB
:101D6400E1FFE4C0E2FF05C0E6FFE34BE42B634B75
:101D7400642B0CD061A10AD0E3C0E1FFE4C0E2FF10
:101D8400200EE66EE34BE42B634B642BC00E61150F
:101D9400016E6251080B026E0250080A02E1400E05
:101DA40001180BE1E3C0E1FFE4C0E2FF300EE66E90
:101DB400E34BE42B634B642B27D0C00E6115016EFB
:101DC4006251080B026E0250080A02E1800E0118EB
:101DD4001BE1E3C0E1FFE4C0E2FF300EE66EE34B3B
:101DE400E42B634B642B61AB03D0580E066E02D018
:101DF400780E066EE3C0E1FFE4C0E2FF06C0E6FF32
:101E0400E34BE42B634B642B800E006E800E5E1854
:101E1400005C02E15D505A5C0BE2E3C0E1FFE4C008
:101E2400E2FF300EE66EE34BE42B634B642BECD7FE
:0A1E3400E3C000F0E4C001F012006A
:101E3E000450085E0550D8A0053C095E0650D8A097
:101E4E00063C0A5E0750D8A0073C0B5E0336070E11
:101E5E000C6E0334083609360A360B36045003A0CE
:101E6E000ED0085E0550D8A0053C095E0650D8A0DD
:101E7E00063C0A5E0750D8A0073C0B5E0DD0082624
:101E8E000550D8B0053C09260650D8B0063C0A26A7
:101E9E000750D8B0073C0B2603360C2EDAD7023487
:101EAE00083609360A360B36045003A00ED0085EEB
:101EBE000550D8A0053C095E0650D8A0063C0A5E27
:101ECE000750D8A0073C0B5E0DD008260550D8B0A1
:101EDE00053C09260650D8B0063C0A260750D8B055
:101EEE00073C0B260236070E0C6E023408360936F6
:101EFE000A360B36045002A00ED0085E0550D8A04C
:101F0E00053C095E0650D8A0063C0A5E0750D8A0D4
:101F1E00073C0B5E0DD008260550D8B0053C0926AF
:101F2E000650D8B0063C0A260750D8B0073C0B2600
:101F3E0002360C2EDAD70134083609360A360B363D
:101F4E00045002A00ED0085E0550D8A0053C095ED4
:101F5E000650D8A0063C0A5E0750D8A0073C0B5E80
:101F6E000DD008260550D8B0053C09260650D8B02D
:101F7E00063C0A260750D8B0073C0B260136070E42
:101F8E000C6E0134083609360A360B36045001A0A1
:101F9E000ED0085E0550D8A0053C095E0650D8A0AC
:101FAE00063C0A5E0750D8A0073C0B5E0DD00826F3
:101FBE000550D8B0053C09260650D8B0063C0A2676
:101FCE000750D8B0073C0B2601360C2EDAD700345A
:101FDE00083609360A360B36045001A00ED0085EBC
:101FEE000550D8A0053C095E0650D8A0063C0A5EF6
:101FFE000750D8A0073C0B5E0DD008260550D8B070
:10200E00053C09260650D8B0063C0A260750D8B023
:10201E00073C0B260036070E0C6E003408360936C8
:10202E000A360B36045000A00ED0085E0550D8A01C
:10203E00053C095E0650D8A0063C0A5E0750D8A0A3
:10204E00073C0B5E0DD008260550D8B0053C09267E
:10205E000650D8B0063C0A260750D8B0073C0B26CF
:10206E0000360C2EDAD700B00ED0045008260550DC
:10207E00D8B0053C09260650D8B0063C0A260750B3
:08208E00D8B0073C0B2612003C
:102096000B1E0A1E091E081E082AD8B4092AD8B41F
:0820A6000A2AD8B40B2A12002B
:0C20AE000E0E0D6E0D2EFED7000012006D
:1020BA000001636B646B616B626BBDC000F0BEC0F4
:1020CA0001F0BFC002F0010EBD27000EBE23BF23E0
:1020DA0000C0F6FF01C0F7FF02C0F8FF0900F5CF04
:1020EA0000F000C05AF00052D8B44CEF15F05A5024
:1020FA00250A0BE0BBC0E1FFBCC0E2FF5AC0E6FF05
:10210A00BB4BBC2B634B642BD8D75B6A5C6A616B95
:10211A00626BBDC0E3F0BEC0E4F0BFC0E5F076DCA0
:10212A0000C0BDF001C0BEF002C0BFF000C0F6FFA3
:10213A0001C0F7FF02C0F8FF0900F5CF00F0000E5A
:10214A00016E00C0E3F0FFDC005234E05B6A5C6AB7
:10215A005BC000F05CC001F00A0E046E000E056E52
:10216A00CADCBDC0F6FFBEC0F7FFBFC0F8FF09005A
:10217A00F5CF02F0025000245B6E000E01205C6E67
:10218A00300E5B5E000E5C5A010EBD27000EBE23A8
:10219A00BF23BDC0F6FFBEC0F7FFBFC0F8FF0900EE
:1021AA00F5CF00F0000E016E00C0E3F0CCDC005267
:1021BA00CFE133D0BDC0F6FFBEC0F7FFBFC0F8FF06
:1021CA000900F5CF01F001502A0A27E1C0C0E9FF52
:1021DA00C1C0EAFFEECF00F0EECF01F000C0E9FF88
:1021EA0001C0EAFFEECF5BF0EECF5CF0C0C0E9FFC2
:1021FA00C1C0EAFF020EEE24006E000EEE20016E50
:10220A00C0C0E1FFC1C0E2FF00C0E6FF01C0E6FFB7
:10221A00010EBD27000EBE23BF23BDC0F6FFBEC000
:10222A00F7FFBFC0F8FF0900F5CF01F001502E0AF1
:10223A006EE1010EBD27000EBE23BF23BDC0F6FF0F
:10224A00BEC0F7FFBFC0F8FF0900F5CF01F001508B
:10225A002A0A28E1C0C0E9FFC1C0EAFFEECF00F0B8
:10226A00EECF01F000C0E9FF01C0EAFFEECF5DF05A
:10227A00EECF5EF0C0C0E9FFC1C0EAFF020EEE2455
:10228A00006E000EEE20016EC0C0E1FFC1C0E2FF89
:10229A0000C0E6FF01C0E6FF010EBD27000EBE2307
:1022AA00BF2334D05D6A5E6ABDC0F6FFBEC0F7FFC9
:1022BA00BFC0F8FF0900F5CF00F0000E016E00C0A4
:1022CA00E3F041DC005222E05DC000F05EC001F0A4
:1022DA000A0E046E000E056E0EDCBDC0F6FFBEC00F
:1022EA00F7FFBFC0F8FF0900F5CF02F00250002443
:1022FA005D6E000E01205E6E300E5D5E000E5E5A4F
:10230A00010EBD27000EBE23BF23CED702D05D6AC1
:10231A005E6ABDC000F0BEC001F0BFC002F0010E8F
:10232A00BD27000EBE23BF2300C0F6FF01C0F7FF82
:10233A0002C0F8FF0900F5CF5AF0EFD063C000F0F1
:10234A0064C001F0A8D3618D17D116D1618B618F5A
:10235A0013D1C0C0E9FFC1C0EAFFEECF00F0EECF53
:10236A0001F000C0E9FF01C0EAFFEECFC2F0EECFF4
:10237A00C3F0C0C0E9FFC1C0EAFF020EEE24006E3E
:10238A00000EEE20016EC0C0E1FFC1C0E2FF00C036
:10239A00E6FF01C0E6FF000EC31902E1000EC219F2
:1023AA0004E1440EC26F000EC36FC46BC56BC45107
:1023BA00C225E96EC551C321EA6EEE520BE0010E49
:1023CA00C425006E000EC521016E00C0C4F001C014
:1023DA00C5F0EDD75D505E100AE0C5515E5C02E1C2
:1023EA00C4515D5C04E25DC0C4F05EC0C5F05C50DF
:1023FA00C55D02E15B50C45D05E2C4515B5EC55137
:10240A005C5A02D05B6A5C6A61B716D05BC000F0A6
:10241A005CC001F0010E5B5E000E5C5A00500110B8
:10242A000BE0BBC0E1FFBCC0E2FF200EE66EBB4B77
:10243A00BC2B634B642BEAD7C4C002F0C5C003F0BF
:10244A00010EC45D006E000EC559016E00C0C4F0D5
:10245A0001C0C5F00250031019E0C2C0E9FFC3C0B1
:10246A00EAFFBBC0E1FFBCC0E2FFEECFE6FFBB4B19
:10247A00BC2B010EC225006E000EC321016E00C0E6
:10248A00C2F001C0C3F0634B642BD6D761A716D044
:10249A005BC000F05CC001F0010E5B5E000E5C5A8E
:1024AA00005001100BE0BBC0E1FFBCC0E2FF200EF0
:1024BA00E66EBB4BBC2B634B642BEAD7FED5C0C080
:1024CA00E9FFC1C0EAFFEECF00F0EECF01F000C095
:1024DA00E9FF01C0EAFFEECF5AF0C0C0E9FFC1C070
:1024EA00EAFF020EEE24006E000EEE20016EC0C05E
:1024FA00E1FFC1C0E2FF00C0E6FF01C0E6FF5A0EDD
:10250A00C26F000EC36F010EC46F000EC56F62D793
:10251A00C00E6113000E62132FD05A50000AD8B4AD
:10252A000DD75A506C0AD8B40ED75A504C0AD8B4A0
:10253A000AD75A506F0AD8B406D75A50640AD8B480
:10254A0004D75A50690AD8B400D75A50700AD8B476
:10255A00FDD65A50580AD8B4F9D65A50780AD8B47F
:10256A00F6D65A50730AD8B4F4D65A50630AA7E07A
:10257A005A50750ACDE0C3D7C00E6115016E62C00C
:10258A0002F0000E0216000E021802E1000E0118F7
:10259A003BE1C0C0E9FFC1C0EAFFEECF00F0EECFD9
:1025AA0001F000C0E9FF01C0EAFFEECFC2F0EECFB2
:1025BA00C3F0C0C0E9FFC1C0EAFF020EEE24006EFC
:1025CA00000EEE20016EC0C0E1FFC1C0E2FF00C0F4
:1025DA00E6FF01C0E6FF800EC319006E800E005CA4
:1025EA0002E1000EC25D0FE2030E6113000E6213D8
:1025FA00C2510008006EC3C001F0000E015600C0AF
:10260A00C2F001C0C3F022D0C0C0E9FFC1C0EAFFD6
:10261A00EECF00F0EECF01F000C0E9FF01C0EAFF03
:10262A00EECFC2F0EECFC3F0C0C0E9FFC1C0EAFFEF
:10263A00020EEE24006E000EEE20016EC0C0E1FF15
:10264A00C1C0E2FF00C0E6FF01C0E6FF000E5E184F
:10265A0002E1000E5D1808E1000EC31902E1000E46
:10266A00C21902E15D4A5E2AC00E6115006E00C001
:10267A0005F07BD0010E5A6E5A50050A23E05AC063
:10268A0000F0000E016E026E036E003600900136F5
:10269A0002360336170E0024F66E570E0120F76E27
:1026AA00000E0220F86E0900F5CF01F00900F5CFFF
:1026BA0002F00250C35D02E10150C25D01E202D0A4
:1026CA005A2ADAD75FD0010E5A6E5A50040A23E00A
:1026DA005AC000F0000E016E026E036E00360090C2
:1026EA000136023603362A0E0024F66E570E0120F2
:1026FA00F76E000E0220F86E0900F5CF01F009000E
:10270A00F5CF02F00250C35D02E10150C25D01E261
:10271A0002D05A2ADAD736D0010E5A6E5A50060A11
:10272A0023E05AC000F0000E016E026E036E0036FE
:10273A000090013602360336E70E0024F66E560E76
:10274A000120F76E000E0220F86E0900F5CF01F0A5
:10275A000900F5CF02F00250C35D02E10150C25DEB
:10276A0001E202D05A2ADAD70DD00550000A82E0D7
:10277A000550C00AD8B47ED70550800AA4E0055097
:10278A00400ACAE0800E006E800E5E18005C02E10C
:10279A005D505A5C03E25DC05AF00DD0800E5E189F
:1027AA00006E800E005C02E15A505D5C04E25AC081
:1027BA005DF0000E5E6E5B505C100EE0030E61155C
:1027CA00006E62C001F0000E01160050011004E014
:1027DA00010E5B5E000E5C5A800E5E18006E800E63
:1027EA005C18005C02E15B505D5C05E25D505B5E7B
:1027FA005E505C5A02D05B6A5C6AC40E6115016E57
:10280A006251080B026E0250080A02E1400E0118DA
:10281A0008E15B505C1004E0010E5B5E000E5C5A3E
:10282A001CD0C00E6115016E6251080B026E025077
:10283A00080A02E1800E011810E1800E006E800E77
:10284A005C18005C02E15B50020805E2020E5B5E66
:10285A00000E5C5A02D05B6A5C6ABBC0E3F0BCC083
:10286A00E4F032EC0EF000C0BBF001C0BCF05DC079
:10287A0000F05EC001F0010E5D5E000E5E5A00506F
:10288A000110D8B4E6D0C00E6115006E00C0C6F0C3
:10289A00C6D05DC000F05EC001F0000E5EBEFF0E45
:1028AA00026E036E00360090013602360336170EAA
:1028BA000024F66E570E0120F76E000E0220F86E05
:1028CA000900F5CF04F00900F5CF05F0C2C000F009
:1028DA00C3C001F0A8EC05F00A0E046E000E056EE6
:1028EA00A8EC05F008C000F009C001F0300E002481
:1028FA005A6EA4D061AB35D05DC000F05EC001F065
:10290A00000E5EBEFF0E026E036E003600900136A8
:10291A00023603362A0E0024F66E570E0120F76E91
:10292A00000E0220F86E0900F5CF04F00900F5CF79
:10293A0005F0C2C000F0C3C001F0A8EC05F00F0E0C
:10294A000016000E0116960E0024F66E560E012091
:10295A00F76E000EF86E000EF8220900F5CF5AF055
:10296A0034D05DC000F05EC001F0000E5EBEFF0E06
:10297A00026E036E003600900136023603362A0EC6
:10298A000024F66E570E0120F76E000E0220F86E34
:10299A000900F5CF04F00900F5CF05F0C2C000F038
:1029AA00C3C001F0A8EC05F00F0E0016000E0116C8
:1029BA00850E0024F66E560E0120F76E000EF86E94
:1029CA00000EF8220900F5CF5AF038D05DC000F0A9
:1029DA005EC001F0000E5EBEFF0E026E036E003690
:1029EA000090013602360336E70E0024F66E560EC4
:1029FA000120F76E000E0220F86E0900F5CF04F0F0
:102A0A000900F5CF05F0C2C000F0C3C001F0A8EC80
:102A1A0005F0070E00145A6E300E5A260FD0C65112
:102A2A00000AD8B436D7C651C00AD8B432D7C6516C
:102A3A00800AD8B45FD7C651400AC8E0BBC0E1FFDC
:102A4A00BCC0E2FF5AC0E6FFBB4BBC2B634B642BF6
:102A5A000ED761A71AD0800E006E800E5C18005C3B
:102A6A0002E15B50000811E2BBC0E1FFBCC0E2FF1B
:102A7A00200EE66EBB4BBC2B634B642B010E5B5ED8
:102A8A00000E5C5A5B505C10EFE162EF10F063C01D
:082A9A0000F064C001F012001D
:102AA200939C939E939A9398939693948A9C8A9ECE
:102AB2008A948A968A988A9A56EC04F056EC04F024
:102AC20056EC04F08A888A8A8A8C53EC04F08A9C39
:102AD20056EC04F08A8C53EC04F08A9C56EC04F019
:102AE2008A8C53EC04F08A9C56EC04F08A9A8A8C05
:102AF20053EC04F08A9C56EC04F08A8C53EC04F0FC
:102B02008A9C8A988A848A8C53EC04F08A9C56ECBC
:102B120004F08A948A8A8A8C53EC04F08A9C8A9AFA
:102B22008A8C53EC04F08A9C56EC04F08A8C53ECA9
:102B320004F08A9C8A8A8A8C53EC04F08A9C56ECB4
:102B420004F08A9A8A8C53EC04F08A9C8A848A86DE
:102B52008A888A8A8A8C53EC04F08A9C56EC04F0A8
:042B62005F8012007E
:0E2B66005F90BBC0E3F0C8EC0CF05F80120083
:102B74000001DB6BDC6BCF6BD06BBDC000F0BEC063
:102B840001F0BFC002F0010EBD27000EBE23BF231B
:102B940000C0F6FF01C0F7FF02C0F8FF0900F5CF3F
:102BA40000F000C0CCF00052D8B4C8EF25F0CC51EE
:102BB400250A0BE0BBC0E1FFBCC0E2FFCCC0E6FFCE
:102BC400BB4BBC2BDB4BDC2BD8D7CD6BCE6BCF6B8D
:102BD400D06B23D0CF87010EBD27000EBE23BF23A9
:102BE40059D0CF81010EBD27000EBE23BF2352D082
:102BF400CF83010EBD27000EBE23BF234BD0D08749
:102C0400010EBD27000EBE23BF2344D0CF85010E85
:102C1400BD27000EBE23BF233DD0BDC0F6FFBEC0FE
:102C2400F7FFBFC0F8FF0900F5CF01F001502D0AEE
:102C3400D1E0BDC0F6FFBEC0F7FFBFC0F8FF09007A
:102C4400F5CF01F00150200ACCE0BDC0F6FFBEC0B4
:102C5400F7FFBFC0F8FF0900F5CF01F001502B0AC0
:102C6400C7E0BDC0F6FFBEC0F7FFBFC0F8FF090054
:102C7400F5CF01F00150230AC2E0BDC0F6FFBEC08B
:102C8400F7FFBFC0F8FF0900F5CF01F00150300A8B
:102C9400BDE001D09ED7CFA301D0CF91CFA701D063
:102CA400CF95BDC0F6FFBEC0F7FFBFC0F8FF090057
:102CB400F5CF00F0000E016E00C0E3F0A8EC0DF0BB
:102CC400005236E0CD6BCE6BCDC000F0CEC001F02B
:102CD4000A0E046E000E056E80EC0DF0BDC0F6FF0A
:102CE400BEC0F7FFBFC0F8FF0900F5CF02F00250E5
:102CF4000024CD6F000E0120CE6F300ECD5F000E8C
:102D0400CE5B010EBD27000EBE23BF23BDC0F6FF60
:102D1400BEC0F7FFBFC0F8FF0900F5CF00F0000EFA
:102D2400016E00C0E3F0A8EC0DF00052CDE133D009
:102D3400BDC0F6FFBEC0F7FFBFC0F8FF0900F5CF66
:102D440001F001502A0A27E1C0C0E9FFC1C0EAFF2F
:102D5400EECF00F0EECF01F000C0E9FF01C0EAFFC2
:102D6400EECFCDF0EECFCEF0C0C0E9FFC1C0EAFF98
:102D7400020EEE24006E000EEE20016EC0C0E1FFD4
:102D8400C1C0E2FF00C0E6FF01C0E6FF010EBD279F
:102D9400000EBE23BF23BDC0F6FFBEC0F7FFBFC0F9
:102DA400F8FF0900F5CF01F001502E0A70E1010E81
:102DB400BD27000EBE23BF23BDC0F6FFBEC0F7FF74
:102DC400BFC0F8FF0900F5CF01F001502A0A28E13D
:102DD400C0C0E9FFC1C0EAFFEECF00F0EECF01F0C2
:102DE40000C0E9FF01C0EAFFEECFCAF0EECFCBF09E
:102DF400C0C0E9FFC1C0EAFF020EEE24006E000E5F
:102E0400EE20016EC0C0E1FFC1C0E2FF00C0E6FFDA
:102E140001C0E6FF010EBD27000EBE23BF2336D03E
:102E2400CA6BCB6BBDC0F6FFBEC0F7FFBFC0F8FFD7
:102E34000900F5CF00F0000E016E00C0E3F0A8EC2D
:102E44000DF0005223E0CAC000F0CBC001F00A0E1E
:102E5400046E000E056E80EC0DF0BDC0F6FFBEC022
:102E6400F7FFBFC0F8FF0900F5CF02F002500024BD
:102E7400CA6F000E0120CB6F300ECA5F000ECB5B11
:102E8400010EBD27000EBE23BF23CCD703D0CA6BCF
:102E9400CB6BD089BDC000F0BEC001F0BFC002F052
:102EA400010EBD27000EBE23BF2300C0F6FF01C0E4
:102EB400F7FF02C0F8FF0900F5CFCCF0F9D0DBC072
:102EC40000F0DCC001F0CCEF25F0CF89E3D7D0854A
:102ED4002ED1CF8BD0812BD1D08329D1CF8D27D1A7
:102EE40026D1CF8BCF8F23D1C0C0E9FFC1C0EAFF69
:102EF400EECF00F0EECF01F000C0E9FF01C0EAFF21
:102F0400EECFD7F0EECFD8F0C0C0E9FFC1C0EAFFE2
:102F1400020EEE24006E000EEE20016EC0C0E1FF32
:102F2400C1C0E2FF00C0E6FF01C0E6FF000ED819F1
:102F340002E1000ED71904E1150ED76F000ED86F09
:102F4400D96BDA6BD951D725E96EDA51D821EA6EFB
:102F5400EE520BE0010ED925006E000EDA21016E4F
:102F640000C0D9F001C0DAF0EDD7CA51CB110AE0A4
:102F7400DA51CB5D02E1D951CA5D04E2CAC0D9F08D
:102F8400CBC0DAF0CE51DA5D02E1CD51D95D05E274
:102F9400D951CD5FDA51CE5B02D0CD6BCE6BCFB7BA
:102FA40016D0CDC000F0CEC001F0010ECD5F000EF2
:102FB400CE5B005001100BE0BBC0E1FFBCC0E2FFE0
:102FC400200EE66EBB4BBC2BDB4BDC2BEAD7D9C007
:102FD40002F0DAC003F0010ED95D006E000EDA597A
:102FE400016E00C0D9F001C0DAF00250031019E0FC
:102FF400D7C0E9FFD8C0EAFFBBC0E1FFBCC0E2FF15
:10300400EECFE6FFBB4BBC2B010ED725006E000EA6
:10301400D821016E00C0D7F001C0D8F0DB4BDC2B07
:10302400D6D7CFA716D0CDC000F0CEC001F0010E88
:10303400CD5F000ECE5B005001100BE0BBC0E1FF82
:10304400BCC0E2FF200EE66EBB4BBC2BDB4BDC2B83
:10305400EAD793D5C0C0E9FFC1C0EAFFEECF00F0C4
:10306400EECF01F000C0E9FF01C0EAFFEECFCCF0E3
:10307400C0C0E9FFC1C0EAFF020EEE24006E000EDC
:10308400EE20016EC0C0E1FFC1C0E2FF00C0E6FF58
:1030940001C0E6FFCC0ED76F000ED86F010ED96FBA
:1030A400000EDA6F62D7C00ECF13000ED0133FD0DC
:1030B400CC51000AD8B403D7CC516C0AD8B405D784
:1030C400CC514C0AD8B401D7CC51660AD8B4FFD637
:1030D400CC51450AD8B4FDD6CC51650AD8B4FAD639
:1030E400CC51670AD8B4F8D6CC516F0AD8B4F6D606
:1030F400CC51640AD8B4F4D6CC51690AD8B4F0D609
:10310400CC51700AD8B4EDD6CC51580AD8B4E9D60B
:10311400CC51780AD8B4E6D6CC51730AD8B4E4D6E4
:10312400CC51630A97E0CC51750ABDE0B3D7000EC9
:10313400CF15006ED051070B016E00500110D8B4AA
:103144006FEF21F0D0A904D0060ECA6F000ECB6F2A
:10315400C0C0E9FFC1C0EAFFEECF00F0EECF01F03E
:1031640000C0E9FF01C0EAFFEECFD1F0EECFD2F00C
:10317400EECFD3F0EECFD4F0C0C0E9FFC1C0EAFF78
:10318400040EEE24006E000EEE20016EC0C0E1FFBE
:10319400C1C0E2FF00C0E6FF01C0E6FF046A056AA1
:1031A400066A076AD1C000F0D2C001F0D3C002F0B1
:1031B400D4C003F0CBEC0DF0010ED8B0000E006EBD
:1031C400005205E0D37F030ECF13000ED013D56B4E
:1031D400D66BD1C000F0D2C001F0D3C002F0D4C08D
:1031E40003F0046A056A066A076AB4EC0DF0000E7F
:1031F400D8A4010E006E0052D8B48AD0D4C000F016
:10320400016A026A036AFF0E0016000E01167E0EA2
:10321400005E000E015A00C0D5F001C0D6F0010EC8
:10322400005E000E015A00C0D5F001C0D6F0030EB6
:10323400046E000E056E80EC0DF000C0D5F001C0E8
:10324400D6F00A0E046E000E056E98EC08F000C06D
:10325400D5F001C0D6F0800E0118026E800E025C1B
:1032640002E1000E005C05E2010E0001D55F000ED4
:10327400D65B0001D5510008E36FC3EC05F0D1C063
:1032840004F0D2C005F0D3C006F0D4C007F0AEEC11
:1032940003F000C0D7F001C0D8F002C0D9F003C0D9
:1032A400DAF0000E046E000E056E000E066E7F0E40
:1032B400076ED7C000F0D8C001F0D9C002F0DAC060
:1032C40003F0CBEC0DF0010ED8B0000E006E0052EE
:1032D40005E0010ED55F000ED65B1AD0000E046E19
:1032E400000E056E200E066E820E076ED7C000F02B
:1032F400D8C001F0D9C002F0DAC003F0CBEC0DF075
:10330400000ED8B0010E006E005202E0D54BD62B51
:10331400800E006E800ED619005C02E1D5510008C3
:1033240003E3010ECC6F02D0D5C0CCF0D0B118D0DD
:10333400D0A315D0800ED619006E7F0E005C02E17A
:10334400FC0ED55D0BE3800ED619006E800ECB19F2
:10335400005C02E1CA51D55D01E201D001D0EFD396
:10336400CA51CB1106E0D0A304D0010ECA5F000EEF
:10337400CB5BCB51000802E1CA51080803E2080EF6
:10338400CC6F02D0CAC0CCF0D1C000F0D2C001F0E2
:10339400D3C002F0D4C003F0046A056A066A076A5F
:1033A400B4EC0DF0000ED8A4010E006E0052D8B497
:1033B4004BD1D5C0E3F0C3EC05F000C004F001C06C
:1033C40005F002C006F003C007F0D1C000F0D2C07F
:1033D40001F0D3C002F0D4C003F0FCEC08F000C04C
:1033E400D1F001C0D2F002C0D3F003C0D4F0000188
:1033F400CC510008E36FC3EC05F000C004F001C039
:1034040005F002C006F003C007F0D1C000F0D2C03E
:1034140001F0D3C002F0D4C003F0FCEC08F000C00B
:10342400DDF001C0DEF002C0DFF003C0E0F0DDC07B
:10343400D1F0DEC0D2F0DFC0D3F0E0C0D4F0DDC004
:1034440000F0DEC001F0DFC002F0E0C003F00DECDC
:1034540005F0BEEC09F000C004F001C005F002C0A4
:1034640006F003C007F0DDC000F0DEC001F0DFC0ED
:1034740002F0E0C003F0BAEC09F0000E046E000E96
:10348400056E000E066E7E0E076ECBEC0DF0000E80
:10349400D8B0010E006E00521AE0D1C000F0D2C0C4
:1034A40001F0D3C002F0D4C003F0000E046E000E8D
:1034B400056E000E066E7E0E076E23EC01F000C052
:1034C400D1F001C0D2F002C0D3F003C0D4F0D1C017
:1034D40000F0D2C001F0D3C002F0D4C003F00DEC70
:1034E40005F00001CC51010F096E0A6A000E0A2290
:1034F40009C004F00AC005F0000E0ABEFF0E066EF5
:10350400076E0436049005360636073604360490F2
:103514000536063607363D0E0424F66E560E052093
:10352400F76E000E0620F86E0900F5CF05F00900CD
:10353400F5CF06F00900F5CF07F00900F5CF08F044
:103544000850035C08E10750025C05E10650015C89
:1035540002E10550005C1EE30001D1C000F0D2C0BE
:1035640001F0D3C002F0D4C003F0CD0E046ECC0E33
:10357400056E4C0E066E7B0E076EAEEC03F000C0BB
:10358400D1F001C0D2F002C0D3F003C0D4F0D54BC7
:10359400D62B5AD0D1C000F0D2C001F0D3C002F073
:1035A400D4C003F00DEC05F0CCC004F0000E056EA1
:1035B400066E076E04360490053606360736043662
:1035C40004900536063607363D0E0424F66E560E74
:1035D4000520F76E000E0620F86E0900F5CF05F001
:1035E4000900F5CF06F00900F5CF07F00900F5CF83
:1035F40008F00850035C08E10750025C05E106503E
:10360400015C02E10550005C1FE20001D1C000F042
:10361400D2C001F0D3C002F0D4C003F0000E046E97
:10362400000E056E200E066E820E076EAEEC03F0E1
:1036340000C0D1F001C0D2F002C0D3F003C0D4F076
:10364400010ED55F000ED65B0001D0A393D0D0B796
:1036540091D0800E000A006E800ECB19005C02E14E
:10366400CA510A0804E20A0ECA6F000ECB6FD1C019
:1036740000F0D2C001F0D3C002F0D4C003F00DECCE
:1036840005F000C0D7F001C0D8F002C0D9F003C0E3
:10369400DAF0D751D811D911DA1142E00A0E046ECA
:1036A400000E056E066E076ED7C000F0D8C001F09C
:1036B400D9C002F0DAC003F0D1EC09F008C000F080
:1036C40009C001F00AC002F00BC003F0000E046E42
:1036D400031808E10450021805E10450011802E13E
:1036E4000050000A1DE1010ECA5F000ECB5B0A0EFA
:1036F400046E000E056E066E076ED7C000F0D8C0CB
:1037040001F0D9C002F0DAC003F0D1EC09F000C036
:10371400D7F001C0D8F002C0D9F003C0DAF0B9D7AD
:10372400800ECB19006E800E005C02E1CC51CA5DA4
:1037340021E2CA51CC5DE36FC3EC05F000C004F094
:1037440001C005F002C006F003C007F0D1C000F0CC
:10375400D2C001F0D3C002F0D4C003F0FCEC08F0F6
:1037640000C0D1F001C0D2F002C0D3F003C0D4F045
:10377400CAC0CCF0050E0001CA25006E000ECB2194
:10378400016E0050CD5F0150CE5BCA51CB1103E1F5
:10379400D0B701D004D0010ECD5F000ECE5B030E76
:1037A400CF15006ED0C001F0000E011600500110BC
:1037B40004E0010ECD5F000ECE5BCFA539D0CFA3C0
:1037C40012D0CFA103D02D0EC26F02D02B0EC26F28
:1037D400BBC0E1FFBCC0E2FFC2C0E6FFBB4BBC2BD9
:1037E400DB4BDC2B0CD0CFA10AD0BBC0E1FFBCC0AB
:1037F400E2FF200EE66EBB4BBC2BDB4BDC2B800EBA
:10380400006E800ECE19005C02E1CD5100080FE27B
:10381400BBC0E1FFBCC0E2FF300EE66EBB4BBC2B6D
:10382400DB4BDC2B010ECD5F000ECE5BE8D73AD02C
:10383400CFB718D0800E006E800ECE19005C02E166
:10384400CD5100080FE2BBC0E1FFBCC0E2FF200E77
:10385400E66EBB4BBC2BDB4BDC2B010ECD5F000EAD
:10386400CE5BE8D7CFA312D0CFA103D02D0EC36F68
:1038740002D02B0EC36FBBC0E1FFBCC0E2FFC3C0CC
:10388400E6FFBB4BBC2BDB4BDC2B0CD0CFA10AD00F
:10389400BBC0E1FFBCC0E2FF200EE66EBB4BBC2BFD
:1038A400DB4BDC2BD1C000F0D2C001F0D3C002F05E
:1038B400D4C003F00DEC05F000C0D7F001C0D8F07F
:1038C40002C0D9F003C0DAF0CCC000F0000E016EE3
:1038D400026E036E0036009001360236033600365F
:1038E40000900136023603363D0E0024F66E560E65
:1038F4000120F76E000E0220F86E0900F5CF04F0E7
:103904000900F5CF05F00900F5CF06F00900F5CF61
:1039140007F0D7C000F0D8C001F0D9C002F0DAC077
:1039240003F0D1EC09F0300E0026BBC0E1FFBCC0AF
:10393400E2FF00C0E6FFBB4BBC2BDB4BDC2BCA51C8
:10394400CB1103E1D0B701D06FD0BBC0E1FFBCC045
:10395400E2FF2E0EE66EBB4BBC2BDB4BDC2BCC51BB
:10396400CA5F000ECB5BCC534DE0CC07CCC000F05B
:10397400000E016E026E036E0036009001360236B0
:103984000336003600900136023603363D0E00241D
:10399400F66E560E0120F76E000E0220F86E090036
:1039A400F5CF04F00900F5CF05F00900F5CF06F0D6
:1039B4000900F5CF07F0D7C000F0D8C001F0D9C096
:1039C40002F0DAC003F0D1EC09F00A0E046E000E26
:1039D400056E066E076ED1EC09F008C000F009C050
:1039E40001F00AC002F00BC003F0300E0026BBC089
:1039F400E1FFBCC0E2FF00C0E6FFBB4BBC2BDB4BCE
:103A0400DC2BB1D7CA51CB110FE0BBC0E1FFBCC066
:103A1400E2FF300EE66EBB4BBC2BDB4BDC2B010E06
:103A2400CA5F000ECB5BEED7CFAB0BD0BBC0E1FFC0
:103A3400BCC0E2FF450EE66EBB4BBC2BDB4BDC2B64
:103A44000AD0BBC0E1FFBCC0E2FF650EE66EBB4B13
:103A5400BC2BDB4BDC2B800ED619006E800E005C79
:103A640002E1000ED55D11E2D5510008D56FD651A3
:103A7400000ED657BBC0E1FFBCC0E2FF2D0EE66EC0
:103A8400BB4BBC2BDB4BDC2B0AD0BBC0E1FFBCC067
:103A9400E2FF2B0EE66EBB4BBC2BDB4BDC2B0A0E82
:103AA400046E000E056ED5C000F0D6C001F098EC8F
:103AB40008F0300E0026BBC0E1FFBCC0E2FF00C02E
:103AC400E6FF0001BB4BBC2BDB4BDC2B0A0E046E68
:103AD400000E056ED5C000F0D6C001F098EC08F0D9
:103AE40008C000F009C001F0300E0026BBC0E1FFA1
:103AF400BCC0E2FF00C0E6FF0001BB4BBC2BDB4BAC
:103B0400DC2BCFA71AD0800E006E800ECE19005C7D
:103B140002E1CD51000811E2BBC0E1FFBCC0E2FFED
:103B2400200EE66EBB4BBC2BDB4BDC2B010ECD5FBA
:103B3400000ECE5BCD51CE11EFE1BFEF15F0D0A357
:103B4400F3D0800ED619006E800E005C02E1000EE8
:103B5400D55D0AE2010ED55D006E000ED659016EE8
:103B64000050CA5F0150CB5BD1C000F0D2C001F05D
:103B7400D3C002F0D4C003F00DEC05F000C0D7F0C0
:103B840001C0D8F002C0D9F003C0DAF0010ECC6F46
:103B9400CC510A0A34E0CCC000F0000E016E026E73
:103BA400036E00360090013602360336003600906C
:103BB4000136023603363D0E0024F66E560E012001
:103BC400F76E000E0220F86E0900F5CF01F009002F
:103BD400F5CF02F00900F5CF03F00900F5CF04F0AA
:103BE4000450DA5D08E10350D95D05E10250D85D67
:103BF40002E10150D75D01E202D0CC2BC9D7CC51F0
:103C0400CA5DE16F000ECB59E26FE1C0CAF0E2C0B9
:103C1400CBF0D7C000F0D8C001F0D9C002F0DAC0B0
:103C240003F0BEEC09F000C004F001C005F002C0CE
:103C340006F003C007F0D1C000F0D2C001F0D3C039
:103C440002F0D4C003F0BAEC09F000C0DDF001C00A
:103C5400DEF002C0DFF003C0E0F0E1C0E3F0C3EC4B
:103C640005F0DDC004F0DEC005F0DFC006F0E0C002
:103C740007F0AEEC03F0000E046E000E056E000EAD
:103C8400066E7E0E076E23EC01F00DEC05F000C00D
:103C9400D7F001C0D8F002C0D9F003C0DAF0CA519D
:103CA400CB1142E00A0E046E000E056E066E076E1E
:103CB400D7C000F0D8C001F0D9C002F0DAC003F0D8
:103CC400D1EC09F008C000F009C001F00AC002F00C
:103CD4000BC003F0000E046E031808E10450021830
:103CE40005E10450011802E10050000A1DE10A0E2A
:103CF400046E000E056E066E076ED7C000F0D8C0C5
:103D040001F0D9C002F0DAC003F0D1EC09F000C030
:103D1400D7F001C0D8F002C0D9F003C0DAF0010E28
:103D2400CA5F000ECB5BBBD7800E006E800ECB1932
:103D3400005C02E1CA510C0816E3CAC0E3F047EC88
:103D44000BF0D1C004F0D2C005F0D3C006F0D4C04B
:103D540007F023EC01F000C0D1F001C0D2F002C0A2
:103D6400D3F003C0D4F0D1C000F0D2C001F0D3C06E
:103D740002F0D4C003F0046A056A066A076AB4EC68
:103D84000DF0000ED8A4010E006E0052D8B477D006
:103D9400D1C000F0D2C001F0D3C002F0D4C003F00F
:103DA4000DEC05F0000E046E031808E1045002182F
:103DB40005E10450011802E10050000A60E1800EA0
:103DC400006E800ED619005C02E1D551010857E25D
:103DD400D5C0E3F0C3EC05F000C004F001C005F069
:103DE40002C006F003C007F0D1C000F0D2C001F059
:103DF400D3C002F0D4C003F0FCEC08F05F0E046EF4
:103E0400700E056E090E066E810E076ECBEC0DF07A
:103E1400010ED8B0000E006E005206E0090E00013B
:103E2400D55F000ED65B05D00001080ED55F000EED
:103E3400D65BD5C0E3F0C3EC05F000C004F001C0CC
:103E440005F002C006F003C007F0D1C000F0D2C0F4
:103E540001F0D3C002F0D4C003F0FCEC08F00DEC88
:103E640005F000C0D7F001C0D8F002C0D9F003C0FB
:103E7400DAF00001D16BD26BD36BD46B38D0D1C0E4
:103E840000F0D2C001F0D3C002F0D4C003F00DECB6
:103E940005F000C0D7F001C0D8F002C0D9F003C0CB
:103EA400DAF0D7C000F0D8C001F0D9C002F0DAC00F
:103EB40003F0BEEC09F000C004F001C005F002C03C
:103EC40006F003C007F0D1C000F0D2C001F0D3C0A7
:103ED40002F0D4C003F0BAEC09F000C0D1F001C084
:103EE400D2F002C0D3F003C0D4F0D56BD66B010E70
:103EF400CC6FCC510A0A34E0CCC000F0000E016E45
:103F0400026E036E00360090013602360336003628
:103F140000900136023603363D0E0024F66E560E2E
:103F24000120F76E000E0220F86E0900F5CF01F0B3
:103F34000900F5CF02F00900F5CF03F00900F5CF31
:103F440004F00450DA5D08E10350D95D05E1025044
:103F5400D85D02E10150D75D01E202D0CC2BC9D774
:103F6400CC51CA25006E000ECB21016ED55100261E
:103F7400D65101220050CD5F0150CE5BD0B704D0A2
:103F8400CA51CB1101E104D0010ECD5F000ECE5B0E
:103F9400030ECF15006ED0C001F0000E01160050C4
:103FA400011004E0010ECD5F000ECE5BCFA539D029
:103FB400CFA312D0CFA103D02D0EC46F02D02B0EED
:103FC400C46FBBC0E1FFBCC0E2FFC4C0E6FFBB4B93
:103FD400BC2BDB4BDC2B0CD0CFA10AD0BBC0E1FF48
:103FE400BCC0E2FF200EE66EBB4BBC2BDB4BDC2BD4
:103FF400800E006E800ECE19005C02E1CD510008E7
:104004000FE2BBC0E1FFBCC0E2FF300EE66EBB4B6B
:10401400BC2BDB4BDC2B010ECD5F000ECE5BE8D757
:104024003AD0CFB718D0800E006E800ECE19005C47
:1040340002E1CD5100080FE2BBC0E1FFBCC0E2FFCA
:10404400200EE66EBB4BBC2BDB4BDC2B010ECD5F95
:10405400000ECE5BE8D7CFA312D0CFA103D02D0E94
:10406400C56F02D02B0EC56FBBC0E1FFBCC0E2FF21
:10407400C5C0E6FFBB4BBC2BDB4BDC2B0CD0CFA16C
:104084000AD0BBC0E1FFBCC0E2FF200EE66EBB4B12
:10409400BC2BDB4BDC2BCCC000F0CC0700524CE03B
:1040A400CCC000F0000E016E026E036E003600906C
:1040B40001360236033600360090013602360336E6
:1040C4003D0E0024F66E560E0120F76E000E0220FF
:1040D400F86E0900F5CF04F00900F5CF05F00900EA
:1040E400F5CF06F00900F5CF07F0D7C000F0D8C02F
:1040F40001F0D9C002F0DAC003F0D1EC09F00A0EE5
:10410400046E000E056E066E076ED1EC09F008C051
:1041140000F009C001F00AC002F00BC003F0300E39
:104124000026BBC0E1FFBCC0E2FF00C0E6FFBB4B02
:10413400BC2BDB4BDC2BAFD7800E006E800ED61968
:10414400005C02E1D55100080FE2BBC0E1FFBCC036
:10415400E2FF300EE66EBB4BBC2BDB4BDC2B010EBF
:10416400D55F000ED65BE8D7800E000A006E800E85
:10417400CB19005C02E1CA51080803E2080ECC6FB7
:1041840002D0CAC0CCF0CC51CA5F000ECB5BCC537A
:1041940003E1D0B701D00AD0BBC0E1FFBCC0E2FF4D
:1041A4002E0EE66EBB4BBC2BDB4BDC2BCCC0E3F002
:1041B400C3EC05F0D1C004F0D2C005F0D3C006F0C2
:1041C400D4C007F0AEEC03F075EC04F000C0D7F0F7
:1041D40001C0D8F002C0D9F003C0DAF0CC534DE0EE
:1041E400CC07CCC000F0000E016E026E036E0036E8
:1041F400009001360236033600360090013602364E
:1042040003363D0E0024F66E560E0120F76E000EA6
:104214000220F86E0900F5CF04F00900F5CF05F08F
:104224000900F5CF06F00900F5CF07F0D7C000F07C
:10423400D8C001F0D9C002F0DAC003F0D1EC09F023
:104244000A0E046E000E056E066E076ED1EC09F0C0
:1042540008C000F009C001F00AC002F00BC003F06E
:10426400300E0026BBC0E1FFBCC0E2FF00C0E6FF89
:10427400BB4BBC2BDB4BDC2BB1D7CA51CB110FE0B2
:10428400BBC0E1FFBCC0E2FF300EE66EBB4BBC2BF3
:10429400DB4BDC2B010ECA5F000ECB5BEED7CFA746
:1042A4001AD0800E006E800ECE19005C02E1CD5152
:1042B400000811E2BBC0E1FFBCC0E2FF200EE66EC5
:1042C400BB4BBC2BDB4BDC2B010ECD5F000ECE5B5E
:1042D400CD51CE11EFE1BFEF15F0C00ECF15016E39
:1042E400D0C002F0000E0216000E021802E1000E09
:1042F4000118D8A480D0CFA927D0C0C0E9FFC1C07D
:10430400EAFFEECF00F0EECF01F000C0E9FF01C0FC
:10431400EAFFEECFD7F0EECFD8F0EECFD9F0EECF64
:10432400DAF0C0C0E9FFC1C0EAFF040EEE24006E5B
:10433400000EEE20016EC0C0E1FFC1C0E2FF00C06C
:10434400E6FF01C0E6FF2FD0C0C0E9FFC1C0EAFF0D
:10435400EECF00F0EECF01F000C0E9FF01C0EAFFAC
:10436400EECF00F0EECF01F0000E01BEFF0E026EA4
:10437400036E00C0D7F001C0D8F002C0D9F003C06A
:10438400DAF0C0C0E9FFC1C0EAFF020EEE24006EFD
:10439400000EEE20016EC0C0E1FFC1C0E2FF00C00C
:1043A400E6FF01C0E6FF800EDA19006E800E005CA5
:1043B40008E1000ED95D05E1000ED85D02E1000EB2
:1043C400D75D18E2030ECF13000ED013006A016A02
:1043D400026A036AD751005ED851015AD951025A70
:1043E400DA51035A00C0D7F001C0D8F002C0D9F0A6
:1043F40003C0DAF04ED0CFA927D0C0C0E9FFC1C0B6
:10440400EAFFEECF00F0EECF01F000C0E9FF01C0FB
:10441400EAFFEECFD7F0EECFD8F0EECFD9F0EECF63
:10442400DAF0C0C0E9FFC1C0EAFF040EEE24006E5A
:10443400000EEE20016EC0C0E1FFC1C0E2FF00C06B
:10444400E6FF01C0E6FF25D0C0C0E9FFC1C0EAFF16
:10445400EECF00F0EECF01F000C0E9FF01C0EAFFAB
:10446400EECFD7F0EECFD8F0000ED96FDA6FC0C020
:10447400E9FFC1C0EAFF020EEE24006E000EEE203A
:10448400016EC0C0E1FFC1C0E2FF00C0E6FF01C091
:10449400E6FF000ECB1902E1000ECA190FE1000E6F
:1044A400006EDA1908E10050D91905E10050D81955
:1044B40002E1D751000A02E1CA4BCB2BC00ECF1543
:1044C400006E00C005F0AED0010ECC6FCC510A0ACC
:1044D40034E0CCC000F0000E016E026E036E0036B4
:1044E400009001360236033600360090013602365B
:1044F40003363D0E0024F66E560E0120F76E000EB4
:104504000220F86E0900F5CF01F00900F5CF02F0A2
:104514000900F5CF03F00900F5CF04F00450DA5D8B
:1045240008E10350D95D05E10250D85D02E1015074
:10453400D75D01E202D0CC2BC9D782D0010ECC6F5B
:10454400CC51080A34E0CCC000F0000E016E026EBB
:10455400036E0036009001360236033600360090B2
:10456400013602360336650E0024F66E560E01201F
:10457400F76E000E0220F86E0900F5CF01F0090075
:10458400F5CF02F00900F5CF03F00900F5CF04F0F0
:104594000450DA5D08E10350D95D05E10250D85DAD
:1045A40002E10150D75D01E202D0CC2BC9D748D03B
:1045B400010ECC6FCC510C0A34E0CCC000F0000EDC
:1045C400016E026E036E0036009001360236033629
:1045D400003600900136023603360D0E0024F66EC6
:1045E400560E0120F76E000E0220F86E0900F5CF7A
:1045F40001F00900F5CF02F00900F5CF03F009003E
:10460400F5CF04F00450DA5D08E10350D95D05E10B
:104614000250D85D02E10150D75D01E202D0CC2BFB
:10462400C9D70ED00550000AD8B44ED70550C00AD9
:10463400D8B44AD70550800A81E00550400AB8E052
:10464400800E006E800ECB19005C02E1CA51CC5D75
:1046540003E2CAC0CCF00DD0800ECB19006E800EE0
:10466400005C02E1CC51CA5D04E2CCC0CAF0000E89
:10467400CB6FCD51CE110EE0030ECF15006ED0C01E
:1046840001F0000E01160050011004E0010ECD5F90
:10469400000ECE5B800ECB19006E800ECE19005C2E
:1046A40002E1CD51CA5D05E2CA51CD5FCB51CE5B6B
:1046B40002D0CD6BCE6BC40ECF15016ED051080B5A
:1046C400026E0250080A02E1400E011808E1CD51C1
:1046D400CE1104E0010ECD5F000ECE5B1CD0C00EE7
:1046E400CF15016ED051080B026E0250080A02E188
:1046F400800E011810E1800E006E800ECE19005C51
:1047040002E1CD51020805E2020ECD5F000ECE5B40
:1047140002D0CD6BCE6BCFA55DD0CFA312D0CFA1ED
:1047240003D02D0EC66F02D02B0EC66FBBC0E1FFA7
:10473400BCC0E2FFC6C0E6FFBB4BBC2BDB4BDC2B93
:1047440034D0CFA10BD0BBC0E1FFBCC0E2FF200E30
:10475400E66EBB4BBC2BDB4BDC2B27D0C00ECF153E
:10476400016ED051080B026E0250080A02E1800E5D
:1047740001181BE1BBC0E1FFBCC0E2FF300EE66ED6
:10478400BB4BBC2BDB4BDC2BCFAB03D0580EC76F22
:1047940002D0780EC76FBBC0E1FFBCC0E2FFC7C048
:1047A400E6FFBB4BBC2BDB4BDC2BCD51CE1111E018
:1047B400BBC0E1FFBCC0E2FF300EE66EBB4BBC2BBE
:1047C400DB4BDC2B010ECD5F000ECE5BCD51CE1149
:1047D400EFE174D0CD51CE1113E0CFB711D0BBC0EF
:1047E400E1FFBCC0E2FF200EE66EBB4BBC2BDB4BF3
:1047F400DC2B010ECD5F000ECE5BCD51CE11EFE16F
:10480400CFA312D0CFA103D02D0EC86F02D02B0E90
:10481400C86FBBC0E1FFBCC0E2FFC8C0E6FFBB4B32
:10482400BC2BDB4BDC2B0CD0CFA10AD0BBC0E1FFEF
:10483400BCC0E2FF200EE66EBB4BBC2BDB4BDC2B7B
:10484400C00ECF15016ED051080B026E0250080A3B
:1048540002E1400E01180BE1BBC0E1FFBCC0E2FF66
:10486400300EE66EBB4BBC2BDB4BDC2B27D0C00ED3
:10487400CF15016ED051080B026E0250080A02E1F6
:10488400800E01181BE1BBC0E1FFBCC0E2FF300E8B
:10489400E66EBB4BBC2BDB4BDC2BCFAB03D0580EF3
:1048A400C96F02D0780EC96FBBC0E1FFBCC0E2FF84
:1048B400C9C0E6FFBB4BBC2BDB4BDC2B800E006E70
:1048C400800ECB19005C02E1CA51CC5D0BE2BBC087
:1048D400E1FFBCC0E2FF300EE66EBB4BBC2BDB4BF2
:1048E400DC2BECD7CAC000F0CBC001F0010ECA5FCC
:1048F400000ECB5B00500110D8B42AD1C00ECF15E6
:10490400006E00C0DDF00AD1CAC000F0CBC001F0D7
:10491400000ECBBFFF0E026E036E00360090013610
:1049240002360336003600900136023603363D0E59
:104934000024F66E560E0120F76E000E0220F86E6B
:104944000900F5CF04F00900F5CF05F00900F5CF13
:1049540006F00900F5CF07F0D7C000F0D8C001F089
:10496400D9C002F0DAC003F0D1EC09F00A0E046EEB
:10497400000E056E066E076ED1EC09F008C000F05B
:1049840009C001F00AC002F00BC003F0300E00248D
:10499400CC6FD3D0CFAB45D0CAC000F0CBC001F0B0
:1049A400000ECBBFFF0E026E036E00360090013680
:1049B4000236033600360090013602360336650EA1
:1049C4000024F66E560E0120F76E000E0220F86EDB
:1049D4000900F5CF04F00900F5CF05F00900F5CF83
:1049E40006F00900F5CF07F0D7C000F0D8C001F0F9
:1049F400D9C002F0DAC003F0D1EC09F00F0E0016B2
:104A0400000E011602160316A70E0024F66E560EAB
:104A14000120F76E000E0220F86E0900F5CFCCF0ED
:104A240044D0CAC000F0CBC001F0000ECBBFFF0ED3
:104A3400026E036E003600900136023603360036ED
:104A44000090013602360336650E0024F66E560ECB
:104A54000120F76E000E0220F86E0900F5CF04F075
:104A64000900F5CF05F00900F5CF06F00900F5CFF0
:104A740007F0D7C000F0D8C001F0D9C002F0DAC006
:104A840003F0D1EC09F00F0E0016000E0116021609
:104A94000316C90E0024F66E560E0120F76E000EA2
:104AA4000220F86E0900F5CFCCF047D0CAC000F060
:104AB400CBC001F0000ECBBFFF0E026E036E0036BA
:104AC4000090013602360336003600900136023675
:104AD40003360D0E0024F66E560E0120F76E000EFE
:104AE4000220F86E0900F5CF04F00900F5CF05F0B7
:104AF4000900F5CF06F00900F5CF07F0D7C000F0A4
:104B0400D8C001F0D9C002F0DAC003F0D1EC09F04A
:104B1400070E0014CC6F300ECC270FD0DD51000AE5
:104B2400D8B4F2D6DD51C00AD8B4EED6DD51800A2D
:104B3400D8B430D7DD51400AB9E0BBC0E1FFBCC0F6
:104B4400E2FFCCC0E6FFBB4BBC2BDB4BDC2BCAD655
:104B5400CFA71AD0800E006E800ECE19005C02E141
:104B6400CD51000811E2BBC0E1FFBCC0E2FF200E42
:104B7400E66EBB4BBC2BDB4BDC2B010ECD5F000E7A
:104B8400CE5BCD51CE11EFE1BFEF15F0DBC000F0ED
:064B9400DCC001F012007C
:104B9A0051EC15F0010E0001E36FC8EC0CF00C0E9D
:0C4BAA00E36FC8EC0CF0959083821200C1
:104BB600C26A431C006E0050C1160F0EC012C08E92
:104BC600AEC000F000360090003600900050C212D1
:104BD600C28057EC10F0C282C2A201D0FDD7C4CF6A
:104BE60001F0006A00C0AFF001C0B0F0C35000127F
:104BF600000E011200C0AFF001C0B0F0C290000E6E
:104C06000014026E0150800B036E000E031802E1C1
:104C1600000E021803E00001AF6BB06BAFC000F0EE
:064C2600B0C001F0120015
:104C2C00220E0C6E086A096A0A6A0B6A0C06D8B462
:104C3C001FD0D8900B320A320932083203320232BA
:104C4C0001320032D8A0F2D70C06D8B409D00450E7
:104C5C0008260550092206500A2207500B22EAD7D3
:104C6C00045008260550092206500A2207500B2230
:024C7C00120024
:104C7E000450000A12E10550000A0FE10650000A26
:104C8E000CE10750000A09E1FF0E006EFF0E016EE7
:104C9E00FF0E026E7F0E036E99D00C6A07BE0C2AB1
:104CAE000D6A0B6A0A6A096A086A0350021001103B
:104CBE000010D8B485D0035007180E6E0EBE0D1E10
:104CCE0007AE0BD0041E051E061E071E042AD8B4FE
:104CDE00052AD8B4062AD8B4072A03AE0BD0001E74
:104CEE00011E021E031E002AD8B4012AD8B4022ABD
:104CFE00D8B4032A035007100E6E0EBE1DD01FEC43
:104D0E000FF00CBE36D00DAE5BD0001E011E021E83
:104D1E00031E002AD8B4012AD8B4022AD8B4032A12
:104D2E00081E091E0A1E0B1E082AD8B4092AD8B45A
:104D3E000A2AD8B40B2A44D007AE15D003BE0DD024
:104D4E0003500B6E02500A6E0150096E0050086E31
:104D5E00036A026A016A006AD6D7036A026A016AA6
:104D6E00006A002A000C031E021E011E001E0C8E7D
:104D7E00C6D7082AD8B4092AD8B40A2AD8B40B2A16
:104D8E000450085CD8A4BFD70550095CD8A4BBD783
:104D9E0006500A5CD8A4B7D707500B5CD8A4B3D77B
:104DAE000B6A0A6A096A086A002AD8B4012AD8B4BA
:104DBE00022AD8B4032A03AEA6D70E6A0E88FF0CB9
:0E4DCE000E6A0CA002D04BEC10F0000F120089
:104DDC000050086E0150006E0250016E0350026EBE
:104DEC00036A0B6A0C6A9E0E036E0A6A02AE0BEF24
:104DFC0027F0081E001E011E021E082AD8B4002A25
:104E0C00D8B4012AD8B4022A0A8E020E0C6E32ECE7
:044E1C0000F0120090
:104E200010D0800E0001AE6F1AD0C00EAE6F17D03A
:104E3000940EAE6F14D0D40EAE6F11D0800EAE6F44
:104E40000ED00001AE51010AECE0AE51020AEDE0D5
:104E5000AE51030AEDE0AE51040AEDE0EFD7AF0525
:104E6000006EAE51002600C0AEF000C0E3F0C8EC0A
:104E70000CF05F90B26BB251B025E96E000EB1211B
:104E8000EA6EEE520CE0B251B025E96E000EB1218F
:104E9000EA6EEECFBBF0B3EC15F0B22BECD75F802F
:024EA0001200FE
:104EA200B30E0001B96F000EBA6FAEC0BBF0AFC057
:104EB200BCF0B0C0BDF0B1C0BEF0B2C0BFF0B90E20
:104EC200C06F000EC16FBAEC15F000C0B7F001C0A0
:104ED200B8F00050AE25E16E0150AF21E26EE66AF5
:0A4EE200B7C000F0B8C001F01200E4
:104EEC00B30E0001B76F000EB86FAEC0BBF0AFC011
:104EFC00BCF0B0C0BDF0B1C0BEF0B2C0BFF0B70ED8
:104F0C00C06F000EC16F5DEC10F000C0B5F001C0B9
:104F1C00B6F00050AE25E16E0150AF21E26EE66AAC
:0A4F2C00B5C000F0B6C001F012009D
:104F3600F26A0F0E0F01386F396B3A6B3B6B836A5F
:104F4600C16AFF0E926E936A956AF80E966E9592F6
:104F560021DE020E0B6E040E0C6EBA0E0D6E0D2EB9
:0E4F6600FED70C2EFCD70B2EFAD7000012003F
:104F74000900F5CFE6FF0006FBE10106F9E11200A6
:104F840060C0AEF016DE000E01BEFF0E026E036EB0
:104F9400B80E046E0B0E056E000E066E076E44DE30
:104FA400FF0E046E030E056E000E066E076E65DEC0
:024FB4001200E9
:104FB6009A0E0001AE6F000EAF6F210EB06F570E46
:104FC600B16F000EB26F0A0E046E000E056E8AC037
:104FD60000F08BC001F0A8EC05F000C0B3F001C0F2
:104FE600B4F081DF010EAE6F010EAF6F9A0EB06F97
:104FF600000EB16F12DF9A0EAE6F000EAF6F320E5B
:10500600B06F570EB16F000EB26F8EC000F08FC03A
:1050160001F090C002F091C003F0DDDE000E046ED8
:10502600000E056E480E066E850E076EFCEC08F047
:1050360000C0B3F001C0B4F002C0B5F003C0B6F0D2
:105046002DDF010EAE6F0D0EAF6F9A0EB06F000E14
:10505600B16FE3DE9A0EAE6F000EAF6F0B0EB06F40
:10506600570EB16F000EB26F92C000F093C001F000
:1050760094C002F095C003F0AEDE000E046E000E82
:10508600056E480E066E850E076EFCEC08F000C035
:10509600B3F001C0B4F002C0B5F003C0B6F0FEDE56
:1050A600020EAE6F010EAF6F9A0EB06F000EB16FAB
:1050B600B4DE9A0EAE6F000EAF6F410EB06F570E94
:1050C600B16F000EB26F0A0E046E000E056E96C02A
:1050D60000F097C001F0A8EC05F000C0B3F001C0E5
:1050E600B4F001DF020EAE6F0D0EAF6F9A0EB06F09
:0850F600000EB16F92DE120002
:1050FE00A3EC2BF00001656B666B676B686B696BDD
:10510E006A6B6B6B6C6B6D6B6E6B6F6B706B716BCD
:10511E00726B736B746B756B07DF8390010EAE6FE2
:10512E00020EAF6F1C0EB06F000EB16F72DE020E6C
:10513E00AE6F050EAF6F2B0EB06F000EB16F69DE46
:10514E00150E0B6E4B0E0C6EBE0E0D6E0D2EFED78B
:10515E000C2EFCD70B2EFAD70000010EE36FC8EC15
:10516E000CF08380756B0A0E755DD8B0A8D0606B9D
:10517E0002DF00C065F001C066F002C067F003C038
:10518E0068F0010E0001606FF6DE00C069F001C02C
:10519E006AF002C06BF003C06CF0020E0001606F8B
:1051AE00EADE00C06DF001C06EF002C06FF003C009
:1051BE0070F0030E0001606FDEDE00C071F001C002
:1051CE0072F002C073F003C074F0760E0001AE6F81
:1051DE00000EAF6FDA0EB06F560EB16F000EB26FDB
:1051EE0075C0B3F0000EB46F7ADE010EAE6F010E15
:1051FE00AF6F760EB06F000EB16F0BDE760EAE6F28
:10520E00000EAF6FFF0EB06F560EB16F000EB26F85
:10521E006DC000F06EC001F06FC002F070C003F000
:10522E00D6DD000E046E000E056E480E066E850E5F
:10523E00076EFCEC08F000C0B3F001C0B4F002C081
:10524E00B5F003C0B6F026DE020EAE6F010EAF6FE4
:10525E00760EB06F000EB16FDCDD760EAE6F000E07
:10526E00AF6F390EB06F570EB16F000EB26F0A0EE0
:10527E00046E000E056E71C000F072C001F0A8EC55
:10528E0005F000C0B3F001C0B4F029DE020EAE6F1F
:10529E000D0EAF6F760EB06F000EB16FBADD0B0E46
:1052AE000B6E260E0C6E5D0E0D6E0D2EFED70C2E99
:1052BE00FCD70B2EFAD700000000752B54D7606B6D
:1052CE005ADE00C065F001C066F002C067F003C090
:1052DE0068F0010E0001606F4EDE00C069F001C083
:1052EE006AF002C06BF003C06CF0020E0001606F3A
:1052FE0042DE00C06DF001C06EF002C06FF003C060
:10530E0070F0030E0001606F36DE00C071F001C058
:10531E0072F002C073F003C074F0010E0001E36F6F
:10532E00C8EC0CF0640E046E000E056E066E076E71
:10533E0069C000F06AC001F06BC002F06CC003F0EF
:10534E0097DC800E046E800E0318045C08E1025098
:10535E00000805E10150000802E10050040823E2B4
:10536E00838065C08AF066C08BF067C08CF068C021
:10537E008DF069C08EF06AC08FF06BC090F06CC07B
:10538E0091F06DC092F06EC093F06FC094F070C04B
:10539E0095F071C096F072C097F073C098F074C01B
:1053AE0099F002DEC6D00A0E046E000E056E066E71
:1053BE00076E71C000F072C001F073C002F074C0CD
:1053CE0003F056DC800E0318046E800E045C08E1B8
:1053DE00000E025C05E1000E015C02E1700E005C45
:1053EE0023E3838065C08AF066C08BF067C08CF0C3
:1053FE0068C08DF069C08EF06AC08FF06BC090F0FF
:10540E006CC091F06DC092F06EC093F06FC094F0CE
:10541E0070C095F071C096F072C097F073C098F09E
:10542E0074C099F0C1DD85D00A0E046E000E056EB3
:10543E00066E076E71C000F072C001F073C002F00C
:10544E0074C003F015DC800E046E800E0318045C2D
:10545E0008E10250000805E10150000802E1005089
:10546E006C085DE38390010E0001AE6F010EAF6F0D
:10547E00330EB06F000EB16FCCDC760EAE6F000E39
:10548E00AF6FF30EB06F560EB16F000EB26F6DC0F0
:10549E0000F06EC001F06FC002F070C003F097DC38
:1054AE00000E046E000E056E480E066E850E076E1B
:1054BE00FCEC08F000C0B3F001C0B4F002C0B5F0CF
:1054CE0003C0B6F0E7DC020EAE6F010EAF6F760EC4
:1054DE00B06F000EB16F9DDC760EAE6F000EAF6F2B
:1054EE003D0EB06F570EB16F000EB26F0A0E046E06
:1054FE00000E056E71C000F072C001F0A8EC05F050
:10550E0000C0B3F001C0B4F0EADC020EAE6F0D0EB7
:10551E00AF6F760EB06F000EB16F7BDC0AD000015C
:10552E00010EAE6F010EAF6F490EB06F000EB16F70
:10553E0070DC0B0E0B6E260E0C6E5D0E0D6E0D2EB0
:10554E00FED70C2EFCD70B2EFAD700000000B7D6D4
:02555E00FFD775
:1057460010EE15F0450E006E010E016E600EF66E3F
:0E575600550EF76E000EF86EBAEC27F012003A
:07556000286E756C6C290038
:0F5567004A534D20456E67656E68617269610039
:085576004E422D343030570085
:10557E00436F6E762E204465736C696761646F00AD
:01558E000F0D
:05558F006E756C6C005C
:10559400456E7472652031303820652031313256C1
:0155A4000006
:1055A5000000007FCDCC4C7B0AD723786F120375A2
:1055B50017B75171ACC5276EBD37066B95BF5667DA
:1055C50077CC2B645F700961FFE65B5D08E53C3CC9
:0455D5006042221BF3
:1055D9000000007F000020820000488500007A88D2
:1055E90000401C8C0050438F0024749280961896BA
:1055F90020BC3E99286B6E9CF90215A0EC782DC150
:04560900CAF249E2B6
:10560D000100000008000000400000000002000042
:10561D0000100000008000000000040000002000C9
:10562D000000000100000008000000400000000024
:10563D00010000000A00000064000000E803000003
:10564D0010270000A086010040420F0080969800B0
:08565D0000E1F50500CA9A3BCB
:105665000100000010000000000100000010000013
:105675000000010000001000000000010000001003
:1056850030313233343536373839616263646566B3
:015695000014
:105696003031323334353637383941424344454662
:0156A6000003
:1056A7003031323334353637383941424344454651
:0156B70000F2
:0456B80000000000EE
:0456BC0000000000EA
:0456C00000000000E6
:0456C40000000000E2
:0156C80000E1
:1056C900303132333435363738396162636465666F
:0156D90000D0
:0D56DA0050617274696E646F3A202575008E
:0C56E700010008004000000200100080DC
:0C56F3004261742E3A25322E31665600BA
:0C56FF004261742E3A25322E31665600AE
:0C570B004261742E3A25322E31665600A1
:0A57170001000A006400E8031027F7
:09572100526564653A25755600D5
:08572A00010010000001001055
:0757320025322E31665600FE
:04573900257556007C
:04573D002575560078
:045741002575560074
:020000040030CA
:0D000100230F3CFFBF81FF0FC00FE00F4039
:00000001FF
