:10000000DBEF27F00000000000EF00F00000000030
:0A0010000000000000000000F3D71C
:10001C000B820BAE18EF00F00368026801680068F1
:08002C000A360232FF0E120039
:0E003400026A016A006A086A036A000E12007E
:100042000B840BAE2CEF00F0010E036E026A016A04
:0A005200006A0A360232FF0E1200A7
:08005C000AAE029E000E120024
:100064000CB074EF00F00CA21AEF01F00E6A000E4F
:1000740002648BEF00F0F00E0214D8A456EF00F0E7
:10008400023A01380F0B02260138F00B016E0038DA
:100094000F0B01260038F00B006E08380F0B0026FA
:1000A4000838F00B086E0E84D89002BE6FEF00F093
:1000B40008360036013602360E2A02BE6FEF00F013
:1000C40008360036013602360E2A02BE6FEF00F003
:1000D40008360036013602360E2A0E50036410EF3D
:1000E40001F0035E0BBC08AE15EF01F0D880800E62
:1000F40008640030000E002201220222D8A015EF6D
:1001040001F0023201320032034A1AEF01F015EF16
:1001140001F001C002F000C001F008C000F0086A5C
:10012400000E0E860264C2EF00F0F00E0214D8A492
:10013400AAEF00F0023A01380F0B02260138F00B47
:10014400016E00380F0B01260038F00B006E0E8490
:10015400D89002BE6FEF00F00036013602360E2A48
:1001640002BE6FEF00F00036013602360E2A02BEE0
:100174006FEF00F00036013602360E2A6FEF00F002
:1001840001C002F000C001F0006A000E0E960E8855
:100194000264EFEF00F0F00E0214D8A4DAEF00F0DE
:1001A400023A01380F0B02260138F00B016E0E845F
:1001B400D89002BE6FEF00F0013602360E2A02BE5E
:1001C4006FEF00F0013602360E2A02BE6FEF00F028
:1001D400013602360E2A6FEF00F001C002F0016A08
:1001E400000E0E8602641FEF01F0F00E0214D8A474
:1001F400FEEF00F0023A0E84D89002BE6FEF00F0DA
:1002040002360E2A02BE6FEF00F002360E2A02BE3C
:100214006FEF00F002360E2A6FEF00F0010E0C6E45
:100224000EDF22EF01F0020E0C6E16DF22EF01F05A
:10023400040E0C6EF1DE22EF01F0080E0C6EF8DEF7
:020244001200A6
:10024600025006180E6E086A096A0B6A03500764A4
:1002560016EF02F006500A6E068E028E03500B6EE3
:100266000750036E000E0B6466EF01F00B50075E3D
:10027600D8B407EF02F0070E0764D5EF01F0075E6A
:1002860000C008F001C000F002C001F0026A074E8B
:1002960007EF02F00764AAEF01F0075E00C008F05E
:1002A60001C000F0016A074E07EF02F0076488EF0D
:1002B60001F0075E00C008F0006A074E07EF02F083
:1002C60007646FEF01F00AC002F005C001F004C038
:1002D60000F0086A30EF03F0030E07647AEF01F0CE
:1002E600075E08380F0B086E074E07EF02F0D8902E
:1002F6000832074E07EF02F0D8900832074E07EF94
:1003060002F0D890083207EF02F0030E076499EF67
:1003160001F0075E08380F0B086E0038F00B082650
:1003260000380F0B006E074E07EF02F0D890003230
:100336000832074E07EF02F0D89000320832074E17
:1003460007EF02F0D8900032083207EF02F0030EF2
:100356000764C1EF01F0075E08380F0B086E00381E
:10036600F00B082600380F0B006E0138F00B002644
:1003760001380F0B016E074E07EF02F0D8900132DD
:1003860000320832074E07EF02F0D89001320032F1
:100396000832074E07EF02F0D890013200320832D9
:1003A60007EF02F0030E0764F2EF01F0075E08386C
:1003B6000F0B086E0038F00B082600380F0B006E86
:1003C6000138F00B002601380F0B016E0238F00BD6
:1003D600012602380F0B026E074E07EF02F0D89087
:1003E6000232013200320832074E07EF02F0D8908F
:1003F6000232013200320832074E07EF02F0D8907F
:100406000232013200320832096A000E0EAEFBEFEC
:1004160002F0081E001E011E021E082A00220122EA
:100426000222FBEF02F00750D8A41CEF02F030EFD7
:1004360003F0096A02C00AF0028E068E0750035CBA
:10044600076ED8B4EEEF02F0070E0764BCEF02F0B9
:10045600075E0450096E0550046E0650056E066A66
:10046600074EEEEF02F0070E076491EF02F0075E0B
:100476000450096E0550046E056A074EEEEF02F051
:10048600070E07646FEF02F0075E0450096E046AF8
:10049600074EEEEF02F0070E076456EF02F00AC0B1
:1004A60002F030EF03F0030E076461EF02F0075E1F
:1004B60009380F0B096E074EEEEF02F0D89009329D
:1004C600074EEEEF02F0D8900932074EEEEF02F03B
:1004D600D8900932EEEF02F0030E076480EF02F0C7
:1004E600075E09380F0B096E0438F00B092604382D
:1004F6000F0B046E074EEEEF02F0D890043209326D
:10050600074EEEEF02F0D89004320932074EEEEFB6
:1005160002F0D89004320932EEEF02F0030E0764BF
:10052600A8EF02F0075E09380F0B096E0438F00BCE
:10053600092604380F0B046E0538F00B042605381F
:100546000F0B056E074EEEEF02F0D890053204321F
:100556000932074EEEEF02F0D89005320432093226
:10056600074EEEEF02F0D890053204320932EEEF74
:1005760002F0030E0764D9EF02F0075E09380F0B8D
:10058600096E0438F00B092604380F0B046E053883
:10059600F00B042605380F0B056E0638F00B052602
:1005A60006380F0B066E074EEEEF02F0D8900632B5
:1005B600053204320932074EEEEF02F0D8900632C9
:1005C600053204320932074EEEEF02F0D8900632B9
:1005D600053204320932086A000E0EAEFBEF02F055
:1005E600091E041E051E061E092A042205220622CD
:1005F6000950082604500022055001220650022206
:100606000EBE12EF03F0D8A021EF03F00232013242
:1006160000320832033E21EF03F02BEF03F0D8B08F
:1006260026EF03F0000E081E001E011E021E082AF9
:100636000022012202220A7E26EF03F0010E0C6E32
:100646000EDD32EF03F0020E0C6E09DD32EF03F021
:10065600040E0C6EE0DC32EF03F0000E0C6E12009E
:100666000F0E0C6E470E0D6E0D2EFED70C2EFCD700
:060676000000000012006C
:10067C00086A080E0C6E003408360450085ED8B0B8
:0E068C0002D00826D89000360C2EF5D71200AA
:10069A000B800BAE59EF03F0026A0AAEFF0E026E30
:0C06AA00016E006E0A360232FF0E1200D4
:1006B6000D6A086A0050D8B4000C04180A6E0ABE07
:1006C6000D1E0B6A04AE02D0041E042A00AE02D030
:1006D600001E002A005004100A6E0ABE1FD00450E5
:1006E600085E003600340836045008260036060E2A
:1006F6000C6E00340836045000B0085E00A00826D0
:1007060000360C2EF6D700A008260BB015D00DAE7D
:10071600000C001E002A081E082A000C04AE09D090
:1007260000BE04D00050086E006AF1D7006A002AA5
:10073600000C001E0B2AD3D7082A0450085CD8A444
:0E074600E6D7086A002A00AEE2D7FF0C1200C8
:100754000134083609360450085E0550D8A0053C1B
:10076400095E003601360F0E0C6E01340836093668
:10077400045000A006D0085E0550D8A0053C095ED0
:1007840005D008260550D8B0053C092600360136A8
:100794000C2EEBD700B006D0045008260550D8B074
:0807A400053C092600001200CB
:0807AC000B6A0B86FF0E120020
:1007B400086A096A000E076203645FEF04F00250DE
:1007C40006180A6E075003267E0ED8A0F0EF03F039
:1007D400035ED8B064EF04F0F4EF03F0035ED8A036
:1007E40069EF04F0028E068E02C00EF001C00BF019
:1007F40000C00DF000500402F4CF0CF001500502CB
:10080400F4CF00F0F3CF08F00402F3500C26F450B8
:100814000822000E00220D500502F3500C26F4505D
:100824000822000E002202500402F3500826F4505D
:10083400002202500502016A000E0122F350002634
:10084400F45001220D500602F3500826F450002201
:10085400026A000E012202220B500602F350002607
:10086400F4500122000E02220E500602F35001261B
:10087400F450022202BE47EF04F008360036013677
:1008840002360306D8B469EF04F05AEF04F0D880B6
:10089400800E08640030000E002201220222D8A03B
:1008A4005AEF04F0023201320032034A64EF04F0DA
:1008B4000AAE029E000E6CEF04F0010E1AEC00F07A
:1008C4006CEF04F0020E0EEC00F06CEF04F0040E7A
:0608D40021EC00F012000F
:0A08DA00210E0D6E0D2EFED7120048
:0608E400000000001200FC
:1008EA000450085E0550D8A0053C095E0650D8A001
:1008FA00063C0A5E0750D8A0073C0B5E0336070E7B
:10090A000C6E0334083609360A360B36045003A037
:10091A000ED0085E0550D8A0053C095E0650D8A046
:10092A00063C0A5E0750D8A0073C0B5E0DD008268D
:10093A000550D8B0053C09260650D8B0063C0A2610
:10094A000750D8B0073C0B2603360C2EDAD70234F0
:10095A00083609360A360B36045003A00ED0085E54
:10096A000550D8A0053C095E0650D8A0063C0A5E90
:10097A000750D8A0073C0B5E0DD008260550D8B00A
:10098A00053C09260650D8B0063C0A260750D8B0BE
:10099A00073C0B260236070E0C6E0234083609365F
:1009AA000A360B36045002A00ED0085E0550D8A0B5
:1009BA00053C095E0650D8A0063C0A5E0750D8A03E
:1009CA00073C0B5E0DD008260550D8B0053C092619
:1009DA000650D8B0063C0A260750D8B0073C0B266A
:1009EA0002360C2EDAD70134083609360A360B36A7
:1009FA00045002A00ED0085E0550D8A0053C095E3E
:100A0A000650D8A0063C0A5E0750D8A0073C0B5EE9
:100A1A000DD008260550D8B0053C09260650D8B096
:100A2A00063C0A260750D8B0073C0B260136070EAB
:100A3A000C6E0134083609360A360B36045001A00A
:100A4A000ED0085E0550D8A0053C095E0650D8A015
:100A5A00063C0A5E0750D8A0073C0B5E0DD008265C
:100A6A000550D8B0053C09260650D8B0063C0A26DF
:100A7A000750D8B0073C0B2601360C2EDAD70034C3
:100A8A00083609360A360B36045001A00ED0085E25
:100A9A000550D8A0053C095E0650D8A0063C0A5E5F
:100AAA000750D8A0073C0B5E0DD008260550D8B0D9
:100ABA00053C09260650D8B0063C0A260750D8B08D
:100ACA00073C0B260036070E0C6E00340836093632
:100ADA000A360B36045000A00ED0085E0550D8A086
:100AEA00053C095E0650D8A0063C0A5E0750D8A00D
:100AFA00073C0B5E0DD008260550D8B0053C0926E8
:100B0A000650D8B0063C0A260750D8B0073C0B2638
:100B1A0000360C2EDAD700B00ED004500826055045
:100B2A00D8B0053C09260650D8B0063C0A2607501C
:080B3A00D8B0073C0B261200A5
:100B420028D04086010E00018D27000E8E238F23B0
:100B52005DD000014080010E8D27000E8E238F2371
:100B620055D000014082010E8D27000E8E238F2367
:100B72004DD000014186010E8D27000E8E238F235A
:100B820045D000014084010E8D27000E8E238F2355
:100B92003DD08DC0F6FF8EC0F7FF8FC0F8FF090071
:100BA200F5CF01F001502D0ACCE08DC0F6FF8EC0CA
:100BB200F7FF8FC0F8FF0900F5CF01F00150200ABE
:100BC200C8E08DC0F6FF8EC0F7FF8FC0F8FF0900A6
:100BD200F5CF01F001502B0AC4E08DC0F6FF8EC0A4
:100BE200F7FF8FC0F8FF0900F5CF01F00150230A8B
:100BF200C0E08DC0F6FF8EC0F7FF8FC0F8FF09007E
:100C0200F5CF01F00150300ABCE001D099D740B2D3
:100C1200409040B640948DC000F08EC001F08FC06D
:040C220002F01200CA
:100C26000B1E0A1E091E081E082AD8B4092AD8B4A3
:080C36000A2AD8B40B2A1200AF
:100C3E000B6A0C6A086A0350D8B4A3EF06F002C020
:100C4E000AF0028E9E0E035E03AE93EF06F0036C67
:100C5E00080E035CD8A060EF06F0036E083600C0E5
:100C6E0008F001C000F002C001F0026A080E035C39
:100C7E00D8A060EF06F0036E083600C008F001C081
:100C8E0000F0016A080E035CD8A060EF06F0036E58
:100C9E00083600C008F0006A080E035CD8A060EFAA
:100CAE0006F0036E0836086A0350D8A4D8906CEF8D
:100CBE0006F00350D8B46CEF06F0D8900232013231
:100CCE0000320832032E64EF06F00BBC08A07DEF55
:100CDE0006F0D8A07DEF06F0082AD8B4002AD8B4C2
:100CEE00012AD8B4022A02BEA7EF06F00AAEA3EF7D
:100CFE0006F0021E011E001E081E082AD8B4002A85
:100D0E00D8B4012AD8B4022AA3EF06F0026A016A07
:100D1E00006A086AA3EF06F00B800BAEADEF06F08B
:100D2E00026A0AAEADEF06F0026E016E006E086E3C
:100D3E000A360232ADEF06F00C6A000EAEEF06F088
:100D4E00010E0C6E000EA2DCAEEF06F0FF0E02508E
:100D5E00036E0150026E0050016E0850006E1200BC
:100D6E00939C939E939A9398939693948A9C8A9E1F
:100D7E008A948A968A988A9A6FDC6EDC6DDC8A88F1
:100D8E008A8A8A8CA8DD8A9C67DC8A8CA4DD8A9C80
:100D9E0063DC8A8CA0DD8A9C5FDC8A9A8A8C9BDD60
:100DAE008A9C5ADC8A8C97DD8A9C8A988A848A8CE3
:100DBE0092DD8A9C51DC8A948A8A8A8C8CDD8A9C8C
:100DCE008A9A8A8C88DD8A9C47DC8A8C84DD8A9C90
:100DDE008A8A8A8C80DD8A9C3FDC8A9A8A8C7BDDAB
:100DEE008A9C8A848A868A888A8A8A8C74DD8A9CFE
:060DFE0033DC428012000C
:100E040000018DBF02D08A9401D08A848DBD02D0A6
:100E14008A9601D08A868DBB02D08A9801D08A88AE
:100E24008DB902D08A9A01D08A8A42B002D08A8EC1
:100E340001D08A9E8A8C54DD8A9C8DB702D08A9414
:100E440001D08A848DB502D08A9601D08A868DB36A
:100E540002D08A9801D08A888DB102D08A9A01D0B2
:100E64008A8A42B002D08A8E01D08A9E8A8C38DD6A
:100E74008A9C42A003D033EC03F001D02CDD120095
:100E84000B6A0A6A096A086A0E6A0334083604504F
:100E9400085E0550D8A0053C095E0650D8A0063C63
:100EA4000A5E0750D8A0073C0B5EE86AD8A0010E82
:100EB4000E5E0336070E0C6E0334083609360A3606
:100EC4000B360E36045003A012D0085E0550D8A08D
:100ED400053C095E0650D8A0063C0A5E0750D8A01F
:100EE400073C0B5EE86AD8A0010E0E5E11D00826FE
:100EF4000550D8B0053C09260650D8B0063C0A2651
:100F04000750D8B0073C0B26E86AD8B0010E0E266D
:100F140003360C2ED1D70234083609360A360B367E
:100F24000E36045003A012D0085E0550D8A0053C2C
:100F3400095E0650D8A0063C0A5E0750D8A0073CBC
:100F44000B5EE86AD8A0010E0E5E11D0082605508B
:100F5400D8B0053C09260650D8B0063C0A260750EE
:100F6400D8B0073C0B26E86AD8B0010E0E2602362C
:100F7400070E0C6E0234083609360A360B360E3666
:100F8400045002A012D0085E0550D8A0053C095EAA
:100F94000650D8A0063C0A5E0750D8A0073C0B5E5A
:100FA400E86AD8A0010E0E5E11D008260550D8B00C
:100FB400053C09260650D8B0063C0A260750D8B08E
:100FC400073C0B26E86AD8B0010E0E2602360C2E1A
:100FD400D1D70134083609360A360B360E3604509A
:100FE40002A012D0085E0550D8A0053C095E065048
:100FF400D8A0063C0A5E0750D8A0073C0B5EE86AFE
:10100400D8A0010E0E5E11D008260550D8B0053CBC
:1010140009260650D8B0063C0A260750D8B0073C2B
:101024000B26E86AD8B0010E0E260136070E0C6EA8
:101034000134083609360A360B360E36045001A040
:1010440012D0085E0550D8A0053C095E0650D8A011
:10105400063C0A5E0750D8A0073C0B5EE86AD8A09D
:10106400010E0E5E11D008260550D8B0053C0926A5
:101074000650D8B0063C0A260750D8B0073C0B26C9
:10108400E86AD8B0010E0E2601360C2ED1D70034F2
:10109400083609360A360B360E36045001A012D033
:1010A400085E0550D8A0053C095E0650D8A0063C51
:1010B4000A5E0750D8A0073C0B5EE86AD8A0010E70
:1010C4000E5E11D008260550D8B0053C09260650FE
:1010D400D8B0063C0A260750D8B0073C0B26E86A6D
:1010E400D8B0010E0E260036070E0C6E00340836FA
:1010F40009360A360B360E36045000A012D0085EAC
:101104000550D8A0053C095E0650D8A0063C0A5EEE
:101114000750D8A0073C0B5EE86AD8A0010E0E5E0B
:1011240011D008260550D8B0053C09260650D8B081
:10113400063C0A260750D8B0073C0B26E86AD8B00C
:10114400010E0E2600360C2ED1D700B00ED004505E
:1011540008260550D8B0053C09260650D8B0063CF0
:0C1164000A260750D8B0073C0B261200EA
:101170006E0E00018D5DD8A0CAD0640E046E8DC0C5
:1011800000F03EEC03F0120E0024056E066A000E1D
:10119000062205C000F006C001F0000E06BEFF0EDC
:1011A000026E036E003600900136023603360036BA
:1011B0000090013602360336C40E0024F66E510E3E
:1011C0000120F76E000E0220F86E0900F5CF00F046
:1011D0000900F5CF01F00900F5CF02F00900F5CFC5
:1011E00003F0000E046E000E056E000E066E7E0EFD
:1011F000076EDAEC03F000C08EF001C08FF002C081
:1012000090F003C091F0640E046E8DC000F03EECCF
:1012100003F008C000F00A0E046E3EEC03F0090E65
:101220000024056E066A000E062205C000F006C006
:1012300001F0000E06BEFF0E026E036E0036009037
:101240000136023603360036009001360236033688
:10125000C40E0024F66E510E0120F76E000E02201F
:10126000F86E0900F5CF00F00900F5CF01F0090094
:10127000F5CF02F00900F5CF03F08EC004F08FC067
:1012800005F090C006F091C007F0DAEC03F000C062
:101290008EF001C08FF002C090F003C091F00A0EF2
:1012A000046E8DC000F03EEC03F008C000F000C0FA
:1012B00001F0000E026E036E046E013601900236DC
:1012C0000336043601360190023603360436C40E66
:1012D0000124F66E510E0220F76E000E0320F86E08
:1012E0000900F5CF00F00900F5CF01F00900F5CFB6
:1012F00002F00900F5CF03F08EC004F08FC005F0B6
:1013000090C006F091C007F0DAEC03F0B1D08D5137
:101310000A08D8B07ED00A0E046E8DC000F03EECF4
:1013200003F0090E0024056E066A000E062205C0B1
:1013300000F006C001F0000E06BEFF0E026E036E46
:101340000036009001360236033600360090013632
:1013500002360336C40E0024F66E510E0120F76EDD
:10136000000E0220F86E0900F5CF00F00900F5CF5D
:1013700001F00900F5CF02F00900F5CF03F0000EEF
:10138000046E000E056E000E066E7E0E076EDAEC21
:1013900003F000C08EF001C08FF002C090F003C0D7
:1013A00091F00A0E046E8DC000F03EEC03F008C010
:1013B00000F000C001F0000E026E036E046E0136F4
:1013C00001900236033604360136019002360336A8
:1013D0000436C40E0124F66E510E0220F76E000E84
:1013E0000320F86E0900F5CF00F00900F5CF01F0F9
:1013F0000900F5CF02F00900F5CF03F08EC004F02C
:101400008FC005F090C006F091C007F0DAEC03F051
:101410002FD08DC000F0000E016E026E036E0036FC
:10142000009001360236033600360090013602364F
:101430000336C40E0024F66E510E0120F76E000E26
:101440000220F86E0900F5CF00F00900F5CF01F099
:101450000900F5CF02F00900F5CF03F0000E046E8D
:10146000000E056E000E066E7E0E076EDAEC03F0BF
:02147000120068
:1014720000018D51390806E3300E8D5D03E3010E44
:08148200006E01D0006A1200A7
:10148A0003500718D8A459EF0AF002500618D8A436
:10149A0059EF0AF001500518D8A459EF0AF0005084
:0E14AA000418D8B4D8841200D894120012008E
:1014B8000450000A08E10550000A05E1FF0E006E1D
:1014C8007F0E016E58D00D6A096A086A0150001033
:1014D800D8B4000C015005180A6E0ABE0D1E0B6A1E
:1014E80005AE05D0041E051E042AD8B4052A01AE8F
:1014F80005D0001E011E002AD8B4012A015005108B
:101508000A6E0ABE10D0AAEC03F00BB020D00DAEC4
:10151800000C001E011E002AD8B4012A081E091E4C
:10152800082AD8B4092A000C05AE0DD001BE07D090
:101538000150096E0050086E016A006AE8D7016A16
:10154800006A002A000C011E001E0B2ADDD7082A9B
:10155800D8B4092A0450085CD8A4D9D70550095C26
:10156800D8A4D5D7096A086A002AD8B4012A01AED6
:08157800CED70000FF0C1200A9
:10158000800E00018D19006E800E000A005CD8B03C
:101590006DD18D510008016E01C08DF0800E0118D3
:1015A000006E800E6E0A005CD8A0C0D0640E046E7F
:1015B0008DC000F05BEC03F0120E0024056E000EEF
:1015C00000BEFF0E066E000E062205C000F006C02B
:1015D00001F0000E06BEFF0E026E036E0036009094
:1015E00001360236033600360090013602360336E5
:1015F000C40E0024F66E510E0120F76E000E02207C
:10160000F86E0900F5CF8EF00900F5CF8FF00900D4
:10161000F5CF90F00900F5CF91F0640E046E8DC007
:1016200000F05BEC03F008C000F00A0E046E5BEC07
:1016300003F0090E0024056E000E00BEFF0E066EBC
:10164000000E062205C000F006C001F0000E06BE26
:10165000FF0E026E036E003600900136023603362E
:1016600000360090013602360336C40E0024F66EB2
:10167000510E0120F76E000E0220F86E0900F5CF22
:1016800000F00900F5CF01F00900F5CF02F00900E4
:10169000F5CF03F08EC004F08FC005F090C006F0C7
:1016A00091C007F0DAEC03F000C08EF001C08FF0BB
:1016B00002C090F003C091F00A0E046E8DC000F0DD
:1016C0005BEC03F008C000F000C001F0000E00BEAB
:1016D000FF0E026E036E046E013601900236033671
:1016E000043601360190023603360436C40E012456
:1016F000F66E510E0220F76E000E0320F86E090000
:10170000F5CF00F00900F5CF01F00900F5CF02F0A8
:101710000900F5CF03F08EC004F08FC005F090C033
:1017200006F091C007F0DAEC03F007D2800E0A0A47
:10173000006E800E8D19005C71E20A0E046E8DC081
:1017400000F05BEC03F0090E0024056E000E00BEF5
:10175000FF0E066E000E062205C000F006C001F066
:10176000000E06BEFF0E026E036E003600900136BC
:101770000236033600360090013602360336C40EB8
:101780000024F66E510E0120F76E000E0220F86E56
:101790000900F5CF8EF00900F5CF8FF00900F5CFE5
:1017A00090F00900F5CF91F00A0E046E8DC000F0A4
:1017B0005BEC03F008C000F000C001F0000E00BEBA
:1017C000FF0E026E036E046E013601900236033680
:1017D000043601360190023603360436C40E012465
:1017E000F66E510E0220F76E000E0320F86E09000F
:1017F000F5CF00F00900F5CF01F00900F5CF02F0B8
:101800000900F5CF03F08EC004F08FC005F090C042
:1018100006F091C007F0DAEC03F08FD18DC000F034
:10182000000E8DBFFF0E016E026E036E003600903B
:101830000136023603360036009001360236033692
:10184000C40E0024F66E510E0120F76E000E022029
:10185000F86E0900F5CF00F00900F5CF01F009009E
:10186000F5CF02F00900F5CF03F067D1800E8D1996
:10187000006E800E6E0A005CD8A0C0D0640E046EAC
:101880008DC000F05BEC03F0120E0024056E000E1C
:1018900000BEFF0E066E000E062205C000F006C058
:1018A00001F0000E06BEFF0E026E036E00360090C1
:1018B0000136023603360036009001360236033612
:1018C000900E0024F66E510E0120F76E000E0220DD
:1018D000F86E0900F5CF8EF00900F5CF8FF0090002
:1018E000F5CF90F00900F5CF91F0640E046E8DC035
:1018F00000F05BEC03F008C000F00A0E046E5BEC35
:1019000003F0090E0024056E000E00BEFF0E066EE9
:10191000000E062205C000F006C001F0000E06BE53
:10192000FF0E026E036E003600900136023603365B
:1019300000360090013602360336900E0024F66E13
:10194000510E0120F76E000E0220F86E0900F5CF4F
:1019500000F00900F5CF01F00900F5CF02F0090011
:10196000F5CF03F08EC004F08FC005F090C006F0F4
:1019700091C007F0DAEC03F000C08EF001C08FF0E8
:1019800002C090F003C091F00A0E046E8DC000F00A
:101990005BEC03F008C000F000C001F0000E00BED8
:1019A000FF0E026E036E046E01360190023603369E
:1019B000043601360190023603360436900E0124B7
:1019C000F66E510E0220F76E000E0320F86E09002D
:1019D000F5CF00F00900F5CF01F00900F5CF02F0D6
:1019E0000900F5CF03F08EC004F08FC005F090C061
:1019F00006F091C007F0DAEC03F09FD0800E0A0ADF
:101A0000006E800E8D19005C71E20A0E046E8DC0AE
:101A100000F05BEC03F0090E0024056E000E00BE22
:101A2000FF0E066E000E062205C000F006C001F093
:101A3000000E06BEFF0E026E036E003600900136E9
:101A40000236033600360090013602360336900E19
:101A50000024F66E510E0120F76E000E0220F86E83
:101A60000900F5CF8EF00900F5CF8FF00900F5CF12
:101A700090F00900F5CF91F00A0E046E8DC000F0D1
:101A80005BEC03F008C000F000C001F0000E00BEE7
:101A9000FF0E026E036E046E0136019002360336AD
:101AA000043601360190023603360436900E0124C6
:101AB000F66E510E0220F76E000E0320F86E09003C
:101AC000F5CF00F00900F5CF01F00900F5CF02F0E5
:101AD0000900F5CF03F08EC004F08FC005F090C070
:101AE00006F091C007F0DAEC03F027D08DC000F0CB
:101AF000000E8DBFFF0E016E026E036E0036009069
:101B000001360236033600360090013602360336BF
:101B1000900E0024F66E510E0120F76E000E02208A
:101B2000F86E0900F5CF00F00900F5CF01F00900CB
:0C1B3000F5CF02F00900F5CF03F0120021
:101B3C00086A096A100E0C6E013408360936045016
:101B4C00085E0550D8A0053C095ED8B007D00450FB
:101B5C0008260550D8B0053C0926D8900036013629
:061B6C000C2EEAD7120066
:101B720040A461D040A213D040A003D02D0E036E2A
:101B820002D02B0E036E8DC0E1FF8EC0E2FF03C0B8
:101B9200E6FF00018D4B8E2B3E4A3F2A36D040A0F5
:101BA2000CD000018DC0E1FF8EC0E2FF200EE66E78
:101BB2008D4B8E2B3E4A3F2A28D0C00E4014016E18
:101BC2004150080B026E0250080A02E1800E011811
:101BD2001CE100018DC0E1FF8EC0E2FF300EE66E17
:101BE2008D4B8E2B3E4A3F2A40AA03D0580E046EDC
:101BF20002D0780E046E8DC0E1FF8EC0E2FF04C0F9
:101C0200E6FF8D4B8E2B3E4A3F2A3A503B1012E0A4
:101C120000018DC0E1FF8EC0E2FF300EE66E8D4BFB
:101C22008E2B3E4A3F2A010E3A5E000E3B5A3A5034
:101C32003B10EEE179D03A503B1014E040B612D09E
:101C420000018DC0E1FF8EC0E2FF200EE66E8D4BDB
:101C52008E2B3E4A3F2A010E3A5E000E3B5A3A5004
:101C62003B10EEE140A213D040A003D02D0E056E32
:101C720002D02B0E056E00018DC0E1FF8EC0E2FF87
:101C820005C0E6FF8D4B8E2B3E4A3F2A0DD040A069
:101C92000BD000018DC0E1FF8EC0E2FF200EE66E88
:101CA2008D4B8E2B3E4A3F2AC00E4014016E41508E
:101CB200080B026E0250080A02E1400E01180CE104
:101CC20000018DC0E1FF8EC0E2FF300EE66E8D4B4B
:101CD2008E2B3E4A3F2A28D0C00E4014016E41503E
:101CE200080B026E0250080A02E1800E01181CE184
:101CF20000018DC0E1FF8EC0E2FF300EE66E8D4B1B
:101D02008E2B3E4A3F2A40AA03D0580E066E02D0BE
:101D1200780E066E8DC0E1FF8EC0E2FF06C0E6FFC0
:101D22008D4B8E2B3E4A3F2A800E006E800E3D1850
:101D3200005C02E13C50395C0CE200018DC0E1FF25
:101D42008EC0E2FF300EE66E8D4B8E2B3E4A3F2A4E
:0C1D5200EBD78DC000F08EC001F0120035
:101D5E000A6A0350D8A40A800750D8A40A820A50EF
:101D6E00D8B412EF0FF0030AD8B4CBEF0EF00AB0CE
:101D7E00C6EF0EF006AE10EF0FF00EEF0FF002AE44
:101D8E000EEF0FF010EF0FF00250800B0A6E029E56
:101D9E000650800B069E0A18D8B4DCEF0EF00A50DF
:101DAE00D8B40EEF0FF010EF0FF00750035CD8B45D
:101DBE00E6EF0EF0D8A002EF0FF008EF0FF006508E
:101DCE00025CD8B4F0EF0EF0D8A002EF0FF008EFDF
:101DDE000FF00550015CD8B4FAEF0EF0D8A002EF68
:101DEE000FF008EF0FF00450005CD8B412EF0FF0B4
:101DFE00D8B008EF0FF00A52D8B410EF0FF00EEF74
:101E0E000FF00A52D8B40EEF0FF010EF0FF0D8808B
:0E1E1E001200D8901200D880D8841200120052
:0C1E2C000E0E0D6E0D2EFED700001200F1
:101E38000050086E0150006E0250016E0350026E91
:101E4800036A0B6A0C6A9E0E036E0A6A020E0C6E17
:061E580032EC00F0120064
:081E5E00067E23EC01F01200E6
:101E66000B6A0C6A0A6A086A0350D8B4BBEF0FF013
:101E7600028E9E0E035E03BE46EF0FF0D8B446EF09
:101E86000FF0ABEF0FF0036C080E035CD8A078EFF1
:101E96000FF0036E083600C008F001C000F002C063
:101EA60001F0026A080E035CD8A078EF0FF0036E0B
:101EB600083600C008F001C000F0016A080E035C95
:101EC600D8A078EF0FF0036E083600C008F0006A5D
:101ED600080E035CD8A078EF0FF0036E0836086A88
:101EE6000350D8A4D89084EF0FF00350D8B484EFF1
:101EF6000FF0D8900232013200320832032E7CEF06
:101F06000FF00BBC08A095EF0FF0D8A095EF0FF0DF
:101F1600082AD8B4002AD8B4012AD8B4022A02BEA4
:101F2600BFEF0FF00AAEBBEF0FF0021E011E001E40
:101F3600081E082AD8B4002AD8B4012AD8B4022A1E
:101F4600BBEF0FF0026A016A006A086ABBEF0FF086
:101F56000B800BAEC5EF0FF0026A0AAEC5EF0FF0AD
:101F6600026E016E006E086E0A360232C5EF0FF081
:101F7600000E0C6AC6EF0FF0010E0C6E4DEC03F06E
:101F8600C6EF0FF0FF0E0250036E0150026E0050B6
:081F9600016E0850006E1200FC
:101F9E000450000A12E10550000A0FE10650000A33
:101FAE000CE10750000A09E1FF0E006EFF0E016EF4
:101FBE007F0E026EFF0E036EA8D0086A096A0750E4
:101FCE00D8B47AEF10F00350D8B47FEF10F002506F
:101FDE0006180A6E028E068E0E6A02C008F001C046
:101FEE000CF000C00DF004500D5E0550D8A0053C5D
:101FFE000C5E0650D8A0063C085E086A0C6A0D6A94
:10200E00D8A011EF10F0D89002320132003208320F
:10201E00010E0E6E0750035ED8A01EEF10F07E0E5E
:10202E000E240326D8B084EF10F024EF10F07E0EAD
:10203E000E240326D8A089EF10F0180E0B6E0D3665
:10204E000C3608360036013602360E360450005E67
:10205E000550D8A0053C015E0650D8A0063C025E95
:10206E0006340E120EA03FEF10F00D804AEF10F066
:10207E00045000260550D8B0053C01260650D8B0B5
:10208E00062802260D900B2E26EF10F070EF10F0A2
:10209E00D8900036013602360E360450005E0550DA
:1020AE00D8A0053C015E0650D8A0063C025E063460
:1020BE000E10010B0D26D8B00C2AD8B4082AD8A4BD
:1020CE0070EF10F008320C320D32032AD8B484EFC0
:1020DE0010F00AAE089E0850026E0C50016E0D50A4
:1020EE00006E8CEF10F0010ED6EC03F08CEF10F0BA
:1020FE00020E1AEC00F08CEF10F0040E0EEC00F055
:0C210E008CEF10F0080E21EC00F0120025
:10211A000B6A0A6A096A00500402F4CF09F0F3CF85
:10212A0008F001500502F4CF0BF0F3CF0AF000508B
:10213A000502F3500926F4500A22E86A0B220150DC
:10214A000402F3500926F4500A22E86A0B2208C056
:10215A0000F009C001F00AC002F00BC003F012003F
:10216A000450000A12E10550000A0FE10650000A65
:10217A000CE10750000A09E1FF0E006EFF0E016E26
:10218A00FF0E026E7F0E036E99D00C6A07BE0C2AF0
:10219A000D6A0B6A0A6A096A086A0350021001107A
:1021AA000010D8B485D0035007180E6E0EBE0D1E4F
:1021BA0007AE0BD0041E051E061E071E042AD8B43D
:1021CA00052AD8B4062AD8B4072A03AE0BD0001EB3
:1021DA00011E021E031E002AD8B4012AD8B4022AFC
:1021EA00D8B4032A035007100E6E0EBE1DD075EC2C
:1021FA0004F00CBE36D00DAE5BD0001E011E021ECE
:10220A00031E002AD8B4012AD8B4022AD8B4032A51
:10221A00081E091E0A1E0B1E082AD8B4092AD8B499
:10222A000A2AD8B40B2A44D007AE15D003BE0DD063
:10223A0003500B6E02500A6E0150096E0050086E70
:10224A00036A026A016A006AD6D7036A026A016AE5
:10225A00006A002A000C031E021E011E001E0C8EBC
:10226A00C6D7082AD8B4092AD8B40A2AD8B40B2A55
:10227A000450085CD8A4BFD70550095CD8A4BBD7C2
:10228A0006500A5CD8A4B7D707500B5CD8A4B3D7BA
:10229A000B6A0A6A096A086A002AD8B4012AD8B4F9
:1022AA00022AD8B4032A03AEA6D70E6A0E88FF0CF8
:0E22BA000E6A0CA002D013EC06F0000F12000A
:1022C8000001856B866B796B7A6B67C000F068C01C
:1022D80001F069C002F0010E6727000E6823692328
:1022E80000C0F6FF01C0F7FF02C0F8FF0900F5CFF4
:1022F80000F000C076F00052D8B470EF21F07651AB
:10230800250A0BE065C0E1FF66C0E2FF76C0E6FF84
:10231800654B662B854B862BD8D7776B786B796B9B
:102328007A6B23D07987010E6727000E682369230B
:1023380059D07981010E6727000E6823692352D08E
:102348007983010E6727000E682369234BD07A87AB
:10235800010E6727000E6823692344D07985010E92
:102368006727000E682369233DD067C0F6FF68C061
:10237800F7FF69C0F8FF0900F5CF01F001502D0AF9
:10238800D1E067C0F6FF68C0F7FF69C0F8FF090031
:10239800F5CF01F00150200ACCE067C0F6FF68C015
:1023A800F7FF69C0F8FF0900F5CF01F001502B0ACB
:1023B800C7E067C0F6FF68C0F7FF69C0F8FF09000B
:1023C800F5CF01F00150230AC2E067C0F6FF68C0EC
:1023D800F7FF69C0F8FF0900F5CF01F00150300A96
:1023E800BDE001D09ED779A301D0799179A701D01A
:1023F800799567C0F6FF68C0F7FF69C0F8FF090064
:10240800F5CF00F0000E016E00C08DF039EC0AF037
:10241800005235E0776B786B77C000F078C001F038
:102428000A0E046E000E056E74DE67C0F6FF68C003
:10243800F7FF69C0F8FF0900F5CF02F00250002449
:10244800776F000E0120786F300E775F000E785B93
:10245800010E6727000E6823692367C0F6FF68C06E
:10246800F7FF69C0F8FF0900F5CF00F0000E016E14
:1024780000C08DF039EC0AF00052CEE133D067C0CD
:10248800F6FF68C0F7FF69C0F8FF0900F5CF01F053
:1024980001502A0A27E16AC0E9FF6BC0EAFFEECFC4
:1024A80000F0EECF01F000C0E9FF01C0EAFFEECF77
:1024B80077F0EECF78F06AC0E9FF6BC0EAFF020E52
:1024C800EE24006E000EEE20016E6AC0E1FF6BC0C4
:1024D800E2FF00C0E6FF01C0E6FF010E6727000E1D
:1024E8006823692367C0F6FF68C0F7FF69C0F8FF73
:1024F8000900F5CF01F001502E0A6FE1010E6727A0
:10250800000E6823692367C0F6FF68C0F7FF69C03B
:10251800F8FF0900F5CF01F001502A0A28E16AC046
:10252800E9FF6BC0EAFFEECF00F0EECF01F000C08C
:10253800E9FF01C0EAFFEECF74F0EECF75F06AC094
:10254800E9FF6BC0EAFF020EEE24006E000EEE20DB
:10255800016E6AC0E1FF6BC0E2FF00C0E6FF01C088
:10256800E6FF010E6727000E6823692335D0746BD8
:10257800756B67C0F6FF68C0F7FF69C0F8FF090010
:10258800F5CF00F0000E016E00C08DF039EC0AF0B6
:10259800005222E074C000F075C001F00A0E046E0B
:1025A800000E056EB6DD67C0F6FF68C0F7FF69C0AC
:1025B800F8FF0900F5CF02F002500024746F000EF6
:1025C8000120756F300E745F000E755B010E672772
:1025D800000E68236923CDD703D0746B756B7A8995
:1025E80067C000F068C001F069C002F0010E6727FB
:1025F800000E6823692300C0F6FF01C0F7FF02C080
:10260800F8FF0900F5CF76F0F9D085C000F086C054
:1026180001F074EF21F07989E3D77A852ED1798B8F
:102628007A812BD17A8329D1798D27D126D1798BBB
:10263800798F23D16AC0E9FF6BC0EAFFEECF00F0C3
:10264800EECF01F000C0E9FF01C0EAFFEECF81F054
:10265800EECF82F06AC0E9FF6BC0EAFF020EEE24FB
:10266800006E000EEE20016E6AC0E1FF6BC0E2FF53
:1026780000C0E6FF01C0E6FF000E821902E1000E6D
:10268800811904E1150E816F000E826F836B846BD4
:1026980083518125E96E84518221EA6EEE520BE066
:1026A800010E8325006E000E8421016E00C083F0A8
:1026B80001C084F0EDD7745175110AE08451755D3D
:1026C80002E18351745D04E274C083F075C084F044
:1026D8007851845D02E17751835D05E28351775F2C
:1026E8008451785B02D0776B786B79B716D077C056
:1026F80000F078C001F0010E775F000E785B0050A3
:1027080001100BE065C0E1FF66C0E2FF200EE66E37
:10271800654B662B854B862BEAD783C002F084C0B5
:1027280003F0010E835D006E000E8459016E00C037
:1027380083F001C084F00250031019E081C0E9FF62
:1027480082C0EAFF65C0E1FF66C0E2FFEECFE6FFA8
:10275800654B662B010E8125006E000E8221016EED
:1027680000C081F001C082F0854B862BD6D779A7AF
:1027780016D077C000F078C001F0010E775F000E28
:10278800785B005001100BE065C0E1FF66C0E2FF16
:10279800200EE66E654B662B854B862BEAD795D5C2
:1027A8006AC0E9FF6BC0EAFFEECF00F0EECF01F0A0
:1027B80000C0E9FF01C0EAFFEECF76F06AC0E9FF8A
:1027C8006BC0EAFF020EEE24006E000EEE20016ED2
:1027D8006AC0E1FF6BC0E2FF00C0E6FF01C0E6FF90
:1027E800760E816F000E826F010E836F000E846F6C
:1027F80062D7C00E7913000E7A133FD07651000AC3
:10280800D8B403D776516C0AD8B405D776514C0A98
:10281800D8B401D77651660AD8B4FFD67651450A9E
:10282800D8B4FDD67651650AD8B4FAD67651670A77
:10283800D8B4F8D676516F0AD8B4F6D67651640A69
:10284800D8B4F4D67651690AD8B4F0D67651700A5D
:10285800D8B4EDD67651580AD8B4E9D67651780A64
:10286800D8B4E6D67651730AD8B4E4D67651630A5A
:1028780097E07651750ABDE0B3D7000E7915006E62
:102888007A51070B016E00500110D8B417EF1DF0F4
:102898007AA904D0060E746F000E756F6AC0E9FF3E
:1028A8006BC0EAFFEECF00F0EECF01F000C0E9FF09
:1028B80001C0EAFFEECF7BF0EECF7CF0EECF7DF0EB
:1028C800EECF7EF06AC0E9FF6BC0EAFF040EEE248B
:1028D800006E000EEE20016E6AC0E1FF6BC0E2FFE1
:1028E80000C0E6FF01C0E6FF046A056A066A076AD7
:1028F8007BC000F07CC001F07DC002F07EC003F018
:10290800AFEC0EF0010ED8B0000E006E005205E0DC
:102918007D7F030E7913000E7A137F6B806B7BC06B
:1029280000F07CC001F07DC002F07EC003F0046AB4
:10293800056A066A076A45EC0AF0000ED8A4010E7B
:10294800006E0052D8B48AD07EC000F0016A026AD4
:10295800036AFF0E0016000E01167E0E005E000EC2
:10296800015A00C07FF001C080F0010E005E000E29
:10297800015A00C07FF001C080F0030E046E000E03
:10298800056E8DEC10F000C07FF001C080F00A0EDB
:10299800046E000E056E5CEC0AF000C07FF001C00A
:1029A80080F0800E0118026E800E025C02E1000EBB
:1029B800005C05E2010E00017F5F000E805B0001F4
:1029C8007F5100088D6FC0EC0AF07BC004F07CC01A
:1029D80005F07DC006F07EC007F0DAEC03F000C019
:1029E80081F001C082F002C083F003C084F0000EC1
:1029F800046E000E056E000E066E7F0E076E81C017
:102A080000F082C001F083C002F084C003F0AFEC94
:102A18000EF0010ED8B0000E006E005205E0010E57
:102A28007F5F000E805B1AD0000E046E000E056EEC
:102A3800200E066E820E076E81C000F082C001F083
:102A480083C002F084C003F0AFEC0EF0000ED8B0E3
:102A5800010E006E005202E07F4B802B800E006E4C
:102A6800800E8019005C02E17F51000803E3010E2B
:102A7800766F02D07FC076F07AB118D07AA315D0DD
:102A8800800E8019006E7F0E005C02E1FC0E7F5DF7
:102A98000BE3800E8019006E800E7519005C02E150
:102AA80074517F5D01E201D001D0EFD374517511EB
:102AB80006E07AA304D0010E745F000E755B7551B1
:102AC800000802E17451080803E2080E766F02D08C
:102AD80074C076F07BC000F07CC001F07DC002F0CD
:102AE8007EC003F0046A056A066A076A45EC0AF0C4
:102AF800000ED8A4010E006E0052D8B44BD17FC08E
:102B08008DF0C0EC0AF000C004F001C005F002C06E
:102B180006F003C007F07BC000F07CC001F07DC068
:102B280002F07EC003F0CFEC0FF000C07BF001C0D4
:102B38007CF002C07DF003C07EF0000176510008F1
:102B48008D6FC0EC0AF000C004F001C005F002C0AF
:102B580006F003C007F07BC000F07CC001F07DC028
:102B680002F07EC003F0CFEC0FF000C087F001C088
:102B780088F002C089F003C08AF087C07BF088C063
:102B88007CF089C07DF08AC07EF087C000F088C0E4
:102B980001F089C002F08AC003F033EC0FF01CEC9E
:102BA8000FF000C004F001C005F002C006F003C039
:102BB80007F087C000F088C001F089C002F08AC021
:102BC80003F02FEC0FF0000E046E000E056E000EE1
:102BD800066E7E0E076EAFEC0EF0000ED8B0010E3A
:102BE800006E00521AE07BC000F07CC001F07DC08E
:102BF80002F07EC003F0000E046E000E056E000E9B
:102C0800066E7E0E076E23EC01F000C07BF001C05B
:102C18007CF002C07DF003C07EF07BC000F07CC079
:102C280001F07DC002F07EC003F033EC0FF000012C
:102C38007651010F096E0A6A000E0A2209C004F0D3
:102C48000AC005F0000E0ABEFF0E066E076E0436B7
:102C580004900536063607360436049005360636DF
:102C68000736280E0424F66E520E0520F76E000E65
:102C78000620F86E0900F5CF05F00900F5CF06F03B
:102C88000900F5CF07F00900F5CF08F00850035CFC
:102C980008E10750025C05E10650015C02E10550BD
:102CA800005C1EE300017BC000F07CC001F07DC029
:102CB80002F07EC003F0CD0E046ECC0E056E4C0EF5
:102CC800066E7B0E076EDAEC03F000C07BF001C0E5
:102CD8007CF002C07DF003C07EF07F4B802B5AD081
:102CE8007BC000F07CC001F07DC002F07EC003F024
:102CF80033EC0FF076C004F0000E056E066E076E1A
:102D08000436049005360636073604360490053630
:102D180006360736280E0424F66E520E0520F76E86
:102D2800000E0620F86E0900F5CF05F00900F5CF72
:102D380006F00900F5CF07F00900F5CF08F00850B4
:102D4800035C08E10750025C05E10650015C02E102
:102D58000550005C1FE200017BC000F07CC001F060
:102D68007DC002F07EC003F0000E046E000E056EFA
:102D7800200E066E820E076EDAEC03F000C07BF0C0
:102D880001C07CF002C07DF003C07EF0010E7F5FC1
:102D9800000E805B00017AA393D07AB791D0800EA1
:102DA800000A006E800E7519005C02E174510A0871
:102DB80004E20A0E746F000E756F7BC000F07CC0D1
:102DC80001F07DC002F07EC003F033EC0FF000C0CC
:102DD80081F001C082F002C083F003C084F0815109
:102DE80082118311841142E00A0E046E000E056EF2
:102DF800066E076E81C000F082C001F083C002F049
:102E080084C003F042EC07F008C000F009C001F0EC
:102E18000AC002F00BC003F0000E046E031808E1AC
:102E28000450021805E10450011802E10050000A9C
:102E38001DE1010E745F000E755B0A0E046E000E34
:102E4800056E066E076E81C000F082C001F083C077
:102E580002F084C003F042EC07F000C081F001C02A
:102E680082F002C083F003C084F0B9D7800E7519D0
:102E7800006E800E005C02E17651745D21E27451AF
:102E8800765D8D6FC0EC0AF000C004F001C005F05B
:102E980002C006F003C007F07BC000F07CC001F060
:102EA8007DC002F07EC003F0CFEC0FF000C07BF0D5
:102EB80001C07CF002C07DF003C07EF074C076F0E3
:102EC800050E00017425006E000E7521016E00507C
:102ED800775F0150785B7451751103E17AB701D0BF
:102EE80004D0010E775F000E785B030E7915006E33
:102EF8007AC001F0000E01160050011004E0010E26
:102F0800775F000E785B79A539D079A312D079A1C3
:102F180003D02D0E6C6F02D02B0E6C6F65C0E1FFD5
:102F280066C0E2FF6CC0E6FF654B662B854B862BBF
:102F38000CD079A10AD065C0E1FF66C0E2FF200E7F
:102F4800E66E654B662B854B862B800E006E800ED9
:102F58007819005C02E1775100080FE265C0E1FFD3
:102F680066C0E2FF300EE66E654B662B854B862BFE
:102F7800010E775F000E785BE8D73AD079B718D0A2
:102F8800800E006E800E7819005C02E1775100080F
:102F98000FE265C0E1FF66C0E2FF200EE66E654BFA
:102FA800662B854B862B010E775F000E785BE8D782
:102FB80079A312D079A103D02D0E6D6F02D02B0EFC
:102FC8006D6F65C0E1FF66C0E2FF6DC0E6FF654B4F
:102FD800662B854B862B0CD079A10AD065C0E1FF02
:102FE80066C0E2FF200EE66E654B662B854B862B8E
:102FF8007BC000F07CC001F07DC002F07EC003F011
:1030080033EC0FF000C081F001C082F002C083F001
:1030180003C084F076C000F0000E016E026E036EED
:10302800003600900136023603360036009001362D
:1030380002360336280E0024F66E520E0120F76E73
:10304800000E0220F86E0900F5CF04F00900F5CF54
:1030580005F00900F5CF06F00900F5CF07F081C0AB
:1030680000F082C001F083C002F084C003F042EC9B
:1030780007F0300E002665C0E1FF66C0E2FF00C021
:10308800E6FF654B662B854B862B7451751103E162
:103098007AB701D06FD065C0E1FF66C0E2FF2E0E9F
:1030A800E66E654B662B854B862B7651745F000E5A
:1030B800755B76534DE0760776C000F0000E016E22
:1030C800026E036E00360090013602360336003673
:1030D8000090013602360336280E0024F66E520E92
:1030E8000120F76E000E0220F86E0900F5CF04F0FB
:1030F8000900F5CF05F00900F5CF06F00900F5CF76
:1031080007F081C000F082C001F083C002F084C0E3
:1031180003F042EC07F00A0E046E000E056E066E10
:10312800076E42EC07F008C000F009C001F00AC0C1
:1031380002F00BC003F0300E002665C0E1FF66C048
:10314800E2FF00C0E6FF654B662B854B862BB1D7A7
:10315800745175110FE065C0E1FF66C0E2FF300EE3
:10316800E66E654B662B854B862B010E745F000E51
:10317800755BEED779AB0BD065C0E1FF66C0E2FFA7
:10318800450EE66E654B662B854B862B0AD065C0CF
:10319800E1FF66C0E2FF650EE66E654B662B854B68
:1031A800862B800E8019006E800E005C02E1000EF6
:1031B8007F5D11E27F5100087F6F8051000E8057BC
:1031C80065C0E1FF66C0E2FF2D0EE66E654B662B1B
:1031D800854B862B0AD065C0E1FF66C0E2FF2B0E47
:1031E800E66E654B662B854B862B0A0E046E000E29
:1031F800056E7FC000F080C001F05CEC0AF0300E74
:10320800002665C0E1FF66C0E2FF00C0E6FF0001DE
:10321800654B662B854B862B0A0E046E000E056ED9
:103228007FC000F080C001F05CEC0AF008C000F03C
:1032380009C001F0300E002665C0E1FF66C0E2FF5C
:1032480000C0E6FF0001654B662B854B862B79A7EE
:103258001AD0800E006E800E7819005C02E177515A
:10326800000811E265C0E1FF66C0E2FF200EE66ECD
:10327800654B662B854B862B010E775F000E785BBE
:1032880077517811EFE169EF11F07AA3F3D0800E4E
:103298008019006E800E005C02E1000E7F5D0AE27C
:1032A800010E7F5D006E000E8059016E0050745F44
:1032B8000150755B7BC000F07CC001F07DC002F05E
:1032C8007EC003F033EC0FF000C081F001C082F043
:1032D80002C083F003C084F0010E766F76510A0AAB
:1032E80034E076C000F0000E016E026E036E003608
:1032F8000090013602360336003600900136023659
:103308000336280E0024F66E520E0120F76E000ECA
:103318000220F86E0900F5CF01F00900F5CF02F0A0
:103328000900F5CF03F00900F5CF04F00450845DDF
:1033380008E10350835D05E10250825D02E101501E
:10334800815D01E202D0762BC9D77651745D8B6F0F
:10335800000E75598C6F8BC074F08CC075F081C0ED
:1033680000F082C001F083C002F084C003F01CECBE
:103378000FF000C004F001C005F002C006F003C061
:1033880007F07BC000F07CC001F07DC002F07EC079
:1033980003F02FEC0FF000C087F001C088F002C0E6
:1033A80089F003C08AF08BC08DF0C0EC0AF087C0AA
:1033B80004F088C005F089C006F08AC007F0DAEC8E
:1033C80003F0000E046E000E056E000E066E7E0EF3
:1033D800076E23EC01F033EC0FF000C081F001C060
:1033E80082F002C083F003C084F07451751142E08A
:1033F8000A0E046E000E056E066E076E81C000F0A0
:1034080082C001F083C002F084C003F042EC07F0F0
:1034180008C000F009C001F00AC002F00BC003F0B8
:10342800000E046E031808E10450021805E1045068
:10343800011802E10050000A1DE10A0E046E000E98
:10344800056E066E076E81C000F082C001F083C071
:1034580002F084C003F042EC07F000C081F001C024
:1034680082F002C083F003C084F0010E745F000E86
:10347800755BBBD7800E006E800E7519005C02E18B
:1034880074510C0816E374C08DF0B8EC08F07BC0DA
:1034980004F07CC005F07DC006F07EC007F023EC88
:1034A80001F000C07BF001C07CF002C07DF003C0D9
:1034B8007EF07BC000F07CC001F07DC002F07EC0D1
:1034C80003F0046A056A066A076A45EC0AF0000E0A
:1034D800D8A4010E006E0052D8B477D07BC000F09B
:1034E8007CC001F07DC002F07EC003F033EC0FF029
:1034F800000E046E031808E10450021805E1045098
:10350800011802E10050000A60E1800E006E800E92
:103518008019005C02E17F51010857E27FC08DF0FD
:10352800C0EC0AF000C004F001C005F002C006F0CB
:1035380003C007F07BC000F07CC001F07DC002F042
:103548007EC003F0CFEC0FF05F0E046E700E056EB8
:10355800090E066E810E076EAFEC0EF0010ED8B0A4
:10356800000E006E005206E0090E00017F5F000E9B
:10357800805B05D00001080E7F5F000E805B7FC076
:103588008DF0C0EC0AF000C004F001C005F002C0E4
:1035980006F003C007F07BC000F07CC001F07DC0DE
:1035A80002F07EC003F0CFEC0FF033EC0FF000C058
:1035B80081F001C082F002C083F003C084F00001F2
:1035C8007B6B7C6B7D6B7E6B38D07BC000F07CC0E6
:1035D80001F07DC002F07EC003F033EC0FF000C0B4
:1035E80081F001C082F002C083F003C084F081C082
:1035F80000F082C001F083C002F084C003F01CEC2C
:103608000FF000C004F001C005F002C006F003C0CE
:1036180007F07BC000F07CC001F07DC002F07EC0E6
:1036280003F02FEC0FF000C07BF001C07CF002C06B
:103638007DF003C07EF07F6B806B010E766F765154
:103648000A0A34E076C000F0000E016E026E036EC6
:1036580000360090013602360336003600900136F7
:1036680002360336280E0024F66E520E0120F76E3D
:10367800000E0220F86E0900F5CF01F00900F5CF21
:1036880002F00900F5CF03F00900F5CF04F004506B
:10369800845D08E10350835D05E10250825D02E12B
:1036A8000150815D01E202D0762BC9D7765174258D
:1036B800006E000E7521016E7F5100268051012297
:1036C8000050775F0150785B7AB704D07451751158
:1036D80001E104D0010E775F000E785B030E7915C7
:1036E800006E7AC001F0000E01160050011004E0CF
:1036F800010E775F000E785B79A539D079A312D0D7
:1037080079A103D02D0E6E6F02D02B0E6E6F65C09F
:10371800E1FF66C0E2FF6EC0E6FF654B662B854B96
:10372800862B0CD079A10AD065C0E1FF66C0E2FF04
:10373800200EE66E654B662B854B862B800E006E41
:10374800800E7819005C02E1775100080FE265C02D
:10375800E1FF66C0E2FF300EE66E654B662B854BD7
:10376800862B010E775F000E785BE8D73AD079B7E1
:1037780018D0800E006E800E7819005C02E1775137
:1037880000080FE265C0E1FF66C0E2FF200EE66EAA
:10379800654B662B854B862B010E775F000E785B99
:1037A800E8D779A312D079A103D02D0E6F6F02D07C
:1037B8002B0E6F6F65C0E1FF66C0E2FF6FC0E6FFCA
:1037C800654B662B854B862B0CD079A10AD065C03A
:1037D800E1FF66C0E2FF200EE66E654B662B854B67
:1037E800862B76C000F0760700524CE076C000F0D9
:1037F800000E016E026E036E00360090013602362E
:10380800033600360090013602360336280E0024AF
:10381800F66E520E0120F76E000E0220F86E0900B7
:10382800F5CF04F00900F5CF05F00900F5CF06F053
:103838000900F5CF07F081C000F082C001F083C015
:1038480002F084C003F042EC07F00A0E046E000E8A
:10385800056E066E076E42EC07F008C000F009C05E
:1038680001F00AC002F00BC003F0300E002665C05C
:10387800E1FF66C0E2FF00C0E6FF654B662B854BA3
:10388800862BAFD7800E006E800E8019005C02E197
:103898007F5100080FE265C0E1FF66C0E2FF300E0D
:1038A800E66E654B662B854B862B010E7F5F000EFF
:1038B800805BE8D7800E000A006E800E7519005CE8
:1038C80002E17451080803E2080E766F02D074C052
:1038D80076F07651745F000E755B765303E17AB724
:1038E80001D00AD065C0E1FF66C0E2FF2E0EE66E89
:1038F800654B662B854B862B76C08DF0C0EC0AF0A5
:103908007BC004F07CC005F07DC006F07EC007F0E7
:10391800DAEC03F01FEC06F000C081F001C082F081
:1039280002C083F003C084F076534DE0760776C07A
:1039380000F0000E016E026E036E00360090013634
:103948000236033600360090013602360336280E5A
:103958000024F66E520E0120F76E000E0220F86E5B
:103968000900F5CF04F00900F5CF05F00900F5CFFF
:1039780006F00900F5CF07F081C000F082C001F021
:1039880083C002F084C003F042EC07F00A0E046E14
:10399800000E056E066E076E42EC07F008C000F0D8
:1039A80009C001F00AC002F00BC003F0300E002677
:1039B80065C0E1FF66C0E2FF00C0E6FF654B662B0D
:1039C800854B862BB1D7745175110FE065C0E1FFA7
:1039D80066C0E2FF300EE66E654B662B854B862B84
:1039E800010E745F000E755BEED779A71AD0800EB2
:1039F800006E800E7819005C02E17751000811E230
:103A080065C0E1FF66C0E2FF200EE66E654B662BDF
:103A1800854B862B010E775F000E785B7751781106
:103A2800EFE169EF11F0C00E7915016E7AC002F06E
:103A3800000E0216000E021802E1000E0118D8A4AA
:103A480080D079A927D06AC0E9FF6BC0EAFFEECF22
:103A580000F0EECF01F000C0E9FF01C0EAFFEECFB1
:103A680081F0EECF82F0EECF83F0EECF84F06AC023
:103A7800E9FF6BC0EAFF040EEE24006E000EEE2094
:103A8800016E6AC0E1FF6BC0E2FF00C0E6FF01C043
:103A9800E6FF2FD06AC0E9FF6BC0EAFFEECF00F067
:103AA800EECF01F000C0E9FF01C0EAFFEECF00F061
:103AB800EECF01F0000E01BEFF0E026E036E00C0D5
:103AC80081F001C082F002C083F003C084F06AC0B4
:103AD800E9FF6BC0EAFF020EEE24006E000EEE2036
:103AE800016E6AC0E1FF6BC0E2FF00C0E6FF01C0E3
:103AF800E6FF800E8419006E800E005C08E1000E5F
:103B0800835D05E1000E825D02E1000E815D18E231
:103B1800030E7913000E7A13006A016A026A036AB7
:103B28008151005E8251015A8351025A8451035ACD
:103B380000C081F001C082F002C083F003C084F0AD
:103B48004ED079A927D06AC0E9FF6BC0EAFFEECF53
:103B580000F0EECF01F000C0E9FF01C0EAFFEECFB0
:103B680081F0EECF82F0EECF83F0EECF84F06AC022
:103B7800E9FF6BC0EAFF040EEE24006E000EEE2093
:103B8800016E6AC0E1FF6BC0E2FF00C0E6FF01C042
:103B9800E6FF25D06AC0E9FF6BC0EAFFEECF00F070
:103BA800EECF01F000C0E9FF01C0EAFFEECF81F0DF
:103BB800EECF82F0000E836F846F6AC0E9FF6BC09E
:103BC800EAFF020EEE24006E000EEE20016E6AC0BF
:103BD800E1FF6BC0E2FF00C0E6FF01C0E6FF000E98
:103BE800751902E1000E74190FE1000E006E8419B8
:103BF80008E10050831905E10050821902E1815162
:103C0800000A02E1744B752BC00E7915006E00C0D6
:103C180005F0AED0010E766F76510A0A34E076C010
:103C280000F0000E016E026E036E00360090013641
:103C38000236033600360090013602360336280E67
:103C48000024F66E520E0120F76E000E0220F86E68
:103C58000900F5CF01F00900F5CF02F00900F5CF12
:103C680003F00900F5CF04F00450845D08E1035027
:103C7800835D05E10250825D02E10150815D01E250
:103C880002D0762BC9D782D0010E766F7651080AFA
:103C980034E076C000F0000E016E026E036E00364E
:103CA800009001360236033600360090013602369F
:103CB8000336740E0024F66E520E0120F76E000EC5
:103CC8000220F86E0900F5CF01F00900F5CF02F0E7
:103CD8000900F5CF03F00900F5CF04F00450845D26
:103CE80008E10350835D05E10250825D02E1015065
:103CF800815D01E202D0762BC9D748D0010E766FDC
:103D080076510C0A34E076C000F0000E016E026EA7
:103D1800036E0036009001360236033600360090F6
:103D2800013602360336F80E0024F66E510E0120D5
:103D3800F76E000E0220F86E0900F5CF01F00900B9
:103D4800F5CF02F00900F5CF03F00900F5CF04F034
:103D58000450845D08E10350835D05E10250825DF3
:103D680002E10150815D01E202D0762BC9D70ED065
:103D78000550000AD8B44ED70550C00AD8B44AD75F
:103D88000550800A81E00550400AB8E0800E006EB8
:103D9800800E7519005C02E17451765D03E274C00F
:103DA80076F00DD0800E7519006E800E005C02E171
:103DB8007651745D04E276C074F0000E756F775129
:103DC80078110EE0030E7915006E7AC001F0000E2E
:103DD80001160050011004E0010E775F000E785BB9
:103DE800800E7519006E800E7819005C02E177511B
:103DF800745D05E27451775F7551785B02D0776B1B
:103E0800786BC40E7915016E7A51080B026E025058
:103E1800080A02E1400E011808E17751781104E020
:103E2800010E775F000E785B1CD0C00E7915016E0D
:103E38007A51080B026E0250080A02E1800E01183E
:103E480010E1800E006E800E7819005C02E1775157
:103E5800020805E2020E775F000E785B02D0776BEE
:103E6800786B79A55DD079A312D079A103D02D0EF6
:103E7800706F02D02B0E706F65C0E1FF66C0E2FF65
:103E880070C0E6FF654B662B854B862B34D079A135
:103E98000BD065C0E1FF66C0E2FF200EE66E654B01
:103EA800662B854B862B27D0C00E7915016E7A516B
:103EB800080B026E0250080A02E1800E01181BE18D
:103EC80065C0E1FF66C0E2FF300EE66E654B662B0B
:103ED800854B862B79AB03D0580E716F02D0780EC4
:103EE800716F65C0E1FF66C0E2FF71C0E6FF654B18
:103EF800662B854B862B7751781111E065C0E1FF61
:103F080066C0E2FF300EE66E654B662B854B862B4E
:103F1800010E775F000E785B77517811EFE174D06E
:103F28007751781113E079B711D065C0E1FF66C009
:103F3800E2FF200EE66E654B662B854B862B010E45
:103F4800775F000E785B77517811EFE179A312D093
:103F580079A103D02D0E726F02D02B0E726F65C03F
:103F6800E1FF66C0E2FF72C0E6FF654B662B854B3A
:103F7800862B0CD079A10AD065C0E1FF66C0E2FFAC
:103F8800200EE66E654B662B854B862BC00E791589
:103F9800016E7A51080B026E0250080A02E1400EC7
:103FA80001180BE165C0E1FF66C0E2FF300EE66E66
:103FB800654B662B854B862B27D0C00E7915016E75
:103FC8007A51080B026E0250080A02E1800E0118AD
:103FD8001BE165C0E1FF66C0E2FF300EE66E654B8F
:103FE800662B854B862B79AB03D0580E736F02D0A6
:103FF800780E736F65C0E1FF66C0E2FF73C0E6FF2D
:10400800654B662B854B862B800E006E800E7519CE
:10401800005C02E17451765D0BE265C0E1FF66C0A9
:10402800E2FF300EE66E654B662B854B862BECD790
:1040380074C000F075C001F0010E745F000E755B6E
:1040480000500110D8B42AD1C00E7915006E00C0F6
:1040580087F00AD174C000F075C001F0000E75BF7A
:10406800FF0E026E036E00360090013602360336EC
:1040780000360090013602360336280E0024F66E0C
:10408800520E0120F76E000E0220F86E0900F5CFDF
:1040980004F00900F5CF05F00900F5CF06F0090096
:1040A800F5CF07F081C000F082C001F083C002F0B4
:1040B80084C003F042EC07F00A0E046E000E056E91
:1040C800066E076E42EC07F008C000F009C001F068
:1040D8000AC002F00BC003F0300E0024766FD3D074
:1040E80079AB45D074C000F075C001F0000E75BF03
:1040F800FF0E026E036E003600900136023603365C
:1041080000360090013602360336740E0024F66E2F
:10411800520E0120F76E000E0220F86E0900F5CF4E
:1041280004F00900F5CF05F00900F5CF06F0090005
:10413800F5CF07F081C000F082C001F083C002F023
:1041480084C003F042EC07F00F0E0016000E0116B3
:1041580002160316C70E0024F66E520E0120F76EE3
:10416800000E0220F86E0900F5CF76F044D074C036
:1041780000F075C001F0000E75BFFF0E026E036EF1
:1041880000360090013602360336003600900136BC
:1041980002360336740E0024F66E520E0120F76EB6
:1041A800000E0220F86E0900F5CF04F00900F5CFE3
:1041B80005F00900F5CF06F00900F5CF07F081C03A
:1041C80000F082C001F083C002F084C003F042EC2A
:1041D80007F00F0E0016000E011602160316B60E93
:1041E8000024F66E520E0120F76E000E0220F86EC3
:1041F8000900F5CF76F047D074C000F075C001F023
:10420800000E75BFFF0E026E036E00360090013679
:104218000236033600360090013602360336F80EB1
:104228000024F66E510E0120F76E000E0220F86E83
:104238000900F5CF04F00900F5CF05F00900F5CF26
:1042480006F00900F5CF07F081C000F082C001F048
:1042580083C002F084C003F042EC07F0070E00149C
:10426800766F300E76270FD08751000AD8B4F2D671
:104278008751C00AD8B4EED68751800AD8B430D74F
:104288008751400AB9E065C0E1FF66C0E2FF76C029
:10429800E6FF654B662B854B862BCAD679A71AD0C5
:1042A800800E006E800E7819005C02E177510008DC
:1042B80011E265C0E1FF66C0E2FF200EE66E654BC5
:1042C800662B854B862B010E775F000E785B775146
:1042D8007811EFE169EF11F085C000F086C001F0B8
:0242E8001200C2
:1042EA00B7EC06F0010E00018D6F02EC07F00C0E20
:0C42FA008D6F02EC07F09590838212009B
:104306003E6A3F6A406A416A67C000F068C001F0D1
:1043160069C002F0010E00016727000E68236923B9
:1043260000C0F6FF01C0F7FF02C0F8FF0900F5CF95
:1043360000F000C039F00052D8B47FEF26F03950B3
:10434600250A0BE065C0E1FF66C0E2FF39C0E6FF63
:10435600654B662B3E4A3F2AD7D73A6A3B6A406A84
:10436600416A67C08DF068C08EF069C08FF0A1EC1D
:1043760005F000C067F001C068F002C069F000C037
:10438600F6FF01C0F7FF02C0F8FF0900F5CF00F005
:10439600000E016E00C08DF039EC0AF0005236E0D6
:1043A6003A6A3B6A3AC000F03BC001F00A0E046E5E
:1043B600000E056E8DEC10F067C0F6FF68C0F7FFC3
:1043C60069C0F8FF0900F5CF02F0025000243A6EEA
:1043D600000E01203B6E300E3A5E000E3B5A010E77
:1043E6006727000E6823692367C0F6FF68C0F7FFDA
:1043F60069C0F8FF0900F5CF00F0000E016E00C09D
:104406008DF039EC0AF00052CDE133D067C0F6FFEB
:1044160068C0F7FF69C0F8FF0900F5CF01F0015049
:104426002A0A27E16AC0E9FF6BC0EAFFEECF00F077
:10443600EECF01F000C0E9FF01C0EAFFEECF3AF08F
:10444600EECF3BF06AC0E9FF6BC0EAFF020EEE2436
:10445600006E000EEE20016E6AC0E1FF6BC0E2FF47
:1044660000C0E6FF01C0E6FF010E6727000E6823C5
:10447600692367C0F6FF68C0F7FF69C0F8FF090047
:10448600F5CF01F001502E0A70E1010E6727000EEC
:104496006823692367C0F6FF68C0F7FF69C0F8FFA5
:1044A6000900F5CF01F001502A0A28E16AC0E9FFA8
:1044B6006BC0EAFFEECF00F0EECF01F000C0E9FFDF
:1044C60001C0EAFFEECF3CF0EECF3DF06AC0E9FF57
:1044D6006BC0EAFF020EEE24006E000EEE20016EA7
:1044E6006AC0E1FF6BC0E2FF00C0E6FF01C0E6FF65
:1044F600010E6727000E6823692336D03C6A3D6AA1
:1045060067C0F6FF68C0F7FF69C0F8FF0900F5CF7E
:1045160000F0000E016E00C08DF039EC0AF000527A
:1045260023E03CC000F03DC001F00A0E046E000E10
:10453600056E8DEC10F067C0F6FF68C0F7FF69C026
:10454600F8FF0900F5CF02F0025000243C6E000E81
:1045560001203D6E300E3C5E000E3D5A010E67276F
:10456600000E68236923CCD702D03C6A3D6A67C037
:1045760000F068C001F069C002F0010E6727000E66
:104586006823692300C0F6FF01C0F7FF02C0F8FFE9
:104596000900F5CF39F0EFD03EC000F03FC001F082
:1045A600AFD3408C17D116D1408A408E13D16AC042
:1045B600E9FF6BC0EAFFEECF00F0EECF01F000C0DE
:1045C600E9FF01C0EAFFEECF6CF0EECF6DF06AC0F6
:1045D600E9FF6BC0EAFF020EEE24006E000EEE202D
:1045E600016E6AC0E1FF6BC0E2FF00C0E6FF01C0DA
:1045F600E6FF000E6D1902E1000E6C1904E11C0EB7
:104606006C6F000E6D6F6E6B6F6B6E516C25E96E85
:104616006F516D21EA6EEE520BE0010E6E25006EB3
:10462600000E6F21016E00C06EF001C06FF0EDD775
:104636003C503D100AE06F513D5C02E16E513C5C1E
:1046460004E23CC06EF03DC06FF03B506F5D02E18E
:104656003A506E5D05E26E513A5E6F513B5A02D09A
:104666003A6A3B6A40B616D03AC000F03BC001F049
:10467600010E3A5E000E3B5A005001100BE065C079
:10468600E1FF66C0E2FF200EE66E654B662B3E4AF2
:104696003F2AEAD76EC002F06FC003F0010E6E5DCE
:1046A600006E000E6F59016E00C06EF001C06FF013
:1046B6000250031019E06CC0E9FF6DC0EAFF65C047
:1046C600E1FF66C0E2FFEECFE6FF654B662B010E0B
:1046D6006C25006E000E6D21016E00C06CF001C0ED
:1046E6006DF03E4A3F2AD6D740A616D03AC000F013
:1046F6003BC001F0010E3A5E000E3B5A005001101D
:104706000BE065C0E1FF66C0E2FF200EE66E654B7A
:10471600662B3E4A3F2AEAD7F7D56AC0E9FF6BC047
:10472600EAFFEECF00F0EECF01F000C0E9FF01C0D6
:10473600EAFFEECF39F06AC0E9FF6BC0EAFF020E6E
:10474600EE24006E000EEE20016E6AC0E1FF6BC023
:10475600E2FF00C0E6FF01C0E6FF390E6C6F000EF7
:104766006D6F010E6E6F000E6F6F62D7C00E401236
:10477600000E41122FD03950000AD8B40DD7395047
:104786006C0AD8B40ED739504C0AD8B40AD7395067
:104796006F0AD8B406D73950640AD8B404D739504A
:1047A600690AD8B400D73950700AD8B4FDD6395042
:1047B600580AD8B4F9D63950780AD8B4F6D639504A
:1047C600730AD8B4F4D63950630AA7E03950750A8B
:1047D600CDE0C3D7C00E4014016E41C002F0000EFA
:1047E6000216000E021802E1000E01183BE16AC033
:1047F600E9FF6BC0EAFFEECF00F0EECF01F000C09C
:10480600E9FF01C0EAFFEECF6CF0EECF6DF06AC0B3
:10481600E9FF6BC0EAFF020EEE24006E000EEE20EA
:10482600016E6AC0E1FF6BC0E2FF00C0E6FF01C097
:10483600E6FF800E6D19006E800E005C02E1000E30
:104846006C5D0FE2030E4012000E41126C5100081F
:10485600006E6DC001F0000E015600C06CF001C084
:104866006DF022D06AC0E9FF6BC0EAFFEECF00F020
:10487600EECF01F000C0E9FF01C0EAFFEECF6CF019
:10488600EECF6DF06AC0E9FF6BC0EAFF020EEE24C0
:10489600006E000EEE20016E6AC0E1FF6BC0E2FF03
:1048A60000C0E6FF01C0E6FF000E3D1802E1000E63
:1048B6003C1808E1000E6D1902E1000E6C1902E1C8
:1048C6003C4A3D2AC00E4014006E00C005F07ED062
:1048D600010E396E3950050A24E0000139C000F096
:1048E600000E016E026E036E00360090013602362F
:1048F6000336F00E0024F66E520E0120F76E000EFF
:104906000220F86E0900F5CF01F00900F5CF02F09C
:1049160002506D5D02E101506C5D01E202D0392A60
:10492600D9D762D0010E396E3950040A24E000014D
:1049360039C000F0000E016E026E036E0036009064
:10494600013602360336030E0024F66E530E01209E
:10495600F76E000E0220F86E0900F5CF01F009008F
:10496600F5CF02F002506D5D02E101506C5D01E28F
:1049760002D0392AD9D738D0010E396E3950060AF5
:1049860024E0000139C000F0000E016E026E036ED5
:1049960000360090013602360336E40E0024F66E29
:1049A600520E0120F76E000E0220F86E0900F5CFB8
:1049B60001F00900F5CF02F002506D5D02E10150F1
:1049C6006C5D01E202D0392AD9D70ED00550000A13
:1049D600D8B47ED70550C00AD8B47AD70550800A15
:1049E600A1E00550400AC8E0800E006E800E3D181A
:1049F600005C02E13C50395C03E23CC039F00DD06A
:104A0600800E3D18006E800E005C02E139503C5C61
:104A160004E239C03CF0000E3D6E3A503B100EE009
:104A2600030E4014006E41C001F0000E0116005046
:104A3600011004E0010E3A5E000E3B5A800E3D184E
:104A4600006E800E3B18005C02E13A503C5C05E2C9
:104A56003C503A5E3D503B5A02D03A6A3B6AC40E1D
:104A66004014016E4150080B026E0250080A02E122
:104A7600400E011808E13A503B1004E0010E3A5E80
:104A8600000E3B5A1CD0C00E4014016E4150080B5C
:104A9600026E0250080A02E1800E011810E1800E33
:104AA600006E800E3B18005C02E13A50020805E2F7
:104AB600020E3A5E000E3B5A02D03A6A3B6A65C065
:104AC6008DF066C08EF0B9EC0DF000C065F001C047
:104AD60066F03CC000F03DC001F0010E3C5E000EE9
:104AE6003D5A00500110D8B4E8D0C00E4014006EF4
:104AF60000C070F0C6D03CC000F03DC001F0000E12
:104B06003DBEFF0E026E036E003600900136023681
:104B16000336F00E0024F66E520E0120F76E000EDC
:104B26000220F86E0900F5CF04F00900F5CF05F074
:104B36006CC000F06DC001F09EEC0DF00A0E046E24
:104B4600000E056E9EEC0DF008C000F009C001F0E5
:104B5600300E0024396EA5D040AA35D03CC000F0F6
:104B66003DC001F0000E3DBEFF0E026E036E003624
:104B76000090013602360336030E0024F66E530EFD
:104B86000120F76E000E0220F86E0900F5CF04F042
:104B96000900F5CF05F06CC000F06DC001F09EEC89
:104BA6000DF00F0E0016000E0116A50E0024F66E6F
:104BB600520E0120F76E000EF86E000EF822090064
:104BC600F5CF39F034D03CC000F03DC001F0000E06
:104BD6003DBEFF0E026E036E0036009001360236B1
:104BE6000336030E0024F66E530E0120F76E000EF8
:104BF6000220F86E0900F5CF04F00900F5CF05F0A4
:104C06006CC000F06DC001F09EEC0DF00F0E0016AA
:104C1600000E0116940E0024F66E520E0120F76E59
:104C2600000EF86E000EF8220900F5CF39F039D0E3
:104C36003CC000F03DC001F0000E3DBEFF0E026E0E
:104C4600036E00360090013602360336E40E002469
:104C5600F66E520E0120F76E000E0220F86E090065
:104C6600F5CF04F00900F5CF05F06CC000F06DC07B
:104C760001F09EEC0DF0070E0014396E300E392649
:104C860010D000017051000AD8B435D77051C00A4F
:104C9600D8B431D77051800AD8B45ED77051400A63
:104CA600C7E0000165C0E1FF66C0E2FF39C0E6FF6C
:104CB600654B662B3E4A3F2A0CD740A61BD0800E7A
:104CC600006E800E3B18005C02E13A50000812E2CA
:104CD600000165C0E1FF66C0E2FF200EE66E654B8F
:104CE600662B3E4A3F2A010E3A5E000E3B5A3A5068
:104CF6003B10EEE187EF21F03EC000F03FC001F02F
:024D0600120099
:0E4D0800429065C08DF002EC07F04280120070
:104D1600220E0C6E086A096A0A6A0B6A0C06D8B477
:104D26001FD0D8900B320A320932083203320232CF
:104D360001320032D8A0F2D70C06D8B409D00450FC
:104D460008260550092206500A2207500B22EAD7E8
:104D5600045008260550092206500A2207500B2245
:024D6600120039
:104D6800C26A211C006E0050C1160F0EC012C08E00
:104D780065C000F000360090003600900050C21266
:104D8800C28016EC0FF0C282C2A201D0FDD7C4CFF8
:104D980001F0006A00C066F001C067F0C35000125D
:104DA800000E011200C066F001C067F0C290000E4C
:104DB8000014026E0150800B036E000E031802E10E
:104DC800000E021803E00001666B676B66C000F016
:064DD80067C001F01200AB
:104DDE005C0E0001606F000E616F57C065F058C029
:104DEE0066F059C067F05AC068F05BC069F0600E9B
:104DFE006A6F000E6B6F83EC21F000C05EF001C095
:104E0E005FF000505724E16E01505820E26EE66AC2
:0A4E1E005EC000F05FC001F012005A
:104E28000050086E0150006E0250016E0350026E71
:104E3800036A0B6A0C6A9E0E036E0A6A02AE31EFB1
:104E480027F0081E001E011E021E082AD8B4002AD8
:104E5800D8B4012AD8B4022A0A8E020E0C6E32EC9B
:044E680000F0120044
:104E6C000900F5CFE6FF0006FBE10106F9E11200AF
:104E7C00F26A0F0E0F01386F396B3A6B3B6B836A1A
:104E8C00C16AFF0E926E936A956AF80E966E9592B1
:104E9C0075EC21F0020E0B6E040E0C6EBA0E0D6E3C
:104EAC000D2EFED70C2EFCD70B2EFAD700001200BD
:104EBC005C0E0001636F000E646F57C065F058C044
:104ECC0066F059C067F05AC068F05BC069F0630EB9
:104EDC006A6F000E6B6F64EC11F000C061F001C0E2
:104EEC0062F000505724E16E01505820E26EE66AE1
:0A4EFC0061C000F062C001F0120076
:104F060057C065F02EDF000E01BEFF0E026E036E67
:104F1600B80E046E0B0E056E000E066E076EF8DEFA
:104F2600FF0E046E030E056E000E066E076EB5ECE0
:044F360010F0120065
:104F3A000FD0800E576E19D0C00E576E16D0940E31
:104F4A00576E13D0D40E576E10D0800E576E0DD0F8
:104F5A005750010AEEE05750020AEEE05750030A92
:104F6A00EEE05750040AEEE0F0D75804006E5750AE
:104F7A00002600C057F000C08DF002EC07F0429006
:104F8A005B6A5B505924E96E000E5A20EA6EEE52B3
:104F9A000BE05B505924E96E000E5A20EA6EEECF00
:0C4FAA0065F0ADDE5B2AEDD742801200FE
:104FB6008AEC29F060DF010E576E020E586E2A0E3B
:104FC600596E000E5A6EB6DF020E576E050E586EFB
:104FD600220E596E000E5A6EADDF150E0B6E4B0E7D
:104FE6000C6EBE0E0D6E0D2EFED70C2EFCD70B2EA4
:104FF600FAD70000010E8D6F02EC07F08380576A26
:105006007FDF0A0E046E000E056E9EEC0DF000C0EA
:105016005CF001C05DF0430E576E000E586EFA0E3E
:10502600596E520E5A6E000E5B6ED6DE010E576E2C
:10503600010E586E430E596E000E5A6E7BDF040E3B
:105046000B6E0C0E0C6E330E0D6E0D2EFED70C2E47
:10505600FCD70B2EFAD700000000010E576E50DF6A
:105066000A0E046E000E056E9EEC0DF000C05CF09C
:1050760001C05DF0430E576E000E586E0F0E596E4E
:10508600530E5A6E000E5B6EA7DE010E576E0C0EA7
:10509600586E430E596E000E5A6E4CDF040E0B6EA0
:1050A6000C0E0C6E330E0D6E0D2EFED70C2EFCD78D
:1050B6000B2EFAD700000000020E576E21DFB1DE7C
:1050C600000E046E000E056E480E066E850E076E07
:1050D600CFEC0FF000C05CF001C05DF002C05EF0E6
:1050E60003C05FF0430E576E000E586ED80E596E11
:1050F600520E5A6E000E5B6EDEDE020E576E010E0B
:10510600586E430E596E000E5A6E14DF040E0B6E67
:105116000C0E0C6E330E0D6E0D2EFED70C2EFCD71C
:105126000B2EFAD700000000030E576EE9DE0A0EBA
:10513600046E000E056E9EEC0DF000C05CF001C022
:105146005DF0430E576E000E586E0B0E596E530EE1
:105156005A6E000E5B6E40DE020E576E0D0E586ED6
:10516600430E596E000E5A6EE5DE040E0B6E0C0EE3
:105176000C6E330E0D6E0D2EFED70C2EFCD70B2E9D
:0A518600FAD7000000003BD7FFD766
:1053140010EE15F0240E006E010E016E500EF66EA6
:0E532400520EF76E000EF86E36EC27F01200F7
:105190000000007F000020820000488500007A881F
:1051A00000401C8C0050438F002474928096189607
:1051B00020BC3E99286B6E9CF90215A0EC782DC19D
:0451C000CAF249E204
:1051C4000000007FCDCC4C7B0AD723786F12037587
:1051D40017B75171ACC5276EBD37066B95BF5667BF
:1051E40077CC2B645F700961FFE65B5D08E53C3CAE
:0451F4006042221BD8
:1051F800010000000800000040000000000200005C
:1052080000100000008000000000040000002000E2
:10521800000000010000000800000040000000003D
:10522800010000000A00000064000000E80300001C
:1052380010270000A086010040420F0080969800C9
:0852480000E1F50500CA9A3BE4
:07525000286E756C6C29004B
:055257006E756C6C0097
:01525C000F42
:08525D004E422D3430305700A1
:0F5265004A534D20456E67656E6861726961003E
:105274000100000010000000000100000010000008
:1052840000000100000010000000000100000010F8
:1052940030313233343536373839616263646566A8
:0152A4000009
:1052A5003031323334353637383941424344454657
:0152B50000F8
:1052B6003031323334353637383961626364656686
:0152C60000E7
:1052C7003031323334353637383941424344454635
:0152D70000D6
:0C52D8004261742E3A25322E31665600D9
:0C52E400010008004000000200100080E3
:0A52F00001000A006400E803102723
:0952FA00526564653A2575560001
:08530300010010000001001080
:04530B0025755600AE
:04530F0025755600AA
:020000040030CA
:0D000100230F3CFFBF81FF0FC00FE00F4039
:00000001FF
